:0400000081EF00F09C
:10000800B209B209B209B2094000B2094000B20906
:10001800AC09B209B209B209B209B209B209B20906
:10002800B209400040004000B209B209B209B20961
:10003800B209B209B209AE09B209B209B209B209E4
:10004800B209B209B209B20940004000B209B209C6
:10005800B209B209B2094000B209B209B209B2093B
:10006800B209B209B209B209B209B209B209B209B0
:10007800B209B209B209B2094000B209B209B2091B
:10008800B209B209B209B209B209B209B209B20990
:10009800B009B209B209B2094000B20940004000F3
:1000A800B209B209B209B209B209B209B209B20970
:1000B800B209B209B209B209B209B209B209B20960
:1000C800B209B209B209B209B209B209B209B20950
:1000D800B209B209B209B209B209B209B209B20940
:1000E8004000B209B209B209400040004000400097
:0E00F800B209B209B209B209FF0019EF13F004
:102500000000000E076E01C5D9F402C5DAF4DE281A
:1025100006E1DE28D8A403D0010E076E1AD001C54B
:10252000D9F402C5DAF4DE2A000EDD2201C5D9F4A1
:1025300002C5DAF40350DE5C0450DE58D8A009D09E
:1025400001C5D9F402C5DAF4FF0EDE6EFF0EDD6EB2
:10255000E3D707501200080E0001B16F0401089183
:102560000981C780D690AF909F80F00E006F000E5B
:10257000BE6EF00EC66E02EC13F029EC13F0000EE6
:102580000B6E000E0A6E000E096E0F900E80D68E36
:102590000C0E016E050E026E50EC13F012000C0EC4
:1025A000016E050E026E000E046EC80E036E81EC05
:1025B00012F0086E0850D8B408D00A2A0F800C0E0A
:1025C000016E050E026E50EC13F0EAEC12F039ECDD
:1025D00013F01200720E0918D8B4FF007A0E091811
:1025E000D8A404D0000E0A6E000E096E750E0918EC
:1025F000D8A412000EB002D00E8001D00E90000EB2
:10260000096E1200010E0201D56FA00ED46FD189A0
:10261000D18B0401009FC68E070E0201766F040164
:10262000009DBE8CC69C260E0201076FD28FA7802C
:1026300012000F6A0D6A0C6A0B6A0A6A096A0401C1
:10264000080E5D6F000E5E6F000E5F6F000146EFBB
:1026500013F0010E0301266F000E256F000E276F89
:102660007C0E236F000E226FB196A186F00E246FB0
:1026700012000A500F0BBE6E0FA012000EB0B7A2D0
:1026800003D02B0E0201C96F0F901200ABEC12F0B9
:10269000040E0B64FDD7000E0B6ECFEC12F0F8D7D2
:0E26A00001C5D9F402C5DAF4DE6ADD6A120063
:0626B000AF900A2A1100A0
:0626B800B1960B2A11008F
:0626C000C7C209F511007C
:0226C8001100FF
:020000040030CA
:080000008CFFFFF79FFFFFFFDB
:01000900FFF7
:00000001FF
