:0400000081EF00F09C
:10000800E60BE60BE60BE60B4000E60B4000E60BC2
:10001800E30BE60BE60BE60BE60BE60BE60BE60B53
:10002800E60B400040004000E60BE60BE60BE60B53
:10003800E60BE60BE60BE10BE60BE60BE60BE60B35
:10004800E60BE60BE60BE60B40004000E60BE60B82
:10005800E60BE60BE60B4000E60BE60BE60BE60BC1
:10006800E60BE60BE60BE60BE60BE60BE60BE60B00
:100078009F0BA40BC10AB7094000E60BE60BE60B81
:10008800E60BE60BE60BE60BE60BE60BE60BE60BE0
:100098006E0B5B0BE60BE60B4000E60B40004000E6
:1000A800E60BE60BE60BE60BE60BE60BE60BE60BC0
:1000B800E60BE60BE60BE60BE60BE60BE60BE60BB0
:1000C800E60BE60BE60BE60BE60BE60BE60BE60BA0
:1000D800E60BE60BE60BE60BE60BE60BE60BE60B90
:1000E8004000E60BE60BE60B4000400040004000F5
:0E00F800E60BE60BE60BE60BFF0027EF16F01B
:1025000000B429000000008A2500000000F829001E
:1025100000000000000000000000000000000000BB
:1025200000000000000000000000006E2700000016
:1025300000802A000000003C2A000000000000008B
:10254000642E00342E000000003031323334353632
:1025500037383941424344454602400003000240B7
:1025600000000053746174757320697320415741F2
:102570004B452E0D0A0053746174757320697320E6
:1025800052455345542E0D0A00003E6E000184BF93
:1025900012003E50050DF350590F3C6E3CC5F6F449
:1025A000250EF76E000EF86E0800F5C484F03E505C
:1025B000050DF3C43CF5010E3C263C50590F3D6E11
:1025C0003DC5F6F4250EF76E000EF86E0800F5C452
:1025D00085F03E50050DF3C43CF5020E3C263C5000
:1025E000590F3D6E3DC5F6F4250EF76E000EF86EE0
:1025F0000800F550FC0B866F3E50050DF3C43CF50A
:10260000030E3C263C50590F3D6E3DC5F6F4250E99
:10261000F76E000EF86E0800F5C489F03E50050D07
:10262000F3C43CF5040E3C263C50590F3D6E3DC5AD
:10263000F6F4250EF76E000EF86E0800F5C48CF067
:10264000C898848F12003AD032EC17F00009D8A451
:102650001200120E2F6E000E3E6E200E3D6E2F0EDB
:102660003F6E050E406E000E426E010E416E350E3D
:10267000436E050E446E000E466E010E456E1EEC56
:1026800015F0010E236E120032EC17F00009D8A4E9
:102690001200150E2F6E35C530F5000E3E6E200E61
:1026A0003D6E2F0E3F6E050E406E000E426E020E06
:1026B000416E40EC15F0000E236E12002350476E61
:1026C000486A4850000AD8A4F6D74750000AD8B440
:0A26D000BBD7010AD8B4D8D7EED763
:1026DC00FAC438F5FBC439F574EC17F00009D8B41A
:1026EC0006D0030E1D6E979BBFEC15F026D08DEC1B
:1026FC0017F00009D8B40BD07BEC17F00009D8B454
:10270C0006D0010E1D6E9799FEEC16F016D081ECDA
:10271C0017F00009D8B407D07BEC17F00009D8B437
:10272C0002D0020EEFD787EC17F00009D8B404D012
:10273C00030E1D6E979D01D097991D50D8B40CD0E7
:10274C0001D80AD00500FA6E1E50FD6E1F50FE6EA9
:10275C002050FF6EFA50120039C5FBF438C5FAF45C
:10276C001100040110951097C084C086C894C896B7
:10277C000C0E126F010E0201876F120E716F370E65
:10278C00136F130E706F380E146F040E946F800E4F
:10279C00956F080E966F030E9C6F000E9A6F000ECD
:1027AC009B6F000E976F000E8D6F510E876F52EC62
:1027BC0017F09B919B95948F050EE82EFED7000089
:1027CC0000000000000000000000000002019A91CF
:1027DC009A959B85960E3C6E2F0E3D6E000E3E6EAE
:1027EC001AEC17F01200330E3C6E050E3D6E000E07
:1027FC003F6EC80E3E6E8FEC14F0496E4950D8B443
:10280C0007D0242A330E3C6E050E3D6E6DEC17F08E
:10281C00310E3C6E050E3D6E000E3F6E280E3E6E68
:10282C008FEC14F0496E4950D8B407D04A82310E5F
:10283C003C6E050E3D6E6DEC17F02CEC14F026EC96
:10284C0017F023EC13F062EC15F012003EEC16F0CE
:10285C00406E16D0FF0012000300630E3D6E0FECAD
:10286C0016F012004AB002D04A8012004A901200B0
:10287C00630E3D6E0FEC16F01200000E246E12006B
:10288C0040503E6E3F6A3F50000AD8A412003E50A2
:10289C00720AD8B4DFD7010AD8B4DED7060AD8B486
:1028AC00E1D7020AD8B4E4D70D0AD8A41200E5D7B0
:1028BC00040108910981C780D690AF909F80F00EDB
:1028CC00006F000EBE6EF00EC66EB7EC14F0B7ECD7
:1028DC0013F0DAEC14F0000E246E4A924A80000ECB
:1028EC00236E000E226ED68E760E3D6E0FEC16F019
:1028FC00DCEC15F0A1EC15F0330E3C6E050E3D6EC4
:10290C006DEC17F0310E3C6E050E3D6E6DEC17F054
:10291C001200000E426E3CC5D9F43DC5DAF4DE2837
:10292C0003E1DE28D8B41BD03CC5D9F43DC5DAF49C
:10293C00DE2A000EDD223CC5D9F43DC5DAF43E504A
:10294C00DE5C3F50DE58D8A00AD03CC5D9F43DC55A
:10295C00DAF4FF0EDE6EFF0EDD6E010E426E42509B
:10296C001200010E0201D56FA00ED46FD189D18B4C
:10297C000401009FC68E070E0201766F0401009DB4
:10298C00BE8CC69C260E0201076FD28FA780000E4C
:10299C002A6E000E296E000E286E000E276E000E99
:1029AC00266E000E256E120004011099C888109B2B
:1029BC00C88A109DC88C109FC08EC89E150E02012F
:1029CC006B6F320E176F140E6A6F310E156FA19468
:1029DC00A192A190000E0001846F000E856F000E75
:1029EC00866F000E896F000E8C6F12003CC540F58F
:1029FC003DC541F53FC583F03EC582F000018651CF
:102A0C000309866F10D040C5D9F441C5DAF4DF5004
:102A1C00816FB1A0FED740C5D9F441C5DAF480C0AE
:102A2C00DFF4404A412A00018AADEDD78A9D12009D
:102A3C0032EC17F00009D8A41200010E116E3DC53E
:102A4C0012F53EC513F5010E1C6E3FC514F540C5BD
:102A5C0015F541C516F542C517F543C518F544C51E
:102A6C0019F545C51AF546C51BF5000E1D6EC9ECCA
:102A7C0016F0120032EC17F00009D8A41200010E67
:102A8C00116E3DC512F53EC513F5000E1C6E3FC50B
:102A9C0014F540C515F541C516F542C517F5000EE0
:102AAC00186E000E196E000E1B6E000E1A6E000EC4
:102ABC001D6EC9EC16F012000FD0120E67EC16F05A
:102ACC00216E010E226E120021C542F5150E53EC3B
:102ADC0016F0000E226E12002250446E456A4550CC
:102AEC00000AD8A4F6D74450000AD8B4E6D7010A95
:062AFC00D8B4EAD7EED7C2
:102B040002019BB59AA503D07BEC16F011009BBF84
:102B14009AAF0DD01C50D8B407D0000E1C6E9A91F9
:102B24009A9F0CEC17F01100FEEC16F0EDD79BA366
:102B340011009AA31100B9EC17F09A931100C08EFA
:102B4400000EC5EC12F0000E426E0A0E53EC16F0A5
:102B5400FF0E426E000E53EC16F00F0E426E0C0E7A
:102B640053EC16F0F00E426E010E53EC16F0000E0C
:102B7400426E150E53EC16F01200A7EC17F0ABECF6
:102B840017F064EC17F0AFEC17F0949F5BEC17F0C0
:102B94009B919B95948F050EE82EFED700000000B4
:102BA4000000000000000000000002019A919A95C4
:102BB4009B851200000E436E0A0EF6EC15F0FF0E14
:102BC400436E000EF6EC15F00F0E436E0C0EF6EC91
:102BD40015F0F00E436E010EF6EC15F0000E436E88
:102BE400150EF6EC15F01200446E44C52FF543C5DE
:102BF40030F5000E3E6E200E3D6E2F0E3F6E050E1C
:102C0400406E000E426E020E416E40EC15F032EC46
:102C140017F00009D8B41200FAD70BD03DC5F6F46A
:102C2400250EF76E000EF86E0800F550A2EC16F0B3
:102C34003D2A3DC5F6F4250EF76E000EF86E080029
:102C4400F5500009D8B41200E9D701EE60F1100E76
:102C5400EE6AE806FDE14A6A01EE01F1350EEE6A1C
:102C6400E806FDE10401080E5D6F000E5E6F000EC4
:102C74005F6F00018FEF16F0000E3C6E2850D8B441
:102C84000ED0010E2924D96EDA6A050EDA22DF503D
:102C94003C6E29280F0B296EA7902806A7803C506C
:102CA4001200436E400E2C6E43C52DF542C52EF521
:102CB400C09E2C0E3C6E050E3D6E000E3F6E030E44
:102CC4003E6EFCEC14F0C08E1200410E2C6E120EFF
:102CD4002D6E000E2E6EC09E2C0E3C6E050E3D6EAB
:102CE400000E3F6E030E3E6EFCEC14F0C08E2E50B0
:102CF4001200000E116E000E136E1268000E146E98
:102D0400000E156E000E186E000E196EA7EC17F06B
:102D1400ABEC17F0AFEC17F01200080E0001B16F26
:102D24005EEC14F0D69EEEEC16F0000E2B6ED68EF2
:102D3400040E2B64FDD7000E2B6EF9EC13F0F8D7BC
:102D44003C6E100E25600DD0600E2724D96EDA6A11
:102D5400050EDA223CC5DFF427280F0B276EA79255
:062D6400252AA7821200DF
:102D6C002550D8B40ED0600E2624D96EDA6A050E22
:102D7C00DA22DF500201C96F26280F0B266E2506BA
:102D8C001100A792110016501710D8B407D0165086
:102D9C0093EC17F01C50D8A4B6EC17F01250122478
:0A2DAC0097EC17F0B3EC17F01200DB
:102DB800C7C23BF5100E28601100010E2A24D96EF7
:102DC800DA6A050EDA223BC5DFF42A280F0B2A6ED1
:102DD800282A1100010E0301266F000E256F000E30
:102DE800276F7C0E236F000E226FB196A186F00E1E
:102DF800246F1200B9EC17F0C9EC17F00009D8B429
:102E08001200000E9FEC17F0000E9BEC17F012005A
:102E18001A501B10D8B403D01A509FEC17F0D88062
:102E28001234A3EC17F0BCEC17F012003C503D1024
:102E38003E10D8B412003CC51EF53DC51FF53EC571
:102E480020F5120024500F0BBE6E4AA212004AA0B1
:102E580003D02B0EA2EC16F04A921200010E3C6E23
:102E68001150D8A405D0020198AF02D0000E3C6ED4
:102E78003C501200BFEC17F018C5D9F419C5DAF4A4
:102E8800DF6E184A192A110014C5D9F415C5DAF4E9
:102E9800144A152ADF509BEC17F01100A584A5866B
:102EA800A580A5829B859B839B8F97811200A58413
:102EB800A586A580A5829B859B839B8F9781120001
:102EC800A594A596A590A592000E9B6F000E976FEE
:102ED80012003CC5D9F43DC5DAF4DE6ADD6A120099
:102EE800020197AB02D0010E1200000E120095AB42
:102EF80002D0010E1200000E120098A702D0010E97
:102F08001200000E120097AD02D0010E1200000E42
:102F1800120098B702D0010E1200000E12003C6E8B
:102F28003CC58DF212003C6E3CC58FF212003A6E21
:102F38003AC58CF21200376E37C58DF21200366E24
:102F480036C58FF21200000E02019A6F1200979B8D
:102F5800979D97991200000E996F998512000201AA
:102F6800948B12000201948D12000201949D1200AC
:102F78000201948B120002018B511200B1962B2A88
:022F8800110036
:0E2F8C00AF90242A11008D5112001200110086
:020000040030CA
:080000008CFFFFF79FFFFFFFDB
:01000900FFF7
:00000001FF
