:0400000081EF00F09C
:100008008B0C8B0C8B0C8B0C40008B0C40008B0CDE
:10001800850C8B0C8B0C8B0C8B0C8B0C8B0C8B0C26
:100028008B0C4000400040008B0C8B0C8B0C8B0C15
:100038008B0C8B0C8B0C830C8B0C6D0B4F0B8B0C64
:100048008B0C8B0C8B0C8B0C400040008B0C8B0C9E
:100058008B0C8B0C8B0C40008B0C8B0C8B0C8B0C37
:100068008B0C8B0C8B0C890C8B0C8B0C8B0C8B0CD2
:10007800320C370C300BE30940008B0C8B0C8B0CCB
:100088008B0C8B0C8B0C8B0C8B0C8B0C8B0C8B0CB0
:10009800070CF40B8B0C8B0C40008B0C40004000C1
:1000A8008B0C8B0C8B0C8B0C8B0C8B0C8B0C8B0C90
:1000B8008B0C8B0C8B0C8B0C8B0C8B0C8B0C8B0C80
:1000C8008B0C8B0C8B0C8B0C8B0C8B0C8B0C8B0C70
:1000D8008B0C8B0C8B0C8B0C8B0C8B0C8B0C8B0C60
:1000E80040008B0C8B0C8B0C400040004000400003
:0E00F8008B0C8B0C8B0C8B0CFF0059EF17F050
:1025000000F22A00000000A62500000000362B0083
:1025100000000000000000000000000000000000BB
:1025200000000000000000000000001E2800000065
:1025300000BE2B000000007A2B000000000000000D
:10254000B03000983000000000642A00E83100003C
:10255000000000000026310000000030313233342A
:10256000353637383941424344454602400003007E
:102570000240000000537461747573206973204138
:1025800057414B452E0D0A005374617475732069D1
:10259000732052455345542E0D0A00286363702959
:1025A00020000D0A0000466E000184BF1200465054
:1025B000050DF3506B0F446E44C5F6F4250EF76E0F
:1025C000000EF86E0800F5C484F04650050DF3C403
:1025D00044F5010E442644506B0F456E45C5F6F494
:1025E000250EF76E000EF86E0800F5C485F0465013
:1025F000050DF3C444F5020E442644506B0F456E9E
:1026000045C5F6F4250EF76E000EF86E0800F5507D
:10261000FC0B866F4650050DF3C444F5030E4426AB
:1026200044506B0F456E45C5F6F4250EF76E000E4F
:10263000F86E0800F5C489F04650050DF3C444F562
:10264000040E442644506B0F456E45C5F6F4250E26
:10265000F76E000EF86E0800F5C48CF0C898848FF1
:102660001200040108910981C780D690AF909F8025
:10267000F00E006F000EBE6EF00EC66E56EC15F03A
:102680000FEC14F079EC15F0B8EC14F00FEC17F037
:1026900001EC16F032EC15F0000E246E51945182CC
:1026A000000E236E000E226E000E206E000E1F6EB6
:1026B0005190D68E880E456E41EC17F0F5EC16F071
:1026C0007FEC16F00DEC19F09C0E446E310E456E49
:1026D000000E466EA1EC18F0F4EC18F0330E446EC8
:1026E000050E456EA8EC18F0310E446E050E456ED1
:1026F000A8EC18F012003AD058EC18F00009D8A451
:102700001200120E2F6E000E466E200E456E2F0E1A
:10271000476E050E486E000E4A6E010E496E350E6C
:102720004B6E050E4C6E000E4E6E010E4D6EBDECE6
:1027300015F0010E236E120058EC18F00009D8A411
:102740001200150E2F6E35C530F5000E466E200EA8
:10275000456E2F0E476E050E486E000E4A6E020E35
:10276000496EDFEC15F0000E236E120023504F6E01
:10277000506A5050000AD8A4F6D74F50000AD8B477
:0A278000BBD7010AD8B4D8D7EED7B2
:10278C00FAC438F5FBC439F5AFEC18F00009D8B42D
:10279C0006D0030E0D6E979BBCEC16F026D0C8EC41
:1027AC0018F00009D8B40BD0B6EC18F00009D8B466
:1027BC0006D0010E0D6E979930EC18F016D0BCECCB
:1027CC0018F00009D8B407D0B6EC18F00009D8B44A
:1027DC0002D0020EEFD7C2EC18F00009D8B404D026
:1027EC00030E0D6E979D01D097990D50D8B40CD057
:1027FC0001D80AD00500FA6E1A50FD6E1B50FE6E01
:10280C001C50FF6EFA50120039C5FBF438C5FAF4AF
:10281C00110004011095C084C8941097C086C89606
:10282C000C0E126F010E0201876F120E716F370EB4
:10283C00136F130E706F380E146F040E946F800E9E
:10284C00956F080E966F030E9C6F000E9A6F000E1C
:10285C009B6F000E976F000E8D6F510E876F78EC8B
:10286C0018F09B919B95948F050EE82EFED70000D7
:10287C0000000000000000000000000002019A911E
:10288C009A959B85280E446E320E456E000E466E50
:10289C004CEC18F01200330E446E050E456E000E13
:1028AC00476EC80E466EE3EC14F00501806F805144
:1028BC00D8B407D0242A330E446E050E456EA8EC0E
:1028CC0018F0310E446E050E456E000E476E280E44
:1028DC00466EE3EC14F00501806F8051D8B407D03C
:1028EC005184310E446E050E456EA8EC18F086EC42
:1028FC0014F022EC16F07BEC13F041EC16F0120005
:10290C0070EC17F0486E16D0FF0012000300750E25
:10291C00456E41EC17F0120051B202D051821200F8
:10292C0051921200750E456E41EC17F01200000E1C
:10293C00246E12004850466E476A4750000AD8A4CD
:10294C0012004650720AD8B4DFD7010AD8B4DED7C9
:10295C00060AD8B4E1D7020AD8B4E4D70D0AD8A431
:10296C001200E5D7040108930983C78208950985ED
:10297C00C7840099BE98C698090E0201636F0A0EAF
:10298C00646F010E056F000E0001D56F0C0ED76F32
:10299C00020ED86F030ED96F020EDA6F030EDB6FC7
:1029AC00010EDC6F040EDD6F000EDE6F000EDF6FAC
:1029BC00000ED46F820ED66F1200000E4A6E44C504
:1029CC00D9F445C5DAF4DE2803E1DE28D8B41BD0EF
:1029DC0044C5D9F445C5DAF4DE2A000EDD2244C51F
:1029EC00D9F445C5DAF44650DE5C4750DE58D8A021
:1029FC000AD044C5D9F445C5DAF4FF0EDE6EFF0EDD
:102A0C00DD6E010E4A6E4A501200476E47C545F501
:102A1C00453A0F0E45160F0E451645505B0F466E88
:102A2C0046C5F6F4250EF76E000EF86E0800F5504C
:102A3C00D4EC17F047C545F50F0E451645505B0F06
:102A4C00466E46C5F6F4250EF76E000EF86E0800BD
:102A5C00F550D4EC17F012001E91000E1F6F000EF3
:102A6C00206F060E216F1D691C691D51476E1C518C
:102A7C001D6E47C51EF5000E446E000E456E000E11
:102A8C00466E93EC18F0300E446E320E456E000E0E
:102A9C00466E9AEC18F0B198B19A370E1E6F120070
:102AAC00010E0201D56FA00ED46FD189D18B040118
:102ABC00009FC68E070E0201766F0401009DBE8C2E
:102ACC00C69C260E0201076FD28FA780000E2A6EBD
:102ADC00000E296E000E286E000E276E000E266E5C
:102AEC00000E256E120004011099C888109BC88A2C
:102AFC00109DC88C109FC08EC89E150E02016B6F66
:102B0C00320E176F140E6A6F310E156FA194A192CD
:102B1C00A190000E0001846F000E856F000E866F71
:102B2C00000E896F000E8C6F120044C548F545C528
:102B3C0049F547C583F046C582F00001865103096B
:102B4C00866F10D048C5D9F449C5DAF4DF50816FCF
:102B5C00B1A0FED748C5D9F449C5DAF480C0DFF47A
:102B6C00484A492A00018AADEDD78A9D120058ECDB
:102B7C0018F00009D8A41200010E016E45C502F52B
:102B8C0046C503F5010E0C6E47C504F548C505F5A1
:102B9C0049C506F54AC507F54BC508F54CC509F5F9
:102BAC004DC50AF54EC50BF5000E0D6EFBEC17F07E
:102BBC00120058EC18F00009D8A41200010E016E96
:102BCC0045C502F546C503F5000E0C6E47C504F568
:102BDC0048C505F549C506F54AC507F5000E086E4A
:102BEC00000E096E000E0B6E000E0A6E000E0D6EBE
:102BFC00FBEC17F01200089B098BC78A0D0E020123
:102C0C004F6F150E0E6F840E0301426F000E436F53
:102C1C00000E416F000E406F2E0E446E320E456E4C
:102C2C00000E466EA1EC18F003014C51FC0B01098F
:102C3C004C6FB19CA18C120024500F0BBE6E51A492
:102C4C0006D051A203D02B0ED4EC17F0519451A006
:102C5C001200D69EA20E456E41EC17F020500BECE4
:102C6C0015F01F500BEC15F09B0E456E41EC17F058
:102C7C00D68E519012000FD0120E99EC17F0216ED7
:102C8C00010E226E120021C54AF5150E85EC17F0C7
:102C9C00000E226E120022504C6E4D6A4D50000AEE
:102CAC00D8A4F6D74C50000AD8B4E6D7010AD8B449
:102CBC00EAD7EED702019BB59AA503D0ADEC17F07D
:102CCC0011009BBF9AAF0DD00C50D8B407D0000E9A
:102CDC000C6E9A919A9F3EEC18F0110030EC18F0A3
:102CEC00EDD79BA311009AA31100FDEC18F09A9359
:102CFC001100C08E000ED3EC12F0000E4A6E0A0EBC
:102D0C0085EC17F0FF0E4A6E000E85EC17F00F0ED7
:102D1C004A6E0C0E85EC17F0F00E4A6E010E85EC27
:0E2D2C0017F0000E4A6E150E85EC17F012001F
:102D3C00FAC43EF5FBC43FF5B19C40C340F541C31A
:102D4C0041F540C53CF541C53DF501D80AD005001B
:102D5C00FA6E1750FD6E1850FE6E1950FF6EFA5039
:102D6C0012003FC5FBF43EC5FAF41100E8EC18F074
:102D7C00ECEC18F08AEC18F0F0EC18F0949F81EC65
:102D8C0018F09B919B95948F050EE82EFED70000B2
:102D9C0000000000000000000000000002019A91F9
:062DAC009A959B851200C0
:102DB400FAC442F5FBC443F5B19A0E500F1010103B
:102DC400D8B40CD001D80AD00500FA6E0E50FD6EAE
:102DD4000F50FE6E1050FF6EFA50120043C5FBF404
:102DE40042C5FAF41100000E4B6E0A0E28EC17F0DF
:102DF400FF0E4B6E000E28EC17F00F0E4B6E0C0EF0
:102E040028EC17F0F00E4B6E010E28EC17F0000EB4
:102E14004B6E150E28EC17F012000401009BBE9AAD
:102E2400C69A3F0E0201066F020E0401476F000EA0
:102E3400426F000E416F000E406F000E456F000E92
:102E4400446F870E436F800E466F12004C6E4CC564
:102E54002FF54BC530F5000E466E200E456E2F0E35
:102E6400476E050E486E000E4A6E020E496EDFEC88
:102E740015F058EC18F00009D8B41200FAD70BD0AA
:102E840045C5F6F4250EF76E000EF86E0800F550F1
:102E9400D4EC17F0452A45C5F6F4250EF76E000E5E
:102EA400F86E0800F5500009D8B41200E9D701EE15
:102EB40060F1200EEE6AE806FDE1516A01EE01F1CF
:102EC400350EEE6AE806FDE10401080E5D6F000EA2
:102ED4005E6F000E5F6F0001C1EF17F0000E446ECD
:102EE4002850D8B40ED0700E2924D96EDA6A050E93
:102EF400DA22DF50446E29280F0B296EA79028068A
:102F0400A780445012004B6E400E2C6E4BC52DF51D
:102F14004AC52EF5C09E2C0E446E050E456E000E5D
:102F2400476E030E466E9BEC15F0C08E1200410EE8
:102F34002C6E120E2D6E000E2E6EC09E2C0E446E44
:102F4400050E456E000E476E030E466E9BEC15F0A3
:102F5400C08E2E501200000E016E000E036E026829
:102F6400000E046E000E056E000E086E000E096E53
:102F7400E8EC18F0ECEC18F0F0EC18F01200080E85
:102F84000001B16F31EC13F0D69E20EC18F0000E66
:102F94002B6ED68E040E2B64FDD7000E2B6E51ECD7
:102FA40014F0F8D7446E100E25600DD0600E27245F
:102FB400D96EDA6A050EDA2244C5DFF427280F0B2E
:0A2FC400276EA792252AA7821200AB
:102FD0002550D8B40ED0600E2624D96EDA6A050EBC
:102FE000DA22DF500201C96F26280F0B266E250654
:102FF0001100A792110006500710D8B407D0065050
:10300000D4EC18F00C50D8A4FAEC18F002500224BA
:0A301000D8EC18F0F7EC18F01200ED
:10301C00C7C23BF5100E28601100700E2A24D96E21
:10302C00DA6A050EDA223BC5DFF42A280F0B2A6E6A
:10303C00282A1100010E0301266F000E256F000EC9
:10304C00276F7C0E236F000E226FB196A186F00EB7
:10305C00246F1200FDEC18F00FEC19F00009D8B435
:10306C001200000EE0EC18F0000EDCEC18F0120070
:10307C000A500B10D8B403D00A50E0EC18F0D880EA
:10308C000234E4EC18F000EC19F012004450451036
:10309C004610D8B4120044C51AF545C51BF546C5F3
:1030AC001CF51200010E446E0150D8A405D002018B
:1030BC0098AF02D0000E446E4450120003EC19F08D
:1030CC0008C5D9F409C5DAF4DF6E084A092A1100DB
:1030DC0004C5D9F405C5DAF4044A052ADF50DCEC42
:1030EC0018F01100A584A586A580A5829B859B83DD
:1030FC009B8F97811200A584A586A580A5829B85B0
:10310C009B839B8F97811200A594A596A590A59261
:10311C00000E9B6F000E976F120044C511F545C54C
:10312C0012F546C513F5120044C50EF545C50FF54D
:10313C0046C510F5120044C517F545C518F546C52A
:10314C0019F5120044C5D9F445C5DAF4DE6ADD6A16
:10315C001200020197AB02D0010E1200000E1200F9
:10316C0095AB02D0010E1200000E120098A702D0EF
:10317C00010E1200000E120097AD02D0010E1200CB
:10318C00000E120098B702D0010E1200000E1200B1
:10319C003CC51FF53DC520F551801200446E44C559
:1031AC008DF21200446E44C58FF212003A6E3AC58D
:1031BC008CF21200376E37C58DF21200366E36C5A2
:1031CC008FF21200000E02019A6F1200979B979DCE
:1031DC0097991200000E996F9985120003011E81B8
:1031EC0012000201948B12000201948D1200020154
:1031FC00949D12000201948B120002018B5112005B
:06320C00B1962B2A11000F
:0E321400AF90242A1100D68F12008D511200A7
:06322400B4961100120037
:06322C0011001200120067
:020000040030CA
:080000008CFFFFF79FFFFFFFDB
:01000900FFF7
:00000001FF
