:0400000081EF00F09C
:10000800F90BF90BF90BF90B4000F90B4000F90B50
:10001800F60BF90BF90BF90BF90BF90BF90BF90BBB
:10002800F90B400040004000F90BF90BF90BF90BF4
:10003800F90BF90BF90BF40BF90BF90BF90BF90B9D
:10004800F90BF90BF90BF90B40004000F90BF90B10
:10005800F90BF90BF90B4000F90BF90BF90BF90B3C
:10006800F90BF90BF90BF90BF90BF90BF90BF90B68
:10007800B20BB70BC10AB7094000F90BF90BF90B22
:10008800F90BF90BF90BF90BF90BF90BF90BF90B48
:10009800810B6E0BF90BF90B4000F90B4000400087
:1000A800F90BF90BF90BF90BF90BF90BF90BF90B28
:1000B800F90BF90BF90BF90BF90BF90BF90BF90B18
:1000C800F90BF90BF90BF90BF90BF90BF90BF90B08
:1000D800F90BF90BF90BF90BF90BF90BF90BF90BF8
:1000E8004000F90BF90BF90B4000400040004000BC
:0E00F800F90BF90BF90BF90BFF0061EF16F095
:1025000000382A000000008A2500000000000000BA
:10251000B82B007E2B00000000000000000000002F
:1025200000000000000000000000006E2700000016
:1025300000C02A000000007C2A000000000000000B
:10254000B02E00802E00000000303132333435369A
:1025500037383941424344454602400003000240B7
:1025600000000053746174757320697320415741F2
:102570004B452E0D0A0053746174757320697320E6
:1025800052455345542E0D0A00003E6E000184BF93
:1025900012003E50050DF350590F3C6E3CC5F6F449
:1025A000250EF76E000EF86E0800F5C484F03E505C
:1025B000050DF3C43CF5010E3C263C50590F3D6E11
:1025C0003DC5F6F4250EF76E000EF86E0800F5C452
:1025D00085F03E50050DF3C43CF5020E3C263C5000
:1025E000590F3D6E3DC5F6F4250EF76E000EF86EE0
:1025F0000800F550FC0B866F3E50050DF3C43CF50A
:10260000030E3C263C50590F3D6E3DC5F6F4250E99
:10261000F76E000EF86E0800F5C489F03E50050D07
:10262000F3C43CF5040E3C263C50590F3D6E3DC5AD
:10263000F6F4250EF76E000EF86E0800F5C48CF067
:10264000C898848F12003AD058EC17F00009D8A42B
:102650001200120E2E6E000E3E6E200E3D6E2E0EDD
:102660003F6E050E406E000E426E010E416E350E3D
:10267000436E050E446E000E466E010E456E3EEC36
:1026800015F0010E226E120058EC17F00009D8A4C4
:102690001200150E2E6E35C52FF5000E3E6E200E63
:1026A0003D6E2E0E3F6E050E406E000E426E020E07
:1026B000416E60EC15F0000E226E12002250476E43
:1026C000486A4850000AD8A4F6D74750000AD8B440
:0A26D000BBD7010AD8B4D8D7EED763
:1026DC00FAC438F5FBC439F59AEC17F00009D8B4F4
:1026EC0006D0030E1D6E979BF9EC15F026D0B3ECBB
:1026FC0017F00009D8B40BD0A1EC17F00009D8B42E
:10270C0006D0010E1D6E979924EC17F016D0A7EC8D
:10271C0017F00009D8B407D0A1EC17F00009D8B411
:10272C0002D0020EEFD7ADEC17F00009D8B404D0EC
:10273C00030E1D6E979D01D097991D50D8B40CD0E7
:10274C0001D80AD00500FA6E1E50FD6E1F50FE6EA9
:10275C002050FF6EFA50120039C5FBF438C5FAF45C
:10276C001100040110951097C084C086C894C896B7
:10277C000C0E126F010E0201876F120E716F370E65
:10278C00136F130E706F380E146F040E946F800E4F
:10279C00956F080E966F030E9C6F000E9A6F000ECD
:1027AC009B6F000E976F000E8D6F510E876F78EC3C
:1027BC0017F09B919B95948F050EE82EFED7000089
:1027CC0000000000000000000000000002019A91CF
:1027DC009A959B85E20E3C6E2F0E3D6E000E3E6E62
:1027EC0040EC17F0120032D0410E2B6E120E2C6EF4
:1027FC00C09E2B0E3C6E050E3D6E000E3F6E020E03
:10280C003E6EBFEC15F0340E3C6E050E3D6E000EA8
:10281C003F6E010E3E6EDCEC15F0C08E010E216E8B
:10282C001200400E2B6E150E2C6E34C52DF5C09E6D
:10283C002B0E3C6E050E3D6E000E3F6E030E3E6E73
:10284C00BFEC15F0C08E000E216E12002150426EAE
:10285C00436A4350000AD8A4F6D74250000AD8B4B1
:10286C00C3D7010AD8B4DDD7EED7320E3C6E050EB5
:10287C003D6E000E3F6EC80E3E6ED1EC14F0496EEC
:10288C004950D8B407D0232A320E3C6E050E3D6E4B
:10289C0093EC17F0300E3C6E050E3D6E000E3F6E45
:1028AC00280E3E6ED1EC14F0496E4950D8B407D0C6
:1028BC004A82300E3C6E050E3D6E93EC17F06EECBA
:1028CC0014F04CEC17F023EC13F0F9EC13F01200AD
:1028DC0078EC16F0406E16D0FF0012000300630E69
:1028EC003D6E49EC16F012004AB002D04A8012003C
:1028FC004A901200630E3D6E49EC16F01200000E69
:10290C00236E120040503E6E3F6A3F50000AD8A41E
:10291C0012003E50720AD8B4DFD7010AD8B4DED701
:10292C00060AD8B4E1D7020AD8B4E4D70D0AD8A461
:10293C001200E5D7040108910981C780D690AF90A9
:10294C009F80F00E006F000EBE6EF00EC66EF9EC9E
:10295C0014F0B7EC13F01CEC15F0000E236E4A9239
:10296C004A80000E226E000E216ED68E760E3D6EC3
:10297C0049EC16F016EC16F0A1EC15F0320E3C6E8C
:10298C00050E3D6E93EC17F0300E3C6E050E3D6E51
:10299C0093EC17F01200000E426E3CC5D9F43DC505
:1029AC00DAF4DE2803E1DE28D8B41BD03CC5D9F418
:1029BC003DC5DAF4DE2A000EDD223CC5D9F43DC556
:1029CC00DAF43E50DE5C3F50DE58D8A00AD03CC54D
:1029DC00D9F43DC5DAF4FF0EDE6EFF0EDD6E010E8E
:1029EC00426E42501200010E0201D56FA00ED46F40
:1029FC00D189D18B0401009FC68E070E0201766F20
:102A0C000401009DBE8CC69C260E0201076FD28F5E
:102A1C00A780000E296E000E286E000E276E000E89
:102A2C00266E000E256E000E246E12000401109905
:102A3C00C888109BC88A109DC88C109FC08EC89ED9
:102A4C00150E02016B6F320E176F140E6A6F310E7A
:102A5C00156FA194A192A190000E0001846F000E3D
:102A6C00856F000E866F000E896F000E8C6F120042
:102A7C0058EC17F00009D8A41200010E116E3DC5D8
:102A8C0012F53EC513F5010E1C6E3FC514F540C57D
:102A9C0015F541C516F542C517F543C518F544C5DE
:102AAC0019F545C51AF546C51BF5000E1D6EEFEC64
:102ABC0016F0120058EC17F00009D8A41200010E01
:102ACC00116E3DC512F53EC513F5000E1C6E3FC5CB
:102ADC0014F540C515F541C516F542C517F5000EA0
:102AEC00186E000E196E000E1B6E000E1A6E000E84
:102AFC001D6EEFEC16F0120002019BB59AA503D0E7
:102B0C00A1EC16F011009BBF9AAF0DD01C50D8B49D
:102B1C0007D0000E1C6E9A919A9F32EC17F01100A0
:102B2C0024EC17F0EDD79BA311009AA31100DFEC56
:102B3C0017F09A931100C08E000EC5EC12F0000E27
:102B4C00426E0A0E8DEC16F0FF0E426E000E8DECEE
:102B5C0016F00F0E426E0C0E8DEC16F0F00E426E4F
:102B6C00010E8DEC16F0000E426E150E8DEC16F06B
:102B7C0012003CC540F53DC541F53FC583F03EC54F
:102B8C0082F000018651FE0B0209866F0AD040C507
:102B9C00D9F441C5DAF4DF50816FB1A2FED7404AB7
:102BAC00412A00018AADF3D78A9D12003CC540F53D
:102BBC003DC541F53FC583F03EC582F08651010904
:102BCC00FD0B866F0CD0000E816FB1A0FED740C5F7
:102BDC00D9F441C5DAF480C0DFF4404A412A8AAD09
:102BEC00F2D78A9D1200CDEC17F0D1EC17F08AECDD
:102BFC0017F0D5EC17F0949F81EC17F09B919B95F7
:102C0C00948F050EE82EFED7000000000000000097
:102C1C0000000000000002019A919A959B85120019
:102C2C00000E436E0A0E30EC16F0FF0E436E000ED3
:102C3C0030EC16F00F0E436E0C0E30EC16F0F00E5E
:102C4C00436E010E30EC16F0000E436E150E30EC98
:102C5C0016F01200446E44C52EF543C52FF5000E38
:102C6C003E6E200E3D6E2E0E3F6E050E406E000E1B
:102C7C00426E020E416E60EC15F058EC17F0000934
:102C8C00D8B41200FAD70BD03DC5F6F4250EF76E6A
:102C9C00000EF86E0800F550C8EC16F03D2A3DC544
:102CAC00F6F4250EF76E000EF86E0800F5500009CC
:102CBC00D8B41200E9D701EE60F1100EEE6AE80606
:102CCC00FDE14A6A01EE01F1350EEE6AE806FDE11E
:102CDC000401080E5D6F000E5E6F000E5F6F000149
:102CEC00B5EF16F0000E3C6E2750D8B40ED0010E86
:102CFC002824D96EDA6A050EDA22DF503C6E2828B9
:102D0C000F0B286EA7902706A7803C501200436E2D
:102D1C00400E2B6E43C52CF542C52DF5C09E2B0ED7
:102D2C003C6E050E3D6E000E3F6E030E3E6EBFEC0C
:102D3C0015F0C08E1200000E116E000E136E12688C
:102D4C00000E146E000E156E000E186E000E196E2D
:102D5C00CDEC17F0D1EC17F0D5EC17F01200080EF3
:102D6C000001B16FA0EC14F0D69E14EC17F0000E1D
:102D7C002A6ED68E040E2A64FDD7000E2A6E3BEC0A
:102D8C0014F0F8D73C6E100E24600DD0600E262483
:102D9C00D96EDA6A050EDA223CC5DFF426280F0B51
:0A2DAC00266EA792242AA7821200C7
:102DB8002450D8B40ED0600E2524D96EDA6A050ED8
:102DC800DA22DF500201C96F25280F0B256E240671
:102DD8001100A792110016501710D8B407D016503A
:102DE800B9EC17F01C50D8A4DCEC17F012501224E0
:0A2DF800BDEC17F0D9EC17F0120043
:102E0400C7C23BF5100E27601100010E2924D96EAC
:102E1400DA6A050EDA223BC5DFF429280F0B296E86
:102E2400272A1100010E0301266F000E256F000EE4
:102E3400276F7C0E236F000E226FB196A186F00ED1
:102E4400246F1200DFEC17F0EFEC17F00009D8B490
:102E54001200000EC5EC17F0000EC1EC17F01200C2
:102E64001A501B10D8B403D01A50C5EC17F0D880F0
:102E74001234C9EC17F0E2EC17F012003C503D108C
:102E84003E10D8B412003CC51EF53DC51FF53EC525
:102E940020F5120023500F0BBE6E4AA212004AA066
:102EA40003D02B0EC8EC16F04A921200010E3C6EB1
:102EB4001150D8A405D0020198AF02D0000E3C6E88
:102EC4003C501200E5EC17F018C5D9F419C5DAF432
:102ED400DF6E184A192A110014C5D9F415C5DAF49D
:102EE400144A152ADF50C1EC17F01100A584A586F9
:102EF400A580A5829B859B839B8F97811200A584C7
:102F0400A586A580A5829B859B839B8F97811200B4
:102F1400A594A596A590A592000E9B6F000E976FA1
:102F240012003CC5D9F43DC5DAF4DE6ADD6A12004C
:102F3400020197AB02D0010E1200000E120095ABF5
:102F440002D0010E1200000E120098A702D0010E4A
:102F54001200000E120097AD02D0010E1200000EF6
:102F6400120098B702D0010E1200000E12003C6E3F
:102F74003CC58DF212003C6E3CC58FF212003A6ED5
:102F84003AC58CF21200376E37C58DF21200366ED8
:102F940036C58FF21200000E02019A6F1200979B41
:102FA400979D97991200000E996F9985120002015E
:102FB400948B12000201948D12000201949D120060
:102FC4000201948B120002018B511200B1962A2A3D
:022FD4001100EA
:0E2FD800AF90232A11008D511200120011003B
:020000040030CA
:080000008CFFFFF79FFFFFFFDB
:01000900FFF7
:00000001FF
