:0400000081EF00F09C
:100008005D0D5D0D5D0D5D0D40005D0D40005D0DEC
:10001800560D5D0D5D0D5D0D5D0D5D0D5D0D5D0D8F
:100028005D0D4000400040005D0D5D0D5D0D5D0DF6
:100038005D0D5D0D5D0D540D5D0D0D0CEF0B5D0D32
:100048005D0D5D0D5D0D5D0D400040001B0CA40AAB
:100058005D0D5D0D5D0D40005D0D5D0D5D0D5D0D72
:100068005D0D5D0D5D0D5B0D5D0D5D0D5D0D5D0D3A
:10007800F30CF80CDF0B3A0A40005D0D5D0D5D0DC9
:100088005D0D5D0D5D0D5D0D5D0D5D0D5D0D5D0D18
:10009800BF0CA30C5D0D5D0D40005D0D40004000E0
:1000A8005D0D5D0D5D0D5D0D5D0D5D0D5D0D5D0DF8
:1000B8005D0D5D0D5D0D5D0D5D0D5D0D5D0D5D0DE8
:1000C8005D0D5D0D5D0D5D0D5D0D5D0D5D0D5D0DD8
:1000D8005D0D5D0D5D0D5D0D5D0D5D0D5D0D5D0DC8
:1000E80040005D0D5D0D5D0D40004000400040008A
:0E00F8005D0D5D0D5D0D5D0DFF00B6EF18F0A6
:1025000000EA2D00000000E426000000002E2E004E
:1025100000000000000000000000000000000000BB
:1025200000000000000000000000000C2A00000075
:1025300000B62E00000000722E0000000000000017
:10254000B233009A3300000000122D002A3500003B
:1025500000000000002A3400000000303132333423
:10256000353637383941424344454602400003007E
:102570000240000000537461747573206973204138
:1025800057414B452E0D0A005374617475732069D1
:10259000732052455345542E0D0A002870776D3133
:1025A0002920002870776D32292000286164636338
:1025B000292000286363702920000D0A0000CDEC5B
:1025C00018F04C6E5ED0FF0E1A24B16FFF0E1B2068
:1025D000B26FFF0EB1151A6E0F0EB2151B6E4D8045
:1025E0001200F00EF1D7000EEFD7010E01D0100E41
:1025F0001A24B16F000EEBD7000E1A24B16F010E32
:10260000E6D70C0E59EC19F047C51CF548C51DF569
:102610001CC5AEF51DC5AFF5AB0E0501B06F90EC56
:1026200019F012000C0E59EC19F047C51CF548C5FD
:102630001DF51CC547F51DC548F570EC1AF0B1EC49
:102640001AF01CC5AEF51DC5AFF59B0E0501B06FA8
:1026500090EC19F01200FF0012000300750E486E96
:102660009EEC18F012004DB402D04D8412004D942F
:102670001200750E486E9EEC18F01200000E236ECC
:1026800012004C500501B16FB26BB251000AD8A4D0
:102690001200B151210AD8B496D7030AD8B4A1D7F1
:1026A000010AD8B4A0D7120AD8B49FD7030AD8B465
:1026B0009ED7010AD8B4A0D7520AD8B4A2D7110A1B
:1026C000D8B4B0D7020AD8B4C6D7010AD8B4C5D78F
:1026D000060AD8B4C8D7020AD8B4CBD70D0AD8A4F2
:1026E0001200CCD7496E000184BF12004950050D7D
:1026F000F3506B0F476E47C5F6F4250EF76E000ECC
:10270000F86E0800F5C484F04950050DF3C447F590
:10271000010E472647506B0F486E48C5F6F4250E4C
:10272000F76E000EF86E0800F5C485F04950050DEF
:10273000F3C447F5020E472647506B0F486E48C555
:10274000F6F4250EF76E000EF86E0800F550FC0B3F
:10275000866F4950050DF3C447F5030E47264750D1
:102760006B0F486E48C5F6F4250EF76E000EF86E36
:102770000800F5C489F04950050DF3C447F5040E6F
:10278000472647506B0F486E48C5F6F4250EF76E86
:10279000000EF86E0800F5C48CF0C898848F120003
:1027A000040108910981C780D690AF909F80F00EF8
:1027B000006F000EBE6EF00EC66EAFEC16F006ECAB
:1027C00015F0F5EC16F00EEC16F085EC18F07DEC3B
:1027D00017F089EC16F07CEC15F0BEEC14F0000E4E
:1027E000236E4D964D84000E226E000E216E000E5B
:1027F0001F6E000E1E6E4D92010E1D6E000E1C6EA1
:10280000010E1B6E000E1A6E4D90D68E880E486E0D
:102810009EEC18F051EC18F0D2EC16F0AFEC1AF078
:10282000CA0E476E340E486E000E496E38EC1AF030
:1028300095EC1AF0320E476E050E486E3FEC1AF01A
:10284000300E476E050E486E3FEC1AF012003CD079
:10285000D9EC19F00009D8A41200120E2E6E000E49
:102860000501AF6F200EAE6F2E0EB06F050EB16F6B
:10287000000EB36F010EB26F340EB46F050EB56F5C
:10288000000EB76F010EB66F39EC17F0010E226E15
:102890001200D9EC19F00009D8A41200150E2E6E02
:1028A00034C52FF5000E0501AF6F200EAE6F2E0E52
:1028B000B06F050EB16F000EB36F020EB26F5BEC1E
:1028C00017F0000E226E12002250486E496A4950DD
:1028D000000AD8A4F6D74850000AD8B4B9D7010ADC
:0628E000D8B4D7D7EED7F3
:1028E800FAC437F5FBC438F546EC1AF00009D8B439
:1028F80006D0030E0D6E979BFDEC17F026D05FEC0B
:102908001AF00009D8B40BD04DEC1AF00009D8B46D
:1029180006D0010E0D6E9799B1EC19F016D053EC54
:102928001AF00009D8B407D04DEC1AF00009D8B451
:1029380002D0020EEFD759EC1AF00009D8B404D02F
:10294800030E0D6E979D01D097990D50D8B40DD0F8
:1029580001D80BD00500FA6E0501A951FD6EAA51E8
:10296800FE6EAB51FF6EFA50120038C5FBF437C546
:10297800FAF4110004011091C090C8901093C0920D
:10298800C892180E0201116F190E126F000E606EB8
:10299800020E616E000E626E63680F0E646E030EA7
:1029A800656E000E666E000E676E000E686E000E95
:1029B8006A6E000E6B6E010E6C6E000E6D6E010E6F
:1029C8006E6EB29CB29E67906792A29EA29C7C0E8D
:1029D800476E350E486E000E496E2AEC1AF07A0ED4
:1029E800476E350E486E000E496E23EC1AF07E0EC7
:1029F800476E350E486E000E496E31EC1AF0800EA7
:102A0800696E120004011095C084C8941097C0869E
:102A1800C8960C0E126F010E0201876F120E716FAD
:102A2800370E136F130E706F380E146F040E946FF9
:102A3800800E956F080E966F030E9C6F000E9A6FAE
:102A4800000E9B6F000E976F000E8D6F510E876FF3
:102A5800FAEC19F09B919B95948F050EE82EFED702
:102A6800000000000000000000000000000002015B
:102A78009A919A959B85700E476E350E486E000E9A
:102A8800496ECDEC19F01200FAC443F5FBC444F5C5
:102A9800B29E68B067A012D0679014501510161037
:102AA800D8B421D001D81FD00500FA6E1450FD6E9D
:102AB8001550FE6E1650FF6EFA50120068B267A2EB
:102AC80012D06792115012101310D8B40CD001D83C
:102AD8000AD00500FA6E1150FD6E1250FE6E1350AA
:102AE800FF6EFA50120044C5FBF443C5FAF4110016
:102AF80004010889C788000E0301D96F000EDA6F38
:102B0800000EDB6F000EDC6F000EDF6F000EE06F53
:102B1800000EE56F000EE76F0C0EEC6F010EEE6F06
:102B2800000EEF6F000EF06F000EF16F000EF26FE7
:102B3800000EF46F100EF56F000EF66F000EF76FB3
:102B4800000EF86F000EF96F010EFA6F840EF36F26
:102B5800AF94B0901200320E476E050E486E000E0C
:102B68004A6EC80E496E39EC16F0B86FB851D8B431
:102B780007D0232A320E476E050E486E3FEC1AF036
:102B8800300E476E050E486E000E4A6E280E496ECE
:102B980039EC16F0B86FB851D8B407D04D86300E5E
:102BA800476E050E486E3FEC1AF0DFEC12F0E2ECCF
:102BB80015F027EC14F09EEC17F0120023500F0BC1
:102BC800BE6E4DA606D04DA403D02B0E32EC19F0E4
:102BD8004D964DA20AD01EC5AEF51FC5AFF5B30E72
:102BE8000501B06F90EC19F04D924DA012001AC576
:102BF80047F51BC548F56BEC1AF0B1EC1AF01AC58D
:102C0800AEF51BC5AFF5A30E0501B06F90EC19F03A
:102C18004D901200040108930983C782089509851D
:102C2800C7840099BE98C698090E0201636F0A0E00
:102C3800646F010E056F000E0001D56F0C0ED76F83
:102C4800020ED86F030ED96F020EDA6F030EDB6F18
:102C5800010EDC6F040EDD6F000EDE6F000EDF6FFD
:102C6800000ED46F820ED66F1200000E0501AE6FF3
:102C780047C5D9F448C5DAF4DE2803E1DE28D8B41C
:102C88001BD047C5D9F448C5DAF4DE2A000EDD2288
:102C980047C5D9F448C5DAF44950DE5C4A50DE58D5
:102CA800D8A00AD047C5D9F448C5DAF4FF0EDE6EBD
:102CB800FF0EDD6E010EAE6FAE5112004A6E4AC5B0
:102CC80048F5483A0F0E48160F0E481648505B0F45
:102CD800496E49C5F6F4250EF76E000EF86E080029
:102CE800F55032EC19F04AC548F50F0E4816485011
:102CF8005B0F496E49C5F6F4250EF76E000EF86EA7
:102D08000800F55032EC19F012001E91000E1F6FEA
:102D1800000E206F060E216F1D691C691D514A6E39
:102D28001C510501AC6F4AC5ADF5000E476E000E8B
:102D3800486E000E496E15EC1AF0780E476E350E87
:102D4800486E000E496E1CEC1AF0B198B19A370E15
:102D580003011E6F1200010E0201D56FA00ED46F81
:102D6800D189D18B0401009FC68E070E0201766FB0
:102D78000401009DBE8CC69C260E0201076FD28FEF
:102D8800A780000E296E000E286E000E276E000E1A
:102D9800266E000E256E000E246E1200C08E000EE8
:102DA80072EC13F0000E0501AE6F0A0EE2EC18F09B
:102DB800FF0E0501AE6F000EE2EC18F00F0E0501D4
:102DC800AE6F0C0EE2EC18F0F00E0501AE6F010EBE
:102DD800E2EC18F0000E0501AE6F150EE2EC18F0EB
:102DE800120004011099C888109BC88A109DC88CCD
:102DF800109FC08EC89E150E02016B6F320E176FA2
:102E0800140E6A6F310E156FA194A192A190000E55
:102E18000001846F000E856F000E866F000E896FAB
:102E2800000E8C6F120047C54BF548C54CF54AC5D6
:102E380083F049C582F0000186510309866F10D0DE
:102E48004BC5D9F44CC5DAF4DF50816FB1A0FED779
:102E58004BC5D9F44CC5DAF480C0DFF44B4A4C2A90
:102E680000018AADEDD78A9D1200D9EC19F000094E
:102E7800D8A41200010E016EAEC502F5AFC503F568
:102E8800010E0C6EB0C504F5B1C505F5B2C506F561
:102E9800B3C507F5B4C508F5B5C509F5B6C50AF54E
:102EA800B7C50BF5000E0D6E6BEC19F01200D9ECDE
:102EB80019F00009D8A41200010E016EAEC502F582
:102EC800AFC503F5000E0C6EB0C504F5B1C505F528
:102ED800B2C506F5B3C507F5000E086E000E096EFB
:102EE800000E0B6E000E0A6E000E0D6E6BEC19F0E4
:102EF8001200089B098BC78A0D0E02014F6F150E31
:102F08000E6F840E0301426F000E436F000E416F77
:102F1800000E406F760E476E350E486E000E496EF5
:102F280038EC1AF003014C51FC0B01094C6FB19CB1
:102F3800A18C12000FD0120EF7EC18F0206E010EC3
:102F4800216E120020C5AEF5150EE2EC18F0000E49
:102F5800216E120021500501B06FB16BB151000A0A
:102F6800D8A4F5D7B051000AD8B4E5D7010AD8B427
:102F7800E9D7EDD702019BB59AA503D00BEC19F060
:102F880011009BBF9AAF0DD00C50D8B407D0000EDB
:102F98000C6E9A919A9FBFEC19F01100B1EC19F0E0
:102FA800EDD79BA311009AA311009EEC1AF09A93F7
:022FB800110006
:102FBC00FAC43DF5FBC43EF5B19C40C33FF541C39B
:102FCC0040F53FC53BF540C53CF501D80BD005009D
:102FDC00FA6E0501A651FD6EA751FE6EA851FF6E4B
:102FEC00FA5012003EC5FBF43DC5FAF4110089EC11
:102FFC001AF08DEC1AF00CEC1AF091EC1AF0949F7C
:10300C0003EC1AF09B919B95948F050EE82EFED73E
:10301C0000000000000000000000000000000201A1
:10302C009A919A959B851200FAC441F5FBC442F51E
:10303C00B19A175018101910D8B40CD001D80AD066
:10304C000500FA6E1750FD6E1850FE6E1950FF6E8B
:0E305C00FA50120042C5FBF441C5FAF411000F
:10306C00FAC445F5FBC446F5B29C0E500F10101077
:10307C00D8B40CD001D80AD00500FA6E0E50FD6EF3
:10308C000F50FE6E1050FF6EFA50120046C5FBF446
:10309C0045C5FAF41100000E486E0A0E6BEC18F0E0
:1030AC00FF0E486E000E6BEC18F00F0E486E0C0EF7
:1030BC006BEC18F0F00E486E010E6BEC18F0000E75
:1030CC00486E150E6BEC18F01200496E49C52EF5C2
:1030DC0048C52FF5000E0501AF6F200EAE6F2E0EFA
:1030EC00B06F050EB16F000EB36F020EB26F5BECDA
:1030FC0017F0D9EC19F00009D8B41200FAD7040172
:10310C00009BBE9AC69A3F0E0201066F020E040186
:10311C00476F000E426F000E416F000E406F000EA5
:10312C00456F000E446F870E436F800E466F120082
:10313C000BD048C5F6F4250EF76E000EF86E08009D
:10314C00F55032EC19F0482A48C5F6F4250EF76E06
:10315C00000EF86E0800F5500009D8B41200E9D73B
:10316C0001EE60F14E0EEE6AE806FDE14D6A01EEED
:10317C0001F1340EEE6AE806FDE10401080E5D6F04
:10318C00000E5E6F000E5F6F00011FEF19F0000E56
:10319C00476E2750D8B40ED0800E2824D96EDA6A28
:1031AC00050EDA22DF50476E28281F0B286EA790D9
:1031BC002706A780475012000501AF6F400E2B6EFB
:1031CC00AFC52CF5AEC52DF5C09E2B0E476E050E6A
:1031DC00486E000E4A6E030E496E17EC17F0C08E47
:1031EC001200410E2B6E120E2C6E000E2D6EC09E18
:1031FC002B0E476E050E486E000E4A6E030E496E7E
:10320C0017EC17F0C08E2D501200000E016E000E40
:10321C00036E0268000E046E000E056E000E086E42
:10322C00000E096E89EC1AF08DEC1AF091EC1AF084
:10323C001200080E0001B16FD0EC13F0D69EA1EC79
:10324C0019F0000E2A6ED68E040E2A64FDD7000EDD
:10325C002A6EAFEC15F0F8D7476E200E24600DD017
:10326C00600E2624D96EDA6A050EDA2247C5DFF421
:0E327C0026281F0B266EA792242AA782120076
:10328C002450D8B40ED0600E2524D96EDA6A050EFF
:10329C00DA22DF500201C96F25281F0B256E240688
:1032AC001100A79211004B6E4BC5ECF30301F39D7B
:1032BC00F381F3B1FED7EB514A6E496AEA514924C6
:1032CC00476E000E4A20486E120006500710D8B404
:1032DC0007D0065075EC1AF00C50D8A49BEC1AF0E1
:0E32EC000250022479EC1AF098EC1AF012004D
:1032FC00C7C23AF5200E27601100800E2924D96E22
:10330C00DA6A050EDA223AC5DFF429281F0B296E7A
:10331C00272A1100BA0E486E9EEC18F00501AF5129
:10332C0062EC16F00501AE5162EC16F0B0C548F532
:10333C009EEC18F01200010E0301266F000E256F93
:10334C00000E276F7C0E236F000E226FB196A186A4
:10335C00F00E246F12009EEC1AF0B3EC1AF0000978
:10336C00D8B41200000E81EC1AF0000E7DEC1AF0AD
:10337C0012000A500B10D8B403D00A5081EC1AF08A
:10338C00D880023485EC1AF0A1EC1AF012004750E8
:10339C0048104910D8B4120047C5A9F548C5AAF57C
:1033AC0049C5ABF51200010E476E0150D8A405D0EB
:0E33BC00020198AF02D0000E476E475012007B
:1033CC00A4EC1AF008C5D9F409C5DAF4DF6E084A82
:1033DC00092A110004C5D9F405C5DAF4044A052AF2
:1033EC00DF507DEC1AF01100A584A586A580A5827E
:1033FC009B859B839B8F97811200A584A586A580B6
:10340C00A5829B859B839B8F97811200A594A59683
:10341C00A590A592000E9B6F000E976F120047C5EA
:10342C00A0F548C5A1F549C5A2F5120047C517F589
:10343C0048C518F549C519F5120047C511F548C519
:10344C0012F549C513F5120047C514F548C515F515
:10345C0049C516F5120047C50EF548C50FF549C507
:10346C0010F5120047C5A6F548C5A7F549C5A8F53E
:10347C00120047C5D9F448C5DAF4DE6ADD6A1200D9
:10348C00020197AB02D0010E1200000E120095AB98
:10349C0002D0010E1200000E120098A702D0010EED
:1034AC001200000E120097AD02D0010E1200000E99
:1034BC00120098B702D0010E1200000E12003BC58C
:1034CC001EF53CC51FF54D82120047C56DF448C56D
:1034DC006EF4120047C56BF448C56CF41200476ECD
:1034EC0047C58DF21200476E47C58FF21200396E38
:1034FC0039C58CF21200366E36C58DF21200356E5F
:10350C0035C58FF21200000E02019A6F1200979BC4
:10351C00979D97991200000E996F998512000301DF
:10352C001E8112000201948B12000201948D120074
:10353C000201949D12000201948B120002018B5126
:02354C0012006B
:06355000B1962A2A1100C9
:10355800AF90232A1100D68F1200698412008D5172
:0235680012004F
:06356C00B49611001200EC
:0C357400110012001200120012001200E0
:020000040030CA
:080000008CFFFFF79FFFFFFFDB
:01000900FFF7
:00000001FF
