:04000000FCEFFFF022
:102500000000E652E652060EE66E030EE66EA1EC01
:1025100012F0FF0E610004F4E3F4050EE66EB6EC73
:1025200012F0FE0E610004F4E3F4FE0E61008CF381
:102530000CF5FF0EE3500C24212695EF12F0FCEF72
:10254000FFF0E652FD0E61008CF30CF5FE0EE35039
:102550000C240B6EFF0E61002CF4E3F4FF0E6100FF
:102560008CF301F5E552E552E5521200E652010EF8
:102570000C6EFE0EE3500C240B6EFF0E61002CF46B
:10258000E3F4FF0E61008CF301F5E552E552120011
:08259000216A000181EF12F045
:020000040001F9
:08FFF80011EE60F1C8EF12F0F8
:020000040030CA
:080000008CFFFFF79FFFFFFFDB
:01000900FFF7
:00000001FF
