:0400000081EF00F09C
:10000800D00AD00AD00AD00A4000D00A4000D00A4C
:100018009B0AD00AD00AD00AD00AD00AD00AD00A3D
:10002800D00A400040004000D00AD00AD00AD00AC6
:10003800D00AD00AD00AD00AD00AD00AD00A1A0A9E
:10004800D00AD00AD00AD00A40004000D00AD00A0C
:10005800D00AD00AD00A4000D00AD00AD00AD00A62
:10006800A10AD00AD00AD00AD00AD00AD00AD00AE7
:10007800D00AD00AD00AD00A4000D00AD00AD00A42
:10008800D00AD00AD00AD00AD00AD00AD00AD00A98
:10009800B30ACC0AD00AD00A4000D00A4000400077
:1000A800A70AD00AD00AD00AD00AD00AD00AD00AA1
:1000B800D00AD00AD00AD00AD00AD00AD00AD00A68
:1000C800D00AD00AD00AD00AD00AD00AD00AD00A58
:1000D800D00AD00AD00AD00AD00AD00AD00AD00A48
:1000E8004000D00AD00AD00A40004000400040003A
:0E00F800D00AD00AD00AD00AFF00E8EF14F0B8
:1025000000F42600000000422900E228000000003C
:1025100000000000000000000000000000000000BB
:1025200000000000000000000000000000000000AB
:10253000000000000000000C2A00000000542A00E7
:102540003C2A00242A00000000A628000000000009
:102550000000000000E22A00000000004150020DCF
:10256000010EF324D96E050EF420DA6EDE6ADD6A00
:102570000201D8A71AD04150020D010EF324D96EE2
:10258000050EF420DA6EDF822D502E102F10D8B4F5
:102590000CD001D80AD00500FA6E2D50FD6E2E50D9
:1025A000FE6E2F50FF6EFA5012000201D8A31AD00F
:1025B0004150020D010EF324D96E050EF420DA6E9F
:1025C000DF842A502B102C10D8B40CD001D80AD09C
:1025D0000500FA6E2A50FD6E2B50FE6E2C50FF6ED9
:1025E000FA501200C7C24FF54128070B506E4050F9
:1025F0005018D8B40BD0110E4124D96EDA6A050EEA
:10260000DA224FC5DFF450C541F53F2A2150221090
:102610002310D8B4120001D812000500FA6E215020
:10262000FD6E2250FE6E2350FF6EFA5012004F0EC8
:10263000BE6E000EBF6E000EC06E000EC16E000EAC
:10264000C26EB00EC66EC768C868C9680F0ECA6E83
:10265000300E0401006FFE0E086F10691869070E36
:10266000206F000E016F010E096F000E116F000E3A
:10267000196F000E216F000E026F000E0A6F000E20
:10268000126F000E1A6F000E226F03690B69136937
:102690001B69070E236F04690C6914691C690F0E0E
:1026A000246F000E0201896F000E886F000E876F85
:1026B000000E866F070E766F080E3E6F260E076FB0
:1026C000000E0401056F000E066F000E076F000E6E
:1026D0000D6F000E0E6F000E0F6F000E156F000EC7
:1026E000166F000E176F000E256F000E266F000E7E
:1026F000276F1200A7905C0E0501686F250E696FA9
:10270000000E6A6FA792160E546E290E556E000EBB
:10271000566E000E0201C76F000EC96F000ECB6F20
:10272000000ECD6F000ECF6FB00ED16F800ED26F46
:10273000000ED36F820ED46F060ED56F2E0ED66F9D
:10274000000ED76F800ED86F000ED96F4C0E0501AA
:10275000636F2B0E646F000E656F2AEC15F04A0E46
:10276000636F2B0E646F000E656F1EEC15F0000E8C
:10277000636F000E646F000E656F12EC15F0000EB3
:102780003A6E000E396E000E446E000E436E080E57
:10279000426E000E416E000E406E000E3F6EA7802E
:1027A0001200D68A000ED6BE010E666FD69E550E5A
:1027B0000401596FAA0E596F5991000E5F6F000EF8
:1027C0005E6F080E5D6F550E596FAA0E596F5981D5
:1027D000050166B102D0D69E01D0D68E0301638179
:1027E000658F6B816B83AF90D690420E0501636F4E
:1027F0002B0E646F000E656F86EC15F09F80B49011
:10280000D682440E636F2B0E646F000E656F7FECF3
:1028100015F0B890D684460E636F2B0E646F000ED1
:10282000656F78EC15F012005AEC15F0360E636FF8
:102830002B0E646F000E656F86EC15F03A0E636F19
:102840002B0E646F000E656F71EC15F01A0E636F3E
:102850002B0E646F000E656F06EC15F0000E3E6ED9
:10286000D68E94EC15F0FDD7FAC44BF5FBC44CF5AD
:10287000B19E3CC519F33BC518F35150521053108B
:10288000D8B40CD001D80AD00500FA6E5150FD6EB4
:102890005250FE6E5350FF6EFA5012004CC5FBF4BE
:1028A0004BC5FAF411000B0E0301196FDC0E186F03
:1028B000480E1B6F19510501666F030118513B6EDD
:1028C00066C53CF5480E0501636F2B0E646F000E64
:1028D000656F71EC15F0B19EA18E900E03011A6F19
:1028E00012004E6EA7B203D04EC5C9F212D04250AC
:1028F000D8B40FD0190E4424D96EDA6A050EDA2244
:102900004EC5DFF44428070B4D6E4DC544F5A79224
:102910004206A7821200080E426011D0190E43240D
:10292000D96EDA6A050EDA22DF500201C96F432838
:10293000070B0501626F62C543F5422A1200A79298
:102940001200110E4024D96EDA6A050EDA22DF5029
:102950004E6E4028070B4D6E4DC540F5A7903F5079
:10296000D8A43F06A7804E501200365037103810BA
:10297000D8B4120001D812000500FA6E3650FD6E70
:102980003750FE6E3850FF6EFA501200335034103C
:102990003510D8B4120001D812000500FA6E335079
:1029A000FD6E3450FE6E3550FF6EFA5012003050FE
:1029B00031103210D8B4120001D812000500FA6E9E
:1029C0003050FD6E3150FE6E3250FF6EFA501200E4
:1029D00001EE01F1440EEE6AE806FDE10401080E85
:1029E0005D6F000E5E6F000E5F6F000114EF14F05C
:1029F000600E0001AD6F000EAF6F000EB36F080EDA
:102A0000B16F000EB06F400EAC6F120063516411D5
:102A10006511D8B4120063C521F564C522F565C5FA
:102A200023F51200635164116511D8B4120063C517
:102A300027F564C528F565C529F5120063516411B1
:102A40006511D8B4120063C52AF564C52BF565C5B8
:102A50002CF51200635164116511D8B4120063C5DE
:102A60002DF564C52EF565C52FF51200FAC445F5A0
:102A7000FBC446F5AF90B5EC14F046C5FBF445C574
:102A8000FAF41100FAC447F5FBC448F5B490C6EC5B
:102A900014F048C5FBF447C5FAF41100FAC449F52F
:102AA000FBC44AF5B890D7EC14F04AC5FBF449C50D
:102AB000FAF41100F8EC14F017EC13F053EC14F0E6
:0A2AC0007AEC13F0D1EC13F01200D1
:102ACC00FAC460F5FBC461F5AEEC12F061C5FBF421
:102ADC0060C5FAF4110063C551F564C552F565C5BE
:102AEC0053F5120063C530F564C531F565C532F593
:102AFC00120063C533F564C534F565C535F51200B0
:102B0C0063C536F564C537F565C538F51200A1EC1B
:102B1C0014F03D6E3D5071EC14F012003E500F0B52
:102B2C00BE6E12008BEC14F011003E2A12003E2AED
:022B3C00120085
:0E2B400011001200120012001200120012000A
:020000040030CA
:080000008CFFFFF79FFFFFFFDB
:01000900FFF7
:00000001FF
