:0400000081EF00F09C
:10000800930B930B930B930B4000930B4000930BB4
:10001800490B930B930B930B930B930B930B930B32
:10002800930B400040004000930B930B930B930BF2
:10003800930B930B930B930B930B930B930B7F0ADD
:10004800930B930B930B930B40004000930B930B74
:10005800930B930B930B4000930B930B930B930B06
:100068004F0B930B930B930B930B930B930B930BDC
:10007800930B930B930B930B4000930B930B930BE6
:10008800930B930B930B930B930B930B930B930B78
:100098005B0B8F0B930B930B4000930B40004000BE
:1000A800550B930B930B930B930B930B930B930B96
:1000B800930B930B930B930B930B930B930B930B48
:1000C800930B930B930B930B930B930B930B930B38
:1000D800930B930B930B930B930B930B930B930B28
:1000E8004000930B930B930B4000400040004000EE
:0E00F800930B930B930B930BFF009FEF15F0F0
:10250000001C2700000000000000702A00000000EE
:1025100000000000000000000000000000000000BB
:1025200000000000000000000000000000000000AB
:1025300000000000000000C42C000000000C2D0072
:10254000F42C00DC2C000000003A2A0000000000FF
:102550000000000000B22D0000000053746174758B
:10256000732069732057414B4555502E0D0A005377
:1025700074617475732069732052455345542E0D50
:032580000A00004E
:102584003B50020D010EF324D96E050EF420DA6ED1
:10259400DE6ADD6A0201D8A71AD03B50020D010E93
:1025A400F324D96E050EF420DA6EDF82255026104E
:1025B4002710D8B40CD001D80AD00500FA6E2550E3
:1025C400FD6E2650FE6E2750FF6EFA501200020177
:1025D400D8A31AD03B50020D010EF324D96E050E78
:1025E400F420DA6EDF84225023102410D8B40CD0E7
:1025F40001D80AD00500FA6E2250FD6E2350FE6EFB
:102604002450FF6EFA501200C7C247F53B28070B4F
:10261400486E3A504818D8B40BD0600E3B24D96E9B
:10262400DA6A050EDA2247C5DFF448C53BF5392AD4
:1026340019501A101B10D8B4120001D8120005004A
:10264400FA6E1950FD6E1A50FE6E1B50FF6EFA5052
:1026540012004F0EBE6E000EBF6E000EC06E000E56
:10266400C16E000EC26EB00EC66EC768C868C96877
:102674000F0ECA6E300E0401006FFE0E086F106953
:102684001869070E206F000E016F010E096F000E0E
:10269400116F000E196F000E216F000E026F000EF5
:1026A4000A6F000E126F000E1A6F000E226F03697C
:1026B4000B6913691B69070E236F04690C6914699C
:1026C4001C690F0E246F000E0201896F000E886FC3
:1026D400000E876F000E866F070E766F080E3E6F32
:1026E400260E076F000E0401056F000E066F000E24
:1026F400076F000E0D6F000E0E6F000E0F6F000EB1
:10270400156F000E166F000E176F000E256F000E6A
:10271400266F000E276F1200A790840E0501686FC4
:10272400250E696F000E6A6FA792C20E5C6E2B0EA7
:102734005D6E000E5E6E000E0201C76F000EC96F63
:10274400000ECB6F000ECD6F000ECF6FB00ED16FA9
:10275400800ED26F000ED36F820ED46F060ED56F2B
:102764002E0ED66F000ED76F800ED86F000ED96F65
:10277400580E4C6E2E0E4D6E000E4E6E86EC16F0FC
:10278400560E4C6E2E0E4D6E000E4E6E7AEC16F0FA
:10279400000E4C6E000E4D6E000E4E6E6EEC16F07A
:1027A400000E326E000E316E000E3E6E000E3D6E57
:1027B400080E3C6E000E3B6E000E3A6E000E396E33
:1027C400A7801200D68A000ED6BE010E4F6ED69E8A
:1027D400550E0401596FAA0E596F5991000E5F6F7F
:1027E400000E5E6F080E5D6F550E596FAA0E596F7D
:1027F40059814FB002D0D69E01D0D68E0301638199
:10280400658F6B816B83AF90D6904E0E4C6E2E0EFF
:102814004D6E000E4E6EF5EC16F09F80B490D6828D
:10282400500E4C6E2E0E4D6E000E4E6EEEEC16F0EB
:10283400B890D684520E4C6E2E0E4D6E000E4E6E17
:10284400E7EC16F01200720E3718D8B4FF00730EBE
:102854003718D8A414D0A19EB19E38C551F5000EE6
:1028640090EC14F0000E5FB0010E516E010E90EC6E
:1028740014F00300A18ECCEC15F0000E376E770E29
:102884003718D8A404D0CCEC15F0000E376E7A0EAD
:102894003718D8A404D0000E386E000E376E750EAB
:1028A4003718D8A412005FB002D05F8001D05F90C7
:1028B400000E376E1200F6EC15F0460E4C6E2E0E1E
:1028C4004D6E000E4E6EF5EC16F02E0E4C6E2E0E66
:1028D4004D6E000E4E6ED9EC16F0340E4C6E2E0E6C
:1028E4004D6E000E4E6E62EC16F0B6EC15F0000E56
:1028F40052EC15F0386E010E52EC15F0586E58304B
:10290400D8A002D05F8001D05F90000E376E5F9236
:10291400D68E25EC14F04AEC16F0FBD7576EAA0EAF
:102924004D6E550E4C6EFCEC16F05750526E536AB9
:10293400000E546E000E556E380E566E52505424CE
:102944004C6E535055204D6E000E53BEFF0E562054
:102954004E6E51C54FF5DCEC14F0CBEC16F00009CB
:10296400D8A4FBD701EC17F01200000EE86F000E9C
:10297400F96F000EFA6F000EFB6F020EF16FC90EB5
:10298400F06F0B0EFD6F000EF86F000EF76F000E68
:10299400EF6F010EEE6F490EFF6F000EFE6FB09ADF
:1029A400B098B09EB09CA09AA098A09EA09C000E47
:1029B400FC6F1200000ED6BE010E506E4EC545F0DF
:1029C4004DC544F04CC543F04FC546F0000141519C
:1029D400F80B0309416FD69E000136C542F035500D
:1029E400426F408150B002D0D69E01D0D68EF80EF0
:0629F40000014117120072
:1029FC00FAC445F5FBC446F5B19E34C519F333C58D
:102A0C0018F359505A105B10D8B40CD001D80AD016
:102A1C000500FA6E5950FD6E5A50FE6E5B50FF6EFB
:102A2C00FA50120046C5FBF445C5FAF411000B0E22
:102A3C000301196FDC0E186F480E1B6F19514F6E86
:102A4C001851336E4FC534F5540E4C6E2E0E4D6E20
:102A5C00000E4E6ED9EC16F0B19EA18E900E0301B5
:102A6C001A6F12004D6EA7B203D04DC5C9F212D029
:102A7C003C50D8B40FD0110E3E24D96EDA6A050E34
:102A8C00DA224DC5DFF43E28070B4C6E4CC53EF5E3
:102A9C00A7923C06A7821200546E54504F6E506A97
:102AAC00000E516E000E526E380E536E4F50512464
:102ABC004C6E505052204D6E000E50BEFF0E5320E7
:102ACC004E6E56EC16F0556E55501200000E00016D
:102ADC00B46F070EB56F070EB66F070EB76F070E04
:102AEC00B86F070EB96F070EBA6F070EBB6F070EE4
:102AFC00BE6F070EBF6F000EF46E000EF36E120069
:102B0C004C6E000ED6BE010E4D6ED69E550E0001BB
:102B1C00B46FAA0EB46FB4914CC5B6F0550EB46F29
:102B2C00AA0EB46FB4814DB002D0D69E01D0D68E11
:102B3C00120001EE60F1080EEE6AE806FDE15F6A34
:102B4C0001EE01F13E0EEE6AE806FDE10401080E0D
:102B5C005D6F000E5E6F000E5F6F00015DEF14F095
:102B6C006F0E4C6E250E4D6E000E4E6EC1EC16F0B7
:102B7C00000E4D6E120E4C6ED2EC16F0010E86EC61
:102B8C0015F00BEC17F010EC17F0120006EC17F028
:102B9C005B0E4C6E250E4D6E000E4E6EC1EC16F09B
:102BAC00000E4D6E130E4C6ED2EC16F00BEC17F0B3
:102BBC0010EC17F01200080E3C6010D0110E3D24E2
:102BCC00D96EDA6A050EDA22DF500201C96F3D2890
:102BDC00070B4B6E4BC53DF53C2A1200A792120019
:102BEC003CEC16F02BEC13F06CEC15F0B7EC14F08D
:102BFC0014EC17F01DEC15F08EEC13F0E4EC13F064
:102C0C00E0EC16F012002E502F103010D8B4120039
:102C1C0001D812000500FA6E2E50FD6E2F50FE6E7C
:102C2C003050FF6EFA5012002B502C102D10D8B4CF
:102C3C00120001D812000500FA6E2B50FD6E2C50BC
:102C4C00FE6E2D50FF6EFA501200285029102A10DB
:102C5C00D8B4120001D812000500FA6E2850FD6E8F
:102C6C002950FE6E2A50FF6EFA501200600E0001C1
:102C7C00AD6F000EAF6F000EB36F080EB16F000E8C
:102C8C00B06F400EAC6F120038500F0BBE6E5FA2CF
:102C9C0012005FA003D02B0E38EC15F05F921200DF
:102CAC004EC545F04DC544F04CC543F0F80E00013F
:102CBC0041174081465112004C504D104E10D8B463
:102CCC0012004CC519F54DC51AF54EC51BF5120071
:102CDC004C504D104E10D8B412004CC51FF54DC5BC
:102CEC0020F54EC521F512004C504D104E10D8B4A5
:102CFC0012004CC522F54DC523F54EC524F5120026
:102D0C004C504D104E10D8B412004CC525F54DC585
:102D1C0026F54EC527F51200FAC43FF5FBC440F565
:102D2C00AF9009EC16F040C5FBF43FC5FAF4110066
:102D3C00FAC441F5FBC442F5B4901AEC16F042C546
:102D4C00FBF441C5FAF41100FAC443F5FBC444F595
:102D5C00B8902BEC16F044C5FBF443C5FAF4110003
:102D6C00FAC449F5FBC44AF5C2EC12F04AC5FBF4AF
:102D7C0049C5FAF41100000E0001E86F4CC5F9F0DA
:102D8C004DC5FAF04EC5FBF01200000140A102D077
:102D9C00010E1200000E1200000EE86F4CC5F7F089
:102DAC004DC5F8F012004CC559F54DC55AF54EC538
:102DBC005BF51200550E0001B46FAA0EB46FB4810E
:102DCC0012004CC528F54DC529F54EC52AF5120043
:102DDC004CC52BF54DC52CF54EC52DF512004CC52B
:102DEC002EF54DC52FF54EC530F512004DC535F5F8
:102DFC004CC536F51200000E356E000E366E120004
:102E0C00000E0001E86FFC9F1200000E0001E86F3D
:102E1C00FC8F1200000EE86FFC8D120021EC17F0F5
:0E2E2C001200382A5F821200C7C237F512006A
:0E2E3C00E1EC15F01100419F1200382A12003F
:0E2E4C001100120012001200120012001200FB
:020000040030CA
:080000008CFFFFF79FFFFFFFDB
:01000900FFF7
:020000040038C2
:020000000000FE
:00000001FF
