:0400000000EFA0F07D
:10000800E758E758E758E758E758E758E758E758F0
:10001800E758E758E758E758E758E758E758E758E0
:10002800E758E758E758E758E758E758E758E758D0
:10003800E758E758E758E758E758E758E758E758C0
:10004800E758E758E758E758E758E758E758E758B0
:10005800E758E758E758E758E758E758E758E758A0
:10006800E758E758E758E758E758E758E758E75890
:10007800E758E758E758E7584200E758E758E7587D
:10008800E758E758E758E758E758E758E758E75870
:1000980022583858E758E7584200E758E758E758D1
:1000A800E758E758E758E758E758E758E758E75850
:1000B800E758E758E758E758E758E758E758E75840
:1000C800E758E758E758E758E758E758E758E75830
:1000D800E758E758E758E758E758E758E758E75820
:1000E8004200E758E758E758E758E758E758E7580D
:1000F800E758E758E758E758E758E758E758E75800
:02010800FF00F6
:10FFE000000D0A4D455A36383030382025322E3330
:10FFF000664D487A0D0A00696E66006E616E0000FB
:020000040001F9
:1000000000009FF0000000C00000084E00000862E1
:1000100000000876000008D4000008EA000009008B
:10002000000009160000092C0000094200000958D0
:100030000000084C0000084C0000096E0000084C4D
:100040000000084C0000084C0000084C0000084C60
:100050000000084C0000084C0000084C0000084C50
:100060000000084C0000084C0000084C0000084C40
:100070000000084C0000084C0000084C0000084C30
:10008000000009840000099A000009B0000009C6B8
:10009000000009DC000009F200000A0800000A1E46
:1000A00000000A3400000A4A00000A5E00000A72DA
:1000B00000000A8600000A9A00000AAE00000AC288
:1000C00061001090203C0000118C23C000009F189C
:1000D00023C000009F2223C000009F2613FC005372
:1000E00000009F2A13FC000000009F2C41F9000033
:1000F0009F34303C00A3421851C8FFFC23FC000091
:100100009FF000009F7823F900009F2200009F3499
:1001100023FC00009F0000009F7441F80BDC61008D
:1001200005EE41F80C3F4E7A080141F80C4913FCEA
:10013000000100009F2C610005D641F80BF861001A
:1001400005CE6100064E41F900009F00610006AE39
:100150001010610006B24A0067E0B03C004467320C
:10016000B03C00476700016CB03C0053670001DA07
:10017000B03C004C6700025EB03C00506700036E6C
:10018000B03C00526700047E41F80C156100058008
:1001900060A85248610006666100067E4A42661CFD
:1001A0006100065A4A1066E0203900009F18D0BC52
:1001B0000000008023C000009F1C604023C100009D
:1001C0009F18610006380C10002C67124A1066B8A0
:1001D000D2BC0000008023C100009F1C601E52485A
:1001E0006100061A61000632610006124A426798F1
:1001F0004A106694528123C100009F1C20390000E0
:100200009F18C03C00F022404242612A61000F5A10
:100210004A006614B47C000265F023F900009F1CBC
:1002200000009F186000FF1423C900009F186100A0
:100230000F246000FF062009610004E241F80C1D54
:10024000610004CC45F900009F00363C000F613A84
:1002500051CBFFFC41F80C20610004B445F90000CB
:100260009F00363C000F101AB03C0020650CB03CDB
:10027000007F640661000EFE6008103C002E6100E5
:100280000EF451CBFFE2600004FA103C0020610044
:100290000EE44A42661EB3F900009F186712103C34
:1002A000002061000ED061000ECC14C052494E7582
:1002B000343C0001B47C000166E4101914C06100F4
:1002C000046CB3F900009F1C67024E75343C0002B9
:1002D0004E755248610005266100053E4A106600D1
:1002E000FEA84A42670623C100009F34203900005F
:1002F0009F78C0BCFFFFFFFE2E404A3900009F2CB4
:1003000067283F3C0000203900009F7EC0BCFFFFF3
:10031000FFFE4E7B0801103900009F824E7B0000DB
:10032000103900009F834E7B00012F3900009F345D
:100330003F3900009F7C207900009F744E604CF98B
:100340007FFF00009F384E735248610004B0610087
:1003500004C8610004A84A106600FE2E22414A42E9
:100360006606227900009F262009610003B041F84B
:100370000C206100039A1011610003B2103C0020B0
:1003800061000DF26100040C41F900009F00610062
:10039000046C1010660A524923C900009F2660C8E9
:1003A000B03C002D660A534923C900009F2660B85F
:1003B000B03C002E660A23C900009F266000FD7C29
:1003C000610004564A426700FDC012C123C9000003
:1003D0009F2660945248610004246100043C61003F
:1003E000041C4A106600FDA24A4266024281610076
:1003F0000D6461000412B03C005367000082B03C01
:10040000003A6712B03C000D67E4B03C000A67DEBA
:1004100061000D4260EE6100033442421400160098
:100420006100032A42841800D60061000320E14CD9
:100430001800D600D88122446100031213C00000C6
:100440009F2BD6004A426716534261000300D60034
:100450004A3900009F2B660212C051CAFFEE6100AC
:1004600002ECD600660C4A3900009F2B67A26000A0
:10047000FCCA41F80BFB610002966000FCBE610003
:100480000CD413C000009F2B610002C24242140032
:100490001600610002B842841800D600610002AE66
:1004A000E18C1800D600D881224457426718534285
:1004B0006100029AD6000C39003100009F2B6602C1
:1004C00012C051CAFFEC61000284D600B63C00FFA6
:1004D000660E0C39003900009F2B670C6000FF325C
:1004E00041F80C08610002286000FC5052481010CE
:1004F00061000314B03C00496706B03C0053660835
:10050000524813C000009F2A610002F26100030AF2
:100510004A426700FC742241610002E20C18002C80
:100520006600FC66610002D6610002EE4A42670086
:10053000FC58610002C84A106600FC4E9289524184
:1005400061264A8166FA0C39004900009F2A660C30
:1005500041F80C24610001B86000FBE041F80C3266
:10056000610001AC6000FBD47410B282640224010B
:1005700092820C39004900009F2A6642103C003AE2
:1005800061000BF210021602610001A22009E0488E
:10059000D600610001982009D60061000190420058
:1005A0006100018A53421019D6006100018051CACE
:1005B000FFF61003440061000174600001C6103CA6
:1005C000005361000BB0103C003161000BA8100219
:1005D00056001600610001562009E088D60061002F
:1005E000014C2009D6006100014453421019D60085
:1005F0006100013A51CAFFF6100346006100012E66
:10060000600001805248610001F41010610001F89F
:100610004A006608610000BA6000FB2043F80E9EA5
:10062000B01167104A290001670000A2D3FC000046
:10063000000A60EC0C29000F0001660E226900021E
:1006400052481010610001C060D616290001677C75
:100650006A084A3900009F2C677220690006610011
:1006600000AE103C003D61000B0C24690002C63C4A
:100670000007B63C000166081012610000B060146B
:10068000B63C0002660830126100009A6006201233
:100690006100008A103C002061000ADA610000F469
:1006A00041F900009F00610001546100016C4A4261
:1006B0006716B63C000166041481600CB63C00026B
:1006C00066043481600224816000FA706000FABA26
:1006D00043F80D863219670000AA6A0A4A390000F9
:1006E0009F2C6700009E205961242059C27C000382
:1006F000B27C000166061010613260D8B27C000244
:1007000066063010611E60CC2010611060C61018A3
:100710004A00670661000A5E60F44E752F0048408B
:100720006102201F2F00E0586102201F2F00E818EF
:100730006102201FC03C000FD03C0030B03C003AAA
:1007400065000A32D07C000760000A2A420061027C
:10075000E9083F00610009FE610000ACB03C0030D8
:10076000651CB03C003A6510B03C00416510B03CDF
:100770000047640A903C0007903C00308057544F7B
:100780004E75103C000D610009EC103C000A600041
:1007900009E441F900009F004201610009B8B03C42
:1007A000000D6750B03C000A674AB03C0008672261
:1007B000B03C007F671CB03C002065DEB03C008090
:1007C00064D8B23C001764D2520110C0610009A67F
:1007D00060C84A0167C453885301103C0008610097
:1007E0000994103C00206100098C103C0008610055
:1007F000098460A6618C10BC00004E750C180020A6
:1008000067FA53884E75B03C0061650AB03C007BC6
:100810006404D03C00E04E7542424281101061E613
:10082000B03C00306524B03C003A6510B03C00415B
:100830006518B03C00476412903C0007903C0030C3
:10084000E98982005248524260D24E754E7323FCB1
:1008500000000C5300009F2E427900009F32600080
:10086000027623FC00000C5D00009F2E4279000000
:100870009F32600002620CAF000001260002660C8D
:100880005C4F423900009F2C6000F8AC48F97FFFB4
:1008900000009F3823FC00000C6B00009F2E33FCEF
:1008A000000100009F32206F00023010B07C4AFC33
:1008B000670CC07CFFF8B07C48486600022223FC2D
:1008C00000000D8000009F2E33FC010100009F32CC
:1008D0006000020C23FC00000C7F00009F2E33FC04
:1008E000000200009F32600001EE23FC00000C8B30
:1008F00000009F2E33FC000200009F32600001D8F0
:1009000023FC00000C9B00009F2E33FC0002000023
:100910009F32600001C223FC00000CAD00009F2E3E
:1009200033FC000100009F32600001AC23FC00009A
:100930000CC100009F2E33FC000100009F326000BC
:10094000019623FC00000CC700009F2E33FC000121
:1009500000009F326000018023FC00000CDA0000E0
:100960009F2E33FC000100009F326000016A23FCCF
:1009700000000CED00009F2E33FC000100009F32B0
:100980006000015423FC00000CFA00009F2E33FC91
:10099000000200009F326000013E23FC00000D02B7
:1009A00000009F2E33FC000200009F3260000128EF
:1009B00023FC00000D0A00009F2E33FC0002000003
:1009C0009F326000011223FC00000D1200009F2ED8
:1009D00033FC000200009F32600000FC23FC00009A
:1009E0000D1A00009F2E33FC000200009F326000B1
:1009F00000E623FC00000D2200009F2E33FC0002C5
:100A000000009F32600000D023FC00000D2A00008F
:100A10009F2E33FC000200009F32600000BA23FCCE
:100A200000000D3200009F2E33FC000200009F32B8
:100A3000600000A423FC00000D3A00009F2E33FC50
:100A4000000200009F326000008E23FC00000D4277
:100A500000009F2E33FC000200009F32607823FCD0
:100A600000000D4A00009F2E33FC000200009F3260
:100A7000606423FC00000D5300009F2E33FC000235
:100A800000009F32605023FC00000D5C00009F2E90
:100A900033FC000200009F32603C23FC00000D6527
:100AA00000009F2E33FC000200009F32602823FCD0
:100AB00000000D6E00009F2E33FC000200009F32EC
:100AC000601423FC00000D7700009F2E33FC000211
:100AD00000009F324E7148F97FFF00009F384A792D
:100AE00000009F3266144A3900009F2C660C41F9C1
:100AF00000009FA430DF20DF30DF33DF00009F7C69
:100B000023DF00009F344E6823C800009F744A39D9
:100B100000009F2C673C4E7A080123C000009F7E96
:100B20004E7A000013C000009F824E7A000013C06E
:100B300000009F83341F33C200009FD6C47CF000A6
:100B40004A42670E41F900009FA4741830DF51CA71
:100B5000FFFC23CF00009F78207900009F2E6100CA
:100B6000FBAE6100FC1E4A7900009F3266026108FC
:100B70006100FB5E6000F5C44A3900009F2C665A94
:100B8000303900009FA4C07C0007E54841F810B44C
:100B9000207000006100FB78303900009FA4C07C09
:100BA0000010660641F8113B600441F811426100F3
:100BB000FB5E203900009FA66100FB6241F81148EE
:100BC0006100FB4C303900009FAA6100FB58103CCB
:100BD0000029610005A06000FBAA4E750D0A556E44
:100BE0006976657273616C204D6F6E69746F7220E7
:100BF00036383030300D0A005D20004572726F7259
:100C000020696865780D0A004572726F72207372F0
:100C100065630D0A004572726F720D0A00203A007A
:100C2000203A20003A303030303030303146460DF6
:100C30000A00533930333030303046430D0A004D0E
:100C40004336383030300D0A004D433638303130BD
:100C50000D0A00427573204572726F720041646420
:100C600072657373204572726F7200496C6C6567B0
:100C7000616C20496E737472756374696F6E005A8B
:100C800065726F204469766964650043484B20496A
:100C90006E737472756374696F6E0054524150566E
:100CA00020496E737472756374696F6E0050726957
:100CB00076696C6567652056696F6C6174696F6EE3
:100CC000005472616365004C696E652031303130CB
:100CD00020456D756C61746F72004C696E652031D2
:100CE00031313120456D756C61746F7200466F72E1
:100CF0006D6174204572726F72005452415020230E
:100D0000300054524150202331005452415020238E
:100D1000320054524150202333005452415020237A
:100D20003400545241502023350054524150202366
:100D30003600545241502023370054524150202352
:100D4000380054524150202339005452415020233E
:100D5000313000545241502023313100545241501F
:100D60002023313200545241502023313300545259
:100D7000415020233134005452415020233135005A
:100D8000425245414B00000300000E6400009F38B2
:100D9000000300000E9800009F3C000300000E9826
:100DA00000009F40000300000E9800009F440003D5
:100DB00000000E9A00009F48000300000E980000FB
:100DC0009F4C000300000E9800009F50000300009D
:100DD0000E9800009F54000300000E6B00009F5807
:100DE000000300000E9800009F5C000300000E98B6
:100DF00000009F60000300000E9800009F64000345
:100E000000000E9A00009F68000300000E9800008A
:100E10009F6C000300000E9800009F70000300000C
:100E20000E9800009F74000300000E7400009F34B1
:100E3000000300000E7A00009F78000200000E8080
:100E400000009F7C800300000E8500009F7E8001D3
:100E500000000E8C00009F82800100000E920000B6
:100E60009F83000044302D44373D000D0A41302D52
:100E700041373D000D0A50433D00205353503D0083
:100E80002053523D0020205642523D0020534643FD
:100E90003D00204446433D002C002C2000FF410F24
:100EA00000000EE400000000430F00000F3E0000B1
:100EB0000000440F00000F5200000000500F00001F
:100EC0000FB600000000530F00000FCA0000000022
:100ED000560F00000FF200000000000000000000AC
:100EE00000000000300300009F580000106A31032A
:100EF00000009F5C0000106D320300009F60000046
:100F00001070330300009F6400001073340300006E
:100F10009F6800001076350300009F6C0000107978
:100F2000360300009F700000107C370300009F74A0
:100F30000000107F00000000000000000000430FD0
:100F4000000010060000000000000000000000008B
:100F50000000300300009F380000108631030000BD
:100F60009F3C00001089320300009F400000108C5D
:100F7000330300009F440000108F340300009F489B
:100F800000001092350300009F4C000010953603BE
:100F900000009F5000001098370300009F5400008D
:100FA000109B460F0000101A000000000000000017
:100FB000000000000000430300009F34000010A266
:100FC00000000000000000000000460F0000102E8E
:100FD00000000000520200009F7C000010A9530F87
:100FE00000001042000000000000000000000000AF
:100FF0000000420F0000105600000000000000003A
:10100000000000000000520100009F7D00001082DF
:1010100000000000000000000000438100009F83EA
:101020000000109E0000000000000000000043814E
:1010300000009F82000010A50000000000000000DA
:101040000000500300009F78000010AC000000007A
:10105000000000000000528300009F7E000010B0DE
:10106000000000000000000000004130004131009D
:1010700041320041330041340041350041360041E6
:1010800037004343520044300044310044320044AE
:1010900033004434004435004436004437004446AD
:1010A00043005043005346430053520053535000F3
:1010B00056425200000010D4000010DA000010E583
:1010C000000010F3000010F9000010FF00001110E4
:1010D0000000112446433D302000557365722044C2
:1010E0006174612000557365722050726F67726180
:1010F0006D200046433D33200046433D34200053DD
:10110000757065727669736F722044617461200036
:1011100053757065727669736F722050726F677263
:10112000616D2000496E7465727275707420416340
:101130006B6E6F776C6564676520005772697465C4
:101140002000526561642000202028496E73743DA0
:1011500000FF4E7510390000E001C03C000167F44B
:1011600010390000E0004E7510390000E001C03C6D
:1011700000014E75484010390000E001C03C0002FB
:1011800067F4484013C00000E0004E750000000006
:10119000000000000000000000000000000000004F
:1011A000000000000000000000000000000000003F
:1011B000000000000000000000000000000000002F
:1011C000000000000000000000000000000000001F
:10400000E3EFB0F0000E926F6CC593F56DC594F5BB
:104010006EC595F56FC596F596AF14D0010E926FEB
:1040200093C506F594C507F595C508F596C509F538
:1040300079ECB1F006C593F507C594F508C595F57B
:1040400009C596F5000E986F000E976FCEC582F5E4
:10405000CFC583F59251D8B40DD09251D8A404D0D5
:10406000000E786F2B0E03D0000E786F2D0E776F39
:1040700077C592F593C506F594C507F595C508F57E
:1040800096C509F59AECAEF006040710D8A42CD01A
:1040900005019251D8B409D092C580F68207D8A004
:1040A0008307000E986F010E976F800E9725066E9E
:1040B000060E9821076EF70E086EFF0E096E27ECAC
:1040C000B1F0FD0E8227FF0E83236AC517F56BC57D
:1040D00018F5800E196E060E1A6E82C51BF583C583
:1040E0001CF5A2ECAFF0120093C506F594C507F5D8
:1040F00095C508F596C509F59AECAEF0065007107F
:10410000D8A42CD005019251D8B409D092C580F61C
:104110008207D8A08307000E986F010E976F800E5C
:104120009725066E060E9821076EFB0E086EFF0E91
:10413000096E27ECB1F0FD0E8227FF0E83236AC5BE
:1041400017F56BC518F5800E196E060E1A6E82C52E
:104150001BF583C51CF5A2ECAFF01200000E0501A3
:10416000996F000E9A6F800E9B6F3F0E9C6F000E32
:10417000816F000E806F93C506F594C507F595C550
:1041800008F596C509F5000E0A6E000E0B6E000EBE
:104190000C6E000E0D6E5DECAFF0D8A00CD0BED052
:1041A00084C599F585C59AF586C59BF587C59CF5A7
:1041B0000501804B812B99C514F59AC515F59BC552
:1041C00016F59CC517F5000E186E000E196E200E20
:1041D0001A6E410E1B6ECCECA7F014C584F515C504
:1041E00085F516C586F517C587F505018451935DDC
:1041F000066E85519459076E86519559086E875100
:104200009659096E17ECB0F009BECAD709500810CC
:10421000071004E1020E065CD8A0C2D784C52DF5B4
:1042200085C52EF586C52FF587C530F593C531F5C3
:1042300094C532F595C533F596C534F532ECAEF03C
:10424000D8A0AED705019951935D066E9A51945945
:10425000076E9B519559086E9C519659096E17EC43
:10426000B0F009BE08D009500810071043E1020E53
:10427000065CD8B03FD099C593F59AC594F59BC517
:1042800095F59CC596F54AD099C52DF59AC52EF59C
:104290009BC52FF59CC530F5000E316E000E326EB9
:1042A000200E336E410E346EE8ECAAF02DC599F560
:1042B0002EC59AF52FC59BF530C59CF505018007E5
:1042C000D8A081079951935D066E9A519459076E53
:1042D0009B519559086E9C519659096E17ECB0F098
:1042E00009BEC9D709500810071004E1020E065C88
:1042F000D8A0C1D793C52DF594C52EF595C52FF53A
:1043000096C530F599C531F59AC532F59BC533F59B
:104310009CC534F532ECAEF0D8A0B6D770C57AF5AE
:104320007AC57BF50501D1BF05D0D0C573F5D1C5E0
:1043300074F504D0000E746F060E736F73C57EF5AE
:1043400074C57FF57E4B7F2B660E7B19D8A416D0E3
:1043500081AF0CD0000E996F000E9A6F800E9B6F8C
:104360003F0E9C6F000E816F000E806F670E7A19F2
:10437000D8B404D080517E2781517F23000E896FED
:10438000000E886F93C58AF594C58BF595C58CF59D
:1043900096C58DF599C584F59AC585F59BC586F5B5
:1043A0009CC587F57BD08AC52DF58BC52EF58CC5B0
:1043B0002FF58DC530F599C531F59AC532F59BC5F8
:1043C00033F59CC534F5E8ECAAF02DC546F52EC5AD
:1043D00047F52FC548F530C549F52CECACF046C57E
:1043E0008EF547C58FF548C590F549C591F58EC541
:1043F00006F58FC507F590C508F591C509F500ECE0
:10440000AFF006C57CF507C57DF58AC52DF58BC5D2
:104410002EF58CC52FF58DC530F58EC518F58FC5D9
:1044200019F590C51AF591C51BF599C514F59AC5EE
:1044300015F59BC516F59CC517F5CCECA7F014C572
:1044400031F515C532F516C533F517C534F5C0EC91
:10445000B0F02DC58AF52EC58BF52FC58CF530C56E
:104460008DF599C52DF59AC52EF59BC52FF59CC5E3
:1044700030F5000E316E000E326E200E336E410E9E
:10448000346EE8ECAAF02DC599F52EC59AF52FC526
:104490009BF530C59CF50501884B892B7E51885DC5
:1044A0008951800A506E7F51800A5058D8A07BD71E
:1044B00099C514F59AC515F59BC516F59CC517F554
:1044C000000E186E000E196EA00E1A6E400E1B6EB6
:1044D000CCECA7F014C58EF515C58FF516C590F573
:1044E00017C591F58AC52DF58BC52EF58CC52FF511
:1044F0008DC530F58EC531F58FC532F590C533F5D4
:1045000091C534F532ECAEF0D8B003D0000E050101
:1045100018D08AC506F58BC507F58CC508F58DC57D
:1045200009F58EC50AF58FC50BF590C50CF591C53B
:104530000DF55DECAFF0D8A00BD005017CB108D033
:10454000000E8E6F000E8F6F000E906F000E916F39
:1045500093C506F594C507F595C508F596C509F503
:104560008EC50AF58FC50BF590C50CF591C50DF5F7
:1045700062ECA9F006C58AF507C58BF508C58CF570
:1045800009C58DF58AC52DF58BC52EF58CC52FF582
:104590008DC530F5000E186E000E196E200E1A6EC5
:1045A000410E1B6E84C514F585C515F586C516F537
:1045B00087C517F5CCECA7F014C531F515C532F554
:1045C00016C533F517C534F532ECAEF0D8A024D0BB
:1045D0000501804B812B84C514F585C515F586C56D
:1045E00016F587C517F5000E186E000E196E200E11
:1045F0001A6E410E1B6ECCECA7F014C584F515C5E0
:1046000085F516C586F517C587F5660E05017B1974
:10461000D8A402D07E4B7F2B84C599F585C59AF529
:1046200086C59BF587C59CF580C571F581C572F57A
:10463000000E0501796F000E766F000E756F000E8B
:10464000896F000E886FCDD08AC52DF58BC52EF5EC
:104650008CC52FF58DC530F599C531F59AC532F564
:104660009BC533F59CC534F5E8ECAAF02DC546F59D
:104670002EC547F52FC548F530C549F52CECACF0F3
:1046800046C58EF547C58FF548C590F549C591F5E6
:104690008EC506F58FC507F590C508F591C509F5D6
:1046A00000ECAFF007BE06D0075013E10A0E065C1F
:1046B000D8B00FD08EC506F58FC507F590C508F5A3
:1046C00091C509F500ECAFF006C57CF507C57DF591
:1046D00005D0000E05017D6F090E7C6F0501795133
:1046E000D8B472AF20D0800E9725D96E060E9821CF
:1046F000DA6E2E0EDF6E974B982B8207D8A08307B9
:10470000010E796F10D0800E9725D96E060E982174
:10471000DA6E300EDF6E974B982B8207D8A0830796
:104720007507D8A0760775517611D8A4ECD7800EFE
:104730009725D96E060E9821DA6E7C51300FDF6E08
:10474000974B982B8207D8A083078AC52DF58BC578
:104750002EF58CC52FF58DC530F58EC518F58FC596
:1047600019F590C51AF591C51BF599C514F59AC5AB
:1047700015F59BC516F59CC517F5CCECA7F014C52F
:1047800031F515C532F516C533F517C534F5C0EC4E
:10479000B0F02DC58AF52EC58BF52FC58CF530C52B
:1047A0008DF599C52DF59AC52EF59BC52FF59CC5A0
:1047B00030F5000E316E000E326E200E336E410E5B
:1047C000346EE8ECAAF02DC599F52EC59AF52FC5E3
:1047D0009BF530C59CF505017107D8A07207884B81
:1047E000892B7E51885D8951800A506E7F51800AE5
:1047F0005058D8B008D098BF27D7985104E14B0E35
:10480000975DD8A021D7000E896F4F0E886F800E5C
:104810008825D96E060E8921DA6E000EDF6E800EB5
:10482000506E060E516E9751505E9851515A8851F4
:104830005024066E89515120076E800E086E060EB8
:10484000096E97C50AF598C50BF505ECB1F09751BF
:10485000885D976F98518959986F9251D8B402D05A
:10486000010E01D0000E886F896B9251D8B40BD025
:104870009707D8A09807800E9725D96E060E982125
:10488000DA6E92C5DFF48851825F8951835B6AC515
:1048900017F56BC518F5800E9725196E060E982131
:1048A0001A6E82C51BF583C51CF5A2ECAFF0120091
:1048B000080E0001B16F000E0401186F1969C96874
:1048C000000E086F0969C768000E106F1169C8688B
:1048D0003F0E0201036F04010095C694000E436F62
:1048E000000E446F030E456F000E476F4691468BD6
:1048F000468F2095C294CA942093C282CA92009196
:104900000181C68000930183C682009B018BC68A09
:104910000099BE88C6982091C280CA900097BE8632
:10492000C696000E0201D56F220ED46F810ED36F92
:10493000000E5A6E110E0501DD6F000E566E000E50
:10494000556E55C5DAF556C5DBF5DAC557F5DBC545
:1049500058F5000ED56F000ED46FD4C5D6F5D5C569
:10496000D7F5D6C5D8F5D7C5D9F50201D189D18BF0
:104970000401009FC68E070E0201766F0401009DA0
:10498000BE8CC69C260E0201076FD28F000E186ED9
:10499000240E196EF40E1A6E410E1B6E0401435163
:1049A000066E4451076E4551086E096A000E02EC0E
:1049B000ADF006C514F507C515F508C516F509C50A
:1049C00017F5CCECA7F014C52DF515C52EF516C5B9
:1049D0002FF517C530F5000E316E240E326E740EB1
:1049E000336E490E346EE8ECAAF02DC5C0F52EC525
:1049F000C1F52FC5C2F530C5C3F5E10E0501B66F8F
:104A0000FF0EB76FC0C5B8F5C1C5B9F5C2C5BAF5D7
:104A1000C3C5BBF590ECB1F0000E0201616F050E4D
:104A2000626F1F0E636F1E0E646F1D0E676F1C0E8C
:104A3000686F010E0001D56F020ED86F030ED96F9B
:104A4000060EDA6F7F0EDB6F020EDC6F040EDD6F79
:104A5000100EDE6F400EDF6F000ED76F820ED66F26
:104A6000020ED56F020ED86F030ED96F010EDA6FEA
:104A70007F0EDB6F010EDC6F040EDD6F200EDE6F2C
:104A8000400EDF6F000ED76F820ED66F000E05014D
:104A9000C56F000EC46F000EC425D96E200EC5214F
:104AA000DA6E000EDF6EC44BC52B200EC55DD8A09C
:104AB000F2D7010EF86E550E0401596FAA0E596F08
:104AC0005991080E5D6F000E5E6F000E5F6F550E00
:104AD000596FAA0E596F5981B7A2FED7110E020164
:104AE000C96FA780D68EC284CEB0FED70001D4A5F0
:104AF00009D0C86ACFC4F6F4D1C4F7F40800F5C4ED
:104B0000C0F498D0D4A315D0CEAA0AD0C86ACFC416
:104B1000D9F4D1501F0B2009DA6EDFC4C0F48AD05B
:104B2000CFC4D9F4D1501F0B2009DA6ED0C4DFF402
:104B300081D0CEAA59D0D1C4D3F5CFC4D2F5000EBE
:104B4000C86E0501D2051EE1E00ED319D8A41AD013
:104B5000D69E55505610D8B403D0BE6BBE2B02D093
:104B60000501BE6B800ED419D511D8B403D0BF6B2C
:104B7000BF2B02D00501BF6BD890BF35BE11C06EF0
:104B8000D68E58D0E00ED319D211D8A42BD0D69EF1
:104B900055505610D8A402D0000EF1D7000EDA25D9
:104BA000D96E070EDB21DA6EDF50C06E010EDA25FA
:104BB000BE6F000EDB21BF6F7F0EBE15DA6FDB6BA1
:104BC0005506D8A05606130EDD19D8A4D9D70A0E5B
:104BD00055185610D8A4D4D7110EDD6FDDC55AF57F
:104BE000A782CED7C06826D0D1C4D3F5CFC4D2F522
:104BF000E00E0501D319D211D8A41CD0D69ED551F0
:104C0000BFE1800ED45DD8B0BBD7000ED825D96ED9
:104C1000060ED921DA6ED0C4DFF4010ED825BE6F9E
:104C2000000ED921BF6F7F0EBE15D86FD96BD44B44
:104C3000D52BD6D7D69EBE98CEA0FED7C868BE8844
:104C4000D68E52D79FC5D9F4A0C5DAF4DEC4F6F4E7
:104C5000DDC4F7F4000EF86E0800F550250AD8A45C
:104C600086D19FC5D9F4A0C5DAF4DE2A000EDD2274
:104C7000000ECF6F000ECE6FCEC559F5D069D16949
:104C80009FC5D9F4A0C5DAF4DEC4F6F4DDC4F7F4A8
:104C9000000EF86E0800F5502A0AD8A423D09FC54C
:104CA000D9F4A0C5DAF4DE2A000EDD22A1C5D9F4BC
:104CB000A2C5DAF4DFC452F5020EDE26DFC453F5D6
:104CC000000EDD2252C5D9F453C5DAF4DEC4CEF5A8
:104CD000DDC4CFF5CFAF35D05980CE6DCF1FD8B062
:104CE000CF2B2FD09FC5D9F4A0C5DAF4DEC40CF5C4
:104CF000DDC40DF5A2ECADF00CC5CEF50DC5CFF5BC
:104D000007D09FC5D9F4A0C5DAF4DE2A000EDD2253
:104D10009FC5D9F4A0C5DAF4DEC4F6F4DDC4F7F417
:104D2000000EF86E0800F5C452F5D00E5224536EF2
:104D3000546AFF0E5422545004E10A0E535CD8A06A
:104D4000E0D79FC5D9F4A0C5DAF4DEC4F6F4DDC41B
:104D5000F7F4000EF86E0800F5502E0AD8A466D0BD
:104D6000000E0501D16F000ED06F9FC5D9F4A0C50C
:104D7000DAF4DE2A000EDD229FC5D9F4A0C5DAF4EC
:104D8000DEC4F6F4DDC4F7F4000EF86E0800F5504A
:104D90002A0AD8A41CD09FC5D9F4A0C5DAF4DE2A0B
:104DA000000EDD22A1C5D9F4A2C5DAF4DFC452F5A4
:104DB000020EDE26DFC453F5000EDD2252C5D9F403
:104DC00053C5DAF4DEC4D0F5DDC4D1F52FD09FC5CC
:104DD000D9F4A0C5DAF4DEC40CF5DDC40DF5A2ECFF
:104DE000ADF00CC5D0F50DC5D1F507D09FC5D9F4F0
:104DF000A0C5DAF4DE2A000EDD229FC5D9F4A0C5D5
:104E0000DAF4DEC4F6F4DDC4F7F4000EF86E080040
:104E1000F5C452F5D00E5224536E546AFF0E54223C
:104E2000545004E10A0E535CD8A0E0D79FC5D9F4D2
:104E3000A0C5DAF4DEC4ACF5DDC4ADF5ACC5F6F45E
:104E4000ADC5F7F4000EF86E0800F5C4ABF508D058
:104E5000AC4BAD2B18D06C0E01D0000EAB6F13D045
:104E60000501AB51526E536A5350000AD8A4F5D7CE
:104E700052504C0AD8B4ECD72A0AD8B4ECD70A0A54
:104E8000D8B4E6D7EAD7ACC5F6F4ADC5F7F4000E52
:104E9000F86E0800F550660AD8B41AD060D0A1C5E3
:104EA000D9F4A2C5DAF4DFC452F5040EDE26DFC45D
:104EB00053F5000EDD2252C5D9F453C5DAF4DEC431
:104EC000A3F5DEC4A4F5DEC4A5F5DEC4A6F50ED0B8
:104ED000AB51526E536A5350000AD8A407D05250B7
:104EE0004C0AD8B4DCD7200AD8B4D9D7010EAC25E7
:104EF000526E000EAD21536E9FC5D9F4A0C5DAF4F1
:104F000052C5DEF453C5DDF418D09DC56AF59EC5C3
:104F10006BF5A3C56CF5A4C56DF5A5C56EF5A6C565
:104F20006FF5ACC5F6F4ADC5F7F4000EF86E0800E9
:104F3000F5C470F502ECA0F01200ACC5F6F4ADC5F6
:104F4000F7F4000EF86E0800F550526E536A535095
:104F5000000AD8A404D05250660AD8B4D6D79FC548
:104F6000D9F4A0C5DAF4DE2A000EDD2212009FC5B6
:104F7000D9F4A0C5DAF4DEC4F6F4DDC4F7F4000E0B
:104F8000F86E0800F550076E086A9DC509F59EC5C4
:104F90000AF5E1ECAFF0E3D71750800B206E175005
:104FA0001724266E16BE26802650D8B40DD026288B
:104FB000D8A408D0000E146E000E156E000E166EEA
:104FC000000E176E168E08D0000E146E000E156EB1
:104FD000000E166E000E176E1B50800B201A1B5011
:104FE0001B24216E1ABE21802150D8B40DD0212857
:104FF000D8A408D0000E186E000E196E000E1A6E9E
:10500000000E1B6E1A8E08D0000E186E000E196E60
:10501000000E1A6E000E1B6E2150D8B403D026501D
:10502000D8A409D0000E146E000E156E000E166E78
:10503000000E176E12001A501402F3C42BF5F4C4BC
:105040002CF52B50226E236A246A256A2C50276E79
:10505000286A296A2A6A19501502F3C42BF5F4C488
:105060002CF52B502226000E2322242225222C5000
:105070002726000E282229222A2218501602F3C4BD
:105080002BF5F4C42CF52B502226000E23222422CB
:1050900025222C502726000E282229222A2224C528
:1050A00025F523C524F522C523F5226A18501502DB
:1050B000F3C42BF5F4C42CF52B5022262C502322BC
:1050C000000E2422000E252219501402F3C42BF5E1
:1050D000F4C42CF52B5022262C502322000E24221F
:1050E000000E252224C525F523C524F522C523F568
:1050F000226A18501402F3C42BF5F4C42CF52B507B
:1051000022262C502322000E2422000E25221A5083
:105110001502F3C42BF5F4C42CF52B5027262C5084
:105120002822000E2922000E2A2219501602F3C44A
:105130002BF5F4C42CF52B5027262C502822000EDA
:105140002922000E2A221A501602F3C42BF5F4C4A9
:105150002CF52B501C6E2C501D6E1E6A1F6A1EC52E
:105160001FF51DC51EF51CC51DF51C6A1C50272604
:105170001D5028221E5029221F502A222550272642
:10518000000E282229222A2224C525F523C524F52C
:1051900022C523F5226A215026C51CF51D6A1C264E
:1051A000000E1D22820E1C242B6EFF0E1D202C6E65
:1051B0000FD0D8902736283629362A3625BE2780A4
:1051C000D89022362336243625362B06D8A02C0636
:1051D00029AEEFD7000E216E25AE17D0FF0E221498
:1051E0001C6EFF0E23141D6EFF0E24141E6E7F0E08
:1051F00025141F6E1C501D101E101F10D8B403D094
:10520000010E216E02D027B0FBD72150D8B41FD099
:10521000010E2726000E282229222A222AA017D092
:1052200027C51CF528C51DF529C51EF52AC51FF57E
:105230001F341F321E321D321C321CC527F51DC5FE
:1052400028F51EC529F51FC52AF52B4A2C2A2CBE88
:105250000DD02C5003E12B28D8A008D0000E276ECB
:10526000000E286E800E296E7F0E20D02CBE05D039
:105270002C500EE12B04D8B00BD0000E276E000E80
:10528000286E000E296E000E2A6E000E206E0FD0C2
:105290002BC526F5FF0E2716FF0E28167F0E2916A2
:1052A000000E2A1626B0298ED89026302A6E20505D
:1052B0002A1227C514F528C515F529C516F52AC5DE
:1052C00017F512000950800B126E09500924146E54
:1052D00008BE14801450D8B40DD01428D8A408D017
:1052E000000E066E000E076E000E086E000E096EB0
:1052F000088E06D0000E066E000E076E000E086EB9
:10530000000E096E0D50800B136E12501318D8A4A6
:10531000128C0D500D24136E0CBE13801350D8B494
:105320000DD01328D8A408D0000E0A6E000E0B6E04
:10533000000E0C6E000E0D6E0C8E06D0000E0A6E66
:10534000000E0B6E000E0C6E000E0D6E1450135CF2
:10535000D8B022D012AC02D0800E121A14C515F5A6
:1053600013C514F515C513F506C515F50AC506F5DB
:1053700015C50AF507C515F50BC507F515C50BF5D8
:1053800008C515F50CC508F515C50CF509C515F5C5
:105390000DC509F515C50DF5000E156E145013C594
:1053A0000EF50F6A0E5E000E0F5A0FBE2CD00F5076
:1053B00004E11A0E0E5CD8A026D006500710081083
:1053C0000910D8B402D0010E01D0000E156E000EE7
:1053D000066E000E076E000E086E000E096E13C5F5
:1053E00014F515D015A005D0D89015300109156E0B
:1053F00002D0D890153206B0158E09340932083221
:1054000007320632142A1350145CD8A0EBD712BC12
:1054100028D01450D8A409D0000E066E000E076ED6
:10542000000E086E000E096E12000A5006260B5080
:1054300007220C5008220D50092209A071D015A096
:1054400005D0D89015300109156E02D0D8901532CC
:1054500006B0158E09340932083207320632142A92
:105460005FD00A50065C0B5007580C500858095082
:10547000800A0E6E0D50800A0E58D8B025D0065006
:105480000A5C0E6E07500B580F6E08500C58106EC9
:1054900009500D58116EFF0E0E24066EFF0E0F20E0
:1054A000076EFF0E1020086EFF0E1120096E800E91
:1054B000121A156C1550D8A40FD0010E0626000E36
:1054C00007220822092208D00A50065E0B50075A0C
:1054D0000C50085A0D50095A0650071008100910B0
:1054E000D8A41CD01550D8A419D0000E066E000EFA
:1054F000076E000E086E000E096E1200D890063678
:1055000007360836093615BE068015A002D0D880A9
:1055100001D0D89015361450D8A4140608AEEED792
:10552000000E136E15AE0BD015C50EF57F0E0E16C0
:10553000D8B403D0010E136E02D006B0FBD71350BF
:10554000D8B420D0010E0626000E07220822092218
:1055500009A018D006C50EF507C50FF508C510F54A
:1055600009C511F51134113210320F320E320EC549
:1055700006F50FC507F510C508F511C509F514287E
:10558000D8A4142A1428D8B403D01450D8A40DD009
:10559000000E066E000E076E000E086E000E096EFD
:1055A0001450D8A402D0000E126E14A002D0088E9F
:1055B00001D0089ED8901430096E12BE098E06C51F
:1055C00006F507C507F508C508F509C509F5120070
:1055D0003050800B3D6E30503024446E2FBE4480DE
:1055E0004450D8B40DD04428D8A408D0000E2D6E55
:1055F000000E2E6E000E2F6E000E306E2F8E06D017
:10560000000E2D6E000E2E6E000E2F6E000E306EF0
:105610003450800B3D1A34503424456E33BE4580DF
:105620004550D8B40DD04528D8A408D0000E316E0E
:10563000000E326E000E336E000E346E338E06D0C6
:10564000000E316E000E326E000E336E000E346EA0
:105650003150321033103410D8A417D0000E2D6EF4
:10566000000E2E6E000E2F6E000E306E800E2F126A
:105670007F0E30123D5030122DC52DF52EC52EF562
:105680002FC52FF530C530F512004450D8A409D0ED
:10569000000E2D6E000E2E6E000E2F6E000E306E60
:1056A0001200455044C535F5366A355E000E365A4F
:1056B0007F0E35243E6E000E36203F6E2DC539F527
:1056C0002EC53AF52FC53BF530C53CF5000E2D6EC5
:1056D000000E2E6E000E2F6E000E306E000E406E0D
:1056E000000E416E000E426E000E436E000E456EBF
:1056F00028D04550D8B411D0D89039363A363B36F8
:105700003C36D8902D362E362F36303643BE2D807F
:10571000D89040364136423643363150395C3250AB
:105720003A5833503B5834503C58D8A009D0438C99
:105730003150395E32503A5A33503B5A34503C5A09
:10574000452A190E4564D5D739503A103B103C1004
:10575000D8B411D040800FD0D8902D362E362F36A9
:10576000303643BE2D80D8904036413642364336DF
:105770003E06D8A03F062FAEEFD7000E456E43AED3
:1057800017D0FF0E4014356EFF0E4114366EFF0E1B
:105790004214376E7F0E4314386E35503610371072
:1057A0003810D8B403D0010E456E02D02DB0FBD70F
:1057B0004550D8B41FD0010E2D26000E2E222F22C8
:1057C000302230A017D02DC535F52EC536F52FC5A2
:1057D00037F530C538F5383438323732363235326D
:1057E00035C52DF536C52EF537C52FF538C530F53D
:1057F0003E4A3F2A3FBE10D03F5003E13E28D8A08A
:105800000BD0000E3F6E3E68000E2D6E000E2E6E09
:10581000000E2F6E000E306E3FBE05D03F5011E1DE
:105820003E04D8B00ED0000E3F6E000E3E6E000E4D
:105830002D6E000E2E6E000E2F6E000E306E000EBE
:105840003D6E3EC544F544A002D02F8E01D02F9E60
:10585000D8904430306E0ED7C6C566F5C7C567F51B
:10586000C8C568F5C9C569F546C566F547C567F594
:1058700048C568F549C569F5810E4A6EFF0E4B6E45
:1058800066C54CF567C54DF568C54EF569C54FF55C
:10589000180E05D0D8904F324E324D324C32E82E91
:1058A000F9D74C504A240501646F000E4B20656FF8
:1058B00065BF0FD0655104E1170E645DD8A009D013
:1058C00046C546F547C547F548C548F549C549F5B4
:1058D000120065BF5CD064C54AF5FF0E4B6EFF0E2B
:1058E0004C6E7F0E4D6E000E4E6E4A6601D007D094
:1058F0004E344E324D324C324B324A2EF6D74BC5D7
:1059000060F54CC561F54DC562F54EC563F5050101
:10591000605166154A6E615167154B6E625168158C
:105920004C6E635169154D6E4A504B104C104D1022
:10593000D8B4C6D766C54AF567C54BF568C54CF5FA
:1059400069C54DF5200E05D0D8904D324C324B3202
:105950004A32E82EF9D74A50D8B408D060516627A9
:10596000615167236251682363516923601D4A6E48
:10597000611D4B6E621D4C6E631D4D6E4A50661765
:105980004B5067174C5068174D50691732D066C599
:105990004AF567C54BF568C54CF569C54DF5200E50
:1059A00005D0D8904D324C324B324A32E82EF9D7DE
:1059B0004A6608D0000E666F000E676F000E686FB3
:1059C000000E16D0D89066354A6E67354B6E683536
:1059D0004C6E69354D6E4A504B104C104D10D8B47A
:1059E00008D0000E666F000E676F800E686FBF0EE6
:1059F000696F66C546F567C547F568C548F569C569
:105A000049F512000E6E0E50D8A409AE1AD006C584
:105A10000AF507C50BF508C50CF509C50DF50A1EF5
:105A20000B1E0C1E0D1E0A2A000E0B220C220D222C
:105A30000AC510F50BC511F50CC512F50DC513F50A
:105A400008D006C510F507C511F508C512F509C53A
:105A500013F50650071008100910D8A409D0000E3D
:105A6000066E000E076E000E086E000E096E120024
:105A7000960E0F6E06D00F2AD890133212321132C2
:105A80001032000E10140A6E000E11140B6E000E70
:105A900012140C6EFE0E13140D6E0A500B100C1027
:105AA0000D10D8B40DD0E7D70F2A010E1026000E26
:105AB000112212221322D8901332123211321032D4
:105AC000000E10140A6E000E11140B6E000E12144C
:105AD0000C6EFF0E13140D6E0A500B100C100D10EF
:105AE000D8B407D0E1D70F06D89010361136123649
:105AF000133612BE03D0020E0F60F5D70FA0129E10
:105B0000D8900F320FC50AF50B6A0C6A0D6A0AC5E8
:105B10000DF50C6A0B6A0A6A0A5010120B5011122A
:105B20000C5012120D5013120E50D8A409AE01D011
:105B3000138E10C506F511C507F512C508F513C576
:105B400009F51200000E146E000E136E000E126E98
:105B5000000E116E02D00C4A0D2A0CC5F6F40DC5CC
:105B6000F7F4000EF86E0800F550200AD8B4F3D709
:105B70000CC5F6F40DC5F7F4000EF86E0800F5C478
:105B80000EF5F70E0E240F6E106AFF0E1022105045
:105B90000CE1050E0F5CD8B008D0DDD7000E126EF8
:105BA000010E116E0C4A0D2A32D00CC5F6F40DC54B
:105BB000F7F4000EF86E0800F5500E6E0F6A0F50E5
:105BC000000AD8A424D00E502B0AD8B4EBD7060A6A
:105BD000D8B4E4D71CD013C506F514C507F5000EDC
:105BE000096E0A0E086EA3ECB1F00CC5F6F40DC5F3
:105BF000F7F4000EF86E0800F550065E000E075A26
:105C0000300E0624136E000E0720146ECBD70CC581
:105C1000F6F40DC5F7F4000EF86E0800F5C40EF5A5
:105C2000D00E0E240F6E106AFF0E1022105004E1E9
:105C30000A0E0F5CD8A0CFD711501210D8A40DD0E7
:105C400013C50EF514C50FF50E1E0F1E0E4A0F2AB2
:105C50000EC50CF50FC50DF5120013C50CF514C5D6
:105C60000DF51200000E2D14356E000E2E14366E3A
:105C7000800E2F14376E7F0E3014386E355036106C
:105C800037103810D8A408D0000E2D6E000E2E6EDE
:105C9000000E2F6E000E306E000E3114356E000EA9
:105CA0003214366E800E3314376E7F0E3414386E15
:105CB0003550361037103810D8A408D0000E316E89
:105CC000000E326E000E336E000E346E30AE09D010
:105CD0002D6C2E1ED8B02E2A2F1ED8B02F2A800E43
:105CE000305634AE09D0316C321ED8B0322A331E51
:105CF000D8B0332A800E3456000E2D1A000E2E1AFC
:105D0000000E2F1A800E301A000E311A000E321AB1
:105D1000000E331A800E341A31502D5C32502E583A
:105D200033502F5834503058D8B002D0D890120089
:105D3000D8801200CAC510F5CBC511F5CCC512F537
:105D4000CDC513F506C510F507C511F508C512F543
:105D500009C513F510C50AF511C50BF512C50CF5EB
:105D600013C50DF5180E05D0D8900D320C320B323C
:105D70000A32E82EF9D70A500E6E0F6A0E500F1035
:105D8000D8A419D0D89010340A6E11340B6E123486
:105D90000C6E13340D6E0A500B100C100D10D8A49D
:105DA00005D0000E076E020E066E1200000E076E82
:105DB000030E066E12000E280F10D8A41CD010C5BA
:105DC0000AF511C50BF512C50CF513C50DF5090E35
:105DD000D8900A360B360C360D36E82EF9D70A5015
:105DE0000B100C100D10D8A402D0010E01D0000E23
:105DF000066E076A1200000E076E040E066E120091
:105E0000083409340F6E0F50D8A409D0000E066E66
:105E1000000E076E000E086E000E096E120006C519
:105E20000AF507C50BF508C50CF509C50DF5200EDB
:105E300005D0D8900D320C320B320A32E82EF9D749
:105E40000A500E6E088EFF0E0616FF0E0716FF0E86
:105E50000816000E0916960E0F5E0FAE0DD00F50ED
:105E6000800A970FD8A0D2D7D890093208320732CB
:105E700006320F3EF9D70DD01F0E0F6407D0C6D7DC
:105E8000D89006360736083609360F060F50D8A4C4
:105E9000F7D70E50D8B408D0091E081E071E066C8E
:105EA000000E07220822092206C506F507C507F5D8
:105EB00008C508F509C509F51200000E06140E6E96
:105EC000000E07140F6E800E0814106E7F0E09145A
:105ED000116E0E500F1010101110D8A408D0000E23
:105EE000066E000E076E000E086E000E096E000EA4
:105EF0000A140E6E000E0B140F6E800E0C14106E32
:105F00007F0E0D14116E0E500F1010101110D8A42A
:105F100008D0000E0A6E000E0B6E000E0C6E000E06
:105F20000D6E0A5006180AE10B50071807E10C50D5
:105F3000081804E10D500918D8B402D0D890120006
:105F4000D880120059A00AD019C510F51AC511F54C
:105F500017C512F518C513F544ECB1F01CBE05D0F9
:105F60001BC520F51CC521F504D0000E216E000EC6
:105F7000206E000E1F6E000E1E6E0CD0000E086EFE
:105F8000200E076E17C509F518C50AF5E1ECAFF04C
:105F90001E4A1F2A20501E5C1F50800A1D6E215071
:105FA000800A1D58D8A0EAD759B0120019C510F5BB
:105FB0001AC511F517C512F518C513F544ECB1F063
:105FC000120009500A10D8B404D009500A10D8A4FD
:105FD00004D00750C8ECB1F0120020EE09F00950CF
:105FE000D9260A50DA22DE50DE10D8B416D020EEC0
:105FF00009F00950D9260A50DA2210EE03F00950B0
:10600000E1260A50E222DE50E65CE650800A0F6E7E
:10601000DE50800A0F58D8B0120020EE03F009506D
:10602000D9260A50DA22DE2A000EDD22120009BE2D
:1060300007D00950081007101DE10604D8B01AD087
:1060400006C50AF507C50BF508C50CF509C50DF51C
:106050000A1E0B1E0C1E0D1E0A2A000E0B220C22FD
:106060000D220AC506F50BC507F50CC508F50DC5CB
:1060700009F5120006C506F507C507F508C508F5B8
:0660800009C509F512003C
:10608800C7C205F5565027E1800E555CD8B01100FF
:10609800000E5724D96E070E5820DA6E05C5DFF4B6
:1060A800010E5724036E000E5820046E7F0E031451
:1060B800576E586A554A562A110E0501DD19D8A49B
:1060C8001100400E55185610D8A41100130EDD6F9C
:1060D800DDC55AF5A78211005A50D8B40BD05AC55D
:1060E800C9F2000E5A6E0501D451D511D8A4110079
:1060F800A79211000501D451D511D8B4F9D7000ED3
:10610800D625D96E060ED721DA6EDF500201C96F87
:10611800010E0501D625016E000ED721026E7F0EF5
:106128000114D66FD76BD407D8A0D5071100B0C516
:10613800B4F5B1C5B5F50FD0AEC59DF5AFC59EF5A3
:10614800B40E05019F6F050EA06FB2C5A1F5B3C5CA
:10615800A2F522ECA6F0B4C5F6F4B5C5F7F4000E26
:10616800F86E0800F5500009D8A4E6D7000E05011E
:10617800AF6F000EAE6F1200000E311A000E321A09
:10618800000E331A800E341A2DC506F52EC507F5F4
:106198002FC508F530C509F531C50AF532C50BF527
:1061A80033C50CF534C50DF562ECA9F006C52DF51F
:1061B80007C52EF508C52FF509C530F5120001EE03
:1061C80000F3800EEE6AE806FDE101EE00F2D00E63
:1061D800EE6AE806FDE101EEC6F1170EEE6AE80682
:1061E800FDE15A6A596A586A576A566A556A04013B
:1061F800080E5D6F000E5E6F000E5F6F000158EFB6
:10620800A4F008C50EF509C50FF506C50CF507C5B8
:106218000DF510D00EC5D9F40FC5DAF4DF50106EA5
:106228000E4A0F2A0CC5D9F40DC5DAF410C5DFF4EF
:106238000C4A0D2A0A06D8A00B060A28EBE10B28FF
:10624800D8B41200E7D708C50AF509C50BF506C585
:106258000CF507C50DF50AC5F6F40BC5F7F40A4A9F
:106268000B2A000EF86E0CC5D9F40DC5DAF40C4AE9
:106278000D2A0800F5C4DFF4DF50D8B41200EBD7BC
:10628800000E166E000E156E0BD014C507F5086AC1
:1062980012C509F513C50AF5E1ECAFF0154A162A3F
:1062A80015501024D96E16501120DA6EDF50146E76
:1062B8001450D8B41200E9D7010E0A6E200E061841
:1062C8000710D8B40ED0F70E0624086EFF0E07206C
:1062D800096E095004E1050E085CD8A002D0000E32
:1062E8000A6E0AC506F5076A12000650071008105C
:1062F8000910D8B408D0000E061A000E071A000EAE
:10630800081A800E091A06C506F507C507F508C557
:1063180008F509C509F51200B80EBC6F050EBD6F6A
:10632800000EAE6F000EAF6FB6C5B0F5B7C5B1F5CC
:10633800BC0EB26F050EB36F9BECB0F012000650A6
:106348000802F3C40AF5F4C40BF506500902F35029
:106358000B2607500802F3500B260AC506F50BC595
:1063680007F51200D00E0624086EFF0E0720096EEE
:10637800095006E10A0E085CD8B002D0010E01D01F
:10638800000E066E076A1200066EB7A2FED706C593
:06639800C9F21200110021
:020000040030CA
:100000008C2FFFF79FFFFFFFFFFFFFFFFFFFFFFFAB
:10001000FFFFFFFFFFFFFFFFFFFFFFFFFFFFFFFFF0
:03002000FFFFFFE0
:00000001FF
