:0400000000EFBAF063
:1000080064656465646564656465646564656465A0
:100018006465646564656465646564656465646590
:100028006465646564656465646564656465646580
:100038006465646564656465646564656465646570
:100048006465646564656465646564656465646560
:100058006465646564656465646564656465646550
:100068006465646564656465646564656465646540
:1000780064656465646564654200646564656465B7
:100088006465646564656465646564656465646520
:10009800A464BA6464656465420064656465646503
:1000A8006465646564656465646564656465646500
:1000B80064656465646564656465646564656465F0
:1000C80064656465646564656465646564656465E0
:1000D80064656465646564656465646564656465D0
:1000E8004200646564656465646564656465646547
:1000F80064656465646564656465646564656465B0
:02010800FF00F6
:10FFE000000D0A4D455A36383030382025322E3330
:10FFF000664D487A0D0A00696E66006E616E0000FB
:020000040001F9
:1000000000009E00000000C000001F2A00001F3EEC
:1000100000001F5200001FB000001FC600001FDCC0
:1000200000001FF2000020080000201E0000203405
:1000300000001F2800001F280000204A00001F2881
:1000400000001F2800001F2800001F2800001F2894
:1000500000001F2800001F2800001F2800001F2884
:1000600000001F2800001F2800001F2800001F2874
:1000700000001F2800001F2800001F2800001F2864
:1000800000002060000020760000208C000020A2EC
:10009000000020B8000020CE000020E4000020FA7C
:1000A00000002110000021260000213A0000214E0E
:1000B00000002162000021760000218A0000219EBC
:1000C0006100294C203C0000800023C000009E18E5
:1000D00023C000009E2023C000009E2423C00000F7
:1000E0009EFE13FC005300009E2913FC000000003C
:1000F0009E2B41F900009E32303C00A3421851C8AB
:10010000FFFC23FC00009E0000009E7623F9000007
:100110009E2000009E3223FC00009D0000009E7285
:1001200041F900009ED6303C0010421851C8FFFC37
:10013000303C000041F900009EE830C0B1FC0000F6
:100140009EFE65F6203C0000800023C000009EF269
:1001500023C000009EF623C000009EFA3039000044
:10016000800033C000009EEC33C000009EEE33C020
:1001700000009EF041F8249761001C4641F824FAE3
:100180004E7A080141F8250413FC000100009E2B63
:1001900061001C2E41F824B361001C2661001CA6DE
:1001A00041F900009E0061001D06101061001D0A4B
:1001B0004A0067E0B03C0044675AB03C0047670023
:1001C000140AB03C0053670014C2B03C004C6700F6
:1001D000154AB03C00506700165EB03C0052670004
:1001E000176EB03C004D67001886B03C00426700B7
:1001F0001960B03C004667001B1AB03C003F670026
:100200001B86B03C002367001B8841F824D06100A6
:100210001BB060805248101061001C9EB03C004929
:100220006700014061001C8861001CA04A42661CF6
:1002300061001C7C4A1066D2203900009E18D0BC98
:100240000000008023C000009E1C604023C100000D
:100250009E1861001C5A0C10002C67124A1066AAE6
:10026000D2BC0000008023C100009E1C601E5248CA
:1002700061001C3C61001C5461001C344A42678AC6
:100280004A106686528123C100009E1C203900005E
:100290009E18C03C00F022404242612A610027863D
:1002A0004A006614B47C000265F023F900009E1C2D
:1002B00000009E186000FEDE23C900009E18610049
:1002C00027506000FED0200961001B0441F824D8AB
:1002D00061001AEE45F900009E00363C000F613ABD
:1002E00051CBFFFC41F824DB61001AD645F9000030
:1002F0009E00363C000F101AB03C0020650CB03C4C
:10030000007F64066100272A6008103C002E61000F
:10031000272051CBFFE260001B1C103C0020610035
:1003200027104A42661EB3F900009E186712103C5F
:100330000020610026FC610026F814C052494E7569
:10034000343C0001B47C000166E4101914C0610063
:100350001A8EB3F900009E1C67024E75343C0002F1
:100360004E75524861001B4861001B604A42670C91
:100370000281FFFFFFFE23C100009EFE10104A0015
:10038000674461001B2A1010B03C002C6600FE7C04
:10039000524861001B1A101061001B1EB03C005334
:1003A0006638524861001B584A426700FE5E4A4167
:1003B0006700FE5833C100009F0823FC00000000C6
:1003C00000009F02603633FC000A00009F0823FCF7
:1003D0000000000000009F02602261001AEE4A4205
:1003E0006700FE2823C100009F0233FC00000000CC
:1003F0009F08B2B900009EFE6500FD9A6122600070
:10040000FD9423F900009E3200009EFE33FC0001A3
:1004100000009F0823FC0000000000009F024E71B6
:100420002F002F012F082F0933FC000000009F0A26
:1004300033FC000000009F0C227900009EFE33D1A7
:1004400000009F06203900009EFE610019826100B5
:1004500004B0303900009F066100197C41F8091092
:10046000700032300002C27900009F06B2700000B6
:10047000670806800000000C60E82248D3C06100D5
:1004800004802069000461001938547900009F0A33
:10049000206900084E906100199C227900009EFEA0
:1004A000D2F900009F0A23C900009EFE6100257654
:1004B0004A0066264A7900009F08661220790000EB
:1004C0009F02B1F900009EFE6400FF5E600C04799B
:1004D000000100009F086600FF50225F205F221F7E
:1004E000201F4E75303C0007610002D661000412E7
:1004F0006100034661000412610003244E75303C24
:100500000007610002BC610003F861000312610092
:1005100003F841F8150C610018A84E75303C00072F
:100520006100029E610003DA41F8150C6100189227
:10053000610003D6610002E84E75303C000861009E
:100540000270610003BC610002D6610003BC41F887
:10055000150F6100186C4E75303C000D6100027083
:100560006100039E610002B86100039E610002BC4D
:100570004E75303C00076100024861000384610051
:10058000029E4E756100037A610002944E7561000F
:10059000037041F8150C610018286100036C6100BC
:1005A000027E4E7533FC000200009F0C6100035276
:1005B0006100028661000352610002644E756100B1
:1005C00002266100033C41F8156E610017F44E7578
:1005D000547900009F0A41F81503610017E4610097
:1005E000032041F8150C610017D86100031C41F885
:1005F000156E610017CC4E7541F81500610017C2E9
:10060000610002FE610002184E75303C0007610077
:1006100001B0610002EC41F81545610017A46100CA
:1006200002E8610001FA4E7541F815036100179266
:10063000610002CE41F8156761001786610002CAA9
:10064000610001DC4E7541F815036100177433FC3D
:10065000000200009F0C610002A8610001C261005D
:1006600002A841F81567610017584E7541F8150347
:100670006100174E6100028A41F8156B6100174254
:1006800061000286610001984E7541F81503610012
:10069000173033FC000200009F0C6100026461000F
:1006A000017E6100026441F8156B610017144E75FC
:1006B000303C00076100010A610002463039000049
:1006C0009F0608000003660641F81576600441F8AD
:1006D000157C610016EC4E7541F81503610016E2B9
:1006E00033FC000200009F0C610002166100013023
:1006F0006100021641F8150C610016C64E7554795A
:1007000000009F0A303C0006610000A6303900005E
:100710009F060800000A6616610001E641F8158888
:100720006100169E610001E2610000F46014610046
:1007300001D0610000EA610001D041F81588610034
:1007400016804E7541F8150361001676610001B2FE
:10075000610000CC4E75303C00076164610001A26D
:10076000303900009F0608000005660641F8159420
:10077000600441F81576610016484E75303C00085B
:1007800061586100017C610000966100017C41F8C4
:10079000150C6100162C4E756100016641F8155F5D
:1007A0006100161E4E75547900009F0A4E754E75F5
:1007B00041F814E86100008841F814F460000096E4
:1007C00041F814EC617841F814F76000008841F8B2
:1007D00014EC616A41F814FA607A41F814EC615E35
:1007E00041F814FD606E303900009F06C07C00FFA8
:1007F000B03C00FF670CB03C0000671241F81500E8
:100800006016587900009F0A41F81506600A54796D
:1008100000009F0A41F81503610015A64E75303996
:1008200000009F06C07C003F606E303C000B41F82A
:1008300014F0610A600000B4303C003C605A2F01A3
:1008400032009250303900009F06E268C068000212
:10085000221F4E75B0106712B0280001671AB02829
:100860000002672241F81509602833FC00040000EB
:100870009F0C41F81506601A33FC000200009F0C23
:1008800041F81503600C33FC000200009F0C41F896
:1008900015006100152C4E752F082F012F0241F80D
:1008A00010D8720014301001C400B4301000670872
:1008B00006810000000860ECD1C134280002D5791F
:1008C00000009F0A0CA8000015450004660C34398E
:1008D00000009F0CD57900009F0A20680004610089
:1008E00014E0241F221F205F4E752F011200E6081E
:1008F00002000007E709020100388001221F60980A
:10090000103C00206000212A103C002C60002122B5
:10091000003CFFFF000013F9000007A6007CFFFF6A
:100920000000140B000007A60000FF00000013F5F4
:10093000000004E40108F1F80000138A000007A693
:100940000148F1F8000013AC000007A60188F1F897
:1009500000001379000007A601C8F1F80000139BFE
:10096000000007A60100F1F8000012040000058E47
:100970000100F1C0000011FD0000058E0180F1F8BA
:10098000000011E00000058E0180F1C0000011D9C7
:100990000000058E0140F1F8000011D20000058E24
:1009A0000140F1C0000011CB0000058E01C0F1F83C
:1009B000000011F20000058E01C0F1C0000011EB33
:1009C0000000058E023CFFFF00001166000007A634
:1009D000027CFFFF00001179000007A60200FF0063
:1009E00000001161000004E40400FF000000149FF7
:1009F000000004E40600FF000000114E000004E4C3
:100A00000800FFF800001204000005A40800FFC061
:100A1000000011FD000005A40880FFF8000011E0AF
:100A2000000005A40880FFC0000011D9000005A443
:100A30000840FFF8000011D2000005A40840FFC0E4
:100A4000000011CB000005A408C0FFF8000011F25F
:100A5000000005A408C0FFC0000011EB000005A4C1
:100A60000A3CFFFF000012BB000007A60A7CFFFF44
:100A7000000012CE000007A60A00FF00000012B618
:100A8000000004E40C00FF000000121C000004E45D
:100A90001000F0000000134C000005582040F1C089
:100AA0000000136D000005582000F0000000134CFA
:100AB000000005583040F1C00000136D00000558DB
:100AC0003000F0000000134C0000055840C0FFC08B
:100AD0000000134C0000066C4000FF00000013E50E
:100AE0000000057242C0FFC00000134C0000062841
:100AF0004200FF000000120F0000057244C0FFC05A
:100B00000000134C000006464400FF00000013E103
:100B10000000057246C0FFC00000134C0000068AAA
:100B20004600FF00000013EE000005724800FFC001
:100B3000000013DA000005844840FFF8000014AEFE
:100B4000000007AE4840FFC00000141C00000584F0
:100B50004880FFF800001304000007AE48C0FFF80B
:100B60000000130D000007AE4880FB8000001373E7
:100B7000000006FE4AFCFFFF00001316000007AE4F
:100B80004AC0FFC0000014B8000005844A00FF00FE
:100B9000000014D3000005724880FB80000013732E
:100BA000000006FE4E40FFF0000014BE000007AE3D
:100BB0004E50FFF80000132A000007A64E58FFF819
:100BC000000014D7000007AE4E60FFF80000135F6E
:100BD000000007AE4E68FFF800001351000007AE9A
:100BE0004E70FFFF00001422000007AE4E71FFFFA1
:100BF000000013EA000007AE4E72FFFF00001489E8
:100C0000000007A64E73FFFF0000143A000007AE75
:100C10004E75FFFF00001442000007AE4E76FFFF46
:100C2000000014CD000007AE4E77FFFF0000143E19
:100C3000000007AE4E80FFC00000132200000584B4
:100C40004EC0FFC00000131E0000058441C0F1C06B
:100C5000000013260000053A4000F0400000120B8F
:100C60000000077C54C8FFF80000125A000005D0AD
:100C700055C8FFF80000125F000005D057C8FFF804
:100C800000001264000005D051C8FFF8000012698E
:100C9000000005D05CC8FFF80000126D000005D010
:100CA0005EC8FFF800001272000005D052C8FFF8BD
:100CB00000001277000005D05FC8FFF80000127C2A
:100CC000000005D053C8FFF800001281000005D0D5
:100CD0005DC8FFF800001286000005D05BC8FFF871
:100CE0000000128B000005D056C8FFF800001290DB
:100CF000000005D05AC8FFF800001295000005D08A
:100D000050C8FFF80000129A000005D058C8FFF83C
:100D10000000129E000005D059C8FFF8000012A381
:100D2000000005D054C0FFC00000144B000005F8BF
:100D300055C0FFC00000144F000005F857C0FFC0A9
:100D400000001453000005F851C0FFC00000145704
:100D5000000005F85CC0FFC00000145A000005F850
:100D60005EC0FFC00000145E000005F852C0FFC066
:100D700000001462000005F85FC0FFC000001466A8
:100D8000000005F853C0FFC00000146A000005F819
:100D90005DC0FFC00000146E000005F85BC0FFC01E
:100DA00000001472000005F856C0FFC00000147661
:100DB000000005F85AC0FFC00000147A000005F8D2
:100DC00050C0FFC00000147E000005F858C0FFC0EE
:100DD00000001481000005F859C0FFC00000148510
:100DE000000005F85000F100000011530000060A51
:100DF0005100F100000014A40000060A6400FF0086
:100E000000001193000005BE6500FF00000011976F
:100E1000000005BE6700FF000000119B000005BE3A
:100E20006C00FF000000119F000005BE6E00FF0077
:100E3000000011A3000005BE6200FF00000011A722
:100E4000000005BE6F00FF00000011AB000005BEF2
:100E50006300FF00000011AF000005BE6D00FF0041
:100E6000000011B3000005BE6B00FF00000011B7C9
:100E7000000005BE6600FF00000011BB000005BEBB
:100E80006A00FF00000011BF000005BE6800FF00FF
:100E9000000011C3000005BE6900FF00000011C77B
:100EA000000005BE6000FF00000011E7000005BE65
:100EB0006100FF00000011F9000005BE7000F100A4
:100EC000000013BD000007AE80C0F1C0000012ADED
:100ED000000006D881C0F1C0000012A8000006D8AA
:100EE0008100F1F000001446000006B08000F1001F
:100EF000000013F2000004FE8100F100000013F274
:100F00000000051C9100F130000014A9000006B09B
:100F100090C0F0C00000149A0000053A9000F10063
:100F200000001496000004FE9100F10000001496E9
:100F30000000051CB108F1F800001221000007AE06
:100F4000B148F1F800001234000007AEB188F1F8A2
:100F500000001247000007AEB0C0F0C0000012173A
:100F60000000053AB000F10000001213000004FE7A
:100F7000B100F100000012B20000051CC100F1F048
:100F800000001140000006B0C140F1F8000012E07E
:100F9000000007AEC148F1F8000012EC000007AEF7
:100FA000C188F1F8000012F8000007AEC0C0F1C01F
:100FB000000013D5000006D8C1C0F1C0000013D056
:100FC000000006D8C000F1000000115D000004FE22
:100FD000C100F1000000115D0000051CD100F130DE
:100FE00000001158000006B0D0C0F0C00000114948
:100FF0000000053AD000F10000001145000004FE99
:10100000D100F100000011450000051CE0C0FFC048
:101010000000118F00000744E1C0FFC00000118BE9
:1010200000000744E2C0FFC000001348000007446E
:10103000E3C0FFC00000134400000744E4C0FFC049
:101040000000143500000744E5C0FFC00000143064
:1010500000000744E6C0FFC00000142C0000074455
:10106000E7C0FFC00000142800000744E000F118AA
:101070000000118F00000756E100F1180000118BED
:1010800000000756E008F11800001348000007565A
:10109000E108F1180000134400000756E010F118B1
:1010A0000000143500000756E110F118000014305C
:1010B00000000756E018F1180000142C0000075635
:1010C000E118F11800001428000007560000000085
:1010D000000014DF00000798003800000000150C25
:1010E000083800000000150F10380000000015122D
:1010F0001838000000001517203800000000151DEA
:101100002838000200001523303800020000152B9B
:10111000383F000200001535393F00040000153D3E
:101120003C3F0000000015453A3F00020000154D0D
:101130003B3F000200001555000000000000155F55
:10114000414243440041444400414444410041443D
:1011500044490041444451004144445800414E44F4
:1011600000414E444900414E44492E4220233C64F4
:101170006174613E2C43435200414E44492E572036
:10118000233C646174613E2C53520041534C004136
:1011900053520042434300424353004245510042F0
:1011A0004745004247540042484900424C450042EE
:1011B0004C5300424C5400424D4900424E450042BF
:1011C000504C004256430042565300424348472E7B
:1011D0004200424348472E4C0042434C522E4200AC
:1011E00042434C522E4C0042524100425345542E31
:1011F0004200425345542E4C004253520042545335
:10120000542E4200425453542E4C0043484B00434A
:101210004C5200434D5000434D504100434D504906
:1012200000434D504D2E422028416E292B2C284141
:101230006E292B00434D504D2E572028416E292BEF
:101240002C28416E292B00434D504D2E4C20284117
:101250006E292B2C28416E292B0044424343004425
:1012600042435300444245510044424600444247F1
:1012700045004442475400444248490044424C45DA
:101280000044424C530044424C540044424D4900F7
:1012900044424E45004442504C00444254004442B3
:1012A000564300444256530044495653004449565D
:1012B0005500454F5200454F524900454F52492E67
:1012C0004220233C646174613E2C43435200454FED
:1012D00052492E5720233C646174613E2C535200C6
:1012E0004558472E4C20446E2C446E004558472EDE
:1012F0004C20416E2C416E004558472E4C20446EC8
:101300002C416E004558542E5720446E00455854C9
:101310002E4C20446E00494C4C4547414C004A4DF0
:1013200050004A5352004C4541004C494E4B2E57F9
:1013300020416E2C233C647369706C6163656D653C
:101340006E743E004C534C004C5352004D4F56456A
:10135000004D4F56452E4C205553502C416E004D9C
:101360004F56452E4C20416E2C555350004D4F5634
:101370004541004D4F56454D004D4F5645502E5757
:1013800020446E2C6428416E29004D4F5645502E46
:1013900057206428416E292C446E004D4F5645500D
:1013A0002E4C20446E2C6428416E29004D4F56452A
:1013B000502E4C206428416E292C446E004D4F560F
:1013C00045512E4C20233C646174613E2C446E00D8
:1013D0004D554C53004D554C55004E4243442E4202
:1013E000004E4547004E454758004E4F50004E4F67
:1013F00054004F52004F5249004F52492E42202371
:101400003C646174613E2C434352004F52492E5755
:1014100020233C646174613E2C5352005045412EA0
:101420004C00524553455400524F4C00524F52000D
:10143000524F584C00524F5852005254450052548B
:101440005200525453005342434400534343005309
:1014500043530053455100534600534745005347FB
:10146000540053484900534C4500534C5300534CCF
:101470005400534D4900534E450053504C005354B3
:1014800000535643005356530053544F5020233CAF
:10149000646174613E00535542005355424100530C
:1014A0005542490053554251005355425800535735
:1014B00041502E5720446E005441532E4200545246
:1014C000415020233C766563746F723E0054524154
:1014D00050560054535400554E4C4B20416E00550D
:1014E0006E6B6E6F776E00FF00000001000100035D
:1014F0000005003F01000002010002030102030396
:101500002E42002E57002E4C002E5800446E0041F3
:101510006E0028416E290028416E292B002D28419C
:101520006E290064313628416E2900643828416EE6
:101530002C586E290028787878292E57002878783A
:1015400078292E4C00233C646174613E006431367E
:10155000285043290064382850432C586E290055E0
:101560006E6B6E6F776E00434352005352003C6CBB
:101570006162656C3E00446E2C446E002D28416E05
:10158000292C2D28416E2900446E2D446E2F416E6A
:101590002D416E00233C646174613E2C446E005307
:1015A00046430044464300434143520055535000D4
:1015B0005642520043414152004D5350004953504E
:1015C00000556E6B6E6F776E00FF5248610008E049
:1015D000610008F80281FFFFFFFE2601280213FCCC
:1015E000000000009EEA10104A006734B03C002C56
:1015F0006600EC185248610008B6610008CE4A4205
:101600006700EC080281FFFFFFFE23C100009EFA85
:10161000204133D000009EF013FC000100009EEA40
:10162000610006244A44670623C300009E32203925
:1016300000009E76C0BCFFFFFFFE2E404A3900002E
:101640009E2B67283F3C0000203900009E7CC0BCD8
:10165000FFFFFFFE4E7B0801103900009E804E7B8D
:101660000000103900009E814E7B00012F390000E0
:101670009E323F3900009E7A207900009E724E60B3
:101680004CF97FFF00009E364E73524861000820DF
:1016900061000838610008184A106600EB6E2241AC
:1016A0004A426606227900009E2420096100072034
:1016B00041F824DB6100070A101161000722103C89
:1016C00000206100136C6100077C41F900009E005E
:1016D000610007DC1010660A524923C900009E24ED
:1016E00060C8B03C002D660A534923C900009E24FF
:1016F00060B8B03C002E660A23C900009E2460003A
:10170000EA94610007C64A426700EB0012C123C990
:1017100000009E24610005AE609052486100079071
:10172000610007A8610007884A106600EADE6100D0
:1017300005C24A4266024281610012D66100077A00
:10174000B03C005367000082B03C003A6712B03CE6
:10175000000D67E4B03C000A67DE610012B460EE81
:101760006100069C42421400160061000692428409
:101770001800D60061000688E14C1800D600D88118
:1017800022446100067A13C000009E2AD6004A4215
:101790006716534261000668D6004A3900009E2A47
:1017A000660212C051CAFFEE61000654D600660CF4
:1017B0004A3900009E2A67A26000E9DA41F824B69F
:1017C000610005FE6000E9CE6100124613C0000012
:1017D0009E2A6100062A424214001600610006207B
:1017E00042841800D60061000616E18C1800D6006D
:1017F000D881224457426718534261000602D6003E
:101800000C39003100009E2A660212C051CAFFEC5A
:10181000610005ECD600B63C00FF660E0C390039BD
:1018200000009E2A670C6000FF3241F824C361006B
:1018300005906000E960524810106100067CB03CE1
:1018400000496706B03C00536608524813C00000C8
:101850009E296100065A610006724A426700E9AC9F
:1018600022416100064A0C18002C6600E99E6100C6
:10187000063E610006564A426700E9906100063064
:101880004A106600E9869289524161264A8166FAC9
:101890000C39004900009E29660C41F824DF6100E4
:1018A00005206000E8F041F824ED610005146000B7
:1018B000E8E47410B2826402240192820C39004977
:1018C00000009E296642103C003A6100116410023B
:1018D00016026100050A2009E048D60061000500F3
:1018E0002009D600610004F84200610004F253426E
:1018F0001019D600610004E851CAFFF61003440035
:10190000610004DC6000052E103C005361001122D0
:10191000103C00316100111A1002560016006100DF
:1019200004BE2009E088D600610004B42009D60076
:10193000610004AC53421019D600610004A251CAE0
:10194000FFF61003460061000496600004E8524868
:101950006100055C1010610005604A0066086100C6
:1019600000BA6000E83043F8275AB01167104A29DE
:101970000001670000A2D3FC0000000A60EC0C2903
:10198000000F0001660E226900025248101061002B
:10199000052860D616290001677C6A084A390000CC
:1019A0009E2B67722069000661000416103C003D02
:1019B0006100107E24690002C63C0007B63C0001AD
:1019C00066081012610004186014B63C0002660834
:1019D00030126100040260062012610003F2103C24
:1019E00000206100104C6100045C41F900009E0081
:1019F000610004BC610004D44A426716B63C000191
:101A000066041481600CB63C0002660434816002F6
:101A100024816000E7806000E7F243F82642321933
:101A2000670004126A0A4A3900009E2B6700040608
:101A300020596100038C2059C27C0003B27C000154
:101A4000660810106100039860D4B27C000266083A
:101A500030106100038260C6B27C0003660820106B
:101A60006100036C60B84E906100035660B052484C
:101A70001010610004444A00674EB03C0054660AEE
:101A80000A79800000009E7A603EB03C0053660AEE
:101A90000A79200000009E7A602EB03C0049660062
:101AA000E76A5248610004244A426700E75EB2BC1C
:101AB000000000086400E754E1490279F8FF0000E3
:101AC0009E7A837900009E7A41F81B2C610002F215
:101AD000610C610002EC6100035C6000E6B82F005D
:101AE0002F012F092F0A303900009E7A123C001076
:101AF00041F900009ED643F81B3045F81B40E348EF
:101B0000650A10DAD3FC00000001600810D9D5FC8A
:101B100000000001923C00014A0166E241F9000028
:101B20009ED6245F225F221F201F4E7553523D0018
:101B3000542E532E2E4949492E2E2E584E5A564376
:101B40002E2E2E2E2E2E2E2E2E2E2E2E2E2E2E2EB5
:101B500052481010610003624A00670000AAB03CBE
:101B600000316710B03C0032671EB03C0043675C38
:101B70006000E69843F900009EF245F900009EECF3
:101B800047F900009EE8601243F900009EF645F90F
:101B900000009EEE47F900009EE9524861000310E4
:101BA0001010B03C002C6600E66252486100030051
:101BB000610003184A426700E6520281FFFFFFFE00
:101BC00022812041349016BC0001603A5248101026
:101BD0004A00672043F900009EE8B03C0031670EE0
:101BE00043F900009EE9B03C00326600E61E12BCDC
:101BF00000006012103C000013C000009EE813C0FB
:101C000000009EE94E714A3900009EE8671641F8CF
:101C10001D04610001AC203900009EF2610001B09A
:101C2000610002124A3900009EE9671641F81D0B57
:101C30006100018E203900009EF661000192610072
:101C400001F46000E5502F084A3900009EE8670A59
:101C5000207900009EF230BC4AFC4A3900009EE91F
:101C6000670A207900009EF630BC4AFC4A39000021
:101C70009EEA670A207900009EFA30BC4AFC205F89
:101C80004E752F084A3900009EE8670C2079000045
:101C90009EF230B900009EEC4A3900009EE9670CC4
:101CA000207900009EF630B900009EEE4A3900000F
:101CB0009EEA670C207900009EFA30B900009EF081
:101CC000205F4E752F084A3900009EE8670C207986
:101CD00000009EF233D000009EEC4A3900009EE9DD
:101CE000670C207900009EF633D000009EEE205F46
:101CF0004E7513FC000000009EE813FC000000007D
:101D00009EE94E7542502831293A00425028322926
:101D10003A00524861000198610001B04A426700F0
:101D2000E4EA0C81000080006500E4E022416100EB
:101D3000017E1010B03C002C6600E4D052486100D7
:101D4000016E610001864A426700E4C00C81000018
:101D50009FFF6200E4B62441610001541010B03CC2
:101D6000002C6600E4A65248610001446100015C59
:101D70004A426700E4962601B5C9650612C3B5C993
:101D800064FA6000E41041F822C061346000E406A7
:101D90005248101061000122B03C004C6710B03C6A
:101DA00000316714B03C003267126000E45E41F815
:101DB0002468610C6000E3DE4EF830004EF86600E7
:101DC00010184A00670661000C6860F44E752F0019
:101DD00048406102201F2F00E0586102201F2F00A1
:101DE000E8186102201FC03C000FD03C0030B03C1E
:101DF000003A65000C3CD07C000760000C344200C7
:101E00006102E9083F0061000C08610000ACB03CD1
:101E10000030651CB03C003A6510B03C00416510D4
:101E2000B03C0047640A903C0007903C003080576B
:101E3000544F4E75103C000D61000BF6103C000A2B
:101E400060000BEE41F900009E00420161000BC2F0
:101E5000B03C000D6750B03C000A674AB03C000837
:101E60006722B03C007F671CB03C002065DEB03CC0
:101E7000008064D8B23C001764D2520110C06100E7
:101E80000BB060C84A0167C453885301103C000876
:101E900061000B9E103C002061000B96103C000876
:101EA00061000B8E60A6618C10BC00004E750C1892
:101EB000002067FA53884E75B03C0061650AB03C5B
:101EC000007B6404D03C00E04E7542424281101019
:101ED00061E6B03C00306524B03C003A6510B03C8F
:101EE00000416518B03C00476412903C0007903CEC
:101EF0000030E98982005248524260D24E75424217
:101F00004281101061B2B03C0030651AB03C003A1A
:101F10006414903C0030488048C0C2FC000AD28063
:101F20005248524260DC4E754E7323FC0000250E71
:101F300000009E2C427900009E306000027623FC57
:101F40000000251800009E2C427900009E306000A1
:101F500002620CAF000001800002660C5C4F423947
:101F600000009E2B6000E22A48F97FFF00009E36A9
:101F700023FC0000252600009E2C33FC00010000FD
:101F80009E30206F00023010B07C4AFC670CC07C91
:101F9000FFF8B07C48486600022223FC0000263B84
:101FA00000009E2C33FC010100009E306000020CFA
:101FB00023FC0000253A00009E2C33FC00020000A8
:101FC0009E30600001EE23FC0000254600009E2CA0
:101FD00033FC000200009E30600001D823FC0000AA
:101FE000255600009E2C33FC000200009E3060004D
:101FF00001C223FC0000256800009E2C33FC000178
:1020000000009E30600001AC23FC0000257C000035
:102010009E2C33FC000100009E306000019623FCE2
:102020000000258200009E2C33FC000100009E3041
:102030006000018023FC0000259500009E2C33FCED
:10204000000100009E306000016A23FC000025A80A
:1020500000009E2C33FC000100009E306000015403
:1020600023FC000025B500009E2C33FC000200007C
:102070009E306000013E23FC000025BD00009E2C28
:1020800033FC000200009E306000012823FC0000A9
:1020900025C500009E2C33FC000200009E3060002D
:1020A000011223FC000025CD00009E2C33FC000211
:1020B00000009E30600000FC23FC000025D50000DD
:1020C0009E2C33FC000200009E30600000E623FCE2
:1020D000000025DD00009E2C33FC000200009E3035
:1020E000600000D023FC000025E500009E2C33FC9E
:1020F000000200009E30600000BA23FC000025EDC5
:1021000000009E2C33FC000200009E30600000A402
:1021100023FC000025F500009E2C33FC000200008B
:102120009E306000008E23FC000025FD00009E2CE8
:1021300033FC000200009E30607823FC000026057E
:1021400000009E2C33FC000200009E30606423FCE3
:102150000000260E00009E2C33FC000200009E3082
:10216000605023FC0000261700009E2C33FC000268
:1021700000009E30603C23FC0000262000009E2CC6
:1021800033FC000200009E30602823FC000026295A
:1021900000009E2C33FC000200009E30601423FCE3
:1021A0000000263200009E2C33FC000200009E300E
:1021B0004E7148F97FFF00009E364A7900009E303C
:1021C00066144A3900009E2B660C41F900009EA25D
:1021D00030DF20DF30DF33DF00009E7A23DF0000B6
:1021E0009E324E6823C800009E724A3900009E2B22
:1021F000673C4E7A080123C000009E7C4E7A0000A6
:1022000013C000009E804E7A000113C000009E8122
:10221000341F33C200009ED4C47CF0004A42670ED3
:1022200041F900009EA2741830DF51CAFFFC23CF91
:1022300000009E766100FA4C207900009E2C61001F
:10224000FB806100FBF04A7900009E306602610C61
:102250006100F7C86100E1AC6000DF3A4A39000074
:102260009E2B665A303900009EA2C07C0007E548CC
:1022700041F82970207000006100FB4630390000F1
:102280009EA2C07C0010660641F829F7600441F860
:1022900029FE6100FB2C203900009EA46100FB3068
:1022A00041F82A046100FB1A303900009EA8610041
:1022B000FB26103C0029610007786000FB784E7512
:1022C0003F203A436F6D6D616E642048656C700D00
:1022D0000A234C7C3C6E756D3E203A4C61756E63F2
:1022E000682070726F6772616D0D0A425B28317CE5
:1022F00032292C3C6164723E5D203A536574206F34
:1023000072204C69737420427265616B20506F6952
:102310006E740D0A42435B317C325D203A436C653A
:10232000617220427265616B20506F696E740D0A94
:10233000445B3C6164723E5D203A44756D70204D93
:10234000656D6F72790D0A44495B3C6164723E5D54
:102350005B2C733C73746570733E7C3C6164723EAD
:102360005D203A4D696E6920446973617373656DD0
:10237000626C650D0A463C6164722C6164722C7655
:10238000616C75653E203A46696C6C204D656D6FD9
:1023900072792842797465290D0A475B3C61647241
:1023A0003E5D5B2C3C73746F70206164723E5D20F7
:1023B0003A476F20616E642053746F700D0A4C5B56
:1023C0003C6F66667365743E5D203A4C6F616420B5
:1023D00048657846696C650D0A4D5B547C537C49B1
:1023E00028302D37295D203A4D6F646528535220DF
:1023F00053797374656D2042797465290D0A5028EC
:10240000497C53293C6164722C6164723E203A53CA
:102410006176652048657846696C6528493A496E59
:1024200074656C2C533A4D6F746F726F6C61290D2B
:102430000A525B3C7265673E5D203A536574206FBB
:10244000722044756D702052656769737465720DF2
:102450000A535B3C6164723E5D203A536574204DC3
:10246000656D6F72790D0A00312E20456E68616EC0
:102470006365642042415349432053746172740D73
:102480000A322E2054696E79204241534943205329
:10249000746172740D0A000D0A556E697665727367
:1024A000616C204D6F6E69746F7220363830303039
:1024B0000D0A005D20004572726F722069686578B0
:1024C0000D0A004572726F7220737265630D0A0007
:1024D0004572726F720D0A00203A00203A20003ACD
:1024E000303030303030303146460D0A005339300C
:1024F000333030303046430D0A004D4336383030EB
:10250000300D0A004D4336383031300D0A00427527
:1025100073204572726F7200416464726573732038
:102520004572726F7200496C6C6567616C20496E10
:10253000737472756374696F6E005A65726F2044AC
:1025400069766964650043484B20496E73747275FF
:102550006374696F6E00545241505620496E737413
:1025600072756374696F6E0050726976696C656725
:10257000652056696F6C6174696F6E005472616397
:1025800065004C696E65203130313020456D756CC9
:1025900061746F72004C696E6520313131312045B4
:1025A0006D756C61746F7200466F726D6174204559
:1025B00072726F72005452415020233000545241C5
:1025C00050202331005452415020233200545241B4
:1025D00050202333005452415020233400545241A0
:1025E000502023350054524150202336005452418C
:1025F0005020233700545241502023380054524178
:10260000502023390054524150202331300054527D
:1026100041502023313100545241502023313200A7
:102620005452415020233133005452415020233121
:102630003400545241502023313500425245414B21
:1026400000FF00030000272000009E36000300006A
:10265000275400009E3A00030000275400009E3ECD
:1026600000030000275400009E420003000027568C
:1026700000009E4600030000275400009E4A00030D
:102680000000275400009E4E000300002754000065
:102690009E5200030000272700009E560003000002
:1026A000275400009E5A00030000275400009E5E3D
:1026B00000030000275400009E620003000027561C
:1026C00000009E6600030000275400009E6A00037D
:1026D0000000275400009E6E0003000027540000F5
:1026E0009E7200030000273000009E3200030000AD
:1026F000273600009E7600040000273C00001ADE0A
:1027000080030000274100009E7C800100002748D4
:1027100000009E8080010000274E00009E81000086
:1027200044302D44373D000D0A41302D41373D00E6
:102730000D0A50433D00205353503D002053523D5D
:102740000020205642523D00205346433D00204485
:1027500046433D002C002C2000FF410F000027A025
:1027600000000000430F000027FA00000000440FA3
:102770000000280E00000000500F0000287200002A
:102780000000530F0000288600000000560F0000D4
:1027900028AE000000000000000000000000000063
:1027A000300300009E5600002926310300009E5A87
:1027B00000002929320300009E5E0000292C33030B
:1027C00000009E620000292F340300009E66000076
:1027D0002932350300009E6A0000293536030000C7
:1027E0009E6E00002938370300009E720000293BCE
:1027F00000000000000000000000430F000028C29D
:102800000000000000000000000000000000300395
:1028100000009E3600002942310300009E3A00006D
:102820002945320300009E3E000029483303000082
:102830009E420000294B340300009E460000294EB2
:10284000350300009E4A00002951360300009E4EC9
:1028500000002954370300009E5200002957460FFC
:10286000000028D60000000000000000000000006A
:102870000000430300009E320000295E00000000BB
:10288000000000000000460F000028EA00000000E1
:10289000520200009E7A00002965530F000028FEB6
:1028A0000000000000000000000000000000420FD7
:1028B00000002912000000000000000000000000DD
:1028C0000000520100009E7B0000293E0000000035
:1028D000000000000000438100009E810000295A92
:1028E00000000000000000000000438100009E8006
:1028F00000002961000000000000000000005003FB
:1029000000009E7600002968000000000000000022
:102910000000528300009E7C0000296C0000000033
:102920000000000000004130004131004132004110
:102930003300413400413500413600413700434304
:1029400052004430004431004432004433004434E7
:1029500000443500443600443700444643005043A9
:102960000053464300535200535350005642520006
:102970000000299000002996000029A1000029AF3D
:10298000000029B5000029BB000029CC000029E087
:1029900046433D30200055736572204461746120C8
:1029A00000557365722050726F6772616D2000462A
:1029B000433D33200046433D34200053757065721B
:1029C0007669736F7220446174612000537570657D
:1029D000727669736F722050726F6772616D20003A
:1029E000496E746572727570742041636B6E6F7797
:1029F0006C656467652000577269746520005265D4
:102A000061642000202028496E73743D00FF4E75DC
:102A100010390000E001C03C000167F410390000EB
:102A2000E0004E7510390000E001C03C00014E7519
:102A3000484010390000E001C03C000267F4484003
:102A400013C00000E0004E75FFFFFFFFFFFFFFFF18
:102A5000FFFFFFFFFFFFFFFFFFFFFFFFFFFFFFFF86
:102A6000FFFFFFFFFFFFFFFFFFFFFFFFFFFFFFFF76
:102A7000FFFFFFFFFFFFFFFFFFFFFFFFFFFFFFFF66
:102A8000FFFFFFFFFFFFFFFFFFFFFFFFFFFFFFFF56
:103000002E7C00008400207C000030544ED04840CC
:1030100010390000E001C03C000267F4484013C0D2
:103020000000E0004E7510390000E001C03C0001D6
:10303000671010390000E00000000000003C0001B3
:103040004E75000000004E757E2E600001227E2E1F
:103050006000011C207C00008000203C000020005B
:103060002648D1C02748044A2E7C00008400303C0A
:103070004EF9204F30C043FAFFE820C930C043FA70
:1030800000DC20C930C043FAFF9E20C930C043FA9B
:10309000FF7E20C930C043FAFFB020C930C043FAD8
:1030A000FFAE20C930C043FA263420C97000174053
:1030B00005E4174005E5174005E8374005EA3740C5
:1030C00005D6177C005005E6177C000E05E2177C3C
:1030D000003805E749EB048E41EB05EC2748042E48
:1030E00061000322610008A0202B044A90AB042E4B
:1030F00061001BDC41FA3404610008EA41FA29E866
:1031000061001A7441FA00922748040261001FE628
:103110004EEB04007E2C60567E2A60527E28604E64
:103120007E26604A7E2460467E2260427E20603E8B
:103130007E1E603A7E1C60367E1A60327E18602EDB
:103140007E16602A7E1460267E1260227E10601E2B
:103150007E0E601A7E0C60167E0A60127E08600E7B
:103160007E06600A7E0460067E0260027E006100C8
:1031700002CA6100081243FA2FFA3E31700041F191
:1031800070006100086041FA333561000858202B57
:1031900004526B0461001B2C41FA3356610008464F
:1031A00072FF27410452174105DC4BEB049061008C
:1031B00000EC61000BFC67F66508610001566000D9
:1031C00003C6610006406100014A222B042A610007
:1031D000021865322250202B04329089E2885380F5
:1031E00048402448484034D951C8FFFC484051C8A1
:1031F000FFF4274A0432274A0436274A043A274A6A
:10320000043E274A0442102B04906764226B043268
:1032100045F12008274A0432274A0436274A043A4F
:10322000274A043E274A0442276B044A04462209DF
:103230009288E289538148414841352151C9FFFCB8
:10324000484151C9FFF443EB0490244872FF24C164
:1032500024EB042AE24A534234D951CAFFFC6010DD
:1032600050484A1866FC320802410001D0C1228849
:1032700022484A9066EA610001986000FF246100DC
:10328000077E702061000778700861000772534163
:10329000601061000768702061000764720041EBF4
:1032A00004904EAB040C64FA67F8B03C0007671852
:1032B000B03C000D670006CA4A416606B03C0020DB
:1032C00063E0B03C000867B6B27C00FF640C11807C
:1032D000100052416100072860C8700760F6118035
:1032E0002000524252411035100067000094B03C5B
:1032F000002067EAB03C0030654AB03C003963DE2C
:103300007ADFCA00BA3C00416540BA3C004663CE51
:10331000603872002401174105DD7000103510007F
:10332000675EB03C005F6458B03C003C641CB03C3D
:103330000030644C174005DAB03C00226776B03CA0
:103340000024679AB03C002A6536082B000605DD8C
:10335000662E903C002AD04043FA2C1A30310000EF
:103360006B6E43FA2FA6D2C076FF3801524310315C
:1033700030006B0A5244B035400067F060403204C0
:1033800011802000524252414A00674A903C003A64
:103390006706B03C00496604174005DD903C0055C7
:1033A0006600FF78174005DA1035100067D2B02BA1
:1033B00005DA67CC118020005242524160EA3801A0
:1033C0005243103130006AF852431031300066A287
:1033D0001035100060AA70000102670611802000FD
:1033E0005242218020004E75206B042E6002204046
:1033F00020186708B2906EF659484E7559485380A8
:103400004E75664E206B042E700020C02748043293
:103410002A6B042E534D276B044A0446202B04329A
:10342000274004362740043A2740043E2740044200
:103430007000174005EA610001D049EB048E201F9F
:103440002E7C000084002F0070002740045A174093
:1034500005DF4E7567C04E75651272FF2741042A5D
:1034600072004A00670AB03C00B366E6610003964A
:103470006100FF766100093A6716B03C00B366D27E
:1034800072FF2741042A6100092667046100037660
:10349000177C000005DD610004EE201867B42240AF
:1034A0006100012C2018B0AB042A62A648E700C0D6
:1034B0006100181C4CDF0300702061000542B03C25
:1034C000002266060A2B00FF05DD10186608204959
:1034D000200866BC4E756AE24A2B05DD6BDC45FAB6
:1034E0002AFE727FC200E54945F21000101A610001
:1034F000050E7200121A6BD2301245FA2E0E45F2EA
:103500000000101A610004F851C9FFF860BC6100A6
:103510000396202B0472B0AB043A6C00FC206100CF
:1035200002142E882F2B045270AA6100087A6100C1
:1035300007081F2B05B5610006FE2F2B05903F2BBA
:103540000594277C800000000590377C810005945D
:103550006100085EB03C00AF66086100085261007F
:1035600006D62F2B05903F2B05942F2B04723F3C42
:1035700000816018300DC07C0001DAC0201D67009A
:10358000FC18275D045261000828611A61404A2B2B
:1035900004526B04274D045A101D67D8B03C003A02
:1035A00067E46000FBC46700008C0A0000806B00C9
:1035B00002F6B03C00286400FBB04880D04041FADD
:1035C000287C3030000048700000600007E24EEBBD
:1035D0000424B03C0003670C4E7566FC177C0000A9
:1035E00005DC66F443EB0590BBC9650A274D045A18
:1035F000276B04520456584F102B05DC6700FB9ACA
:1036000041FA2EB36000FB84206B042E672061001A
:1036100001F4B2AB0452630E204D4A1866FC300828
:10362000C07C0001D0C06100FDC86500FB244A20B9
:10363000274804624E75610010E2174005E44E759C
:103640006600FB264A2B04526A00FAE6202B045A35
:103650006700FADE2A40276B045604524E75660C4A
:103660006100FDAE274D045A6000FF226100FDA8F5
:10367000601C2F0D2F2B04523F3C009C487AFF0EFC
:103680006000072E2F0D2F2B04523F3C008D610050
:103690000720487AFEF86100016C206B042EB2AB63
:1036A0000452630E204D4A1866FC3008C07C0001AD
:1036B000D0C06100FD3C6500FA982A48534D274D63
:1036C000045A4E750C6F009C00046600FA5C1E00E4
:1036D000672EBE3C003A67289E3C00B0670853073F
:1036E0006600FA867EFF610006C6610005624A2B0D
:1036F00005946706177C00FF0594BF2B059466149C
:10370000276F000604522A6F000A41FAFE802E88B5
:103710006000069E4FEF000E601466160C6F008D61
:1037200000046600FA405C4F275F04522A5F610480
:103730002A484E75204D7222743A6008B40067081A
:10374000B200670C101866F453484E75B20067F467
:10375000101866F860F2610004F661000654B03C8F
:1037600000AD6714B03C00896600F9FE204D610091
:10377000063E2A486400F9F2102B0594671E61008A
:10378000062E6500FF12B03C008E6700FE1E610031
:10379000FE161015B03C00A967944E75101D163C1E
:1037A00000A9183C008B7A00101D6720B004660445
:1037B000524560F4B00366F051CDFFEE610005F2B2
:1037C0006500FED46000FDE04A1D66FC534D4E7559
:1037D00061000F481400610005D83F00B03C008D27
:1037E0006708B03C00896600F98053026606301F06
:1037F0006000FDB8610005B8610AB03C002C67EAC2
:10380000301F4E7572002001610005A6642E2F0244
:103810002401D2816500F952D2816500F94CD2822F
:103820006500F946D2816500F940903C0030D280B5
:103830006900F9366100057865D6241F2741042AFE
:103840004E753F3C8180600A3F3C8100600461000E
:10385000055E6100076C67324A2B05B56B00F8DE28
:103860006636274804726100130E277C8000000032
:10387000059830173740059C176B0595059EB12BB1
:10388000059E6100100E6100130A610005240C0002
:10389000002C67BA544F4E754A2F000166045290AF
:1038A00060E8539060E461000714274804721F2BFE
:1038B00005B570BD610004F061000394102B05B5DF
:1038C000175F05B5E31861000372670012C6246B29
:1038D0000472206B05902250B3EB04466516B1EBE1
:1038E00004326510720032280004205061000B067B
:1038F000206B0590B9C866025C4C24D834904E7594
:10390000610006BA274804724A2B05B56B0C6100AA
:103910001DF2610009BC6000127A72002041610052
:103920001DE26408720161000AFE108061000ADE77
:10393000609C610000B461000478674AB03C00A854
:103940006764B03C00AC675EB03C002C6740B03CA4
:10395000003B67000086610002F64A2B05B56BD27A
:10396000610013B261000A607000102B05E6670C5D
:10397000902C0007902B05E56402610A616A60B62D
:1039800011BC00001000700D6174700A6070142B7F
:1039900005E5B42B05E7650461EC603E942B05E278
:1039A00064FA440260223F0061000D6C3400610043
:1039B0000400B03C00296600F7B0301FB03C00A8FE
:1039C0006606942B05E5631270005300C480670AF5
:1039D00070205302612851CAFFFC610003D26600C7
:1039E000FF5C4E75610009E061000BD0670C32008E
:1039F00053411018610851C9FFFA4E75703F2F01ED
:103A0000B03C00206528122B05E66610122B05E558
:103A1000922B05E26614174105E5600EB22B05E511
:103A200066082F006100FF60201F522B05E54EAB9A
:103A30000412B03C000D66187200122B05E4670CEE
:103A400070004EAB041251C9FFFA700D174105E525
:103A5000221F4E752A5F4A2B05E06A0A276B045E17
:103A600004526000F6D841FA2A766100FF782A6B8A
:103A7000045A4E7561000862B03C0022660E610077
:103A80000306703B610003206100FF5E6100F804E3
:103A900070004A10660A6000FB58206B0462709840
:103AA000174005E0274804666100051227480472A4
:103AB0002F0D2A6B0466610002F8661E4A2B05E092
:103AC0006B726100FF386100F7CA4A10660460003B
:103AD000FB202A48534D610002D64A2B05B56A20C7
:103AE0001400B03C00226706743A702C534D524DBE
:103AF0001600204D610008D42A4A6100FDD26010F2
:103B00001F2B05B561001DA6175F05B56100108468
:103B10006100029E670AB03C002C6600FF38524DDF
:103B2000274D04662A5F610002886736487AFF7A6B
:103B3000600002726100FBFE2A48524DB03C003A20
:103B40006712320DC27C0001DAC1241D6700F61233
:103B5000275D045E6100025AB03C00836700FF7875
:103B600060D2206B04664A2B05E06A06274804628F
:103B70004E754A1066024E7541FA29546000FE6681
:103B80006610584F0C5700816600F5E2206F000266
:103B9000601C6100042C584F303C0081721C600294
:103BA000DFC1B0576600F5C6B1EF000266F2376FAD
:103BB0000006059C276F00080598176F001205B5D1
:103BC0006100021E176B059D059E102B0595B12BFC
:103BD000059E2748047261000CBA176F001205B5E4
:103BE00061000FB0376F000C059C276F000E059821
:103BF000176B059D059E102B0595B12B059E610049
:103C0000103C322F0006B1414A0067044A016A0E97
:103C1000276F001404522A6F00186000F970DEFC50
:103C2000001C6100018CB03C002C6600F960610052
:103C3000017E6100FF5E6116B040082B000705B5EC
:103C400066066500F4F84E756400F4F24E75534D47
:103C50007200174105B5601C41FA22CA30301002CB
:103C6000487000002F2B05903F2B05941F2B05E378
:103C7000323010003F01610000E4177C000005E3D2
:103C80006100012E903C00BC652AB03C0003650A2F
:103C90004A2B05E36660600000867201E121102B6B
:103CA00005E3B32B05E3B02B05E36400F4BC61002E
:103CB00000FE60D04A2B05E3663CD03C000A645EFF
:103CC00066084A2B05B56B00087E7200D000D00054
:103CD0001200301F41FA224EB0701000644661009D
:103CE000FF583F006100FF72301F222B05D86A2267
:103CF0003000672E603C102B05B5122B05E3D00079
:103D0000D301177C000005B5174105E3534D723010
:103D100060C041FA2210B0701000641660C472FFD7
:103D2000301F6732B07C006467046100FF0C2741DC
:103D300005D8101F1200E208174005E1375F059C07
:103D4000275F0598176B059D059E102B0595B12BD8
:103D5000059EE2094E75102B05944E756150650065
:103D60001B4C4A006B000090B03C002467001B3ED7
:103D7000B03C002567001B36B03C002E67001B2EB0
:103D8000B03C0022660C101D204D6100063A2A4A04
:103D90004E75B03C002866446100FEB6702960068E
:103DA000487A0978702CB01D67066000F3BC101DBE
:103DB0001015B03C002067F6B03C00A9640EB03C82
:103DC000003A64081C3C00D0D00690064E75610095
:103DD000FE6872284FEF00046000FF0A610001E2F4
:103DE0004A2B05B567000D906A06274805904E7569
:103DF0002010600004BCB03C00B367D2B03C00B2FD
:103E00006700FF5AB03C00AE6606323C002C60C42E
:103E1000B03C00AB67000514903C00BF6500F34A5E
:103E2000C07C007FD04041FA20B0323000004870A2
:103E3000100041FA205830300000671241F00000B5
:103E40004ED06100FF544A2B05B56A00F2F04E7562
:103E50006100FF464A2B05B56B00F2E24E75177CF8
:103E6000000005B5101D4E756100FDE64A2B05B535
:103E70006A00F2CA141DB43C002C6600F2EC2F2B31
:103E80000590610008AC205F4E756100FDC44A2BAF
:103E900005B56B00F2A861000DD07200141DB43C92
:103EA000002C660C2F00610008722200201F141DD8
:103EB000B43C00296600F2B24E756116B580600010
:103EC00003F0610E8082600003E86106C08260003A
:103ED00003E061000228240061000CF66000021E6D
:103EE0006100021A4680600003C86100FD4E65064D
:103EF00061000D4A6042177C000005B5610006BCF8
:103F000022482200206B0598610006B42400660454
:103F10004A8167249481670C650470FF6008220061
:103F20007001600220025381B30856C9FFFC670884
:103F3000640470FF60027001520012007001E338E7
:103F4000C02B05E167000CDE70FF60000CD861003B
:103F5000FE5472FF61706100FE5866F24E75612E6C
:103F60006708B43C00206420E5A060000344611EA3
:103F700067F8B43C0020650A4A806A0C70FF600054
:103F80000330E4A06000032A700060000324610095
:103F9000078E140061000C3A610001624A024E75FE
:103FA000B03C00616410B03C0041640480404E7538
:103FB000B03C005B4E75B03C007B4E7561024E75A7
:103FC00072006100FDEC174105B461D46400F19A00
:103FD000720041EB046A2081174105B5B27C0004F0
:103FE00064061180100052416100FDC465EE61B0AD
:103FF00065EAB03C0024660C002B0080046B610075
:10400000FDAE6010B03C0026660A002B0080046CF8
:104010006100FD9C4A2B05DF670E6A14202B046AA1
:10402000720841EB0432601C903C0028670000F4E9
:10403000202B046A720441EB043608000017670461
:10404000544158482268000420506006B0986776B2
:10405000D1C1B1C966F64A2B05DF660A45FAFF6091
:10406000B5D76600F0C0082B000005DF6600F0BE83
:10407000246B0442240A9489204A5881D5C1274AD6
:104080000442E28A6712538248424842352051CAAC
:10409000FFFC484251CAFFF44A2B05DF6B080800B9
:1040A0000017660A6004D3AB0436D3AB043AD3AB33
:1040B000043E20C020BC0000000008000017670676
:1040C000317C000000042200D2814841E219E2491B
:1040D000C23C00C0174105B5177C000005DF4E75D6
:1040E0007005D02B05DBD080D0884E756100FCC0F8
:1040F0006100FB444A2B05956B00F0620C2B00A07D
:10410000059465000B646600F0544A2B05956A001F
:104110000B58202B059044806800F0422740042A69
:104120004E753F2B05B472003F012F2B046A61BC12
:1041300048404A406600F016275F046A321F301F6D
:104140003F2B042C3F0052416100FC66B03C002C28
:1041500067D6174105DB6100FC44375F05B4206B6F
:10416000043E274805ACB1EB0442672E2010B0ABEB
:10417000046A670A20680004D1EB05AC60E44A2BAE
:1041800005B46600EFC46100FF5850483018B02BEA
:1041900005DB670000946000EF844A2B05B46700DC
:1041A000EF806100FF3C202B046A20C072040800ED
:1041B000001767027206274105A8122B05DB584835
:1041C00030C1321F30C1610000AE274005A8532B1B
:1041D00005DB66EED1EB05A86500EF7AB1EB04468E
:1041E000650C6100028EB1EB04466400EF6827485D
:1041F00004427000222B05A8E2895341310051C9C5
:10420000FFFC48414A4167065341484160EE206B3C
:1042100005AC202B04429088214000044A2B05B4B1
:1042200066525048375805DB7000274005A8321801
:10423000B2576500EF184A806702613A7200321F78
:10424000D081274005A8532B05DB66E2177C0000D0
:1042500005B572034A2B046B6A0A7205177C00804D
:1042600005B5600C4A2B046C6A06177C004005B546
:104270006104D1C04E75202B05A824004842C0C15E
:10428000C4C148424A426600EECCD0826500EEC608
:10429000D0AB05A86500EEBE4E754A2B05B56A0485
:1042A00061000318610001CC202B044690AB04424E
:1042B000177C000005B5377CA000059427400590C9
:1042C0006A000640003C000160000638102B05E53E
:1042D000C0BC000000FF60D84A2B04526B00EE62A5
:1042E0004E7570AB6100FAC0177C008005DF61007D
:1042F000FCDA274805B061E00C1D00286600EE6A74
:10430000177C007E05DF6100FCB46100FA9070BD8F
:104310006100FA942F2B046A2F0D6100F412206BB8
:1043200005B0209F215F00044E75177C008105DFDA
:104330006100FA7C6100FC941F2B05B52F080C1559
:1043400000286600EE246100FA50205F274805B07F
:104350001F2B05B5202800046100FCDA101FE318AC
:104360006100F8D8671243EB0476B9C96700EDC65F
:1043700039280004291060022F102F081F2B05B5C3
:1043800061322F0D206B05B02A506100F8C2610028
:10439000FA206600EDD42A5F101F205F4A006A08E9
:1043A000209C315C00046002209F101FE318610014
:1043B000F88A4E754A2B05B56A0007F0244860005C
:1043C000F5126100095074223602720053412448EC
:1043D0005241103010006710B0026704B00366F05D
:1043E000B03C00226602524AD5C1B1CB651EB1EB8A
:1043F000042E64182248200166042041600E6126C4
:10440000D1C1D3C15340112151C8FFFC43EB047605
:10441000B9C96700ED2039012908274C0590177CA0
:10442000008005B54E754A41672E2F007000174079
:1044300005DE7001C041D041640470014840206B2A
:10444000044691C0B1EB0442651227480446274850
:10445000044E201F4A414E7530414E754A2B05DEF1
:104460006B00ECF22F09610A225F177C008005DEE9
:1044700060CC48E7E0E0276B044A0446222B044264
:1044800070002240206B043A41E80004246B043E93
:1044900060086100008441E8000AB1CA65F441E89F
:1044A000FFFC246B0442602424280004D4882010DC
:1044B00008000017671430280008D040D0C041E839
:1044C000000A61545C48B1C266F82042B5C866D89B
:1044D000204C45EB048E6006613E41E80006B5C8FD
:1044E00066F62009672C205172003229000452819F
:1044F000C23C00FED1C1246B0446B1CA670CE289FC
:104500005341352051C9FFFC228A275104466000DF
:10451000FF6C4CDF07074E7520106728B2806424BB
:10452000B0AB0446641E70FF302800044440C03C19
:1045300000FED0AB0446B0906706221022484E75AC
:10454000274004464E75487AF7382F2B05906100B6
:10455000F80C4A2B05B56A00EBE4205F226B05904E
:1045600032280004D26900046500EBCE2F086100F8
:10457000FEB62748059820573028000420506120B7
:10458000206B059061386118205F6132206B0598BF
:1045900022086700FE784481D2AB044E6000FE6EB4
:1045A00032006714226B044E2F09534012D851C8B1
:1045B000FFFC2749044E205F4E75206B059048E7AD
:1045C0004040B9C866025C4C700022583018B9C827
:1045D0006610B3EB0446660A7201C240D280D3ABC8
:1045E000044620494CDF02024A804E7561000130CA
:1045F00072016100FE3210806000FE12C141610054
:10460000F79C4A8167227000B2680004651A601442
:10461000C1416100F7884A81670E3028000490810B
:10462000640670003228000422486100FDFA204927
:104630002F00618AD1DF30016100FF666000FDCE8E
:104640007E0053472F006100F768B03C002C660CD9
:10465000101D2F08610000DA205F2E006100F73E78
:10466000201F720053806B00EAF4B068000464B845
:104670002207DE406506BE68000465AC32280004EF
:10468000924060A46100FF34220067562248610016
:10469000FD96D1C1D3C1340153421021B03C005B1F
:1046A000640AB03C0041650400000020110051CABA
:1046B000FFEA602E6100FF042200672622486100A5
:1046C000FD66D1C1D3C1340153421021B03C006119
:1046D000650AB03C007B6404020000DF110051CA8F
:1046E000FFEA6000FD28101D6100F8D66100F6AEFB
:1046F0004A2B05B56A00EA4620106000FBB4487AF0
:10470000FBB06000FEB66100FEB24A406700EA4EB0
:1047100010106000FBBC6100F6966100F51A6100A4
:10472000F9D4123C0080D281C2806600EA304E7516
:104730006100F5046100F9BE48404A406600EA1E87
:1047400048404E756100FE7467222C4D2A48D1C046
:1047500010103F002F0810BC00006100F6546100EB
:10476000114C205F301F10802A4E4E753740059443
:104770004E756100F4C26100F9842F006100F626D5
:104780006198205F4E75611E6100F61A6100F4A801
:104790006100F96A48404A40670652406600E9BE37
:1047A0004840205F4E756100F48E6100F9500800AA
:1047B00000006600E96420572E804ED06100F93E6B
:1047C000204010106000FB0A61A810804E75610047
:1047D000F92CE2086500E942D000C1887000301071
:1047E0006000FACE6100F916E2086500E92CD000FD
:1047F000C18820106000FABA618C30804E7561A6C5
:104800006100F5A26100F4306100F8F2205F2080C1
:104810004E756100F7AC2F08182B05B56100F586C1
:104820006100F79E245FB82B05B56600E9102010E3
:1048300020D224C04A046AD83010309234804E7599
:104840004EAB04066000F5564EEB04184EEB041E0A
:10485000487AF55E6100FF504E756100FF162F0823
:104860003F0074006100F54A67066100F5342400DA
:10487000321F205F1010B500C00167F84E750A2B7B
:1048800000800595176B059D059E102B0595B12B96
:10489000059E102B05946700033841EB0598102BFB
:1048A000059C6746902B05946722650A376B059C2B
:1048B00005944400514844002F01B03C00206D0491
:1048C000720060042210E0A92081221F4A2B059E5D
:1048D0006B1A202B0598D0AB0590640AE290522BFE
:1048E00005946500E874274005904E7543EB0590EC
:1048F000B3C866025049201122102740059093AB9F
:104900000590640A0A2B00FF059544AB0590202B07
:1049100005906B2E6606374005944E752F012200D8
:104920007000102B05946714D2815BC8FFFC4A40CD
:10493000670A6A027001530027410590221F174041
:1049400005944E754A2B05956B00E8127E001747BB
:10495000059E1E2B05946700E8049EBC00000081A4
:10496000177C008105942C2B0590277C800000008B
:104970000598377C8100059C6100FF187000374066
:10498000059CDC86274605986758377C8000059C87
:10499000610001304A2B05946748122B0594923C24
:1049A00000824401202B0590E2A87C00223C4000BC
:1049B000000041FA14087A1E78016006E8A292828B
:1049C000DC9024002601E8A36402528390836AEC01
:1049D000200258485284E28B670451CDFFF0DC86F8
:1049E000200628007A004A8767166A0444877A807E
:1049F000174505954847E18F7A885385DE876AFA1F
:104A00002747059017450594277CB17217F805983C
:104A1000377C8000059C176B0595059E611827441F
:104A200005986710377C8200059C176B0595059EDD
:104A30006100FE604E7548E7F8004A2B05946776E2
:104A4000102B059C6770176B059E0595D02B059460
:104A5000640A903C00806400E7006006903C00809F
:104A6000655417400594222B0590242B0598380196
:104A7000200148403600C2C2C0C24842C8C2C6C2B5
:104A8000D2BC0000800042414841D280D2846406FA
:104A9000D6BC00010000D2BC000080004241484169
:104AA000D2836B08D281532B0594670A2741059066
:104AB0004CDF001F4E75700027400590374005946D
:104AC00060EE2F0770002400142B05946700E67633
:104AD000102B059C67669042D07C0080176B059E6A
:104AE0000595422B059F262B0590282B0598B8830A
:104AF000674465069883562B059F61464841280206
:104B0000614284C51E2B059F6708E20FE291E252C5
:104B10005200D442640852816404E291524036004B
:104B20006B1A0243FF006600E6302E1F1740059403
:104B3000274105904E757201E2A960DE70002200E7
:104B400060E824042A034245484588C5680278FF86
:104B50003C043204CCC3C8C53E0642464846D8860B
:104B60007C009C4795846A085341DC43D5856BF8EB
:104B7000484234064E752010484037400594670877
:104B8000807C00804840E18027400590102B0594F0
:104B90004E752F08206B0472082B000605B5670CB4
:104BA000610000C62080205F4E752F086100FD6007
:104BB000612C202B0590E0984840C07C007F022BA0
:104BC00000800595806B059448402080205F4E75DD
:104BD000376B059C0594276B059805904E75102B37
:104BE00005946720202B0590D0BC00000080640A4B
:104BF000E290522B05946500E560C03C0000274020
:104C000005904E75174005954E757000102B059454
:104C100067F6102B0595488048C0E08065EA700172
:104C20004E7561E627400590377CA0000594D08042
:104C30006000FCD0177C000005954E75122B059C7A
:104C400067C8102B059E6BCA102B0595B22B0594D7
:104C5000660A222B0598B2AB0590670865B80A0072
:104C6000008060B270004E75202B059067322F01D6
:104C7000123C00A0922B05946500E4DE660E4A2BE0
:104C800005956A1A448069166000E4CEB23C0020A3
:104C900065027000E2A84A2B05956A024480221F33
:104CA0002740042A4E75103C00A0902B05946310F9
:104CB000B03C00206400026272FFE1A1C3AB05902A
:104CC0004E7541FA18006100ED1C202B045243FA86
:104CD0000DEE720041EB05CC240126311000671463
:104CE000782F524490836AFAD0831184200058416F
:104CF000524260E6D03C00301180200053485248B8
:104D000043EB05D5B1C96700ECDC0C10003067EE51
:104D10006000ECD243EB05C6742008AB0007059594
:104D20006702742D1282142B05946608703072018C
:104D3000600001A8177C000005ACB43C0081644809
:104D4000277C989680000598377C9800059C176B07
:104D50000595059E6100FCE0177C00F905AC602814
:104D6000376B0594059C276B05900598176B059587
:104D7000059E277CCCCCCCCD0590377C7D0005945E
:104D80006100FCB4522B05AC277C98967F70059887
:104D9000377C9800059C6100015062C46750277CF5
:104DA000F423F8000598377C9400059C41EB0590AE
:104DB0006100013662202010122800042400E488DB
:104DC000D0826404E2905201560120801141000417
:104DD000532B05AC60DA277C800000000598377CF7
:104DE0008000059C176B0595059E6100FAA6610081
:104DF000FE787401102B05ACD03C00086B0CB03C65
:104E00000009640653001400700272005500174038
:104E100005AD174205AC100267026A14528113BC3B
:104E2000002E10004A026708528113BC00301000A7
:104E30007400708041FA1122263020005200D7AB56
:104E4000042A08000007650467F2600266EE640643
:104E50004400D03C000BD03C002F58425241160079
:104E6000C63C007F13831000042B000105AC6608CC
:104E7000528113BC002E1000C03C00800A0000804C
:104E8000B43C001C66AE103110005381B03C0030C1
:104E900067F4B03C002E6702528113BC002B100255
:104EA0004A2B05AD67386A0A13BC002D1002442B4B
:104EB00005AD13BC00451001142B05AD702F520039
:104EC000943C000A64F8D43C003A13801003138227
:104ED000100413BC00001005600A1380100013BCFE
:104EE0000000100120494E757000122B059CB22B5A
:104EF0000594660A222B0598B2AB059067086504F5
:104F000053804E7552804E75277C800000000590BE
:104F1000377C810005944E7570002740059037401E
:104F200005944E754A2B059467DE4A2B059C67E86D
:104F30001F2B059D6A2072001741059D122B0594B9
:104F4000927C00806300E216202B0590E3A06600AF
:104F5000E20C65021E802F2B05903F2B059461000B
:104F6000FC706100F9E0301F275F05983740059C11
:104F70001740059E102B0595B12B059E6100FAB8D0
:104F80006158175F05954E754A2B059467060A2BE5
:104F9000008005954E75277C800000000590377CC9
:104FA000810005944E754A2B05956A00E1AC7000AE
:104FB00027400590374005944E75277C80000000FF
:104FC0000590177C000005954A2B05B46A024481C0
:104FD000D23C0081174105944E75102B059467B69D
:104FE000B03C006465B0177C000005B4222B05902E
:104FF000B03C008762B06608B2BCB00F33C764A68D
:105000004A2B05956A0C177C00FF05B4177C00003D
:105010000595277CB8AA3B290598377C8100059C1B
:10502000177C0000059E6100FA0E177C000005D970
:105030001A2B05949A3C00806324202B05902200B3
:105040002C054446DC7C0020ECA9174105D9EBA8CF
:105050006700FF6827400590377C80000594277C17
:10506000B17217F80598377C8000059C177C00000A
:10507000059E6100F9C2202B05901A2B05949A7C9D
:1050800000824445EAA872002C3C26A3D11041FAC4
:105090000D2C78007A036136594853847A09612EC1
:1050A000594853847A1261264A2B05B46A06448112
:1050B000442B05D97083DC816B065380DC866AFA49
:1050C00027460590D02B05D9174005944E7552847C
:1050D0002406E8A22601E8A34A806B0CD282DC8376
:1050E000909851CDFFEA4E7592829C83D09851CD15
:1050F000FFDE4E754A2B0594670841EB05A0610061
:10510000FAAA72AF7412202B05A0D0806402B300FB
:1051100051CAFFF8274005A027400590377C800042
:1051200005946000F7EA6138376B0594059C276B9E
:105130000590059827410590174305946700E01AEC
:105140006100F7CC6000F97C277CC90FDAA30598D1
:10515000377C8100059C176B0595059E6100F7342F
:10516000177C000005B4277CA2F9836F0598377C73
:105170007F00059C176B0595059E6100F8BA102B02
:105180000594671C41FA0B362C2B059053006710D1
:10519000903C00806B18B03C00206404E1AE6618BF
:1051A00074817600203C800000002203606244008D
:1051B000B03C001E64EAE0AE176B0595059EDC86E8
:1051C00064060A2B00FF0595DC86640C0A2B00FFA1
:1051D00005B40A2B00FF059EE48E67C47A012028DF
:1051E000FFFC22009C9860089C989083D2826012F9
:1051F0002400EAA22601EAA34A866AECDC98D0835E
:1052000092825285BABC0000001E66E474812602B8
:105210004A2B05B46B04C141C54327400590174292
:1052200005946000F6EA102B0594670000AC177C2B
:10523000000005B4B03C008165286608202B05906D
:10524000D080671E277C800000000598377C810095
:10525000059C176B0595059E6100F868177C00FF9B
:1052600005B4202B0590123C0082922B0594E2A8F5
:1052700041FA0ACA7C00223C400000007A1D7801F5
:105280006006E8A2D282DC9024002601E8A3908385
:105290006AF0200258485284E28351CDFFF2177C15
:1052A00000820594274605906100F6644A2B05B4F8
:1052B0006A261E2B0595177C00000595277CC90FD3
:1052C000DAA20598377C8180059C177C00FF059E3B
:1052D0006100F5C0174705954E756100F496B03C26
:1052E00000086400DE7801D04E756100F486B03CA1
:1052F00000086400DE6801904E75101D6100F474B2
:10530000B03C00086400DE5622006100EAA4B03C14
:1053100000296600DE546100EA9670000310670001
:10532000F90470FF6000F8FE4A2B05B56A00DDE65F
:10533000246B05903E2A00046700DDDA70003F0010
:105340003F003F003F002F0A720020416100F0BE85
:10535000101DB03C002C6600DE106100028E4A0277
:105360006700DDB26100E8E84A2B05B56B00DDCED1
:105370004A2B05946732322F000AB27C0008642859
:105380003001D241D240D24141FA08442770100284
:10539000059830301000907C01003740059C177C48
:1053A0000000059E6100F4EC6100F96A610001FEF5
:1053B00045EB05C67C00782E34065246103260005C
:1053C000677AB03C00456706B00466EE60EA3606D0
:1053D0005343524610326000B03C002D6600DD7E23
:1053E000524610326000B03C00306704700A60081A
:1053F0005246700FC032600034030C420001660256
:105400005242D440700A90426E0CD440D6400C43B5
:1054100000016E0276003C027000158020005342AD
:105420000C420001671270304A4367EE10323000C0
:105430005343B00466E460F4158420004A426602D7
:10544000340636025243382F00085244B2446322D5
:1054500010304000B03C00256706B03C002366EAEF
:105460007030BC436306103230005243118040005C
:1054700060D87C007A0053426608740115BC003085
:105480002000382F0008B2446402380153446B6294
:10549000103040007E30B03C002567087E20B03CD4
:1054A000002366064A4266346042B03C002C661017
:1054B0004A4266080C30002540FF66301E00602C12
:1054C000B03C002D6710B03C002B66C00C12002DC4
:1054D000670414BC002B1A004A4267081E322000E1
:1054E000534260084A0666041E121C0711874000DA
:1054F000609A4A4266144A0567544A0666500C058B
:10550000002B67060C12002D66447A233E01534798
:105510003C2F000453466E023C07103160000C0023
:105520000023671E0C00002567180C00002C671272
:105530000C00002B670C0C00002D67060C00002EE1
:105540006602100511807000534651CFFFCE41EC2A
:105550000006274C05906100F004302F00046720FE
:105560003F400006610000844A026614613E3F6FBE
:105570000004000641EC0006274C05906100EFDEB8
:10558000101DB03C00296600FDCA204C222B0446A9
:105590006100F02C2741044622483200205F610060
:1055A000F01E4FEF000820496000EE62226F0004F9
:1055B0003E290004342F000A3C2F00083206924294
:1055C0006202D2476100EE606100EE42226F000489
:1055D0002251780011B12000400052445242BE4294
:1055E00066027400BC4266EC4E75226F00043E29D0
:1055F000000422513C2F000A3F47000C7A0076003D
:10560000740010316000B03C002C6742B03C0023B5
:105610006706B03C002566084A856A105243602E32
:10562000B03C002B6706B03C002D66048400601E71
:10563000B03C002E66144A856B143006906F000A49
:105640003F40000C7AFF840060044A02660852461C
:10565000BE4662AE7C003F4600083F43000E4E75DA
:10566000B23C00216400DAF6741F41EB05B67830D5
:105670007600E288D7041183200051CAFFF4177C1A
:10568000000005D64A01670E4481D2BC000005D651
:1056900041F31000600E1010670AB03C0030660E37
:1056A000524860F243EB05D6B1C966025348600028
:1056B000ED16B23C00096400DAA4740741EB05CE94
:1056C00078301600E898C63C000F1A03DA3C00F662
:1056D000C7041183200051CAFFEA60A24A2B05E8E3
:1056E000661E4EAB040C640E174005E9177C0020C3
:1056F00005EA6000DEDE4A2B05EA6704532B05EA63
:105700004E754EAB040C650A102B05EA67F2102BA0
:1057100005E9177C000005EA003C00014E756100B8
:10572000E5304A2B05B56B00DA14612E64FC61008C
:10573000F4A060F66100E51A4A2B05B56B00D9FEAE
:10574000611863FC6100F48A60F6B03C00296600D1
:10575000DA184FEF00046000E6566100E654B03CF2
:10576000002C66E63F2B05942F2B05906100E4E2A8
:105770004A2B05B56B00D9C6275F0598301F374007
:10578000059C176B0595059EB12B059E6000F4AE38
:10579000B03C002C672C6100EF824A006712B03CDD
:1057A00000106500D9B8B02B05E26404174005E28B
:1057B000174005E66100E5FA672CB03C002C660056
:1057C000D9A86100EF524A006B00D992B03C0001A9
:1057D0006500D98A122B05E66708B02B05E66E0036
:1057E000D97C174005E2102B05E6670AB02B05E2CD
:1057F0006404174005E2902B05E264FAD02B05E221
:10580000D02B05E24400D02B05E6174005E74E7586
:105810004A2B05956B00D9464A2B059467F048E75B
:105820007800202B059074002202761F082B0000C0
:1058300005946606D080D582D281D080D582280199
:10584000D8845284B48465049484528151CBFFE699
:1058500027410590102B0594907C0080E24864025B
:105860005240D07C0080174005944CDF001E600041
:10587000F09E101D6100E74A6100E52220086000EB
:10588000EA3041F8040020086000EA26277CC90FAE
:10589000DAA20590377C820005944E75277CC90FEB
:1058A000DAA20590377C830005944E7548E77C00AA
:1058B00072002601280117410595174105B51741CA
:1058C00005AF6100E4EC653CB03C002D6608177C38
:1058D00000FF05956006B03C002B66066100E4D031
:1058E0006522B03C002E67000092B03C00246700A7
:1058F000010AB03C0025670001646000008C610073
:10590000E4AE646C610001A864F452836100E4A019
:1059100065F8B03C002E66066100E49465FAB03C80
:10592000004566646100E4886528B03C002D670688
:10593000B03C00B36608177C00FF05AF600EB03CBA
:10594000002B6708B03C00B26600D81E6100E4601E
:105950006436C8FC000AC0BC000000FF903C003068
:10596000D880B83C00306FE46100E44465FA601808
:10597000B03C002E670460A653836100E432649E4D
:105980006100012C64F260904A2B05AF6A024484E6
:10599000D88376204A8167526B085383D2815BCBD0
:1059A000FFFCB8BC000000266E00D7AEB8BCFFFFFD
:1059B000FFDA6D344484C9FC00062F0841FA021056
:1059C00017704000059C277040020598205F0A036D
:1059D00000802741059017430594176B0595059E98
:1059E0004CDF003E6000F050720026011743059422
:1059F000274105904CDF003E4E75177C004005B5F1
:105A000076206100E3AA6514803C0020903C006190
:105A1000652AB03C00066424D03C003A616C64E224
:105A200058836900D7346100E38665F4803C002028
:105A3000903C00616506B03C000665E44A8167AAB7
:105A40006B085383D2815BCBFFFC0A0300801743B2
:105A50000594274105904CDF003E4E75177C0040B1
:105A600005B576206100E34864D2B03C003264CCD6
:105A70002401612464EE52836900D6DE6100E330C4
:105A800064BAB03C003265EE60B22401D48265CACB
:105A9000D48265C6D48265C2D48265BEC0BC000013
:105AA00000FF903C0030D48065B022024E75240186
:105AB000D4826508D4826504D48164DC4E753B9A37
:105AC000CA0005F5E10000989680000F42400001F1
:105AD00086A000002710000003E80000006400001A
:105AE000000A00000000332E3232FF0096769951F2
:105AF000FB00F0BDC21BF800C097CE7CF5009A13E6
:105B00000B96F100F684DF57EE00C5371912EB0053
:105B10009DC5ADA8E700FC6F7C40E400C9F2C9CD8B
:105B2000E100A18F07D7DE00813F3979DA00CECBC3
:105B30008F28D700A56FA5BAD40084595161D00031
:105B4000D3C21BCFCD00A968163FCA008786783222
:105B5000C600D8D726B7C300AD78EBC6C0008AC749
:105B60002305BC00DE0B6B3AB900B1A2BC2FB60016
:105B70008E1BC9BFB200E35FA932AF00B5E620F5C6
:105B8000AC009184E72AA800E8D4A510A500BA4388
:105B9000B740A2009502F9009E00EE6B28009B0022
:105BA000BEBC20009800989680009400F424000069
:105BB0009100C35000008E009C4000008A00FA0053
:105BC00000008700C80000008400A00000008100E1
:105BD000800000007D00CCCCCCCD7A00A3D70A3D5C
:105BE000770083126E987300D1B717597000A7C55C
:105BF000AC476D008637BD066900D6BF94D66600F7
:105C0000ABCC7712630089705F415F00DBE6FECFAB
:105C10005C00AFEBFF0C59008CBCCC095500E12EA9
:105C200013425200B424DC354F00901D7CF74B002A
:105C3000E69594BF4800B877AA3245009392EE8F5C
:105C40004100EC1E4A7E3E00BCE508653B00971D06
:105C5000A0503700F1C900813400C16D9A013100B4
:105C60009ABE14CD2D00F79687AE2A00C6120625DF
:105C700027009E74D1B82300FD87B5F32000CAD257
:105C8000F7F51D00A2425FF71A0081CEB32C160073
:105C9000CFB11EAD1300A6274BBE100084EC3C987C
:105CA0000C00D4AD2DC00900AA2424990600881C3C
:105CB000EA140200D9C7DCED4DBA76D4200000000A
:105CC00012E4051E09FB385C051111D5028B0D4449
:105CD0000145D7E200A2F61F00517C560028BE54B1
:105CE00000145F2F000A2F99000517CD00028BE7E3
:105CF000000145F40000A2FA0000517D000028BF19
:105D00000000146000000A30000005180000028C3A
:105D100000000146000000A300000052000000291E
:105D2000000000150000000B00000006000000034A
:105D30000000000200000001000000011DAC67052A
:105D40000FADBAFD07F56EA703FEAB7701FFD55C7B
:105D500000FFFAAB007FFF55003FFFEB001FFFFD88
:105D60000010000000080000000400000002000015
:105D70000001000000008000000040000000200042
:105D800000001000000008000000040000000200F5
:105D90000000010000000080000000400000002022
:105DA00000000010000000080000000400000002D5
:105DB0000000000100000000000000002327D4F4D0
:105DC0001058AEFA080AC48E0401562202002AB006
:105DD00001000554008000AA0040001400200002C9
:105DE0000010000000080000000400000002000095
:105DF00000010000000080000000400000002000C2
:105E00000000100000000800000004000000020074
:105E100000000100000000800000004000000020A1
:105E20000000001000000008000000040000000254
:105E3000000000010000000000000000D79ED6D244
:105E4000DD44D8F2DC38E116DC5EDA6ADA06D85ACC
:105E5000D822D91AD7CCD848D8DED98CD7A6D9948D
:105E6000D7FADA0CEA1EEA0CEA10E4A6E98CE9BCDF
:105E7000E9C2EA14D836D888DAFED804D61CD61877
:105E8000D5C6F954DAC4E9D6F49EF4AEDFC4DFC453
:105E9000DFC4DDC4DF0CDF0CDFC4DFC4DFC4DFC45C
:105EA000DFC4DFC4DFC4DFC4DFC4DFC4DFC4DFB6E8
:105EB000DFC4DFB6DFB6DFB6DFB6DFC4DFFEDFFE8E
:105EC000000000000000DFD2DFD2DFD200000000BF
:105ED000DFDCDFDCDFDCDDC4ED4AEDCEED5CE96864
:105EE000E3C2E3F4F938F21CEA6CF102F270F288D2
:105EF000F24EF34EE8E4E8F6E90CE826E4EAE86C52
:105F0000E82EE7DCE7ACE714F7DAF788F422F84686
:105F1000F85CF9AAF9B4F9C4F99AE80EE724E7386D
