:0400000000EFB8F065
:10000800E764E764E764E764E764E764E764E76490
:10001800E764E764E764E764E764E764E764E76480
:10002800E764E764E764E764E764E764E764E76470
:10003800E764E764E764E764E764E764E764E76460
:10004800E764E764E764E764E764E764E764E76450
:10005800E764E764E764E764E764E764E764E76440
:10006800E764E764E764E764E764E764E764E76430
:10007800E764E764E764E7644200E764E764E76429
:10008800E764E764E764E764E764E764E764E76410
:1000980022643864E764E7644200E764E764E7647D
:1000A800E764E764E764E764E764E764E764E764F0
:1000B800E764E764E764E764E764E764E764E764E0
:1000C800E764E764E764E764E764E764E764E764D0
:1000D800E764E764E764E764E764E764E764E764C0
:1000E8004200E764E764E764E764E764E764E764B9
:1000F800E764E764E764E764E764E764E764E764A0
:02010800FF00F6
:10FFE000000D0A4D455A36383030382025322E3330
:10FFF000664D487A0D0A00696E66006E616E0000FB
:020000040001F9
:1000000000009F00000000C000000898000008AC3D
:10001000000008C00000091E000009340000094A61
:1000200000000960000009760000098C000009A2A8
:100030000000089600000896000009B80000089625
:100040000000089600000896000008960000089638
:100050000000089600000896000008960000089628
:100060000000089600000896000008960000089618
:100070000000089600000896000008960000089608
:10008000000009CE000009E4000009FA00000A108F
:1000900000000A2600000A3C00000A5200000A681C
:1000A00000000A7E00000A9400000AA800000ABCB2
:1000B00000000AD000000AE400000AF800000B0C5F
:1000C000610011DE203C0000800023C000009F186A
:1000D00023C000009F2223C000009F2613FC005372
:1000E00000009F2A13FC000000009F2C41F9000033
:1000F0009F34303C00A3421851C8FFFC23FC000091
:100100009F0000009F7823F900009F2200009F3489
:1001100023FC00009E0000009F7441F80D2A61003E
:10012000063841F80D8D4E7A080141F80D9713FC01
:10013000000100009F2C6100062041F80D4661007F
:1001400006186100069841F900009F00610006F85A
:100150001010610006FC4A0067E0B03C00446742B2
:10016000B03C00476700017CB03C0053670001EAE7
:10017000B03C004C6700026EB03C00506700037E4C
:10018000B03C00526700048EB03C003F6700059011
:10019000B03C00236700059241F80D63610005BA89
:1001A00060985248610006A0610006B84A42661C89
:1001B000610006944A1066E0203900009F18D0BC08
:1001C0000000008023C000009F1C604023C100008D
:1001D0009F18610006720C10002C67124A1066B856
:1001E000D2BC0000008023C100009F1C601E52484A
:1001F000610006546100066C6100064C4A42679833
:100200004A106694528123C100009F1C20390000CF
:100210009F18C03C00F022404242612A61001098C1
:100220004A006614B47C000265F023F900009F1CAC
:1002300000009F186000FF0423C900009F186100A0
:1002400010626000FEF620096100051C41F80D6B8C
:100250006100050645F900009F00363C000F613A39
:1002600051CBFFFC41F80D6E610004EE45F9000032
:100270009F00363C000F101AB03C0020650CB03CCB
:10028000007F64066100103C6008103C002E610095
:10029000103251CBFFE260000534103C00206100B9
:1002A00010224A42661EB3F900009F186712103CE4
:1002B00000206100100E6100100A14C052494E75F2
:1002C000343C0001B47C000166E4101914C06100E4
:1002D00004A6B3F900009F1C67024E75343C00026F
:1002E0004E75524861000560610005784A1066004D
:1002F000FEA84A42670623C100009F34203900004F
:100300009F78C0BCFFFFFFFE2E404A3900009F2CA3
:1003100067283F3C0000203900009F7EC0BCFFFFE3
:10032000FFFE4E7B0801103900009F824E7B0000CB
:10033000103900009F834E7B00012F3900009F344D
:100340003F3900009F7C207900009F744E604CF97B
:100350007FFF00009F384E735248610004EA61003D
:100360000502610004E24A106600FE2E22414A4264
:100370006606227900009F262009610003EA41F801
:100380000D6E610003D41011610003EC103C0020DD
:1003900061000F306100044641F900009F006100D8
:1003A00004A61010660A524923C900009F2660C89F
:1003B000B03C002D660A534923C900009F2660B84F
:1003C000B03C002E660A23C900009F266000FD6C29
:1003D000610004904A426700FDC012C123C90000B9
:1003E0009F26609452486100045E610004766100BB
:1003F00004564A106600FDA24A426602428161002C
:100400000EA26100044CB03C005367000082B03C77
:10041000003A6712B03C000D67E4B03C000A67DEAA
:1004200061000E8060EE6100036E4242140016000F
:100430006100036442841800D6006100035AE14C55
:100440001800D600D88122446100034C13C000007C
:100450009F2BD6004A42671653426100033AD600EA
:100460004A3900009F2B660212C051CAFFEE61009C
:100470000326D600660C4A3900009F2B67A2600055
:10048000FCBA41F80D49610002D06000FCAE610089
:100490000E1213C000009F2B610002FC42421400A8
:1004A0001600610002F242841800D600610002E8E2
:1004B000E18C1800D600D881224457426718534275
:1004C000610002D4D6000C39003100009F2B660277
:1004D00012C051CAFFEC610002BED600B63C00FF5C
:1004E000660E0C39003900009F2B670C6000FF324C
:1004F00041F80D56610002626000FC405248101045
:100500006100034EB03C00496706B03C00536608EA
:10051000524813C000009F2A6100032C610003446D
:100520004A426700FC7422416100031C0C18002C35
:100530006600FC6661000310610003284A42670000
:10054000FC58610003024A106600FC4E9289524139
:1005500061264A8166FA0C39004900009F2A660C20
:1005600041F80D72610001F26000FBD041F80D808E
:10057000610001E66000FBC47410B28264022401D1
:1005800092820C39004900009F2A6642103C003AD2
:1005900061000D3010021602610001DC2009E04804
:1005A000D600610001D22009D600610001CA4200D4
:1005B000610001C453421019D600610001BA51CA4A
:1005C000FFF610034400610001AE60000200103C21
:1005D000005361000CEE103C003161000CE610028B
:1005E00056001600610001902009E088D6006100E5
:1005F00001862009D6006100017E53421019D60001
:100600006100017451CAFFF61003460061000168E1
:10061000600001BA52486100022E101061000232DF
:100620004A006608610000BA6000FB1043F80FEC56
:10063000B01167104A290001670000A2D3FC000036
:10064000000A60EC0C29000F0001660E226900020E
:1006500052481010610001FA60D616290001677C2B
:100660006A084A3900009F2C677220690006610001
:1006700000E8103C003D61000C4A24690002C63CC1
:100680000007B63C000166081012610000EA601421
:10069000B63C000266083012610000D460062012E9
:1006A000610000C4103C002061000C186100012EA4
:1006B00041F900009F006100018E610001A64A42DD
:1006C0006716B63C000166041481600CB63C00025B
:1006D00066043481600224816000FA606000FABA26
:1006E00043F80ED43219670000E46A0A4A39000060
:1006F0009F2C670000D82059615E2059C27C0003FE
:10070000B27C000166061010616C60D8B27C0002F9
:1007100066063010615860CC2010614A60C641F80E
:100720000C2661346000FA14524810106100012256
:10073000B03C004C6710B03C00316714B03C003254
:1007400067126000FA5441F80CFB610C6000F9EC90
:100750004EF820004EF8600010184A00670661004D
:100760000B6260F44E752F0048406102201F2F007D
:10077000E0586102201F2F00E8186102201FC03CD2
:10078000000FD03C0030B03C003A65000B36D07C06
:10079000000760000B2E42006102E9083F00610083
:1007A0000B02610000ACB03C0030651CB03C003A6C
:1007B0006510B03C00416510B03C0047640A903CB5
:1007C0000007903C00308057544F4E75103C000D90
:1007D00061000AF0103C000A60000AE841F90000DC
:1007E0009F00420161000ABCB03C000D6750B03C64
:1007F000000A674AB03C00086722B03C007F671CD3
:10080000B03C002065DEB03C008064D8B23C0017EC
:1008100064D2520110C061000AAA60C84A0167C4CC
:1008200053885301103C000861000A98103C0020D6
:1008300061000A90103C000861000A8860A6618C83
:1008400010BC00004E750C18002067FA53884E75D6
:10085000B03C0061650AB03C007B6404D03C00E021
:100860004E7542424281101061E6B03C0030652472
:10087000B03C003A6510B03C00416518B03C004700
:100880006412903C0007903C0030E9898200524895
:10089000524260D24E754E7323FC00000DA1000041
:1008A0009F2E427900009F326000027623FC0000F8
:1008B0000DAB00009F2E427900009F326000026263
:1008C0000CAF000001260002660C5C4F42390000AC
:1008D0009F2C6000F86248F97FFF00009F3823FCDE
:1008E00000000DB900009F2E33FC000100009F3274
:1008F000206F00023010B07C4AFC670CC07CFFF80F
:10090000B07C48486600022223FC00000ECE0000A6
:100910009F2E33FC010100009F326000020C23FC7B
:1009200000000DCD00009F2E33FC000200009F321E
:10093000600001EE23FC00000DD900009F2E33FC67
:10094000000200009F32600001D823FC00000DE986
:1009500000009F2E33FC000200009F32600001C2A5
:1009600023FC00000DFB00009F2E33FC0001000063
:100970009F32600001AC23FC00000E0F00009F2E90
:1009800033FC000100009F326000019623FC000050
:100990000E1500009F2E33FC000100009F32600006
:1009A000018023FC00000E2800009F2E33FC000174
:1009B00000009F326000016A23FC00000E3B000033
:1009C0009F2E33FC000100009F326000015423FC85
:1009D00000000E4800009F2E33FC000200009F32F2
:1009E0006000013E23FC00000E5000009F2E33FCEF
:1009F000000200009F326000012823FC00000E5816
:100A000000009F2E33FC000200009F3260000112A4
:100A100023FC00000E6000009F2E33FC000200004B
:100A20009F32600000FC23FC00000E6800009F2E37
:100A300033FC000200009F32600000E623FC00004F
:100A40000E7000009F2E33FC000200009F326000F9
:100A500000D023FC00000E7800009F2E33FC000223
:100A600000009F32600000BA23FC00000E800000EE
:100A70009F2E33FC000200009F32600000A423FC84
:100A800000000E8800009F2E33FC000200009F3201
:100A90006000008E23FC00000E9000009F2E33FCAF
:100AA000000200009F32607823FC00000E980000D6
:100AB0009F2E33FC000200009F32606423FC000084
:100AC0000EA100009F2E33FC000200009F326050F8
:100AD00023FC00000EAA00009F2E33FC0002000041
:100AE0009F32603C23FC00000EB300009F2E33FCBD
:100AF000000200009F32602823FC00000EBC0000B2
:100B00009F2E33FC000200009F32601423FC000083
:100B10000EC500009F2E33FC000200009F324E7174
:100B200048F97FFF00009F384A7900009F32661421
:100B30004A3900009F2C660C41F900009FA430DF69
:100B400020DF30DF33DF00009F7C23DF00009F3495
:100B50004E6823C800009F744A3900009F2C673CF0
:100B60004E7A080123C000009F7E4E7A000013C019
:100B700000009F824E7A000013C000009F83341F44
:100B800033C200009FD6C47CF0004A42670E41F990
:100B900000009FA4741830DF51CAFFFC23CF00006F
:100BA0009F78207900009F2E6100FBAE6100FC1E43
:100BB0004A7900009F32660261086100FB246000F0
:100BC000F57A4A3900009F2C665A303900009FA4FC
:100BD000C07C0007E54841F8120220700000610067
:100BE000FB78303900009FA4C07C0010660641F8F5
:100BF0001289600441F812906100FB5E2039000008
:100C00009FA66100FB6241F812966100FB4C3039EF
:100C100000009FAA6100FB58103C0029610006A457
:100C20006000FBAA4E753F203A436F6D6D616E64A4
:100C30002048656C700D0A234C7C3C6E756D3E201F
:100C40003A4C61756E63682070726F6772616D0DEA
:100C50000A445B3C6164723E5D203A44756D7020CD
:100C60004D656D6F72790D0A475B3C6164723E5D44
:100C7000203A476F0D0A4C5B3C6F66667365743EA5
:100C80005D203A4C6F61642048657846696C650D5B
:100C90000A5028497C53293C6164722C6164723E7D
:100CA000203A536176652048657846696C65284925
:100CB0003A496E74656C2C533A4D6F746F726F6C59
:100CC00061290D0A525B3C7265673E5D203A5365AF
:100CD00074206F722044756D70205265676973745B
:100CE00065720D0A535B3C6164723E5D203A536548
:100CF00074204D656D6F72790D0A00312E20456E9E
:100D000068616E63656420424153494320537461B6
:100D100072740D0A322E2054696E79204241534973
:100D2000432053746172740D0A000D0A556E697682
:100D3000657273616C204D6F6E69746F7220363806
:100D40003030300D0A005D20004572726F722069EC
:100D50006865780D0A004572726F72207372656360
:100D60000D0A004572726F720D0A00203A00203A97
:100D700020003A303030303030303146460D0A00F5
:100D8000533930333030303046430D0A004D43364E
:100D9000383030300D0A004D4336383031300D0ACE
:100DA00000427573204572726F720041646472650F
:100DB0007373204572726F7200496C6C6567616C69
:100DC00020496E737472756374696F6E005A657230
:100DD0006F204469766964650043484B20496E730F
:100DE0007472756374696F6E005452415056204995
:100DF0006E737472756374696F6E00507269766990
:100E00006C6567652056696F6C6174696F6E00541C
:100E100072616365004C696E652031303130204568
:100E20006D756C61746F72004C696E652031313183
:100E30003120456D756C61746F7200466F726D6123
:100E400074204572726F720054524150202330005A
:100E5000545241502023310054524150202332003B
:100E60005452415020233300545241502023340027
:100E70005452415020233500545241502023360013
:100E800054524150202337005452415020233800FF
:100E900054524150202339005452415020233130C4
:100EA00000545241502023313100545241502023EC
:100EB00031320054524150202331330054524150BA
:100EC0002023313400545241502023313500425206
:100ED00045414B00000300000FB200009F380003A3
:100EE00000000FE600009F3C000300000FE600003A
:100EF0009F40000300000FE600009F440003000035
:100F00000FE800009F48000300000FE600009F4C20
:100F1000000300000FE600009F50000300000FE6F2
:100F200000009F54000300000FB900009F58000309
:100F300000000FE600009F5C000300000FE60000C9
:100F40009F60000300000FE600009F6400030000A4
:100F50000FE800009F68000300000FE600009F6C90
:100F6000000300000FE600009F70000300000FE682
:100F700000009F74000300000FC200009F340003B4
:100F800000000FC800009F78000200000FCE000094
:100F90009F7C800300000FD300009F7E8001000033
:100FA0000FDA00009F82800100000FE000009F83A5
:100FB000000044302D44373D000D0A41302D4137AB
:100FC0003D000D0A50433D00205353503D00205337
:100FD000523D0020205642523D00205346433D00E2
:100FE000204446433D002C002C2000FF410F000010
:100FF000103200000000430F0000108C00000000C1
:10100000440F000010A000000000500F0000110469
:1010100000000000530F0000111800000000560FE0
:10102000000011400000000000000000000000006F
:101030000000300300009F58000011B83103000089
:101040009F5C000011BB320300009F60000011BED6
:10105000330300009F64000011C1340300009F6847
:10106000000011C4350300009F6C000011C7360357
:1010700000009F70000011CA370300009F74000039
:1010800011CD00000000000000000000430F000030
:1010900011540000000000000000000000000000EB
:1010A000300300009F38000011D4310300009F3C42
:1010B000000011D7320300009F40000011DA330313
:1010C00000009F44000011DD340300009F48000031
:1010D00011E0350300009F4C000011E336030000CF
:1010E0009F50000011E6370300009F54000011E9F3
:1010F000460F000011680000000000000000000022
:1011000000000000430300009F34000011F00000C5
:101110000000000000000000460F0000117C0000ED
:101120000000520200009F7C000011F7530F0000E6
:10113000119000000000000000000000000000000E
:10114000420F000011A40000000000000000000099
:1011500000000000520100009F7D000011D000003F
:101160000000000000000000438100009F83000099
:1011700011EC0000000000000000000043810000AE
:101180009F82000011F3000000000000000000003A
:10119000500300009F78000011FA000000000000DA
:1011A00000000000528300009F7E000011FE00003E
:1011B00000000000000000004130004131004132D9
:1011C00000413300413400413500413600413700D1
:1011D0004343520044300044310044320044330061
:1011E000443400443500443600443700444643004C
:1011F000504300534643005352005353500056424D
:1012000052000000122200001228000012330000D9
:101210001241000012470000124D0000125E000053
:10122000127246433D30200055736572204461744C
:10123000612000557365722050726F6772616D2076
:101240000046433D33200046433D34200053757033
:1012500065727669736F7220446174612000537502
:101260007065727669736F722050726F6772616D0C
:101270002000496E746572727570742041636B6EE4
:101280006F776C656467652000577269746520002C
:10129000526561642000202028496E73743D00FF70
:1012A0004E7510390000E001C03C000167F41039B0
:1012B0000000E0004E7510390000E001C03C000164
:1012C0004E75484010390000E001C03C000267F450
:1012D000484013C00000E0004E75FFFFFFFFFFFF16
:1012E000FFFFFFFFFFFFFFFFFFFFFFFFFFFFFFFF0E
:1012F000FFFFFFFFFFFFFFFFFFFFFFFFFFFFFFFFFE
:10130000FFFFFFFFFFFFFFFFFFFFFFFFFFFFFFFFED
:10131000FFFFFFFFFFFFFFFFFFFFFFFFFFFFFFFFDD
:102000002E7C00008400207C000020544ED04840EC
:1020100010390000E001C03C000267F4484013C0E2
:102020000000E0004E7510390000E001C03C0001E6
:10203000671010390000E00000000000003C0001C3
:102040004E75000000004E757E2E600001227E2E2F
:102050006000011C207C00008000203C000020006B
:102060002648D1C02748044A2E7C00008400303C1A
:102070004EF9204F30C043FAFFE820C930C043FA80
:1020800000DC20C930C043FAFF9E20C930C043FAAB
:10209000FF7E20C930C043FAFFB020C930C043FAE8
:1020A000FFAE20C930C043FA263420C97000174063
:1020B00005E4174005E5174005E8374005EA3740D5
:1020C00005D6177C005005E6177C000E05E2177C4C
:1020D000003805E749EB048E41EB05EC2748042E58
:1020E00061000322610008A0202B044A90AB042E5B
:1020F00061001BDC41FA3404610008EA41FA29E876
:1021000061001A7441FA00922748040261001FE638
:102110004EEB04007E2C60567E2A60527E28604E74
:102120007E26604A7E2460467E2260427E20603E9B
:102130007E1E603A7E1C60367E1A60327E18602EEB
:102140007E16602A7E1460267E1260227E10601E3B
:102150007E0E601A7E0C60167E0A60127E08600E8B
:102160007E06600A7E0460067E0260027E006100D8
:1021700002CA6100081243FA2FFA3E31700041F1A1
:1021800070006100086041FA333561000858202B67
:1021900004526B0461001B2C41FA3356610008465F
:1021A00072FF27410452174105DC4BEB049061009C
:1021B00000EC61000BFC67F66508610001566000E9
:1021C00003C6610006406100014A222B042A610017
:1021D000021865322250202B04329089E288538005
:1021E00048402448484034D951C8FFFC484051C8B1
:1021F000FFF4274A0432274A0436274A043A274A7A
:10220000043E274A0442102B04906764226B043278
:1022100045F12008274A0432274A0436274A043A5F
:10222000274A043E274A0442276B044A04462209EF
:102230009288E289538148414841352151C9FFFCC8
:10224000484151C9FFF443EB0490244872FF24C174
:1022500024EB042AE24A534234D951CAFFFC6010ED
:1022600050484A1866FC320802410001D0C1228859
:1022700022484A9066EA610001986000FF246100EC
:10228000077E702061000778700861000772534173
:10229000601061000768702061000764720041EB04
:1022A00004904EAB040C64FA67F8B03C0007671862
:1022B000B03C000D670006CA4A416606B03C0020EB
:1022C00063E0B03C000867B6B27C00FF640C11808C
:1022D000100052416100072860C8700760F6118045
:1022E0002000524252411035100067000094B03C6B
:1022F000002067EAB03C0030654AB03C003963DE3C
:102300007ADFCA00BA3C00416540BA3C004663CE61
:10231000603872002401174105DD7000103510008F
:10232000675EB03C005F6458B03C003C641CB03C4D
:102330000030644C174005DAB03C00226776B03CB0
:102340000024679AB03C002A6536082B000605DD9C
:10235000662E903C002AD04043FA2C1A30310000FF
:102360006B6E43FA2FA6D2C076FF3801524310316C
:1023700030006B0A5244B035400067F060403204D0
:1023800011802000524252414A00674A903C003A74
:102390006706B03C00496604174005DD903C0055D7
:1023A0006600FF78174005DA1035100067D2B02BB1
:1023B00005DA67CC118020005242524160EA3801B0
:1023C0005243103130006AF852431031300066A297
:1023D0001035100060AA700001026706118020000D
:1023E0005242218020004E75206B042E6002204056
:1023F00020186708B2906EF659484E7559485380B8
:102400004E75664E206B042E700020C027480432A3
:102410002A6B042E534D276B044A0446202B0432AA
:10242000274004362740043A2740043E2740044210
:102430007000174005EA610001D049EB048E201FAF
:102440002E7C000084002F0070002740045A1740A3
:1024500005DF4E7567C04E75651272FF2741042A6D
:1024600072004A00670AB03C00B366E6610003965A
:102470006100FF766100093A6716B03C00B366D28E
:1024800072FF2741042A6100092667046100037670
:10249000177C000005DD610004EE201867B42240BF
:1024A0006100012C2018B0AB042A62A648E700C0E6
:1024B0006100181C4CDF0300702061000542B03C35
:1024C000002266060A2B00FF05DD10186608204969
:1024D000200866BC4E756AE24A2B05DD6BDC45FAC6
:1024E0002AFE727FC200E54945F21000101A610011
:1024F000050E7200121A6BD2301245FA2E0E45F2FA
:102500000000101A610004F851C9FFF860BC6100B6
:102510000396202B0472B0AB043A6C00FC206100DF
:1025200002142E882F2B045270AA6100087A6100D1
:1025300007081F2B05B5610006FE2F2B05903F2BCA
:102540000594277C800000000590377C810005946D
:102550006100085EB03C00AF66086100085261008F
:1025600006D62F2B05903F2B05942F2B04723F3C52
:1025700000816018300DC07C0001DAC0201D6700AA
:10258000FC18275D045261000828611A61404A2B3B
:1025900004526B04274D045A101D67D8B03C003A12
:1025A00067E46000FBC46700008C0A0000806B00D9
:1025B00002F6B03C00286400FBB04880D04041FAED
:1025C000287C3030000048700000600007E24EEBCD
:1025D0000424B03C0003670C4E7566FC177C0000B9
:1025E00005DC66F443EB0590BBC9650A274D045A28
:1025F000276B04520456584F102B05DC6700FB9ADA
:1026000041FA2EB36000FB84206B042E672061002A
:1026100001F4B2AB0452630E204D4A1866FC300838
:10262000C07C0001D0C06100FDC86500FB244A20C9
:10263000274804624E75610010E2174005E44E75AC
:102640006600FB264A2B04526A00FAE6202B045A45
:102650006700FADE2A40276B045604524E75660C5A
:102660006100FDAE274D045A6000FF226100FDA805
:10267000601C2F0D2F2B04523F3C009C487AFF0E0C
:102680006000072E2F0D2F2B04523F3C008D610060
:102690000720487AFEF86100016C206B042EB2AB73
:1026A0000452630E204D4A1866FC3008C07C0001BD
:1026B000D0C06100FD3C6500FA982A48534D274D73
:1026C000045A4E750C6F009C00046600FA5C1E00F4
:1026D000672EBE3C003A67289E3C00B0670853074F
:1026E0006600FA867EFF610006C6610005624A2B1D
:1026F00005946706177C00FF0594BF2B05946614AC
:10270000276F000604522A6F000A41FAFE802E88C5
:102710006000069E4FEF000E601466160C6F008D71
:1027200000046600FA405C4F275F04522A5F610490
:102730002A484E75204D7222743A6008B40067082A
:10274000B200670C101866F453484E75B20067F477
:10275000101866F860F2610004F661000654B03C9F
:1027600000AD6714B03C00896600F9FE204D6100A1
:10277000063E2A486400F9F2102B0594671E61009A
:10278000062E6500FF12B03C008E6700FE1E610041
:10279000FE161015B03C00A967944E75101D163C2E
:1027A00000A9183C008B7A00101D6720B004660455
:1027B000524560F4B00366F051CDFFEE610005F2C2
:1027C0006500FED46000FDE04A1D66FC534D4E7569
:1027D00061000F481400610005D83F00B03C008D37
:1027E0006708B03C00896600F98053026606301F16
:1027F0006000FDB8610005B8610AB03C002C67EAD2
:10280000301F4E7572002001610005A6642E2F0254
:102810002401D2816500F952D2816500F94CD2823F
:102820006500F946D2816500F940903C0030D280C5
:102830006900F9366100057865D6241F2741042A0E
:102840004E753F3C8180600A3F3C8100600461001E
:10285000055E6100076C67324A2B05B56B00F8DE38
:102860006636274804726100130E277C8000000042
:10287000059830173740059C176B0595059EB12BC1
:10288000059E6100100E6100130A610005240C0012
:10289000002C67BA544F4E754A2F000166045290BF
:1028A00060E8539060E461000714274804721F2B0E
:1028B00005B570BD610004F061000394102B05B5EF
:1028C000175F05B5E31861000372670012C6246B39
:1028D0000472206B05902250B3EB04466516B1EBF1
:1028E00004326510720032280004205061000B068B
:1028F000206B0590B9C866025C4C24D834904E75A4
:10290000610006BA274804724A2B05B56B0C6100BA
:102910001DF2610009BC6000127A72002041610062
:102920001DE26408720161000AFE108061000ADE87
:10293000609C610000B461000478674AB03C00A864
:102940006764B03C00AC675EB03C002C6740B03CB4
:10295000003B67000086610002F64A2B05B56BD28A
:10296000610013B261000A607000102B05E6670C6D
:10297000902C0007902B05E56402610A616A60B63D
:1029800011BC00001000700D6174700A6070142B8F
:1029900005E5B42B05E7650461EC603E942B05E288
:1029A00064FA440260223F0061000D6C3400610053
:1029B0000400B03C00296600F7B0301FB03C00A80E
:1029C0006606942B05E5631270005300C480670A05
:1029D00070205302612851CAFFFC610003D26600D7
:1029E000FF5C4E75610009E061000BD0670C32009E
:1029F00053411018610851C9FFFA4E75703F2F01FD
:102A0000B03C00206528122B05E66610122B05E568
:102A1000922B05E26614174105E5600EB22B05E521
:102A200066082F006100FF60201F522B05E54EABAA
:102A30000412B03C000D66187200122B05E4670CFE
:102A400070004EAB041251C9FFFA700D174105E535
:102A5000221F4E752A5F4A2B05E06A0A276B045E27
:102A600004526000F6D841FA2A766100FF782A6B9A
:102A7000045A4E7561000862B03C0022660E610087
:102A80000306703B610003206100FF5E6100F804F3
:102A900070004A10660A6000FB58206B0462709850
:102AA000174005E0274804666100051227480472B4
:102AB0002F0D2A6B0466610002F8661E4A2B05E0A2
:102AC0006B726100FF386100F7CA4A10660460004B
:102AD000FB202A48534D610002D64A2B05B56A20D7
:102AE0001400B03C00226706743A702C534D524DCE
:102AF0001600204D610008D42A4A6100FDD2601002
:102B00001F2B05B561001DA6175F05B56100108478
:102B10006100029E670AB03C002C6600FF38524DEF
:102B2000274D04662A5F610002886736487AFF7A7B
:102B3000600002726100FBFE2A48524DB03C003A30
:102B40006712320DC27C0001DAC1241D6700F61243
:102B5000275D045E6100025AB03C00836700FF7885
:102B600060D2206B04664A2B05E06A06274804629F
:102B70004E754A1066024E7541FA29546000FE6691
:102B80006610584F0C5700816600F5E2206F000276
:102B9000601C6100042C584F303C0081721C6002A4
:102BA000DFC1B0576600F5C6B1EF000266F2376FBD
:102BB0000006059C276F00080598176F001205B5E1
:102BC0006100021E176B059D059E102B0595B12B0C
:102BD000059E2748047261000CBA176F001205B5F4
:102BE00061000FB0376F000C059C276F000E059831
:102BF000176B059D059E102B0595B12B059E610059
:102C0000103C322F0006B1414A0067044A016A0EA7
:102C1000276F001404522A6F00186000F970DEFC60
:102C2000001C6100018CB03C002C6600F960610062
:102C3000017E6100FF5E6116B040082B000705B5FC
:102C400066066500F4F84E756400F4F24E75534D57
:102C50007200174105B5601C41FA22CA30301002DB
:102C6000487000002F2B05903F2B05941F2B05E388
:102C7000323010003F01610000E4177C000005E3E2
:102C80006100012E903C00BC652AB03C0003650A3F
:102C90004A2B05E36660600000867201E121102B7B
:102CA00005E3B32B05E3B02B05E36400F4BC61003E
:102CB00000FE60D04A2B05E3663CD03C000A645E0F
:102CC00066084A2B05B56B00087E7200D000D00064
:102CD0001200301F41FA224EB070100064466100AD
:102CE000FF583F006100FF72301F222B05D86A2277
:102CF0003000672E603C102B05B5122B05E3D00089
:102D0000D301177C000005B5174105E3534D723020
:102D100060C041FA2210B0701000641660C472FFE7
:102D2000301F6732B07C006467046100FF0C2741EC
:102D300005D8101F1200E208174005E1375F059C17
:102D4000275F0598176B059D059E102B0595B12BE8
:102D5000059EE2094E75102B05944E756150650075
:102D60001B4C4A006B000090B03C002467001B3EE7
:102D7000B03C002567001B36B03C002E67001B2EC0
:102D8000B03C0022660C101D204D6100063A2A4A14
:102D90004E75B03C002866446100FEB6702960069E
:102DA000487A0978702CB01D67066000F3BC101DCE
:102DB0001015B03C002067F6B03C00A9640EB03C92
:102DC000003A64081C3C00D0D00690064E756100A5
:102DD000FE6872284FEF00046000FF0A610001E204
:102DE0004A2B05B567000D906A06274805904E7579
:102DF0002010600004BCB03C00B367D2B03C00B20D
:102E00006700FF5AB03C00AE6606323C002C60C43E
:102E1000B03C00AB67000514903C00BF6500F34A6E
:102E2000C07C007FD04041FA20B0323000004870B2
:102E3000100041FA205830300000671241F00000C5
:102E40004ED06100FF544A2B05B56A00F2F04E7572
:102E50006100FF464A2B05B56B00F2E24E75177C08
:102E6000000005B5101D4E756100FDE64A2B05B545
:102E70006A00F2CA141DB43C002C6600F2EC2F2B41
:102E80000590610008AC205F4E756100FDC44A2BBF
:102E900005B56B00F2A861000DD07200141DB43CA2
:102EA000002C660C2F00610008722200201F141DE8
:102EB000B43C00296600F2B24E756116B580600020
:102EC00003F0610E8082600003E86106C08260004A
:102ED00003E061000228240061000CF66000021E7D
:102EE0006100021A4680600003C86100FD4E65065D
:102EF00061000D4A6042177C000005B5610006BC08
:102F000022482200206B0598610006B42400660464
:102F10004A8167249481670C650470FF6008220071
:102F20007001600220025381B30856C9FFFC670894
:102F3000640470FF60027001520012007001E338F7
:102F4000C02B05E167000CDE70FF60000CD861004B
:102F5000FE5472FF61706100FE5866F24E75612E7C
:102F60006708B43C00206420E5A060000344611EB3
:102F700067F8B43C0020650A4A806A0C70FF600064
:102F80000330E4A06000032A7000600003246100A5
:102F9000078E140061000C3A610001624A024E750E
:102FA000B03C00616410B03C0041640480404E7548
:102FB000B03C005B4E75B03C007B4E7561024E75B7
:102FC00072006100FDEC174105B461D46400F19A10
:102FD000720041EB046A2081174105B5B27C000400
:102FE00064061180100052416100FDC465EE61B0BD
:102FF00065EAB03C0024660C002B0080046B610085
:10300000FDAE6010B03C0026660A002B0080046C08
:103010006100FD9C4A2B05DF670E6A14202B046AB1
:10302000720841EB0432601C903C0028670000F4F9
:10303000202B046A720441EB043608000017670471
:10304000544158482268000420506006B0986776C2
:10305000D1C1B1C966F64A2B05DF660A45FAFF60A1
:10306000B5D76600F0C0082B000005DF6600F0BE93
:10307000246B0442240A9489204A5881D5C1274AE6
:103080000442E28A6712538248424842352051CABC
:10309000FFFC484251CAFFF44A2B05DF6B080800C9
:1030A0000017660A6004D3AB0436D3AB043AD3AB43
:1030B000043E20C020BC0000000008000017670686
:1030C000317C000000042200D2814841E219E2492B
:1030D000C23C00C0174105B5177C000005DF4E75E6
:1030E0007005D02B05DBD080D0884E756100FCC008
:1030F0006100FB444A2B05956B00F0620C2B00A08D
:10310000059465000B646600F0544A2B05956A002F
:103110000B58202B059044806800F0422740042A79
:103120004E753F2B05B472003F012F2B046A61BC22
:1031300048404A406600F016275F046A321F301F7D
:103140003F2B042C3F0052416100FC66B03C002C38
:1031500067D6174105DB6100FC44375F05B4206B7F
:10316000043E274805ACB1EB0442672E2010B0ABFB
:10317000046A670A20680004D1EB05AC60E44A2BBE
:1031800005B46600EFC46100FF5850483018B02BFA
:1031900005DB670000946000EF844A2B05B46700EC
:1031A000EF806100FF3C202B046A20C072040800FD
:1031B000001767027206274105A8122B05DB584845
:1031C00030C1321F30C1610000AE274005A8532B2B
:1031D00005DB66EED1EB05A86500EF7AB1EB04469E
:1031E000650C6100028EB1EB04466400EF6827486D
:1031F00004427000222B05A8E2895341310051C9D5
:10320000FFFC48414A4167065341484160EE206B4C
:1032100005AC202B04429088214000044A2B05B4C1
:1032200066525048375805DB7000274005A8321811
:10323000B2576500EF184A806702613A7200321F88
:10324000D081274005A8532B05DB66E2177C0000E0
:1032500005B572034A2B046B6A0A7205177C00805D
:1032600005B5600C4A2B046C6A06177C004005B556
:103270006104D1C04E75202B05A824004842C0C16E
:10328000C4C148424A426600EECCD0826500EEC618
:10329000D0AB05A86500EEBE4E754A2B05B56A0495
:1032A00061000318610001CC202B044690AB04425E
:1032B000177C000005B5377CA000059427400590D9
:1032C0006A000640003C000160000638102B05E54E
:1032D000C0BC000000FF60D84A2B04526B00EE62B5
:1032E0004E7570AB6100FAC0177C008005DF61008D
:1032F000FCDA274805B061E00C1D00286600EE6A84
:10330000177C007E05DF6100FCB46100FA9070BD9F
:103310006100FA942F2B046A2F0D6100F412206BC8
:1033200005B0209F215F00044E75177C008105DFEA
:103330006100FA7C6100FC941F2B05B52F080C1569
:1033400000286600EE246100FA50205F274805B08F
:103350001F2B05B5202800046100FCDA101FE318BC
:103360006100F8D8671243EB0476B9C96700EDC66F
:1033700039280004291060022F102F081F2B05B5D3
:1033800061322F0D206B05B02A506100F8C2610038
:10339000FA206600EDD42A5F101F205F4A006A08F9
:1033A000209C315C00046002209F101FE318610024
:1033B000F88A4E754A2B05B56A0007F0244860006C
:1033C000F5126100095074223602720053412448FC
:1033D0005241103010006710B0026704B00366F06D
:1033E000B03C00226602524AD5C1B1CB651EB1EB9A
:1033F000042E64182248200166042041600E6126D4
:10340000D1C1D3C15340112151C8FFFC43EB047615
:10341000B9C96700ED2039012908274C0590177CB0
:10342000008005B54E754A41672E2F007000174089
:1034300005DE7001C041D041640470014840206B3A
:10344000044691C0B1EB0442651227480446274860
:10345000044E201F4A414E7530414E754A2B05DE01
:103460006B00ECF22F09610A225F177C008005DEF9
:1034700060CC48E7E0E0276B044A0446222B044274
:1034800070002240206B043A41E80004246B043EA3
:1034900060086100008441E8000AB1CA65F441E8AF
:1034A000FFFC246B0442602424280004D4882010EC
:1034B00008000017671430280008D040D0C041E849
:1034C000000A61545C48B1C266F82042B5C866D8AB
:1034D000204C45EB048E6006613E41E80006B5C80D
:1034E00066F62009672C20517200322900045281AF
:1034F000C23C00FED1C1246B0446B1CA670CE2890C
:103500005341352051C9FFFC228A275104466000EF
:10351000FF6C4CDF07074E7520106728B2806424CB
:10352000B0AB0446641E70FF302800044440C03C29
:1035300000FED0AB0446B0906706221022484E75BC
:10354000274004464E75487AF7382F2B05906100C6
:10355000F80C4A2B05B56A00EBE4205F226B05905E
:1035600032280004D26900046500EBCE2F08610008
:10357000FEB62748059820573028000420506120C7
:10358000206B059061386118205F6132206B0598CF
:1035900022086700FE784481D2AB044E6000FE6EC4
:1035A00032006714226B044E2F09534012D851C8C1
:1035B000FFFC2749044E205F4E75206B059048E7BD
:1035C0004040B9C866025C4C700022583018B9C837
:1035D0006610B3EB0446660A7201C240D280D3ABD8
:1035E000044620494CDF02024A804E7561000130DA
:1035F00072016100FE3210806000FE12C141610064
:10360000F79C4A8167227000B2680004651A601452
:10361000C1416100F7884A81670E3028000490811B
:10362000640670003228000422486100FDFA204937
:103630002F00618AD1DF30016100FF666000FDCE9E
:103640007E0053472F006100F768B03C002C660CE9
:10365000101D2F08610000DA205F2E006100F73E88
:10366000201F720053806B00EAF4B068000464B855
:103670002207DE406506BE68000465AC32280004FF
:10368000924060A46100FF34220067562248610026
:10369000FD96D1C1D3C1340153421021B03C005B2F
:1036A000640AB03C0041650400000020110051CACA
:1036B000FFEA602E6100FF042200672622486100B5
:1036C000FD66D1C1D3C1340153421021B03C006129
:1036D000650AB03C007B6404020000DF110051CA9F
:1036E000FFEA6000FD28101D6100F8D66100F6AE0B
:1036F0004A2B05B56A00EA4620106000FBB4487A00
:10370000FBB06000FEB66100FEB24A406700EA4EC0
:1037100010106000FBBC6100F6966100F51A6100B4
:10372000F9D4123C0080D281C2806600EA304E7526
:103730006100F5046100F9BE48404A406600EA1E97
:1037400048404E756100FE7467222C4D2A48D1C056
:1037500010103F002F0810BC00006100F6546100FB
:10376000114C205F301F10802A4E4E753740059453
:103770004E756100F4C26100F9842F006100F626E5
:103780006198205F4E75611E6100F61A6100F4A811
:103790006100F96A48404A40670652406600E9BE47
:1037A0004840205F4E756100F48E6100F9500800BA
:1037B00000006600E96420572E804ED06100F93E7B
:1037C000204010106000FB0A61A810804E75610057
:1037D000F92CE2086500E942D000C1887000301081
:1037E0006000FACE6100F916E2086500E92CD0000D
:1037F000C18820106000FABA618C30804E7561A6D5
:103800006100F5A26100F4306100F8F2205F2080D1
:103810004E756100F7AC2F08182B05B56100F586D1
:103820006100F79E245FB82B05B56600E9102010F3
:1038300020D224C04A046AD83010309234804E75A9
:103840004EAB04066000F5564EEB04184EEB041E1A
:10385000487AF55E6100FF504E756100FF162F0833
:103860003F0074006100F54A67066100F5342400EA
:10387000321F205F1010B500C00167F84E750A2B8B
:1038800000800595176B059D059E102B0595B12BA6
:10389000059E102B05946700033841EB0598102B0B
:1038A000059C6746902B05946722650A376B059C3B
:1038B00005944400514844002F01B03C00206D04A1
:1038C000720060042210E0A92081221F4A2B059E6D
:1038D0006B1A202B0598D0AB0590640AE290522B0E
:1038E00005946500E874274005904E7543EB0590FC
:1038F000B3C866025049201122102740059093ABAF
:103900000590640A0A2B00FF059544AB0590202B17
:1039100005906B2E6606374005944E752F012200E8
:103920007000102B05946714D2815BC8FFFC4A40DD
:10393000670A6A027001530027410590221F174051
:1039400005944E754A2B05956B00E8127E001747CB
:10395000059E1E2B05946700E8049EBC00000081B4
:10396000177C008105942C2B0590277C800000009B
:103970000598377C8100059C6100FF187000374076
:10398000059CDC86274605986758377C8000059C97
:10399000610001304A2B05946748122B0594923C34
:1039A00000824401202B0590E2A87C00223C4000CC
:1039B000000041FA14087A1E78016006E8A292829B
:1039C000DC9024002601E8A36402528390836AEC11
:1039D000200258485284E28B670451CDFFF0DC8608
:1039E000200628007A004A8767166A0444877A808E
:1039F000174505954847E18F7A885385DE876AFA2F
:103A00002747059017450594277CB17217F805984C
:103A1000377C8000059C176B0595059E611827442F
:103A200005986710377C8200059C176B0595059EED
:103A30006100FE604E7548E7F8004A2B05946776F2
:103A4000102B059C6770176B059E0595D02B059470
:103A5000640A903C00806400E7006006903C0080AF
:103A6000655417400594222B0590242B05983801A6
:103A7000200148403600C2C2C0C24842C8C2C6C2C5
:103A8000D2BC0000800042414841D280D28464060A
:103A9000D6BC00010000D2BC000080004241484179
:103AA000D2836B08D281532B0594670A2741059076
:103AB0004CDF001F4E75700027400590374005947D
:103AC00060EE2F0770002400142B05946700E67643
:103AD000102B059C67669042D07C0080176B059E7A
:103AE0000595422B059F262B0590282B0598B8831A
:103AF000674465069883562B059F61464841280216
:103B0000614284C51E2B059F6708E20FE291E252D5
:103B10005200D442640852816404E291524036005B
:103B20006B1A0243FF006600E6302E1F1740059413
:103B3000274105904E757201E2A960DE70002200F7
:103B400060E824042A034245484588C5680278FF96
:103B50003C043204CCC3C8C53E0642464846D8861B
:103B60007C009C4795846A085341DC43D5856BF8FB
:103B7000484234064E752010484037400594670887
:103B8000807C00804840E18027400590102B059400
:103B90004E752F08206B0472082B000605B5670CC4
:103BA000610000C62080205F4E752F086100FD6017
:103BB000612C202B0590E0984840C07C007F022BB0
:103BC00000800595806B059448402080205F4E75ED
:103BD000376B059C0594276B059805904E75102B47
:103BE00005946720202B0590D0BC00000080640A5B
:103BF000E290522B05946500E560C03C0000274030
:103C000005904E75174005954E757000102B059464
:103C100067F6102B0595488048C0E08065EA700182
:103C20004E7561E627400590377CA0000594D08052
:103C30006000FCD0177C000005954E75122B059C8A
:103C400067C8102B059E6BCA102B0595B22B0594E7
:103C5000660A222B0598B2AB0590670865B80A0082
:103C6000008060B270004E75202B059067322F01E6
:103C7000123C00A0922B05946500E4DE660E4A2BF0
:103C800005956A1A448069166000E4CEB23C0020B3
:103C900065027000E2A84A2B05956A024480221F43
:103CA0002740042A4E75103C00A0902B0594631009
:103CB000B03C00206400026272FFE1A1C3AB05903A
:103CC0004E7541FA18006100ED1C202B045243FA96
:103CD0000DEE720041EB05CC240126311000671473
:103CE000782F524490836AFAD0831184200058417F
:103CF000524260E6D03C00301180200053485248C8
:103D000043EB05D5B1C96700ECDC0C10003067EE61
:103D10006000ECD243EB05C6742008AB00070595A4
:103D20006702742D1282142B05946608703072019C
:103D3000600001A8177C000005ACB43C0081644819
:103D4000277C989680000598377C9800059C176B17
:103D50000595059E6100FCE0177C00F905AC602824
:103D6000376B0594059C276B05900598176B059597
:103D7000059E277CCCCCCCCD0590377C7D0005946E
:103D80006100FCB4522B05AC277C98967F70059897
:103D9000377C9800059C6100015062C46750277C05
:103DA000F423F8000598377C9400059C41EB0590BE
:103DB0006100013662202010122800042400E488EB
:103DC000D0826404E2905201560120801141000427
:103DD000532B05AC60DA277C800000000598377C07
:103DE0008000059C176B0595059E6100FAA6610091
:103DF000FE787401102B05ACD03C00086B0CB03C75
:103E00000009640653001400700272005500174048
:103E100005AD174205AC100267026A14528113BC4B
:103E2000002E10004A026708528113BC00301000B7
:103E30007400708041FA1122263020005200D7AB66
:103E4000042A08000007650467F2600266EE640653
:103E50004400D03C000BD03C002F58425241160089
:103E6000C63C007F13831000042B000105AC6608DC
:103E7000528113BC002E1000C03C00800A0000805C
:103E8000B43C001C66AE103110005381B03C0030D1
:103E900067F4B03C002E6702528113BC002B100265
:103EA0004A2B05AD67386A0A13BC002D1002442B5B
:103EB00005AD13BC00451001142B05AD702F520049
:103EC000943C000A64F8D43C003A13801003138237
:103ED000100413BC00001005600A1380100013BC0E
:103EE0000000100120494E757000122B059CB22B6A
:103EF0000594660A222B0598B2AB05906708650405
:103F000053804E7552804E75277C800000000590CE
:103F1000377C810005944E7570002740059037402E
:103F200005944E754A2B059467DE4A2B059C67E87D
:103F30001F2B059D6A2072001741059D122B0594C9
:103F4000927C00806300E216202B0590E3A06600BF
:103F5000E20C65021E802F2B05903F2B059461001B
:103F6000FC706100F9E0301F275F05983740059C21
:103F70001740059E102B0595B12B059E6100FAB8E0
:103F80006158175F05954E754A2B059467060A2BF5
:103F9000008005954E75277C800000000590377CD9
:103FA000810005944E754A2B05956A00E1AC7000BE
:103FB00027400590374005944E75277C800000000F
:103FC0000590177C000005954A2B05B46A024481D0
:103FD000D23C0081174105944E75102B059467B6AD
:103FE000B03C006465B0177C000005B4222B05903E
:103FF000B03C008762B06608B2BCB00F33C764A69D
:104000004A2B05956A0C177C00FF05B4177C00004D
:104010000595277CB8AA3B290598377C8100059C2B
:10402000177C0000059E6100FA0E177C000005D980
:104030001A2B05949A3C00806324202B05902200C3
:104040002C054446DC7C0020ECA9174105D9EBA8DF
:104050006700FF6827400590377C80000594277C27
:10406000B17217F80598377C8000059C177C00001A
:10407000059E6100F9C2202B05901A2B05949A7CAD
:1040800000824445EAA872002C3C26A3D11041FAD4
:104090000D2C78007A036136594853847A09612ED1
:1040A000594853847A1261264A2B05B46A06448122
:1040B000442B05D97083DC816B065380DC866AFA59
:1040C00027460590D02B05D9174005944E7552848C
:1040D0002406E8A22601E8A34A806B0CD282DC8386
:1040E000909851CDFFEA4E7592829C83D09851CD25
:1040F000FFDE4E754A2B0594670841EB05A0610071
:10410000FAAA72AF7412202B05A0D0806402B3000B
:1041100051CAFFF8274005A027400590377C800052
:1041200005946000F7EA6138376B0594059C276BAE
:104130000590059827410590174305946700E01AFC
:104140006100F7CC6000F97C277CC90FDAA30598E1
:10415000377C8100059C176B0595059E6100F7343F
:10416000177C000005B4277CA2F9836F0598377C83
:104170007F00059C176B0595059E6100F8BA102B12
:104180000594671C41FA0B362C2B059053006710E1
:10419000903C00806B18B03C00206404E1AE6618CF
:1041A00074817600203C800000002203606244009D
:1041B000B03C001E64EAE0AE176B0595059EDC86F8
:1041C00064060A2B00FF0595DC86640C0A2B00FFB1
:1041D00005B40A2B00FF059EE48E67C47A012028EF
:1041E000FFFC22009C9860089C989083D282601209
:1041F0002400EAA22601EAA34A866AECDC98D0836E
:1042000092825285BABC0000001E66E474812602C8
:104210004A2B05B46B04C141C543274005901742A2
:1042200005946000F6EA102B0594670000AC177C3B
:10423000000005B4B03C008165286608202B05907D
:10424000D080671E277C800000000598377C8100A5
:10425000059C176B0595059E6100F868177C00FFAB
:1042600005B4202B0590123C0082922B0594E2A805
:1042700041FA0ACA7C00223C400000007A1D780105
:104280006006E8A2D282DC9024002601E8A3908395
:104290006AF0200258485284E28351CDFFF2177C25
:1042A00000820594274605906100F6644A2B05B408
:1042B0006A261E2B0595177C00000595277CC90FE3
:1042C000DAA20598377C8180059C177C00FF059E4B
:1042D0006100F5C0174705954E756100F496B03C36
:1042E00000086400DE7801D04E756100F486B03CB1
:1042F00000086400DE6801904E75101D6100F474C2
:10430000B03C00086400DE5622006100EAA4B03C24
:1043100000296600DE546100EA9670000310670011
:10432000F90470FF6000F8FE4A2B05B56A00DDE66F
:10433000246B05903E2A00046700DDDA70003F0020
:104340003F003F003F002F0A720020416100F0BE95
:10435000101DB03C002C6600DE106100028E4A0287
:104360006700DDB26100E8E84A2B05B56B00DDCEE1
:104370004A2B05946732322F000AB27C0008642869
:104380003001D241D240D24141FA08442770100294
:10439000059830301000907C01003740059C177C58
:1043A0000000059E6100F4EC6100F96A610001FE05
:1043B00045EB05C67C00782E34065246103260006C
:1043C000677AB03C00456706B00466EE60EA3606E0
:1043D0005343524610326000B03C002D6600DD7E33
:1043E000524610326000B03C00306704700A60082A
:1043F0005246700FC032600034030C420001660266
:104400005242D440700A90426E0CD440D6400C43C5
:1044100000016E0276003C027000158020005342BD
:104420000C420001671270304A4367EE10323000D0
:104430005343B00466E460F4158420004A426602E7
:10444000340636025243382F00085244B2446322E5
:1044500010304000B03C00256706B03C002366EAFF
:104460007030BC436306103230005243118040006C
:1044700060D87C007A0053426608740115BC003095
:104480002000382F0008B2446402380153446B62A4
:10449000103040007E30B03C002567087E20B03CE4
:1044A000002366064A4266346042B03C002C661027
:1044B0004A4266080C30002540FF66301E00602C22
:1044C000B03C002D6710B03C002B66C00C12002DD4
:1044D000670414BC002B1A004A4267081E322000F1
:1044E000534260084A0666041E121C0711874000EA
:1044F000609A4A4266144A0567544A0666500C059B
:10450000002B67060C12002D66447A233E015347A8
:104510003C2F000453466E023C07103160000C0033
:104520000023671E0C00002567180C00002C671282
:104530000C00002B670C0C00002D67060C00002EF1
:104540006602100511807000534651CFFFCE41EC3A
:104550000006274C05906100F004302F000467200E
:104560003F400006610000844A026614613E3F6FCE
:104570000004000641EC0006274C05906100EFDEC8
:10458000101DB03C00296600FDCA204C222B0446B9
:104590006100F02C2741044622483200205F610070
:1045A000F01E4FEF000820496000EE62226F000409
:1045B0003E290004342F000A3C2F000832069242A4
:1045C0006202D2476100EE606100EE42226F000499
:1045D0002251780011B12000400052445242BE42A4
:1045E00066027400BC4266EC4E75226F00043E29E0
:1045F000000422513C2F000A3F47000C7A0076004D
:10460000740010316000B03C002C6742B03C0023C5
:104610006706B03C002566084A856A105243602E42
:10462000B03C002B6706B03C002D66048400601E81
:10463000B03C002E66144A856B143006906F000A59
:104640003F40000C7AFF840060044A02660852462C
:10465000BE4662AE7C003F4600083F43000E4E75EA
:10466000B23C00216400DAF6741F41EB05B67830E5
:104670007600E288D7041183200051CAFFF4177C2A
:10468000000005D64A01670E4481D2BC000005D661
:1046900041F31000600E1010670AB03C0030660E47
:1046A000524860F243EB05D6B1C966025348600038
:1046B000ED16B23C00096400DAA4740741EB05CEA4
:1046C00078301600E898C63C000F1A03DA3C00F672
:1046D000C7041183200051CAFFEA60A24A2B05E8F3
:1046E000661E4EAB040C640E174005E9177C0020D3
:1046F00005EA6000DEDE4A2B05EA6704532B05EA73
:104700004E754EAB040C650A102B05EA67F2102BB0
:1047100005E9177C000005EA003C00014E756100C8
:10472000E5304A2B05B56B00DA14612E64FC61009C
:10473000F4A060F66100E51A4A2B05B56B00D9FEBE
:10474000611863FC6100F48A60F6B03C00296600E1
:10475000DA184FEF00046000E6566100E654B03C02
:10476000002C66E63F2B05942F2B05906100E4E2B8
:104770004A2B05B56B00D9C6275F0598301F374017
:10478000059C176B0595059EB12B059E6000F4AE48
:10479000B03C002C672C6100EF824A006712B03CED
:1047A00000106500D9B8B02B05E26404174005E29B
:1047B000174005E66100E5FA672CB03C002C660066
:1047C000D9A86100EF524A006B00D992B03C0001B9
:1047D0006500D98A122B05E66708B02B05E66E0046
:1047E000D97C174005E2102B05E6670AB02B05E2DD
:1047F0006404174005E2902B05E264FAD02B05E231
:10480000D02B05E24400D02B05E6174005E74E7596
:104810004A2B05956B00D9464A2B059467F048E76B
:104820007800202B059074002202761F082B0000D0
:1048300005946606D080D582D281D080D5822801A9
:10484000D8845284B48465049484528151CBFFE6A9
:1048500027410590102B0594907C0080E24864026B
:104860005240D07C0080174005944CDF001E600051
:10487000F09E101D6100E74A6100E52220086000FB
:10488000EA3041F8040020086000EA26277CC90FBE
:10489000DAA20590377C820005944E75277CC90FFB
:1048A000DAA20590377C830005944E7548E77C00BA
:1048B00072002601280117410595174105B51741DA
:1048C00005AF6100E4EC653CB03C002D6608177C48
:1048D00000FF05956006B03C002B66066100E4D041
:1048E0006522B03C002E67000092B03C00246700B7
:1048F000010AB03C0025670001646000008C610083
:10490000E4AE646C610001A864F452836100E4A029
:1049100065F8B03C002E66066100E49465FAB03C90
:10492000004566646100E4886528B03C002D670698
:10493000B03C00B36608177C00FF05AF600EB03CCA
:10494000002B6708B03C00B26600D81E6100E4602E
:104950006436C8FC000AC0BC000000FF903C003078
:10496000D880B83C00306FE46100E44465FA601818
:10497000B03C002E670460A653836100E432649E5D
:104980006100012C64F260904A2B05AF6A024484F6
:10499000D88376204A8167526B085383D2815BCBE0
:1049A000FFFCB8BC000000266E00D7AEB8BCFFFF0D
:1049B000FFDA6D344484C9FC00062F0841FA021066
:1049C00017704000059C277040020598205F0A037D
:1049D00000802741059017430594176B0595059EA8
:1049E0004CDF003E6000F050720026011743059432
:1049F000274105904CDF003E4E75177C004005B501
:104A000076206100E3AA6514803C0020903C0061A0
:104A1000652AB03C00066424D03C003A616C64E234
:104A200058836900D7346100E38665F4803C002038
:104A3000903C00616506B03C000665E44A8167AAC7
:104A40006B085383D2815BCBFFFC0A0300801743C2
:104A50000594274105904CDF003E4E75177C0040C1
:104A600005B576206100E34864D2B03C003264CCE6
:104A70002401612464EE52836900D6DE6100E330D4
:104A800064BAB03C003265EE60B22401D48265CADB
:104A9000D48265C6D48265C2D48265BEC0BC000023
:104AA00000FF903C0030D48065B022024E75240196
:104AB000D4826508D4826504D48164DC4E753B9A47
:104AC000CA0005F5E10000989680000F4240000101
:104AD00086A000002710000003E80000006400002A
:104AE000000A00000000332E3232FF009676995102
:104AF000FB00F0BDC21BF800C097CE7CF5009A13F6
:104B00000B96F100F684DF57EE00C5371912EB0063
:104B10009DC5ADA8E700FC6F7C40E400C9F2C9CD9B
:104B2000E100A18F07D7DE00813F3979DA00CECBD3
:104B30008F28D700A56FA5BAD40084595161D00041
:104B4000D3C21BCFCD00A968163FCA008786783232
:104B5000C600D8D726B7C300AD78EBC6C0008AC759
:104B60002305BC00DE0B6B3AB900B1A2BC2FB60026
:104B70008E1BC9BFB200E35FA932AF00B5E620F5D6
:104B8000AC009184E72AA800E8D4A510A500BA4398
:104B9000B740A2009502F9009E00EE6B28009B0032
:104BA000BEBC20009800989680009400F424000079
:104BB0009100C35000008E009C4000008A00FA0063
:104BC00000008700C80000008400A00000008100F1
:104BD000800000007D00CCCCCCCD7A00A3D70A3D6C
:104BE000770083126E987300D1B717597000A7C56C
:104BF000AC476D008637BD066900D6BF94D6660007
:104C0000ABCC7712630089705F415F00DBE6FECFBB
:104C10005C00AFEBFF0C59008CBCCC095500E12EB9
:104C200013425200B424DC354F00901D7CF74B003A
:104C3000E69594BF4800B877AA3245009392EE8F6C
:104C40004100EC1E4A7E3E00BCE508653B00971D16
:104C5000A0503700F1C900813400C16D9A013100C4
:104C60009ABE14CD2D00F79687AE2A00C6120625EF
:104C700027009E74D1B82300FD87B5F32000CAD267
:104C8000F7F51D00A2425FF71A0081CEB32C160083
:104C9000CFB11EAD1300A6274BBE100084EC3C988C
:104CA0000C00D4AD2DC00900AA2424990600881C4C
:104CB000EA140200D9C7DCED4DBA76D4200000001A
:104CC00012E4051E09FB385C051111D5028B0D4459
:104CD0000145D7E200A2F61F00517C560028BE54C1
:104CE00000145F2F000A2F99000517CD00028BE7F3
:104CF000000145F40000A2FA0000517D000028BF29
:104D00000000146000000A30000005180000028C4A
:104D100000000146000000A300000052000000292E
:104D2000000000150000000B00000006000000035A
:104D30000000000200000001000000011DAC67053A
:104D40000FADBAFD07F56EA703FEAB7701FFD55C8B
:104D500000FFFAAB007FFF55003FFFEB001FFFFD98
:104D60000010000000080000000400000002000025
:104D70000001000000008000000040000000200052
:104D80000000100000000800000004000000020005
:104D90000000010000000080000000400000002032
:104DA00000000010000000080000000400000002E5
:104DB0000000000100000000000000002327D4F4E0
:104DC0001058AEFA080AC48E0401562202002AB016
:104DD00001000554008000AA0040001400200002D9
:104DE00000100000000800000004000000020000A5
:104DF00000010000000080000000400000002000D2
:104E00000000100000000800000004000000020084
:104E100000000100000000800000004000000020B1
:104E20000000001000000008000000040000000264
:104E3000000000010000000000000000D79ED6D254
:104E4000DD44D8F2DC38E116DC5EDA6ADA06D85ADC
:104E5000D822D91AD7CCD848D8DED98CD7A6D9949D
:104E6000D7FADA0CEA1EEA0CEA10E4A6E98CE9BCEF
:104E7000E9C2EA14D836D888DAFED804D61CD61887
:104E8000D5C6F954DAC4E9D6F49EF4AEDFC4DFC463
:104E9000DFC4DDC4DF0CDF0CDFC4DFC4DFC4DFC46C
:104EA000DFC4DFC4DFC4DFC4DFC4DFC4DFC4DFB6F8
:104EB000DFC4DFB6DFB6DFB6DFB6DFC4DFFEDFFE9E
:104EC000000000000000DFD2DFD2DFD200000000CF
:104ED000DFDCDFDCDFDCDDC4ED4AEDCEED5CE96874
:104EE000E3C2E3F4F938F21CEA6CF102F270F288E2
:104EF000F24EF34EE8E4E8F6E90CE826E4EAE86C62
:104F0000E82EE7DCE7ACE714F7DAF788F422F84696
:104F1000F85CF9AAF9B4F9C4F99AE80EE724E7387D
:104F2000E768F4500079E96E0079E95A007BEB12EA
:104F3000007BEB9E007FF0000050DFA60046DF966E
:104F40000046DF9E0056E04A0056E03A007DF064DD
:104F5000005ADFBC0064DFC6FFF0BDC0000186A0C0
:104F6000FFFFD8F0000003E8FFFFFF9C0000000AED
:104F7000FFFFFFFF00000002FFFF0004FFFF00062D
:104F8000FFFFFFFFFFFFFFFFFFFFFFFFFFFFFFFF31
:104F9000FFFFFFFFFFFFFFFF0008000C000E0012E5
:104FA000FFFF00140024003D0054006D007C0086CB
:104FB00000930099FFFFFFFF00A800D600E400F374
:104FC00000F8FFFF010D013701620176018E019AA1
:104FD000FFFFFFFFFFFFFFFFFFFFFFFF01A94501ED
:104FE00000714601007C4E0200E744020054490370
:104FF000009E44010063520201144C0100BE4401B2
:1050000000584702008952010133490000995205B6
:10501000011B4703008D5204012252010118530263
:1050200001544F0000F34E0200EE4901009B57026D
:10503000019A4C0200C55302013C44010060500239
:1050400000FF440200664C0200CD4302003D4400D4
:10505000006A4C0200D1500301074302004B4C028E
:1050600000C1430300464E0100E4570301A347017A
:1050700000865302015D4204002F420400295402BD
:1050800001624502006D5400016E4600007F53022C
:1050900001485402016A4E0100EB530201505503CE
:1050A000017D5703019E2BFF00022DFF00042AFF04
:1050B00000002FFF00065EFF01A941010018450115
:1050C00000744F0000F53E00000E3C0000083EFF5B
:1050D00000103DFF000C3CFF000A53020140490252
:1050E00000A34102001455020189460200815002CA
:1050F00001035302014C5202012F4C0200C9450228
:1051000000774302004F53020144540201664102FA
:10511000001F500300F84403005B4C0300AF4C0237
:1051200000BA530301585602018E4102001B550577
:1051300001764C0500A84303004148030093420355
:105140000024420500354D0200D64D0200DF520515
:10515000010D500000FD54030170560501925303E8
:1051600001374C0400B4520501284D0300DA5505FF
:105170000182003000410048005D00690077008036
:10518000008E00A200AF00C000CF00DE00EC00FCEB
:10519000010F011E013101410154016801790181B2
:1051A00001884E45585420776974686F757420469D
:1051B0004F520053796E7461780052455455524EE7
:1051C00020776974686F757420474F535542004FBC
:1051D0007574206F6620444154410046756E6374B7
:1051E000696F6E2063616C6C004F766572666C6FE0
:1051F00077004F7574206F66206D656D6F72790052
:10520000556E646566696E65642073746174656D5E
:10521000656E7400417272617920626F756E64739D
:1052200000446F75626C652064696D656E73696FAB
:105230006E00446976696465206279207A65726FD0
:1052400000496C6C6567616C206469726563740009
:1052500054797065206D69736D617463680053746F
:1052600072696E6720746F6F206C6F6E6700537485
:1052700072696E6720746F6F20636F6D706C6578F4
:105280000043616E277420636F6E74696E756500EC
:10529000556E646566696E65642066756E637469D3
:1052A0006F6E004C4F4F5020776974686F75742093
:1052B000444F00556E646566696E65642076617260
:1052C0006961626C6500556E64696D656E73696FC6
:1052D0006E65642061727261790057726F6E67202B
:1052E00064696D656E73696F6E73004164647265A5
:1052F000737300466F726D6174004E6F7420696D38
:10530000706C656D656E74656400B400B200B300C6
:10531000B5003CBBBE00BD003EBABC009E0042537F
:1053200028C14E44B7534328D3544E28CC00494E8D
:105330002428D84954434C52A74954534554A649AC
:105340005454535428D900414C4C9B48522428D6DD
:105350004C454152A14F4E549F4F5328C9004154D0
:10536000418345438845454B28CE454697494D8561
:105370004F4B45994F9C004C5345A94E44804F528A
:10538000B8585028C8004F52814EAB524528C30030
:105390004554A44F544F894F5355428D00455824CE
:1053A00028D700468B4E43934E505554844E542874
:1053B000C000434153452428D545454B28CF454699
:1053C000542428E1454E28D0455487495354A04FD2
:1053D0004144954F4728C74F4B459A4F4F509D002A
:1053E000415828DA49442428E3494E28DB00455730
:1053F000A2455854824F54AE554C4C92004E915297
:10540000B90045454B28CD49DD4F4B45984F5328B2
:10541000C452494E549E00414D42415345DC4541E2
:105420004486454D8F4553544F52458C45545552F3
:105430004E8E494748542428E24E4428C6554E8A89
:105440000041444428E041564596474E28BF494E06
:1054500028CA504328AC515228C5544550AF544F28
:10546000509054522428D1574150A500414228A8B9
:10547000414E28CB48454EAD4FAA574F5049DE000C
:10548000434153452428D44E54494CB053494E47C8
:105490002428E4535228C200414C28D2415250548F
:1054A0005228DF004149549448494C45B14944547D
:1054B00048A300B6000D0A427265616B0020457278
:1054C000726F720020696E206C696E6520004578ED
:1054D0007472612069676E6F7265640D0A005265AF
:1054E000646F2066726F6D2073746172740D0A00B0
:1054F0000D0A52656164790D0A0020427974657362
:1055000020667265650D0A0A456E68616E636564A2
:105510002036386B204241534943205665727369E7
:105520006F6E20332E35340D0A00FFFFFFFFFFFFA3
:10553000FFFFFFFFFFFFFFFFFFFFFFFFFFFFFFFF7B
:10554000FFFFFFFFFFFFFFFFFFFFFFFFFFFFFFFF6B
:10555000FFFFFFFFFFFFFFFFFFFFFFFFFFFFFFFF5B
:10556000FFFFFFFFFFFFFFFFFFFFFFFFFFFFFFFF4B
:106000002E7C0000A000207C000060324ED060009A
:1060100000226000005860000B8060000B8E600062
:106020000BA060000B9E60000B9C000080800000B5
:10603000A0002E78602E4DF86BC661000B5023F83F
:10604000602A000080242038602E048000000800B0
:1060500023C00000802C04800000006C23C00000DE
:10606000802823FC0000600E00008000428023C0D6
:106070000000801023C00000800823C000008004BE
:106080002E78602E4DF86BEC61000B02103C003E48
:106090006100081861000A94284841F90000803026
:1060A00061000A4661000A784A41670001240C81B8
:1060B0000000FFFF640007EC1101E0591101E159F4
:1060C0006100088C2A496616610008AC244D2679C7
:1060D00000008024610008AA23CA00008024200C4C
:1060E00090880C800000000367A2267900008024BD
:1060F0002C4BD7C0203900008028B08B6300079C50
:1061000023CB00008024224E244D6100087E2248CB
:10611000244D264C6100086A6000FF724C4953D43C
:106120004C4F41C44E45D75255CE534156C54E45AE
:1061300058D44C45D449C6474F54CF474F5355C206
:106140005245545552CE5245CD464FD2494E5055E8
:10615000D45052494ED4504F4BC553544FD042594E
:10616000C543414CCC00504545CB524EC44142D36F
:1061700053495AC50054CF00535445D0003EBD3C4E
:10618000BEBEBD3CBDBC0000627C64F06216622AEB
:10619000655063E064E0643E626863146344643C99
:1061A0006368646862A865D06222602665E864DA84
:1061B00067B667C267F8680866BA6382685663980C
:1061C000639E660C661266186624661E662C663C24
:1061D00043F8611C45F86188610009442648420281
:1061E000101812116604204B60241600C6020C031E
:1061F000002E671A0201007FB200670C548A204B00
:1062000042024A196AFC60D874FF4A196AD247F8F8
:10621000000036524ED36100063223F8602A000097
:106220008024610006266000FE446100061E20787E
:10623000602A23C8000080044AB900008004670077
:10624000FE2C42812248610007146500FE2023C90C
:1062500000008004204954886100091C43F8612E25
:1062600045F861926000FF7261000392610005DCF5
:106270002200610006DA6600062A60D26100086A20
:10628000610005C8610006C86500FDE261000828DC
:10629000610008E4670C0C0000136606610008D872
:1062A00067FA610006B860E0383C000B6100082224
:1062B0003A07610008D460A0610008160D0961006A
:1062C00008C86000FF746100080823096100032EFC
:1062D00038006016610007FA240B6100032061009A
:1062E000FD3660066100071E6012610007E42C079E
:1062F0006100053E60D06100089060103F046100BD
:1063000002FC381F22006100073A60DE61000522AE
:1063100060000544610006A0610002E22F0822002F
:106320006100062C6600057E2F39000080042F399D
:106330000000800842B90000801023CF00008008D0
:106340006000FF0C6100050422390000800867002E
:1063500005062E4123DF0000800823DF00008004B3
:10636000205F6100062E60A46100064C610004A855
:1063700023CE0000801043F8617545F861BA6000D3
:10638000FE586100027823C00000801843F861784D
:1063900045F861BE6000FE42610002626002700169
:1063A00023C00000801423F9000080040000801C3A
:1063B00023C8000080202C4F6006DDFC0000001484
:1063C00020166718B0B90000801066EE244F224EE8
:1063D00047F80014D7C9610005B22E4B6000FF2EAC
:1063E0006100030465000470224020390000801021
:1063F00067000464B3C067066100059860EC201173
:10640000D0B9000080146900049A2280223900006B
:1064100080184AB9000080146A02C141B2806D142C
:1064200023F90000801C00008004207900008020F7
:106430006000FEDA6100055C6000FED2600A610067
:1064400001BC4A806600FE12224842816100052A92
:106450006400FDFC6000FC162E790000800C23DF38
:1064600000008004588F205F2F0861000598600AA3
:106470006100027465562440601A2F0861000268AA
:10648000650003D42440141042001080225F610094
:10649000055810822F082F390000800423FCFFFFCD
:1064A000FFFF0000800423CF0000800C2F0A103C67
:1064B000003A610003F641F9000080306100013EBE
:1064C000245F248023DF00008004205F588F610058
:1064D00006002C0360926000FE340C10000D670C67
:1064E00061000334610005EA2C0360F46000FE1EC5
:1064F0002078602A103C000D6100FB246100FB2421
:1065000067FA0C000040671E0C00003A66EE61203E
:1065100010C1611C10C16100FB0A67FA10C00C00B9
:10652000000D66F260D623C8000080246000FB3EA8
:10653000740142416100FAEC67FA0C000041650207
:106540005F000200000FE909820051CAFFE84E75A2
:106550002078602A227900008024103C000D610020
:10656000FABE103C000A6100FAB6B3C8631E103CC4
:10657000003A6100FAAA1218613612186132101836
:106580000C00000D67D46100FA9660F2103C0040E8
:106590006100FA8C103C000D6100FA84103C000A86
:1065A0006100FA7C103C001A6100FA746000FABEC7
:1065B0007401E91910010200000F060000300C0000
:1065C000003963025E006100FA5651CAFFE64E755B
:1065D000612A610004FC2C0D2F006120225F1280D3
:1065E0006000FD2A6000027061124A80670002B4F8
:1065F0002F0822404E91205F6000FD1261522F0053
:1066000043F8617D45F861C26000FBCE61326D24C4
:106610006026612C671E602061266F18601A612059
:106620006E126014611A660C600E4E7561126C0475
:1066300060064E7542804E7570014E75201F4E7576
:10664000201F221F2F002F016106221FB2804E75CE
:106650006100047E2D0542806022610004742B01DC
:1066600061246100046C2B0F2F00611A221FD0815E
:106670006900023060EC610004582D652F0061064E
:1066800044804EF8666C6126610004462A0D2F0096
:10669000611C221F610000A260EE610004342F41E2
:1066A0002F00610A221FC141610000D060DA43F867
:1066B000616645F861B06000FB20612A65082240F0
:1066C000428020114E756100042020014A4266F488
:1066D000610003FE280D6100FF24610003F429031B
:1066E0004E75600001726100043642801010040093
:1066F000004065426628524861D6D080650001A4FA
:10670000D0806500019E2F00610000FE221FB08135
:106710006300018820390000802890814E750C00AC
:10672000001B0A3C0001650E5248D040D04022397F
:1067300000008028D0414E752801B1844A806A0249
:1067400044804A816A0244810C810000FFFF630C8F
:10675000C1410C810000FFFF620001483400C4C148
:106760004840C0C148404A4066000138D0826B00B2
:1067700001324A846A0244804E754A8167000124CE
:1067800024012801B1844A806A0244804A816A0255
:106790004481761F22004280D281D1806708B08276
:1067A0006B045281908251CBFFF0C1414A846A044C
:1067B000448044814E756100FF18224042801011D0
:1067C0004E756100FF0C4A80670000D86B0000D452
:1067D0002200227900008000B3FC00006C0C6504EC
:1067E00043F8600E20190880001F23C900008000B4
:1067F0006188200152804E756100FED64A806A068B
:1068000044806B00009E4E7520390000802890B9AE
:10681000000080244E756100FECE653A2F006100B5
:1068200002B03D0B6100FDD62C5F2C804E756026BA
:106830006100029E3A07588F6000FA1E61000292C2
:106840000D07588F6000F9F24E75610002D20C10EE
:10685000000D66024E752F084DF86BFA6100032E8D
:10686000205F2039000080046700F8020C80FFFFE1
:10687000FFFF6700FBE41F10421022790000800434
:1068800061000234109F103C003F6100F78A4240D3
:106890005389610001546000F7D42F084DF86C0251
:1068A00060BA2F084DF86BF360B26100F76A103CD4
:1068B00000206100F76241F900008030610002B8F9
:1068C00067FA0C00000867260C00001867440C00EB
:1068D000000D67060C00002065E210C06100F7386B
:1068E0000C00000D675EB1FC0000807F65CE103C9F
:1068F00000086100F722103C00206100F71AB1FC8B
:106900000000803063B6103C00086100F70A53882D
:1069100060AA2208048100008030671E5341103CA9
:1069200000086100F6F2103C00206100F6EA103C1D
:1069300000086100F6E251C9FFE641F9000080302D
:106940006000FF7A103C000A6100F6CC4E750C81A5
:106950000000FFFF6400FF4C2278602A24790000C9
:106960008024538AB5C9650C1419E14A141153895E
:10697000B44165024E7554890C19000D66FA60DC4D
:10698000B7C9670414D960F84E75B5C967FA1721FD
:1069900060F82C5F23DF00008010671823DF000001
:1069A000801423DF0000801823DF0000801C23DF19
:1069B000000080204ED622390000802C928F640087
:1069C000FEDA2C5F22390000801067182F39000092
:1069D00080202F390000801C2F39000080182F39AB
:1069E000000080142F014ED612001019B200671259
:1069F0006100F6240C00000D66F0103C000A6100F6
:106A0000F6164E75610000CA2219103C0022224879
:106A100061D62049225F0C00000A6700F81C5489E7
:106A20004ED1610000AC2707103C002760E06100F8
:106A300000A05F0D103C000D6100F5DC225F60DE00
:106A40004E7526013F041F3C00FF4A816A044481C1
:106A5000534482FC000A690A200102810000FFFF02
:106A6000601A30014241484182FC000A3401320080
:106A700082FC000A200148413202484148401F0080
:106A8000484053444A8166CA53446B0C103C002072
:106A90006100F58451CCFFF64A836A08103C002D52
:106AA0006100F574101F6B0A060000306100F56884
:106AB00060F2381F4E7542811219E14912197805AA
:106AC0006180103C00206100F54E42406000FF1ADA
:106AD000614C225F1219B210670842811211D3C1B2
:106AE0004ED1528852894ED14281424261300C10BF
:106AF000003065280C10003962220C810CCCCCCC03
:106B00006400FDA02001D281D281D280D2811018F0
:106B100002800000000FD280524260D24E750C10ED
:106B200000206604528860F64E7541F900008030FE
:106B3000420110180C00000D67180C0000226714A9
:106B40000C000027670E4A0166E8611811005288A0
:106B500060E04E754A016604120060D6B20066D24B
:106B6000420160CE0C000061650A0C00007A6204EC
:106B7000040000204E756100F4A2670A0C000003B7
:106B800066046000F4E84E754DF86C08101E670648
:106B90006100F48460F64E75083900010000E001E0
:106BA00067F613C00000E0004E75083900000000D1
:106BB000E001670A10390000E0000200007F4E7516
:106BC0004E754E754E750D0A476F72646F277320B0
:106BD0004D4336383030302054696E79204241536D
:106BE00049432C2076312E320D0A0A000D0A4F4BF4
:106BF0000D0A00486F773F0D0A00576861743F0D1A
:106C00000A00536F7272792E0D0A00FFFFFFFFFF1B
:106C1000FFFFFFFFFFFFFFFFFFFFFFFFFFFFFFFF84
:106C2000FFFFFFFFFFFFFFFFFFFFFFFFFFFFFFFF74
:106C3000FFFFFFFFFFFFFFFFFFFFFFFFFFFFFFFF64
:106C4000FFFFFFFFFFFFFFFFFFFFFFFFFFFFFFFF54
:10700000E3EFC8F0000E926F6CC593F56DC594F573
:107010006EC595F56FC596F596AF14D0010E926FBB
:1070200093C506F594C507F595C508F596C509F508
:1070300079ECC9F006C593F507C594F508C595F533
:1070400009C596F5000E986F000E976FCEC582F5B4
:10705000CFC583F59251D8B40DD09251D8A404D0A5
:10706000000E786F2B0E03D0000E786F2D0E776F09
:1070700077C592F593C506F594C507F595C508F54E
:1070800096C509F59AECC6F006040710D8A42CD0D2
:1070900005019251D8B409D092C580F68207D8A0D4
:1070A0008307000E986F010E976F800E9725066E6E
:1070B000060E9821076EF70E086EFF0E096E27EC7C
:1070C000C9F0FD0E8227FF0E83236AC517F56BC535
:1070D00018F5800E196E060E1A6E82C51BF583C553
:1070E0001CF5A2ECC7F0120093C506F594C507F590
:1070F00095C508F596C509F59AECC6F00650071037
:10710000D8A42CD005019251D8B409D092C580F6EC
:107110008207D8A08307000E986F010E976F800E2C
:107120009725066E060E9821076EFB0E086EFF0E61
:10713000096E27ECC9F0FD0E8227FF0E83236AC576
:1071400017F56BC518F5800E196E060E1A6E82C5FE
:107150001BF583C51CF5A2ECC7F01200000E05015B
:10716000996F000E9A6F800E9B6F3F0E9C6F000E02
:10717000816F000E806F93C506F594C507F595C520
:1071800008F596C509F5000E0A6E000E0B6E000E8E
:107190000C6E000E0D6E5DECC7F0D8A00CD0BED00A
:1071A00084C599F585C59AF586C59BF587C59CF577
:1071B0000501804B812B99C514F59AC515F59BC522
:1071C00016F59CC517F5000E186E000E196E200EF0
:1071D0001A6E410E1B6ECCECBFF014C584F515C5BC
:1071E00085F516C586F517C587F505018451935DAC
:1071F000066E85519459076E86519559086E8751D0
:107200009659096E17ECC8F009BECAD70950081084
:10721000071004E1020E065CD8A0C2D784C52DF584
:1072200085C52EF586C52FF587C530F593C531F593
:1072300094C532F595C533F596C534F532ECC6F0F4
:10724000D8A0AED705019951935D066E9A51945915
:10725000076E9B519559086E9C519659096E17EC13
:10726000C8F009BE08D009500810071043E1020E0B
:10727000065CD8B03FD099C593F59AC594F59BC5E7
:1072800095F59CC596F54AD099C52DF59AC52EF56C
:107290009BC52FF59CC530F5000E316E000E326E89
:1072A000200E336E410E346EE8ECC2F02DC599F518
:1072B0002EC59AF52FC59BF530C59CF505018007B5
:1072C000D8A081079951935D066E9A519459076E23
:1072D0009B519559086E9C519659096E17ECC8F050
:1072E00009BEC9D709500810071004E1020E065C58
:1072F000D8A0C1D793C52DF594C52EF595C52FF50A
:1073000096C530F599C531F59AC532F59BC533F56B
:107310009CC534F532ECC6F0D8A0B6D770C57AF566
:107320007AC57BF50501D1BF05D0D0C573F5D1C5B0
:1073300074F504D0000E746F060E736F73C57EF57E
:1073400074C57FF57E4B7F2B660E7B19D8A416D0B3
:1073500081AF0CD0000E996F000E9A6F800E9B6F5C
:107360003F0E9C6F000E816F000E806F670E7A19C2
:10737000D8B404D080517E2781517F23000E896FBD
:10738000000E886F93C58AF594C58BF595C58CF56D
:1073900096C58DF599C584F59AC585F59BC586F585
:1073A0009CC587F57BD08AC52DF58BC52EF58CC580
:1073B0002FF58DC530F599C531F59AC532F59BC5C8
:1073C00033F59CC534F5E8ECC2F02DC546F52EC565
:1073D00047F52FC548F530C549F52CECC4F046C536
:1073E0008EF547C58FF548C590F549C591F58EC511
:1073F00006F58FC507F590C508F591C509F500ECB0
:10740000C7F006C57CF507C57DF58AC52DF58BC58A
:107410002EF58CC52FF58DC530F58EC518F58FC5A9
:1074200019F590C51AF591C51BF599C514F59AC5BE
:1074300015F59BC516F59CC517F5CCECBFF014C52A
:1074400031F515C532F516C533F517C534F5C0EC61
:10745000C8F02DC58AF52EC58BF52FC58CF530C526
:107460008DF599C52DF59AC52EF59BC52FF59CC5B3
:1074700030F5000E316E000E326E200E336E410E6E
:10748000346EE8ECC2F02DC599F52EC59AF52FC5DE
:107490009BF530C59CF50501884B892B7E51885D95
:1074A0008951800A506E7F51800A5058D8A07BD7EE
:1074B00099C514F59AC515F59BC516F59CC517F524
:1074C000000E186E000E196EA00E1A6E400E1B6E86
