:0400000081EF00F09C
:1000080003490349034903494000034940000349A0
:100018000349034903490349034903490349034978
:10002800034940004000400003490349034903498C
:100038000349034903490349034903490349034958
:100048000349034903490349400040000349034960
:100058000349034903494000034903490349034944
:100068000349034903490349034903490349034928
:100078000349034903490349400003490349034924
:100088000349034903490349034903490349034908
:100098003E48544803490349400003494000400092
:1000A80003490349034903490349034903490349E8
:1000B80003490349034903490349034903490349D8
:1000C80003490349034903490349034903490349C8
:1000D80003490349034903490349034903490349B8
:1000E80040000349034903494000400040004000E4
:0E00F8000349034903490349FF001BEF91F040
:10EBDA000000008FF0000000C0000008700000086C
:10EBEA008400000898000009220000093800000982
:10EBFA004E000009640000097A000009900000092B
:10EC0A00A60000086E0000086E000009BC0000089B
:10EC1A006E0000086E0000086E0000086E00000812
:10EC2A006E0000086E0000086E0000086E00000802
:10EC3A006E0000086E0000086E0000086E000008F2
:10EC4A006E0000086E0000086E0000086E000008E2
:10EC5A006E000009D2000009E8000009FE00000A5F
:10EC6A001400000A2A00000A4000000A5600000A9E
:10EC7A006C00000A8200000A9800000AAC00000A30
:10EC8A00C000000AD400000AE800000AFC00000BD9
:10EC9A0010203C000000014E7B0002610012FC20A3
:10ECAA003C0000140223C00000861823C00000861E
:10ECBA002223C00000862613FC00530000862A1374
:10ECCA00FC00000000862C41F900008634303C002C
:10ECDA00A5421851C8FFFC23FC00008FF0000086F3
:10ECEA007823F9000086220000863423FC00008580
:10ECFA00000000867441F80DAE6100060641F80E68
:10ED0A00114E7A080106F800000E3C41F80E251350
:10ED1A00FC00020000862C60104E7A000241F80EB8
:10ED2A002F13FC00030000862C610005D641F80D64
:10ED3A00CA610005CE6100064E41F90000860061F5
:10ED4A000006AE1010610006B24A0067E0B03C004F
:10ED5A00446732B03C00476700016CB03C0053671F
:10ED6A000001DAB03C004C6700025EB03C0050671C
:10ED7A0000036EB03C00526700047E41F80DE76163
:10ED8A0000058060A85248610006666100067E4A56
:10ED9A0042661C6100065A4A1066E0203900008665
:10EDAA0018D0BC0000008023C00000861C604023ED
:10EDBA00C100008618610006380C10002C67124A40
:10EDCA001066B8D2BC0000008023C10000861C6017
:10EDDA001E52486100061A61000632610006124A94
:10EDEA004267984A106694528123C10000861C200B
:10EDFA003900008618C03C00F022404242612A6174
:10EE0A000011AE4A006614B47C000265F023F900D2
:10EE1A0000861C000086186000FF1423C9000086C3
:10EE2A0018610011786000FF062009610004E241C0
:10EE3A00F80DEF610004CC45F900008600363C006D
:10EE4A000F613A51CBFFFC41F80DF2610004B44561
:10EE5A00F900008600363C000F101AB03C0020650D
:10EE6A000CB03C007F6406610011526008103C003F
:10EE7A002E6100114851CBFFE2600004FA103C00F9
:10EE8A0020610011384A42661EB3F90000861867ED
:10EE9A0012103C0020610011246100112014C0529C
:10EEAA00494E75343C0001B47C000166E410191423
:10EEBA00C06100046CB3F90000861C67024E753409
:10EECA003C00024E755248610005266100053E4A23
:10EEDA00106600FEA84A42670623C1000086342055
:10EEEA003900008678C0BCFFFFFFFE2E404A390079
:10EEFA0000862C67283F3C000020390000867EC02F
:10EF0A00BCFFFFFFFE4E7B08011039000086824ECF
:10EF1A007B00001039000086834E7B00012F3900E8
:10EF2A000086343F390000867C2079000086744EC2
:10EF3A00604CF97FFF000086384E73524861000426
:10EF4A00B0610004C8610004A84A106600FE2E22BF
:10EF5A00414A42660622790000862620096100039A
:10EF6A00B041F80DF26100039A1011610003B2106A
:10EF7A003C0020610010466100040C41F900008643
:10EF8A00006100046C1010660A524923C900008609
:10EF9A002660C8B03C002D660A534923C900008682
:10EFAA002660B8B03C002E660A23C9000086266097
:10EFBA0000FD7C610004564A426700FDC012C1236D
:10EFCA00C900008626609452486100042461000446
:10EFDA003C6100041C4A106600FDA24A42660242D5
:10EFEA008161000FB861000412B03C005367000051
:10EFFA0082B03C003A6712B03C000D67E4B03C00B6
:10F00A000A67DE61000F9660EE6100033442421423
:10F01A000016006100032A42841800D6006100032A
:10F02A0020E14C1800D600D8812244610003121353
:10F03A00C00000862BD6004A42671653426100037D
:10F04A0000D6004A390000862B660212C051CAFF58
:10F05A00EE610002ECD600660C4A390000862B6786
:10F06A00A26000FCCA41F80DCD610002966000FC66
:10F07A00BE61000F2813C00000862B610002C24245
:10F08A004214001600610002B842841800D60061DA
:10F09A000002AEE18C1800D600D88122445742679C
:10F0AA001853426100029AD6000C390031000086DA
:10F0BA002B660212C051CAFFEC61000284D600B668
:10F0CA003C00FF660E0C3900390000862B670C6085
:10F0DA0000FF3241F80DDA610002286000FC50524C
:10F0EA0048101061000314B03C00496706B03C00A8
:10F0FA00536608524813C00000862A610002F26172
:10F10A0000030A4A426700FC742241610002E20CD1
:10F11A0018002C6600FC66610002D6610002EE4A05
:10F12A00426700FC58610002C84A106600FC4E9211
:10F13A0089524161264A8166FA0C390049000086E3
:10F14A002A660C41F80DF6610001B86000FBE04147
:10F15A00F80E04610001AC6000FBD47410B2826442
:10F16A0002240192820C3900490000862A66421064
:10F17A003C003A61000E4610021602610001A2200C
:10F18A0009E048D600610001982009D60061000113
:10F19A009042006100018A53421019D600610001B1
:10F1AA008051CAFFF6100344006100017460000137
:10F1BA00C6103C005361000E04103C003161000D82
:10F1CA00FC100256001600610001562009E088D69C
:10F1DA00006100014C2009D600610001445342102D
:10F1EA0019D6006100013A51CAFFF61003460061C0
:10F1FA0000012E600001805248610001F410106184
:10F20A000001F84A006608610000BA6000FB20436A
:10F21A00F81098B01167104A290001670000A2D3BC
:10F22A00FC0000000A60EC0C29000F0001660E22A7
:10F23A0069000252481010610001C060D616290008
:10F24A0001677C6A084A390000862C6772206900C7
:10F25A0006610000AE103C003D61000D60246900AB
:10F26A0002C63C0007B63C000166081012610000A5
:10F27A00B06014B63C0002660830126100009A6061
:10F28A000620126100008A103C002061000D2E61E8
:10F29A000000F441F9000086006100015461000198
:10F2AA006C4A426716B63C000166041481600CB6CB
:10F2BA003C000266043481600224816000FA7060B6
:10F2CA0000FABA43F80F803219670000AA6A0A4A9C
:10F2DA00390000862C6700009E205961242059C2FB
:10F2EA007C0003B27C000166061010613260D8B25D
:10F2FA007C000266063010611E60CC20106110602E
:10F30A00C610184A00670661000CB260F44E752FE9
:10F31A000048406102201F2F00E0586102201F2F81
:10F32A0000E8186102201FC03C000FD03C0030B03A
:10F33A003C003A65000C86D07C000760000C7E42D7
:10F34A00006102E9083F0061000C52610000ACB0A4
:10F35A003C0030651CB03C003A6510B03C00416589
:10F36A0010B03C0047640A903C0007903C00308093
:10F37A0057544F4E75103C000D61000C40103C0074
:10F38A000A60000C3841F900008600420161000C55
:10F39A000CB03C000D6750B03C000A674AB03C0014
:10F3AA00086722B03C007F671CB03C002065DEB0D5
:10F3BA003C008064D8B23C001764D2520110C0618C
:10F3CA00000BFA60C84A0167C453885301103C0015
:10F3DA000861000BE8103C002061000BE0103C00C3
:10F3EA000861000BD860A6618C10BC00004E750C39
:10F3FA0018002067FA53884E75B03C0061650AB060
:10F40A003C007B6404D03C00E04E754242428110CD
:10F41A001061E6B03C00306524B03C003A6510B09B
:10F42A003C00416518B03C00476412903C000790CC
:10F43A003C0030E98982005248524260D24E754EF1
:10F44A007323FC00000E4C0000862E4279000086D1
:10F45A0032600002A223FC00000E560000862E42F3
:10F46A0079000086326000028E0CAF000001300085
:10F47A0002660C5C4F42390000862C6000F8AC0C26
:10F48A00AF0000013400026606504F6000F88C0C91
:10F49A00AF0000014800026612504F41F80E1B13DC
:10F4AA00FC00010000862C6000F88048F97FFF000C
:10F4BA0000863823FC00000E640000862E33FC0010
:10F4CA000100008632206F00023010B07C4AFC67CF
:10F4DA000CC07CFFF8B07C48486600022223FC007E
:10F4EA00000F790000862E33FC010100008632608D
:10F4FA0000020C23FC00000E780000862E33FC006C
:10F50A000200008632600001EE23FC00000E840037
:10F51A0000862E33FC000200008632600001D823E8
:10F52A00FC00000E940000862E33FC0002000086C8
:10F53A0032600001C223FC00000EA60000862E33B2
:10F54A00FC000100008632600001AC23FC00000EC2
:10F55A00BA0000862E33FC000100008632600001EA
:10F56A009623FC00000EC00000862E33FC0001002A
:10F57A000086326000018023FC00000ED300008662
:10F58A002E33FC0001000086326000016A23FC0071
:10F59A00000EE60000862E33FC0001000086326071
:10F5AA0000015423FC00000EF30000862E33FC00F9
:10F5BA0002000086326000013E23FC00000EFB00C0
:10F5CA0000862E33FC0002000086326000012823E8
:10F5DA00FC00000F030000862E33FC0002000086A8
:10F5EA00326000011223FC00000F0B0000862E334C
:10F5FA00FC000200008632600000FC23FC00000FC1
:10F60A00130000862E33FC000200008632600000E0
:10F61A00E623FC00000F1B0000862E33FC000200CC
:10F62A00008632600000D023FC00000F2300008611
:10F63A002E33FC000200008632600000BA23FC0070
:10F64A00000F2B0000862E33FC0002000086326079
:10F65A000000A423FC00000F330000862E33FC00B8
:10F66A0002000086326000008E23FC00000F3B007F
:10F67A0000862E33FC000200008632607823FC00EC
:10F68A00000F430000862E33FC0002000086326021
:10F69A006423FC00000F4C0000862E33FC0002009D
:10F6AA00008632605023FC00000F550000862E337E
:10F6BA00FC000200008632603C23FC00000F5E0062
:10F6CA0000862E33FC000200008632602823FC00EC
:10F6DA00000F670000862E33FC00020000863260AD
:10F6EA001423FC00000F700000862E33FC00020079
:10F6FA000086324E7148F97FFF000086384A790049
:10F70A0000863266144A390000862C660C41F900DC
:10F71A0000868430DF20DF30DF33DF0000867C2381
:10F72A00DF000086344E6823C8000086744A390018
:10F73A0000862C67484E7A080123C00000867E4E58
:10F74A007A000013C0000086824E7A000013C000BF
:10F75A00008683341F33C2000086D8E95AC47C006D
:10F76A000F41F90000868443F813B842431631204A
:10F77A000059436308534330DF51CBFFFC23CF00CA
:10F78A0000867820790000862E6100FB766100FBF6
:10F79A00E64A7900008632660261086100FB26604B
:10F7AA0000F58C4A390000862C665A3039000086EA
:10F7BA0084C07C0007E54841F812AE207030006131
:10F7CA0000FB40303900008684C07C001066064188
:10F7DA00F8135A600441F813616100FB26203900CE
:10F7EA000086866100FB2A41F813676100FB14302A
:10F7FA00390000868A6100FB20103C00296100075D
:10F80A00BC6000FB723639000086D8E95BC67C0012
:10F81A000FB67C0008660000CA303900008684C032
:10F82A007C0007E54841F812CE207000006100FA1A
:10F83A00D241F813876100FACA3039000086840879
:10F84A00000008660641F8135A600441F813616122
:10F85A0000FAB030390000868408000009670641C2
:10F86A00F81370600441F813766100FA9641F813B0
:10F87A008130390000868408000008662A080000E2
:10F88A0009671632390000868C0800000A6702E010
:10F89A004910016100FA8A600A30390000868C61D9
:10F8AA0000FA7641F8137C6100FA58203900008684
:10F8BA00866100FA5C3039000086840800000D6712
:10F8CA000841F8138E6100FA3A303900008684083C
:10F8DA0000000B670841F813A36100FA266000FADA
:10F8EA0096B67C000A6706B67C000B4E713039006A
:10F8FA0000867C6100FA22103C0020610006BE30BE
:10F90A0039000086346100FA10103C0020610006BC
:10F91A00AC3039000086366100F9FE103C002061E7
:10F92A0000069A3039000086D86100F9EC103C00D4
:10F93A002061000688424241F813B8363900008631
:10F94A00D8E95BC67C000F14303000760441F90018
:10F95A0000868430186100F9C05243B443631830FA
:10F96A003C000FC04366066100FA0C60E6103C00DA
:10F97A00206100064860DC6000F9FCF00006CF0D4B
:10F98A000A556E6976657273616C204D6F6E697483
:10F99A006F722036383030300D0A005D2000457213
:10F9AA00726F7220696865780D0A004572726F720B
:10F9BA0020737265630D0A004572726F720D0A0038
:10F9CA00203A00203A20003A30303030303030319E
:10F9DA0046460D0A00533930333030303046430D35
:10F9EA000A004D4336383030300D0A004D43363860
:10F9FA003031300D0A004D4336383032300D0A00AE
:10FA0A004D4336383033300D0A00FFFFFF00000047
:10FA1A000000000DAA0000000000000000427573FB
:10FA2A00204572726F720041646472657373204577
:10FA3A0072726F7200496C6C6567616C20496E73F3
:10FA4A007472756374696F6E005A65726F204469C7
:10FA5A00766964650043484B20496E737472756316
:10FA6A0074696F6E00545241505620496E73747215
:10FA7A00756374696F6E0050726976696C65676543
:10FA8A002056696F6C6174696F6E005472616365A8
:10FA9A00004C696E65203130313020456D756C61DE
:10FAAA00746F72004C696E65203131313120456DB9
:10FABA00756C61746F7200466F726D617420457265
:10FACA00726F7200545241502023300054524150F8
:10FADA0020233100545241502023320054524150C5
:10FAEA0020233300545241502023340054524150B1
:10FAFA00202335005452415020233600545241509D
:10FB0A002023370054524150202338005452415088
:10FB1A00202339005452415020233130005452419D
:10FB2A0050202331310054524150202331320054A5
:10FB3A005241502023313300545241502023313452
:10FB4A0000545241502023313500425245414B0066
:10FB5A00FF00030000105E0000863800030000105A
:10FB6A00920000863C0003000010920000864000CC
:10FB7A000300001092000086440003000010940065
:10FB8A000086480003000010920000864C00030023
:10FB9A0000109200008650000300001092000086B8
:10FBAA00540003000010650000865800030000108E
:10FBBA00920000865C00030000109200008660003C
:10FBCA0003000010920000866400030000109400F5
:10FBDA000086680003000010920000866C00030093
:10FBEA000010920000867000030000109200008648
:10FBFA007400030000106E00008634000300001039
:10FC0A00740000867800020000107A0000867C806A
:10FC1A00030000107F0000867E800100001086002D
:10FC2A0000868280010000108C0000868300004458
:10FC3A00302D44373D000D0A41302D41373D000D2E
:10FC4A000A50433D00205353503D002053523D007B
:10FC5A0020205642523D00205346433D0020444650
:10FC6A00433D002C002C2000FF410F000010DE0055
:10FC7A00000000430F0000113800000000440F008C
:10FC8A0000114C00000000500F000011B0000000ED
:10FC9A0000530F000011C400000000560F000011AD
:10FCAA00EC0000000000000000000000000000302E
:10FCBA0003000086580000126431030000865C00CD
:10FCCA000012673203000086600000126A330300E4
:10FCDA000086640000126D3403000086680000127A
:10FCEA007035030000866C0000127336030000862C
:10FCFA007000001276370300008674000012790043
:10FD0A00000000000000000000430F000012000085
:10FD1A0000000000000000000000000000300300A6
:10FD2A000086380000128031030000863C00001271
:10FD3A0083320300008640000012863303000086E7
:10FD4A0044000012893403000086480000128C35F2
:10FD5A00030000864C0000128F3603000086500014
:10FD6A0000129237030000865400001295460F00D5
:10FD7A000012140000000000000000000000000053
:10FD8A00004303000086340000129C0000000000BB
:10FD9A000000000000460F00001228000000005278
:10FDAA00020000867C000012A3530F0000123C00E0
:10FDBA0000000000000000000000000000420F00E8
:10FDCA0000125000000000000000000000000000C7
:10FDDA000052010000867D0000127C000000000035
:10FDEA000000000000438100008683000012980092
:10FDFA00000000000000000000438100008682002D
:10FE0A0000129F00000000000000000000500300E4
:10FE1A00008678000012A600000000000000000022
:10FE2A000052830000867E000012AA000000000033
:10FE3A0000000000004130004131004132004133EE
:10FE4A0000413400413500413600413700434352F6
:10FE5A00004430004431004432004433004434004A
:10FE6A0044350044360044370044464300504300BA
:10FE7A005346430053520053535000564252000017
:10FE8A000012EE000012F4000012FF0000130D0031
:10FE9A00001313000013190000132A0000133E0078
:10FEAA000012EE000012F4000012FF0000130D0011
:10FEBA00001313000013190000132A0000135546FB
:10FECA00433D3020005573657220446174612000FF
:10FEDA00557365722050726F6772616D20004643D8
:10FEEA003D33200046433D342000537570657276D9
:10FEFA0069736F7220446174612000537570657272
:10FF0A007669736F722050726F6772616D20004953
:10FF1A006E746572727570742041636B6E6F776C64
:10FF2A0065646765200043505520005772697465FF
:10FF3A002000526561642000202028496E73743DB8
:10FF4A0000427974652000576F7264200020746F34
:10FF5A00200066726F6D2000537061636520002077
:10FF6A0028496E737472756374696F6E204665747E
:10FF7A0063682900202852656164204D6F646966B0
:10FF8A00792057726974652900040406060800007E
:10FF9A001E1D0A102E0C0000114E7510394000006B
:10FFAA0001C03C000167F41039400000004E751092
:10FFBA003940000001C03C00014E754840103940EC
:10FFCA00000001C03C000267F4484013C040000032
:10FFDA00004E750D0A4D455A363830333052414D70
:10FFEA002025322E33664D487A0D0A00696E660066
:05FFFA006E616E0000C5
:020000040001F9
:10000000000E926F6CC593F56DC594F56EC595F5B0
:100010006FC596F596AF14D0010E926F93C506F595
:1000200094C507F595C508F596C509F5B1EC91F0AD
:1000300006C593F507C594F508C595F509C596F568
:10004000000E986F000E976FCEC582F5CFC583F571
:100050009251D8B40DD09251D8A404D0000E786F2C
:100060002B0E03D0000E786F2D0E776F77C592F5AB
:1000700093C506F594C507F595C508F596C509F528
:10008000D3EC8EF006040710D8A42CD005019251B1
:10009000D8B409D092C580F68207D8A08307000E95
:1000A000986F010E976F800E9725066E060E9821A9
:1000B000076EF60E086EFF0E096E5FEC91F0FD0EF6
:1000C0008227FF0E83236AC517F56BC518F5800ECE
:1000D000196E060E1A6E82C51BF583C51CF5DBEC86
:1000E0008FF0120093C506F594C507F595C508F580
:1000F00096C509F5D3EC8EF006500710D8A42CD085
:1001000005019251D8B409D092C580F68207D8A0D3
:100110008307000E986F010E976F800E9725066E6D
:10012000060E9821076EFA0E086EFF0E096E5FEC40
:1001300091F0FD0E8227FF0E83236AC517F56BC56C
:1001400018F5800E196E060E1A6E82C51BF583C552
:100150001CF5DBEC8FF01200000E0501996F000E0C
:100160009A6F800E9B6F3F0E9C6F000E816F000E8A
:10017000806F93C506F594C507F595C508F596C536
:1001800009F5000E0A6E000E0B6E000E0C6E000ECE
:100190000D6E96EC8FF0D8A00CD0BED084C599F52A
:1001A00085C59AF586C59BF587C59CF50501804BED
:1001B000812B99C514F59AC515F59BC516F59CC5F7
:1001C00017F5000E186E000E196E200E1A6E410EF5
:1001D0001B6E05EC88F014C584F515C585F516C5AC
:1001E00086F517C587F505018451935D066E855127
:1001F0009459076E86519559086E87519659096E24
:1002000050EC90F009BECAD709500810071004E15D
:10021000020E065CD8A0C2D784C52DF585C52EF583
:1002200086C52FF587C530F593C531F594C532F5F0
:1002300095C533F596C534F56BEC8EF0D8A0AED7E6
:1002400005019951935D066E9A519459076E9B5121
:100250009559086E9C519659096E50EC90F009BE64
:1002600008D009500810071043E1020E065CD8B010
:100270003FD099C593F59AC594F59BC595F59CC556
:1002800096F54AD099C52DF59AC52EF59BC52FF543
:100290009CC530F5000E316E000E326E200E336EAE
:1002A000410E346E21EC8BF02DC599F52EC59AF5D3
:1002B0002FC59BF530C59CF505018007D8A08107A7
:1002C0009951935D066E9A519459076E9B519559B9
:1002D000086E9C519659096E50EC90F009BEC9D732
:1002E00009500810071004E1020E065CD8A0C1D71F
:1002F00093C52DF594C52EF595C52FF596C530F50A
:1003000099C531F59AC532F59BC533F59CC534F5D1
:100310006BEC8EF0D8A0B6D770C57AF57AC57BF5B0
:100320000501D1BF05D0D0C573F5D1C574F504D092
:10033000000E746F060E736F73C57EF574C57FF57E
:100340007E4B7F2B660E7B19D8A416D081AF0CD0C4
:10035000000E996F000E9A6F800E9B6F3F0E9C6F80
:10036000000E816F000E806F670E7A19D8B404D02A
:1003700080517E2781517F23000E896F000E886F88
:1003800093C58AF594C58BF595C58CF596C58DF505
:1003900099C584F59AC585F59BC586F59CC587F5F5
:1003A0007BD08AC52DF58BC52EF58CC52FF58DC557
:1003B00030F599C531F59AC532F59BC533F59CC525
:1003C00034F521EC8BF02DC546F52EC547F52FC52C
:1003D00048F530C549F565EC8CF046C58EF547C546
:1003E0008FF548C590F549C591F58EC506F58FC5C1
:1003F00007F590C508F591C509F539EC8FF006C5EC
:100400007CF507C57DF58AC52DF58BC52EF58CC508
:100410002FF58DC530F58EC518F58FC519F590C52A
:100420001AF591C51BF599C514F59AC515F59BC527
:1004300016F59CC517F505EC88F014C531F515C502
:1004400032F516C533F517C534F5F8EC90F02DC527
:100450008AF52EC58BF52FC58CF530C58DF599C560
:100460002DF59AC52EF59BC52FF59CC530F5000ED0
:10047000316E000E326E200E336E410E346E21EC62
:100480008BF02DC599F52EC59AF52FC59BF530C576
:100490009CF50501884B892B7E51885D8951800A26
:1004A000506E7F51800A5058D8A07BD799C514F55B
:1004B0009AC515F59BC516F59CC517F5000E186E67
:1004C000000E196EA00E1A6E400E1B6E05EC88F021
:1004D00014C58EF515C58FF516C590F517C591F5A0
:1004E0008AC52DF58BC52EF58CC52FF58DC530F53C
:1004F0008EC531F58FC532F590C533F591C534F50C
:100500006BEC8EF0D8B003D0000E050118D08AC570
:1005100006F58BC507F58CC508F58DC509F58EC5A3
:100520000AF58FC50BF590C50CF591C50DF596EC48
:100530008FF0D8A00BD005017CB108D0000E8E6FD3
:10054000000E8F6F000E906F000E916F93C506F531
:1005500094C507F595C508F596C509F58EC50AF544
:100560008FC50BF590C50CF591C50DF59BEC89F089
:1005700006C58AF507C58BF508C58CF509C58DF547
:100580008AC52DF58BC52EF58CC52FF58DC530F59B
:10059000000E186E000E196E200E1A6E410E1B6EA4
:1005A00084C514F585C515F586C516F587C517F5F7
:1005B00005EC88F014C531F515C532F516C533F5CF
:1005C00017C534F56BEC8EF0D8A024D00501804B14
:1005D000812B84C514F585C515F586C516F587C527
:1005E00017F5000E186E000E196E200E1A6E410ED1
:1005F0001B6E05EC88F014C584F515C585F516C588
:1006000086F517C587F5660E05017B19D8A402D0BB
:100610007E4B7F2B84C599F585C59AF586C59BF5DC
:1006200087C59CF580C571F581C572F5000E050181
:10063000796F000E766F000E756F000E896F000ED9
:10064000886FCDD08AC52DF58BC52EF58CC52FF5BD
:100650008DC530F599C531F59AC532F59BC533F591
:100660009CC534F521EC8BF02DC546F52EC547F51C
:100670002FC548F530C549F565EC8CF046C58EF5BB
:1006800047C58FF548C590F549C591F58EC506F566
:100690008FC507F590C508F591C509F539EC8FF0C0
:1006A00007BE06D0075013E10A0E065CD8B00FD083
:1006B0008EC506F58FC507F590C508F591C509F5F6
:1006C00039EC8FF006C57CF507C57DF505D0000E29
:1006D00005017D6F090E7C6F05017951D8B472AFA9
:1006E00020D0800E9725D96E060E9821DA6E2E0E38
:1006F000DF6E974B982B8207D8A08307010E796F86
:1007000010D0800E9725D96E060E9821DA6E300E25
:10071000DF6E974B982B8207D8A083077507D8A068
:10072000760775517611D8A4ECD7800E9725D96E2F
:10073000060E9821DA6E7C51300FDF6E974B982BA6
:100740008207D8A083078AC52DF58BC52EF58CC5E9
:100750002FF58DC530F58EC518F58FC519F590C5E7
:100760001AF591C51BF599C514F59AC515F59BC5E4
:1007700016F59CC517F505EC88F014C531F515C5BF
:1007800032F516C533F517C534F5F8EC90F02DC5E4
:100790008AF52EC58BF52FC58CF530C58DF599C51D
:1007A0002DF59AC52EF59BC52FF59CC530F5000E8D
:1007B000316E000E326E200E336E410E346E21EC1F
:1007C0008BF02DC599F52EC59AF52FC59BF530C533
:1007D0009CF505017107D8A07207884B892B7E51C3
:1007E000885D8951800A506E7F51800A5058D8B078
:1007F00008D098BF27D7985104E14B0E975DD8A039
:1008000021D7000E896F4F0E886F800E8825D96E14
:10081000060E8921DA6E000EDF6E800E506E060E17
:10082000516E9751505E9851515A88515024066E1E
:1008300089515120076E800E086E060E096E97C50D
:100840000AF598C50BF53DEC91F09751885D976FCF
:1008500098518959986F9251D8B402D0010E01D0A5
:10086000000E886F896B9251D8B40BD09707D8A02F
:100870009807800E9725D96E060E9821DA6E92C5DC
:10088000DFF48851825F8951835B6AC517F56BC5B8
:1008900018F5800E9725196E060E98211A6E82C5DE
:1008A0001BF583C51CF5DBEC8FF01200080E000170
:1008B000B16F04012095C294CA942093C292CA9247
:1008C000000E186F000EC16E000EC96E000E086F8C
:1008D000000EBF6E000EC76E000E106F000EC06ED1
:1008E000000EC86E3F0E0201036F04010095C6940E
:1008F000000E436F000E446F050E456F000E476FEC
:100900004691468B468F00910181C680009B018BEA
:10091000C68A0099BE98C6982091C280CA9000935A
:10092000000E0201026FBE82C69204010097000E03
:100930000201046FBE86C696000ED56F220ED46FDC
:10094000810ED36F000E5A6E110E0501DC6F000E82
:10095000566E000E556E55C5DAF556C5DBF5DAC58F
:1009600057F5DBC558F5000ED56F000ED46FD4C512
:10097000D6F5D5C5D7F5D6C5D8F5D7C5D9F5020171
:10098000D189D18B0401009FC68E070E0201766FBC
:100990000401009DBE8CC69C260E0201076FD28FFB
:1009A000000E0501C56F000EC46FC4C5D2F5C5C5E4
:1009B000D3F5D3C5C1F4D2C5BFF4BE92DB0EC425B6
:1009C000F66EEB0EC521F76EF86A000EF8220800ED
:1009D000F5C4C0F4BE82C44BC52B800EC55DD8A043
:1009E000E4D7000E0401186F1969C968000E086F7A
:1009F0000969C768000E106F1169C868000E186E8B
:100A0000240E196EF40E1A6E410E1B6E4351066EC3
:100A10004451076E4551086E096A000E3BEC8DF09B
:100A200006C514F507C515F508C516F509C517F56A
:100A300005EC88F014C52DF515C52EF516C52FF556
:100A400017C530F5000E316E240E326E740E336E03
:100A5000490E346E21EC8BF02DC5C0F52EC5C1F5C5
:100A60002FC5C2F530C5C3F5DD0E0501B66FFF0E0B
:100A7000B76FC0C5B8F5C1C5B9F5C2C5BAF5C3C52C
:100A8000BBF5C8EC91F0000E0201616F050E626FBC
:100A90001F0E636F000E0001D56F000ED66F000EA3
:100AA000D86F010ED96F020EDA6F7F0EDB6F010E69
:100AB000DC6F080EDD6F100EDE6F400EDF6F800EF4
:100AC000D76F820ED66F010ED56F000ED66F000E57
:100AD000D86F010ED96F020EDA6F7F0EDB6F010E39
:100AE000DC6F040EDD6F100EDE6F400EDF6F800EC8
:100AF000D76F820ED66F020ED56F000ED66F000E26
:100B0000D86F020ED96F7F0EDA6F7F0EDB6F010E8A
:100B1000DC6F080EDD6F100EDE6F400EDF6F800E93
:100B2000D76F820ED66F040ED56F000ED66F350EBE
:100B3000D86F7F0ED96F7F0EDA6F7F0EDB6F010EDD
:100B4000DC6F000EDD6F000EDE6F000EDF6F020E39
:100B5000D76F840ED66F010E0201046F020E026F72
:100B6000050E056F550E0401596FAA0E596F599164
:100B7000080E5D6F000E5E6F000E5F6F550E596FB1
:100B8000AA0E596F5981B7A2FED7110E0201C96F83
:100B9000A780D68EC282C2840001D4A9FDD7D1C459
:100BA000D3F5CFC4D2F5CEBA27D0800E0501D31924
:100BB000D211D8A41DD0D69ED55119E1800ED45D96
:100BC000D8B015D0000ED825D96E060ED921DA6E10
:100BD000D0C4DFF4010ED825BE6F000ED921BF6F3F
:100BE0007F0EBE15D86FD96BD44BD52BA782D68E6E
:100BF0000001D785D795D0D7000EC86E0501D20564
:100C00001EE1800ED319D8A41AD0D69E5550561086
:100C1000D8B403D0BE6BBE2B02D00501BE6B800ED4
:100C2000D419D511D8B403D0BF6BBF2B02D00501A6
:100C3000BF6BD890BF35BE11C06ED68E31D0800E3E
:100C4000D319D211D8A42BD0D69E55505610D8A463
:100C500002D0000EF1D7000EDA25D96E070EDB2187
:100C6000DA6EDF50C06E010EDA25BE6F000EDB219A
:100C7000BF6F7F0EBE15DA6FDB6B5506D8A0560628
:100C8000130EDC19D8A4D9D70A0E55185610D8A4BB
:100C9000D4D7110EDC6FDCC55AF5A782CED7C06859
:100CA000D69ECEB4FED70001D785D795CEB0FED75D
:100CB000C868D68E71D79FC5D9F4A0C5DAF4DEC452
:100CC000F6F4DDC4F7F4000EF86E0800F550250ABE
:100CD000D8A486D19FC5D9F4A0C5DAF4DE2A000EC7
:100CE000DD22000ECF6F000ECE6FCEC559F5D06954
:100CF000D1699FC5D9F4A0C5DAF4DEC4F6F4DDC429
:100D0000F7F4000EF86E0800F5502A0AD8A423D094
:100D10009FC5D9F4A0C5DAF4DE2A000EDD22A1C5F4
:100D2000D9F4A2C5DAF4DFC452F5020EDE26DFC420
:100D300053F5000EDD2252C5D9F453C5DAF4DEC4F2
:100D4000CEF5DDC4CFF5CFAF35D05980CE6DCF1FF6
:100D5000D8B0CF2B2FD09FC5D9F4A0C5DAF4DEC40C
:100D60000CF5DDC40DF5DBEC8DF00CC5CEF50DC535
:100D7000CFF507D09FC5D9F4A0C5DAF4DE2A000E5E
:100D8000DD229FC5D9F4A0C5DAF4DEC4F6F4DDC4D3
:100D9000F7F4000EF86E0800F5C452F5D00E522498
:100DA000536E546AFF0E5422545004E10A0E535CF1
:100DB000D8A0E0D79FC5D9F4A0C5DAF4DEC4F6F414
:100DC000DDC4F7F4000EF86E0800F5502E0AD8A422
:100DD00066D0000E0501D16F000ED06F9FC5D9F40B
:100DE000A0C5DAF4DE2A000EDD229FC5D9F4A0C525
:100DF000DAF4DEC4F6F4DDC4F7F4000EF86E080091
:100E0000F5502A0AD8A41CD09FC5D9F4A0C5DAF49D
:100E1000DE2A000EDD22A1C5D9F4A2C5DAF4DFC4B2
:100E200052F5020EDE26DFC453F5000EDD2252C558
:100E3000D9F453C5DAF4DEC4D0F5DDC4D1F52FD032
:100E40009FC5D9F4A0C5DAF4DEC40CF5DDC40DF5F8
:100E5000DBEC8DF00CC5D0F50DC5D1F507D09FC5E5
:100E6000D9F4A0C5DAF4DE2A000EDD229FC5D9F43C
:100E7000A0C5DAF4DEC4F6F4DDC4F7F4000EF86EB3
:100E80000800F5C452F5D00E5224536E546AFF0E7A
:100E90005422545004E10A0E535CD8A0E0D79FC5F9
:100EA000D9F4A0C5DAF4DEC4ACF5DDC4ADF5ACC54B
:100EB000F6F4ADC5F7F4000EF86E0800F5C4ABF516
:100EC00008D0AC4BAD2B18D06C0E01D0000EAB6F20
:100ED00013D00501AB51526E536A5350000AD8A487
:100EE000F5D752504C0AD8B4ECD72A0AD8B4ECD76C
:100EF0000A0AD8B4E6D7EAD7ACC5F6F4ADC5F7F41C
:100F0000000EF86E0800F550660AD8B41AD060D00A
:100F1000A1C5D9F4A2C5DAF4DFC452F5040EDE2669
:100F2000DFC453F5000EDD2252C5D9F453C5DAF4FF
:100F3000DEC4A3F5DEC4A4F5DEC4A5F5DEC4A6F5C3
:100F40000ED0AB51526E536A5350000AD8A407D04A
:100F500052504C0AD8B4DCD7200AD8B4D9D7010EE5
:100F6000AC25526E000EAD21536E9FC5D9F4A0C5BD
:100F7000DAF452C5DEF453C5DDF418D09DC56AF528
:100F80009EC56BF5A3C56CF5A4C56DF5A5C56EF53D
:100F9000A6C56FF5ACC5F6F4ADC5F7F4000EF86E56
:100FA0000800F5C470F500EC80F01200ACC5F6F452
:100FB000ADC5F7F4000EF86E0800F550526E536A96
:100FC0005350000AD8A404D05250660AD8B4D6D7D9
:100FD0009FC5D9F4A0C5DAF4DE2A000EDD22120086
:100FE0009FC5D9F4A0C5DAF4DEC4F6F4DDC4F7F485
:100FF000000EF86E0800F550076E086A9DC509F5E9
:101000009EC50AF51AEC90F0E3D71750800B206EBE
:1010100017501724266E16BE26802650D8B40DD041
:101020002628D8A408D0000E146E000E156E000EEF
:10103000166E000E176E168E08D0000E146E000E7F
:10104000156E000E166E000E176E1B50800B201AC8
:101050001B501B24216E1ABE21802150D8B40DD004
:101060002128D8A408D0000E186E000E196E000EAC
:101070001A6E000E1B6E1A8E08D0000E186E000E2F
:10108000196E000E1A6E000E1B6E2150D8B403D0DC
:101090002650D8A409D0000E146E000E156E000E56
:1010A000166E000E176E12001A501402F3C42BF5C0
:1010B000F4C42CF52B50226E236A246A256A2C5026
:1010C000276E286A296A2A6A19501502F3C42BF57B
:1010D000F4C42CF52B502226000E23222422252294
:1010E0002C502726000E282229222A2218501602C8
:1010F000F3C42BF5F4C42CF52B502226000E23222A
:10110000242225222C502726000E282229222A229A
:1011100024C525F523C524F522C523F5226A1850D8
:101120001502F3C42BF5F4C42CF52B5022262C50B9
:101130002322000E2422000E252219501402F3C48B
:101140002BF5F4C42CF52B5022262C502322000E14
:101150002422000E252224C525F523C524F522C509
:1011600023F5226A18501402F3C42BF5F4C42CF5AD
:101170002B5022262C502322000E2422000E252242
:101180001A501502F3C42BF5F4C42CF52B50272666
:101190002C502822000E2922000E2A221950160255
:1011A000F3C42BF5F4C42CF52B5027262C50282201
:1011B000000E2922000E2A221A501602F3C42BF523
:1011C000F4C42CF52B501C6E2C501D6E1E6A1F6A29
:1011D0001EC51FF51DC51EF51CC51DF51C6A1C503E
:1011E00027261D5028221E5029221F502A22255012
:1011F0002726000E282229222A2224C525F523C5C8
:1012000024F522C523F5226A215026C51CF51D6A46
:101210001C26000E1D22820E1C242B6EFF0E1D208C
:101220002C6E0FD0D8902736283629362A3625BE80
:101230002780D89022362336243625362B06D8A090
:101240002C0629AEEFD7000E216E25AE17D0FF0E6B
:1012500022141C6EFF0E23141D6EFF0E24141E6E2E
:101260007F0E25141F6E1C501D101E101F10D8B4A9
:1012700003D0010E216E02D027B0FBD72150D8B485
:101280001FD0010E2726000E282229222A222AA05A
:1012900017D027C51CF528C51DF529C51EF52AC57B
:1012A0001FF51F341F321E321D321C321CC527F59C
:1012B0001DC528F51EC529F51FC52AF52B4A2C2A60
:1012C0002CBE0DD02C5003E12B28D8A008D0000E46
:1012D000276E000E286E800E296E7F0E20D02CBE49
:1012E00005D02C500EE12B04D8B00BD0000E276E89
:1012F000000E286E000E296E000E2A6E000E206E63
:101300000FD02BC526F5FF0E2716FF0E28167F0ED1
:101310002916000E2A1626B0298ED89026302A6E5D
:1013200020502A1227C514F528C515F529C516F52C
:101330002AC517F512000950800B126E09500924B6
:10134000146E08BE14801450D8B40DD01428D8A43C
:1013500008D0000E066E000E076E000E086E000E1E
:10136000096E088E06D0000E066E000E076E000E87
:10137000086E000E096E0D50800B136E125013187C
:10138000D8A4128C0D500D24136E0CBE1380135074
:10139000D8B40DD01328D8A408D0000E0A6E000EC1
:1013A0000B6E000E0C6E000E0D6E0C8E06D0000E35
:1013B0000A6E000E0B6E000E0C6E000E0D6E1450B9
:1013C000135CD8B022D012AC02D0800E121A14C511
:1013D00015F513C514F515C513F506C515F50AC59C
:1013E00006F515C50AF507C515F50BC507F515C5AD
:1013F0000BF508C515F50CC508F515C50CF509C59F
:1014000015F50DC509F515C50DF5000E156E145031
:1014100013C50EF50F6A0E5E000E0F5A0FBE2CD0CC
:101420000F5004E11A0E0E5CD8A026D0065007100B
:1014300008100910D8B402D0010E01D0000E156EAC
:10144000000E066E000E076E000E086E000E096E8E
:1014500013C514F515D015A005D0D8901530010985
:10146000156E02D0D890153206B0158E09340932A7
:10147000083207320632142A1350145CD8A0EBD776
:1014800012BC28D01450D8A409D0000E066E000E4D
:10149000076E000E086E000E096E12000A50062636
:1014A0000B5007220C5008220D50092209A071D0C0
:1014B00015A005D0D89015300109156E02D0D8902E
:1014C000153206B0158E0934093208320732063259
:1014D000142A5FD00A50065C0B5007580C5008586D
:1014E0000950800A0E6E0D50800A0E58D8B025D0D3
:1014F00006500A5C0E6E07500B580F6E08500C58C1
:10150000106E09500D58116EFF0E0E24066EFF0E60
:101510000F20076EFF0E1020086EFF0E1120096EBF
:10152000800E121A156C1550D8A40FD0010E062685
:10153000000E07220822092208D00A50065E0B502E
:10154000075A0C50085A0D50095A06500710081037
:101550000910D8A41CD01550D8A419D0000E066EBE
:10156000000E076E000E086E000E096E1200D89075
:10157000063607360836093615BE068015A002D095
:10158000D88001D0D89015361450D8A4140608AECF
:10159000EED7000E136E15AE0BD015C50EF57F0EEF
:1015A0000E16D8B403D0010E136E02D006B0FBD7CE
:1015B0001350D8B420D0010E0626000E07220822B0
:1015C000092209A018D006C50EF507C50FF508C5F4
:1015D00010F509C511F51134113210320F320E32E7
:1015E0000EC506F50FC507F510C508F511C509F5B7
:1015F0001428D8A4142A1428D8B403D01450D8A47A
:101600000DD0000E066E000E076E000E086E000E66
:10161000096E1450D8A402D0000E126E14A002D08D
:10162000088E01D0089ED8901430096E12BE098E23
:1016300006C506F507C507F508C508F509C509F586
:1016400012003050800B3D6E30503024446E2FBE5F
:1016500044804450D8B40DD04428D8A408D0000EFB
:101660002D6E000E2E6E000E2F6E000E306E2F8E21
:1016700006D0000E2D6E000E2E6E000E2F6E000E88
:10168000306E3450800B3D1A34503424456E33BED6
:1016900045804550D8B40DD04528D8A408D0000EB8
:1016A000316E000E326E000E336E000E346E338ECD
:1016B00006D0000E316E000E326E000E336E000E3C
:1016C000346E3150321033103410D8A417D0000EBD
:1016D0002D6E000E2E6E000E2F6E000E306E800EE0
:1016E0002F127F0E30123D5030122DC52DF52EC514
:1016F0002EF52FC52FF530C530F512004450D8A473
:1017000009D0000E2D6E000E2E6E000E2F6E000EF4
:10171000306E1200455044C535F5366A355E000E10
:10172000365A7F0E35243E6E000E36203F6E2DC594
:1017300039F52EC53AF52FC53BF530C53CF5000E01
:101740002D6E000E2E6E000E2F6E000E306E000EEF
:10175000406E000E416E000E426E000E436E000E93
:10176000456E28D04550D8B411D0D89039363A3685
:101770003B363C36D8902D362E362F36303643BE8B
:101780002D80D89040364136423643363150395C50
:1017900032503A5833503B5834503C58D8A009D0B6
:1017A000438C3150395E32503A5A33503B5A3450A0
:1017B0003C5A452A190E4564D5D739503A103B108A
:1017C0003C10D8B411D040800FD0D8902D362E3692
:1017D0002F36303643BE2D80D890403641364236C3
:1017E00043363E06D8A03F062FAEEFD7000E456E1B
:1017F00043AE17D0FF0E4014356EFF0E4114366E07
:10180000FF0E4214376E7F0E4314386E355036107B
:1018100037103810D8B403D0010E456E02D02DB069
:10182000FBD74550D8B41FD0010E2D26000E2E2216
:101830002F22302230A017D02DC535F52EC536F514
:101840002FC537F530C538F53834383237323632AF
:10185000353235C52DF536C52EF537C52FF538C5CA
:1018600030F53E4A3F2A3FBE10D03F5003E13E28AC
:10187000D8A00BD0000E3F6E3E68000E2D6E000EFD
:101880002E6E000E2F6E000E306E3FBE05D03F5004
:1018900011E13E04D8B00ED0000E3F6E000E3E6E39
:1018A000000E2D6E000E2E6E000E2F6E000E306E8E
:1018B000000E3D6E3EC544F544A002D02F8E01D0EF
:1018C0002F9ED8904430306E0ED7C6C566F5C7C57A
:1018D00067F5C8C568F5C9C569F546C566F547C564
:1018E00067F548C568F549C569F5810E4A6EFF0E72
:1018F0004B6E66C54CF567C54DF568C54EF569C5B7
:101900004FF5180E05D0D8904F324E324D324C3232
:10191000E82EF9D74C504A240501646F000E4B2085
:10192000656F65BF0FD0655104E1170E645DD8A0E7
:1019300009D046C546F547C547F548C548F549C5E8
:1019400049F5120065BF5CD064C54AF5FF0E4B6EC9
:10195000FF0E4C6E7F0E4D6E000E4E6E4A6601D02D
:1019600007D04E344E324D324C324B324A2EF6D7DF
:101970004BC560F54CC561F54DC562F54EC563F5C7
:101980000501605166154A6E615167154B6E6251D3
:1019900068154C6E635169154D6E4A504B104C10D2
:1019A0004D10D8B4C6D766C54AF567C54BF568C5AE
:1019B0004CF569C54DF5200E05D0D8904D324C320E
:1019C0004B324A32E82EF9D74A50D8B408D0605189
:1019D0006627615167236251682363516923601D43
:1019E0004A6E611D4B6E621D4C6E631D4D6E4A50FA
:1019F00066174B5067174C5068174D50691732D017
:101A000066C54AF567C54BF568C54CF569C54DF522
:101A1000200E05D0D8904D324C324B324A32E82E4F
:101A2000F9D74A6608D0000E666F000E676F000E89
:101A3000686F000E16D0D89066354A6E67354B6ECB
:101A400068354C6E69354D6E4A504B104C104D1038
:101A5000D8B408D0000E666F000E676F800E686FF6
:101A6000BF0E696F66C546F567C547F568C548F599
:101A700069C549F512000E6E0E50D8A409AE1AD0F1
:101A800006C50AF507C50BF508C50CF509C50DF522
:101A90000A1E0B1E0C1E0D1E0A2A000E0B220C2203
:101AA0000D220AC510F50BC511F50CC512F50DC5B3
:101AB00013F508D006C510F507C511F508C512F5D0
:101AC00009C513F50650071008100910D8A409D04D
:101AD000000E066E000E076E000E086E000E096EF8
:101AE0001200960E0F6E06D00F2AD89013321232C3
:101AF00011321032000E10140A6E000E11140B6E0B
:101B0000000E12140C6EFE0E13140D6E0A500B1004
:101B10000C100D10D8B40DD0E7D70F2A010E1026E7
:101B2000000E112212221322D890133212321132D7
:101B30001032000E10140A6E000E11140B6E000EFF
:101B400012140C6EFF0E13140D6E0A500B100C10B5
:101B50000D10D8B407D0E1D70F06D8901036113643
:101B60001236133612BE03D0020E0F60F5D70FA047
:101B7000129ED8900F320FC50AF50B6A0C6A0D6AD7
:101B80000AC50DF50C6A0B6A0A6A0A5010120B504E
:101B900011120C5012120D5013120E50D8A409AE8F
:101BA00001D0138E10C506F511C507F512C508F54D
:101BB00013C509F51200000E146E000E136E000E10
:101BC000126E000E116E02D00C4A0D2A0CC5F6F4EE
:101BD0000DC5F7F4000EF86E0800F550200AD8B4D1
:101BE000F3D70CC5F6F40DC5F7F4000EF86E080037
:101BF000F5C40EF5F70E0E240F6E106AFF0E1022BC
:101C000010500CE1050E0F5CD8B008D0DDD7000EE7
:101C1000126E010E116E0C4A0D2A32D00CC5F6F46C
:101C20000DC5F7F4000EF86E0800F5500E6E0F6A41
:101C30000F50000AD8A424D00E502B0AD8B4EBD7EA
:101C4000060AD8B4E4D71CD013C506F514C507F5A9
:101C5000000E096E0A0E086EDBEC91F00CC5F6F46E
:101C60000DC5F7F4000EF86E0800F550065E000E84
:101C7000075A300E0624136E000E0720146ECBD7C1
:101C80000CC5F6F40DC5F7F4000EF86E0800F5C4A7
:101C90000EF5D00E0E240F6E106AFF0E102210509B
:101CA00004E10A0E0F5CD8A0CFD711501210D8A4AF
:101CB0000DD013C50EF514C50FF50E1E0F1E0E4ADE
:101CC0000F2A0EC50CF50FC50DF5120013C50CF546
:101CD00014C50DF51200000E2D14356E000E2E14D5
:101CE000366E800E2F14376E7F0E3014386E3550DE
:101CF000361037103810D8A408D0000E2D6E000E04
:101D00002E6E000E2F6E000E306E000E3114356EEA
:101D1000000E3214366E800E3314376E7F0E34147C
:101D2000386E3550361037103810D8A408D0000E51
:101D3000316E000E326E000E336E000E346E30AE19
:101D400009D02D6C2E1ED8B02E2A2F1ED8B02F2AC7
:101D5000800E305634AE09D0316C321ED8B0322AE3
:101D6000331ED8B0332A800E3456000E2D1A000EC2
:101D70002E1A000E2F1A800E301A000E311A000E85
:101D8000321A000E331A800E341A31502D5C325044
:101D90002E5833502F5834503058D8B002D0D890E5
:101DA0001200D8801200CAC510F5CBC511F5CCC5FC
:101DB00012F5CDC513F506C510F507C511F508C513
:101DC00012F509C513F510C50AF511C50BF512C5B5
:101DD0000CF513C50DF5180E05D0D8900D320C3248
:101DE0000B320A32E82EF9D70A500E6E0F6A0E50E7
:101DF0000F10D8A419D0D89010340A6E11340B6E7D
:101E000012340C6E13340D6E0A500B100C100D10A2
:101E1000D8A405D0000E076E020E066E1200000E4A
:101E2000076E030E066E12000E280F10D8A41CD0E9
:101E300010C50AF511C50BF512C50CF513C50DF546
:101E4000090ED8900A360B360C360D36E82EF9D727
:101E50000A500B100C100D10D8A402D0010E01D0A6
:101E6000000E066E076A1200000E076E040E066E64
:101E70001200083409340F6E0F50D8A409D0000E98
:101E8000066E000E076E000E086E000E096E120040
:101E900006C50AF507C50BF508C50CF509C50DF50E
:101EA000200E05D0D8900D320C320B320A32E82EBB
:101EB000F9D70A500E6E088EFF0E0616FF0E071693
:101EC000FF0E0816000E0916960E0F5E0FAE0DD00F
:101ED0000F50800A970FD8A0D2D7D8900932083275
:101EE000073206320F3EF9D70DD01F0E0F6407D010
:101EF000C6D7D89006360736083609360F060F5073
:101F0000D8A4F7D70E50D8B408D0091E081E071E53
:101F1000066C000E07220822092206C506F507C531
:101F200007F508C508F509C509F51200000E0614E5
:101F30000E6E000E07140F6E800E0814106E7F0ECA
:101F40000914116E0E500F1010101110D8A408D0E3
:101F5000000E066E000E076E000E086E000E096E73
:101F6000000E0A140E6E000E0B140F6E800E0C1471
:101F7000106E7F0E0D14116E0E500F1010101110F8
:101F8000D8A408D0000E0A6E000E0B6E000E0C6E68
:101F9000000E0D6E0A5006180AE10B50071807E1F3
:101FA0000C50081804E10D500918D8B402D0D8908C
:101FB0001200D880120059A00AD019C510F51AC510
:101FC00011F517C512F518C513F57CEC91F01CBE80
:101FD00005D01BC520F51CC521F504D0000E216ECF
:101FE000000E206E000E1F6E000E1E6E0CD0000E36
:101FF000086E200E076E17C509F518C50AF51AEC0C
:1020000090F01E4A1F2A20501E5C1F50800A1D6E31
:102010002150800A1D58D8A0EAD759B0120019C51E
:1020200010F51AC511F517C512F518C513F57CEC96
:1020300091F0120009500A10D8B404D009500A10C7
:10204000D8A404D0075000EC92F0120020EE09F062
:102050000950D9260A50DA22DE50DE10D8B416D044
:1020600020EE09F00950D9260A50DA2210EE03F0CA
:102070000950E1260A50E222DE50E65CE650800A72
:102080000F6EDE50800A0F58D8B0120020EE03F019
:102090000950D9260A50DA22DE2A000EDD2212006B
:1020A00009BE07D00950081007101DE10604D8B07A
:1020B0001AD006C50AF507C50BF508C50CF509C504
:1020C0000DF50A1E0B1E0C1E0D1E0A2A000E0B22F9
:1020D0000C220D220AC506F50BC507F50CC508F53F
:1020E0000DC509F5120006C506F507C507F508C5B3
:1020F00008F509C509F51200C7C205F5565027E1D4
:10210000800E555CD8B01100000E5724D96E070E12
:102110005820DA6E05C5DFF4010E5724036E000E59
:102120005820046E7F0E0314576E586A554A562A7B
:10213000110E0501DC19D8A41100400E55185610D7
:10214000D8A41100130EDC6FDCC55AF5A78211006C
:102150005A50D8B40BD05AC5C9F2000E5A6E0501B8
:10216000D451D511D8A41100A79211000501D45162
:10217000D511D8B4F9D7000ED625D96E060ED721C1
:10218000DA6EDF500201C96F010E0501D625016E1E
:10219000000ED721026E7F0E0114D66FD76BD407C5
:1021A000D8A0D5071100B0C5B4F5B1C5B5F50FD0AD
:1021B000AEC59DF5AFC59EF5B40E05019F6F050E2A
:1021C000A06FB2C5A1F5B3C5A2F55BEC86F0B4C5AE
:1021D000F6F4B5C5F7F4000EF86E0800F5500009E6
:1021E000D8A4E6D7000E0501AF6F000EAE6F120047
:1021F000000E311A000E321A000E331A800E341AF5
:102200002DC506F52EC507F52FC508F530C509F50E
:1022100031C50AF532C50BF533C50CF534C50DF5DE
:102220009BEC89F006C52DF507C52EF508C52FF5E1
:1022300009C530F5120001EE00F3800EEE6AE806E3
:10224000FDE101EE00F2D00EEE6AE806FDE101EEDE
:10225000C6F1160EEE6AE806FDE15A6A596A586A36
:10226000576A566A556A0401080E5D6F000E5E6F6C
:10227000000E5F6F000156EF84F008C50EF509C52A
:102280000FF506C50CF507C50DF510D00EC5D9F430
:102290000FC5DAF4DF50106E0E4A0F2A0CC5D9F4C0
:1022A0000DC5DAF410C5DFF40C4A0D2A0A06D8A0D1
:1022B0000B060A28EBE10B28D8B41200E7D708C5B3
:1022C0000AF509C50BF506C50CF507C50DF50AC5D8
:1022D000F6F40BC5F7F40A4A0B2A000EF86E0CC58B
:1022E000D9F40DC5DAF40C4A0D2A0800F5C4DFF460
:1022F000DF50D8B41200EBD7000E166E000E156E2C
:102300000BD014C507F5086A12C509F513C50AF5FF
:102310001AEC90F0154A162A15501024D96E165052
:102320001120DA6EDF50146E1450D8B41200E9D7C1
:10233000010E0A6E200E06180710D8B40ED0F70E44
:102340000624086EFF0E0720096E095004E1050EF1
:10235000085CD8A002D0000E0A6E0AC506F5076A0E
:1023600012000650071008100910D8B408D0000E4B
:10237000061A000E071A000E081A800E091A06C562
:1023800006F507C507F508C508F509C509F51200E2
:10239000B80EBC6F050EBD6F000EAE6F000EAF6FB6
:1023A000B6C5B0F5B7C5B1F5BC0EB26F050EB36FCB
:1023B000D3EC90F0120006500802F3C40AF5F4C4FE
:1023C0000BF506500902F3500B2607500802F35094
:1023D0000B260AC506F50BC507F51200D00E06241C
:1023E000086EFF0E0720096E095006E10A0E085C10
:1023F000D8B002D0010E01D0000E066E076A12009E
:0E240000066EB7A2FED706C5C9F21200110083
:020000040030CA
:080000008CFFFFF79FFFFFFFDB
:01000900FFF7
:00000001FF
