:0400000081EF00F09C
:1000080082488248824882484000824840008248AC
:100018008248824882488248824882488248824888
:100028008248400040004000824882488248824816
:100038008248824882488248824882488248824868
:10004800824882488248824840004000824882486C
:1000580082488248824840008248824882488248D2
:100068008248824882488248824882488248824838
:1000780082488248824882484000824882488248B2
:100088008248824882488248824882488248824818
:10009800C247D84782488248400082484000400012
:1000A80082488248824882488248824882488248F8
:1000B80082488248824882488248824882488248E8
:1000C80082488248824882488248824882488248D8
:1000D80082488248824882488248824882488248C8
:1000E800400082488248824840004000400040006A
:0E00F8008248824882488248FF006AEF90F0FA
:10CBDC00000001FE00000000C00001D1CE0001D118
:10CBEC00E20001D1F60001D2820001D2980001D2FC
:10CBFC00AE0001D2C40001D2DA0001D2F00001D3A0
:10CC0C00060001D1CC0001D1CC0001D31C0001D114
:10CC1C00CC0001D1CC0001D1CC0001D1CC0001D190
:10CC2C00CC0001D1CC0001D1CC0001D1CC0001D180
:10CC3C00CC0001D1CC0001D1CC0001D1CC0001D170
:10CC4C00CC0001D1CC0001D1CC0001D1CC0001D160
:10CC5C00CC0001D3320001D3480001D35E0001D3D4
:10CC6C00740001D38A0001D3A00001D3B60001D314
:10CC7C00CC0001D3E20001D3F80001D40C0001D4A4
:10CC8C00200001D4340001D4480001D45C0001D44C
:10CC9C007021FC0001B000000441F8010043F900D0
:10CCAC0001B00022D8B1FC0000332465F64EF90027
:10CCBC0001B000FFFFFFFFFFFFFFFFFFFFFFFFFFC4
:10CCCC00FFFFFFFFFFFFFFFFFFFFFFFFFFFFFFFF68
:10CCDC00FF203C000000014E7B0002610031DE2091
:10CCEC003C000000C023C00001FE1823C00001FE60
:10CCFC002023C00001FE2423C00001FF2C13FC00E4
:10CD0C00530001FE2913FC00000001FE2B41F90029
:10CD1C0001FE32303C00CF421851C8FFFC203C00D1
:10CD2C0001FE004E7B080323C00001FE7623C000E9
:10CD3C0001FE7A23F90001FE200001FE3223FC00E3
:10CD4C0001F8000001FE724E7A080123C00001FEBA
:10CD5C00804E7A000013C00001FE844E7A0001134D
:10CD6C00C00001FE854E7A000223C00001FE864EF3
:10CD7C007A080223C00001FE8AF0394E000001FE41
:10CD8C008EF0394A000001FE96F03942000001FE97
:10CD9C009EF0390A000001FEA2F0390E000001FEDF
:10CDAC00A6F03962000001FEAA33FCA0000001FFCE
:10CDBC000241F90001FF04303C0010421851C8FF39
:10CDCC00FC303C000041F90001FF1630C0B1FC0002
:10CDDC0001FF2C65F6203C000000C023C00001FFC1
:10CDEC002023C00001FF2423C00001FF283038009D
:10CDFC00C033C00001FF1A33C00001FF1C33C00058
:10CE0C0001FF1E41F90001D94461001F2641F900C0
:10CE1C0001D9A74E7A080106F900000001D9D041CA
:10CE2C00F90001D9BB13FC00020001FE2B60124E6D
:10CE3C007A000241F90001D9C513FC00030001FE80
:10CE4C002B61001EEE41F90001D96061001EE46106
:10CE5C00001F6441F90001FE0061001FC410106145
:10CE6C00001FC84A0067DEB03C00446754B03C0069
:10CE7C004767001578B03C00536700171AB03C00A8
:10CE8C004C670017A4B03C0050670018BCB03C00C5
:10CE9C0052670019D0B03C004D67001B3EB03C00FF
:10CEAC004267001C50B03C004667001E1AB03C00A4
:10CEBC003F67001E7241F90001D97D61001E74604C
:10CECC00845248101061001F62B03C004967000199
:10CEDC004461001F4C61001F644A42661C61001FC4
:10CEEC00404A1066D020390001FE18D0BC0000006A
:10CEFC008023C00001FE1C604023C10001FE1861AC
:10CF0C00001F1E0C10002C67124A1066A8D2BC0021
:10CF1C0000008023C10001FE1C601E524861001FEE
:10CF2C000061001F1861001EF84A4267884A1066AB
:10CF3C0084528123C10001FE1C20390001FE18C05F
:10CF4C003C00F022404242612A61002F864A006672
:10CF5C0014B47C000265F023F90001FE1C0001FEF4
:10CF6C00186000FEE223C90001FE1861002F50601A
:10CF7C0000FED4200961001DC841F90001D985616A
:10CF8C00001DB045F90001FE00363C000F613C511C
:10CF9C00CBFFFC41F90001D98861001D9645F900D1
:10CFAC0001FE00363C000F101AB03C0020650CB09E
:10CFBC003C007F640661002F266008103C002E6147
:10CFCC00002F1C51CBFFE260001DDC103C002061E7
:10CFDC00002F0C4A42661EB3F90001FE18671210AE
:10CFEC003C002061002EF861002EF414C052494E12
:10CFFC0075343C0001B47C000166E4101914C06166
:10D00C00001D4EB3F90001FE1C67024E75343C0046
:10D01C00024E75524861001E0861001E204A42678C
:10D02C000623C10001FF2C10104A00674461001D4B
:10D03C00F01010B03C002C6600FE7C524861001DC4
:10D04C00E0101061001DE4B03C005366385248619A
:10D05C00001E1E4A426700FE5E4A416700FE5833BE
:10D06C00C10001FF3623FC000000000001FF30600E
:10D07C003633FC000A0001FF3623FC0000000000E0
:10D08C0001FF30602261001DB44A426700FE282374
:10D09C00C10001FF3033FC00000001FF36B2B900C3
:10D0AC0001FF2C6500FDA061226000FD9A23F900B0
:10D0BC0001FE320001FF2C33FC00010001FF36237E
:10D0CC00FC000000000001FF304E712F002F012FDB
:10D0DC00082F0933FC00000001FF3833FC0000006E
:10D0EC0001FF3A22790001FF2C33D10001FF3420DB
:10D0FC00390001FF2C61001C48610005CC3039005F
:10D10C0001FF3461001C4241F90001BA0670003283
:10D11C00300002C2790001FF34B2700000670806CB
:10D12C00800000000C60E82248D3C06100059A2002
:10D13C0069000461001BFC54790001FF3820690070
:10D14C00084E9061001C6022790001FF2CD2F9007E
:10D15C0001FF3823C90001FF2C61002D764A0066BF
:10D16C00264A790001FF36661220790001FF30B1A2
:10D17C00F90001FF2C6400FF5C600C0479000100D5
:10D18C0001FF366600FF4E225F205F221F201F4EDC
:10D19C0075303C0007610003506100052C610003F1
:10D1AC00E06100052C610003BA4E75303C0007614C
:10D1BC0000033661000512610003A86100051241ED
:10D1CC00F90001C65C61001B6A4E75303C000761BA
:10D1DC00000316610004F241F90001C65C61001BFA
:10D1EC0052610004EC6100037A4E75303C0008611A
:10D1FC000002E2610004D261000368610004D241C4
:10D20C00F90001C65F61001B2A4E75303C000D61B0
:10D21C000002EA610004B261000348610004B261DB
:10D22C0000034E4E75303C0007610002BC610004E7
:10D23C00986100032E4E756100048E610003244E2C
:10D24C00756100048441F90001C65C61001AE46157
:10D25C0000047E6100030C4E7533FC00020001FFDC
:10D26C003A61000464610003186100046461000207
:10D27C00F24E75610002AE6100044E41F90001C628
:10D28C00BE61001AAE4E7554790001FF3841F900A9
:10D29C0001C65361001A9C6100042E41F90001C6BD
:10D2AC005C61001A8E6100042841F90001C6BE6160
:10D2BC00001A804E7541F90001C65061001A746164
:10D2CC000004066100029C4E75303C0007610002B0
:10D2DC0018610003F441F90001C69561001A54610C
:10D2EC000003EE6100027C4E7541F90001C65361EA
:10D2FC00001A40610003D241F90001C6B761001A5F
:10D30C0032610003CC6100025A4E7541F90001C62E
:10D31C005361001A1E33FC00020001FF3A61000346
:10D32C00A86100023E610003A841F90001C6B76183
:10D33C00001A004E7541F90001C653610019F461E1
:10D34C0000038641F90001C6BB610019E6610003C8
:10D35C00806100020E4E7541F90001C6536100193F
:10D36C00D233FC00020001FF3A6100035C61000152
:10D37C00F26100035C41F90001C6BB610019B44EB7
:10D38C0075303C0007610001606100033C303900DE
:10D39C0001FF3408000003660841F90001C6C660AD
:10D3AC000641F90001C6CC610019884E7541F9009F
:10D3BC0001C6536100197C33FC00020001FF3A6185
:10D3CC000003066100019C6100030641F90001C6DF
:10D3DC005C6100195E4E7554790001FF38303C00D9
:10D3EC0006610000F030390001FF340800000A66C5
:10D3FC0018610002D441F90001C6D86100193461EA
:10D40C000002CE6100015C6016610002BC6100018B
:10D41C0052610002BC41F90001C6D8610019144EDA
:10D42C007541F90001C653610019086100029A6147
:10D43C000001304E75303C0007610000AC61000209
:10D44C008830390001FF3408000005660841F900F6
:10D45C0001C6E4600641F90001C6C6610018D44E4D
:10D46C007541F90001C656610018C830390001FF3A
:10D47C00340800000066126100024E6100010A616E
:10D48C0000024E6100011060106100023C6100015D
:10D49C00066100023C610000F04E75303C000861F2
:10D4AC006E61000224610000BA6100022441F9009F
:10D4BC0001C65C6100187C4E756100020C41F900DC
:10D4CC0001C6AF6100186C4E7554790001FF384EDF
:10D4DC00754E7541F90001C638610000C841F9006C
:10D4EC0001C644600000D441F90001C63C61000053
:10D4FC00B441F90001C647600000C041F90001C603
:10D50C003C610000A041F90001C64A600000AC413A
:10D51C00F90001C63C6100008C41F90001C64D6068
:10D52C0000009830390001FF34C07C00FFB03C0093
:10D53C00FF670EB03C0000671641F90001C6506051
:10D54C001A58790001FF3841F90001C656600C5495
:10D55C00790001FF3841F90001C653610017D44E20
:10D56C007530390001FF34C07C003F6000009830FA
:10D57C003C000B41F90001C6406128600000DC3022
:10D58C003C003C6000008020790001FF2C3028001A
:10D59C0002600000DC20790001FF2C3028000260C2
:10D5AC000001082F013200925030390001FF34E2A3
:10D5BC0068C0680002221F4E75B0106714B02800B6
:10D5CC0001671EB0280002672841F90001C65960A6
:10D5DC002E33FC00040001FF3A41F90001C65660ED
:10D5EC001E33FC00020001FF3A41F90001C65360F2
:10D5FC000E33FC00020001FF3A41F90001C65061F4
:10D60C000017304E752F082F012F0241F90001C170
:10D61C00DA720014301001C400B430100067080630
:10D62C00810000000860ECD1C134280002D57900DB
:10D63C0001FF380CA80001C6950004660C343900B3
:10D64C0001FF3AD5790001FF38206800046100160B
:10D65C00E2241F221F205F4E752F011200E60802E4
:10D66C00000007E709020100388001221F60962F95
:10D67C00082F012F0241F90001C242720034301010
:10D68C0002C440B4701000670806810000000860F6
:10D69C00ECD1C1206800046100169854790001FF98
:10D6AC0038241F221F205F4E752F080800000F66BC
:10D6BC000841F90001C65C600641F90001C65F61D2
:10D6CC00001670205F4E75103C0020600028101072
:10D6DC003C002C60002808003CFFFF0001C54900FD
:10D6EC0001B7F8007CFFFF0001C55B0001B7F80033
:10D6FC0000FF000001C5450001B4C00108F1F800AD
:10D70C0001C4DA0001B7F80148F1F80001C4FC00CB
:10D71C0001B7F80188F1F80001C4C90001B7F8019C
:10D72C00C8F1F80001C4EB0001B7F80100F1F800F2
:10D73C0001C34E0001B5700100F1C00001C34700E8
:10D74C0001B5700180F1F80001C32A0001B5700128
:10D75C0080F1C00001C3230001B5700140F1F80055
:10D76C0001C31C0001B5700140F1C00001C31500DC
:10D77C0001B57001C0F1F80001C33C0001B57001A6
:10D78C00C0F1C00001C3350001B570023CFFFF00C1
:10D79C0001C2B00001B7F8027CFFFF0001C2C30058
:10D7AC0001B7F80200FF000001C2AB0001B4C004D5
:10D7BC0000FF000001C5EF0001B4C00600FF00002F
:10D7CC0001C2980001B4C00800FFF80001C34E006C
:10D7DC0001B5880800FFC00001C3470001B58808E7
:10D7EC0080FFF80001C32A0001B5880880FFC00043
:10D7FC0001C3230001B5880840FFF80001C31C00D9
:10D80C0001B5880840FFC00001C3150001B58808A8
:10D81C00C0FFF80001C33C0001B58808C0FFC00080
:10D82C0001C3350001B5880A3CFFFF0001C40500A7
:10D83C0001B7F80A7CFFFF0001C4180001B7F80A11
:10D84C0000FF000001C4000001B4C00C00FF000088
:10D85C0001C3660001B4C01000F0000001C49600C2
:10D86C0001B53A2040F1C00001C4B70001B53A201F
:10D87C0000F0000001C4960001B53A3040F1C00040
:10D88C0001C4B70001B53A3000F0000001C49600A5
:10D89C0001B53A40C0FFC00001C4960001B6644017
:10D8AC0000FF000001C5350001B55442C0FFC000A7
:10D8BC0001C4960001B6184200FF000001C35900D4
:10D8CC0001B55444C0FFC00001C4960001B63A44EF
:10D8DC0000FF000001C5310001B55446C0FFC00077
:10D8EC0001C4960001B6864600FF000001C53E004B
:10D8FC0001B5544800FFC00001C52A0001B56648B7
:10D90C0040FFF80001C5FE0001B8004840FFC00010
:10D91C0001C56C0001B5664880FFF80001C44E00DB
:10D92C0001B80048C0FFF80001C4570001B8004816
:10D93C0080FB800001C4C30001B7064AFCFFFF0056
:10D94C0001C4600001B8004AC0FFC00001C6080055
:10D95C0001B5664A00FF000001C6230001B554481A
:10D96C0080FB800001C4C30001B7064E40FFF000ED
:10D97C0001C60E0001B8004E50FFF80001C474003F
:10D98C0001B7F84E58FFF80001C6270001B8004E49
:10D99C0060FFF80001C4A90001B8004E68FFF80050
:10D9AC0001C49B0001B8004E70FFFF0001C572005E
:10D9BC0001B8004E71FFFF0001C53A0001B8004EDE
:10D9CC0072FFFF0001C5D90001B7F84E73FFFF00CD
:10D9DC0001C58A0001B8004E75FFFF0001C5920019
:10D9EC0001B8004E76FFFF0001C61D0001B8004EC5
:10D9FC0077FFFF0001C58E0001B8004E7AFFFE00D4
:10DA0C0001C4BD0001B7904E80FFC00001C46C0082
:10DA1C0001B5664EC0FFC00001C4680001B5664187
:10DA2C00C0F1C00001C4700001B51A4000F0400004
:10DA3C0001C3550001B7CA54C8FFF80001C3A400C4
:10DA4C0001B5B655C8FFF80001C3A90001B5B6571A
:10DA5C00C8FFF80001C3AE0001B5B651C8FFF8000D
:10DA6C0001C3B30001B5B65CC8FFF80001C3B70031
:10DA7C0001B5B65EC8FFF80001C3BC0001B5B652D3
:10DA8C00C8FFF80001C3C10001B5B65FC8FFF800BC
:10DA9C0001C3C60001B5B653C8FFF80001C3CB00E3
:10DAAC0001B5B65DC8FFF80001C3D00001B5B65B87
:10DABC00C8FFF80001C3D50001B5B656C8FFF80081
:10DACC0001C3DA0001B5B65AC8FFF80001C3DF0084
:10DADC0001B5B650C8FFF80001C3E40001B5B65853
:10DAEC00C8FFF80001C3E80001B5B659C8FFF8003B
:10DAFC0001C3ED0001B5B654C0FFC00001C59B00C9
:10DB0C0001B5E455C0FFC00001C59F0001B5E45745
:10DB1C00C0FFC00001C5A30001B5E451C0FFC000A7
:10DB2C0001C5A70001B5E45CC0FFC00001C5AA0097
:10DB3C0001B5E45EC0FFC00001C5AE0001B5E45202
:10DB4C00C0FFC00001C5B20001B5E45FC0FFC0005A
:10DB5C0001C5B60001B5E453C0FFC00001C5BA0051
:10DB6C0001B5E45DC0FFC00001C5BE0001B5E45BBA
:10DB7C00C0FFC00001C5C20001B5E456C0FFC00023
:10DB8C0001C5C60001B5E45AC0FFC00001C5CA00FA
:10DB9C0001B5E450C0FFC00001C5CE0001B5E4588A
:10DBAC00C0FFC00001C5D10001B5E459C0FFC000E1
:10DBBC0001C5D50001B5E45000F1000001C29D0083
:10DBCC0001B5F85100F1000001C5F40001B5F8648D
:10DBDC0000FF000001C2DD0001B5A26500FF0000DE
:10DBEC0001C2E10001B5A26700FF000001C2E5001F
:10DBFC0001B5A26C00FF000001C2E90001B5A26EE4
:10DC0C0000FF000001C2ED0001B5A26200FF0000A0
:10DC1C0001C2F10001B5A26F00FF000001C2F500C6
:10DC2C0001B5A26300FF000001C2F90001B5A26DAD
:10DC3C0000FF000001C2FD0001B5A26B00FF000057
:10DC4C0001C3010001B5A26600FF000001C305007D
:10DC5C0001B5A26A00FF000001C3090001B5A2686A
:10DC6C0000FF000001C30D0001B5A26900FF000018
:10DC7C0001C3110001B5A26000FF000001C3310017
:10DC8C0001B5A26100FF000001C3430001B5A27001
:10DC9C0000F1000001C50D0001B80080C0F1C0000A
:10DCAC0001C3F70001B6DC81C0F1C00001C3F20072
:10DCBC0001B6DC8100F1F00001C5960001B6B08020
:10DCCC0000F1000001C5420001B4DA8100F100004E
:10DCDC0001C5420001B4FA9100F1300001C5F90010
:10DCEC0001B6B090C0F0C00001C5EA0001B51A90B1
:10DCFC0000F1000001C5E60001B4DA9100F100006A
:10DD0C0001C5E60001B4FAB108F1F80001C36B00DB
:10DD1C0001B800B148F1F80001C37E0001B800B1B0
:10DD2C0088F1F80001C3910001B800B0C0F0C00048
:10DD3C0001C3610001B51AB000F1000001C35D0020
:10DD4C0001B4DAB100F1000001C3FC0001B4FAC166
:10DD5C0000F1F00001C28A0001B6B0C140F1F80038
:10DD6C0001C42A0001B800C148F1F80001C4360012
:10DD7C0001B800C188F1F80001C4420001B800C02C
:10DD8C00C0F1C00001C5250001B6DCC1C0F1C00066
:10DD9C0001C5200001B6DCC000F1000001C2A700E3
:10DDAC0001B4DAC100F1000001C2A70001B4FAD13C
:10DDBC0000F1300001C2A20001B6B0D0C0F0C0002A
:10DDCC0001C2930001B51AD000F1000001C28F000E
:10DDDC0001B4DAD100F1000001C28F0001B4FAE005
:10DDEC00C0FFC00001C2D90001B750E1C0FFC000A4
:10DDFC0001C2D50001B750E2C0FFC00001C49200BF
:10DE0C0001B750E3C0FFC00001C48E0001B750E45D
:10DE1C00C0FFC00001C5850001B750E5C0FFC000C0
:10DE2C0001C5800001B750E6C0FFC00001C57C00F1
:10DE3C0001B750E7C0FFC00001C5780001B750E042
:10DE4C0000F1180001C2D90001B764E100F118001B
:10DE5C0001C2D50001B764E008F1180001C49200BA
:10DE6C0001B764E108F1180001C48E0001B764E049
:10DE7C0010F1180001C5850001B764E110F118001C
:10DE8C0001C5800001B764E018F1180001C57C00E1
:10DE9C0001B764E118F1180001C5780001B76400FE
:10DEAC000000000001C62F0001B7E8003800000098
:10DEBC0001C65C083800000001C65F103800000085
:10DECC0001C662183800000001C667203800000047
:10DEDC0001C66D283800020001C6733038000200FC
:10DEEC0001C67B383F00020001C685393F000400A3
:10DEFC0001C68D3C3F00000001C6953A3F00020070
:10DF0C0001C69D3B3F00020001C6A50000000000B9
:10DF1C0001C6AF00000FFF0001C6EF00010FFF00AC
:10DF2C0001C6F300020FFF0001C6F708000FFF0047
:10DF3C0001C6FC08010FFF0001C70008020FFF001B
:10DF4C0001C70408030FFF0001C70908040FFF00F5
:10DF5C0001C70D000000000001C7114142434400FD
:10DF6C00414444004144444100414444490041443B
:10DF7C004451004144445800414E4400414E4449F0
:10DF8C0000414E44492E4220233C646174613E2C76
:10DF9C0043435200414E44492E5720233C64617444
:10DFAC00613E2C53520041534C00415352004243AA
:10DFBC00430042435300424551004247450042470B
:10DFCC00540042484900424C4500424C5300424CDC
:10DFDC005400424D4900424E450042504C004256BE
:10DFEC00430042565300424348472E4200424348A6
:10DFFC00472E4C0042434C522E420042434C522E70
:10E00C004C0042524100425345542E42004253456B
:10E01C00542E4C0042535200425453542E42004250
:10E02C005453542E4C0043484B00434C5200434D28
:10E03C005000434D504100434D504900434D504D0D
:10E04C002E422028416E292B2C28416E292B00436F
:10E05C004D504D2E572028416E292B2C28416E29CE
:10E06C002B00434D504D2E4C2028416E292B2C2833
:10E07C00416E292B00444243430044424353004425
:10E08C004245510044424600444247450044424701
:10E09C005400444248490044424C450044424C53CD
:10E0AC000044424C540044424D490044424E450009
:10E0BC004442504C004442540044425643004442B3
:10E0CC0056530044495653004449565500454F5247
:10E0DC0000454F524900454F52492E4220233C6483
:10E0EC006174613E2C43435200454F52492E5720D8
:10E0FC00233C646174613E2C5352004558472E4CAE
:10E10C0020446E2C446E004558472E4C20416E2CFA
:10E11C00416E004558472E4C20446E2C416E0045F4
:10E12C0058542E5720446E004558542E4C20446EA3
:10E13C0000494C4C4547414C004A4D50004A535203
:10E14C00004C4541004C494E4B2E5720416E2C2320
:10E15C003C647369706C6163656D656E743E004CF4
:10E16C00534C004C5352004D4F5645004D4F5645A5
:10E17C002E4C205553502C416E004D4F56452E4C75
:10E18C0020416E2C555350004D4F564541004D4F7C
:10E19C00564543004D4F56454D004D4F5645502E5C
:10E1AC005720446E2C6428416E29004D4F56455023
:10E1BC002E57206428416E292C446E004D4F564535
:10E1CC00502E4C20446E2C6428416E29004D4F5625
:10E1DC0045502E4C206428416E292C446E004D4F26
:10E1EC005645512E4C20233C646174613E2C446E88
:10E1FC00004D554C53004D554C55004E4243442E4A
:10E20C0042004E4547004E454758004E4F50004E79
:10E21C004F54004F52004F5249004F52492E42204A
:10E22C00233C646174613E2C434352004F52492E8F
:10E23C005720233C646174613E2C5352005045417D
:10E24C002E4C00524553455400524F4C00524F52E5
:10E25C0000524F584C00524F5852005254450052E5
:10E26C00545200525453005342434400534343000E
:10E27C0053435300534551005346005347450053F5
:10E28C0047540053484900534C4500534C530053DA
:10E29C004C5400534D4900534E450053504C0053C1
:10E2AC005400535643005356530053544F5020239D
:10E2BC003C646174613E0053554200535542410029
:10E2CC00535542490053554251005355425800533F
:10E2DC005741502E5720446E005441532E42005447
:10E2EC0052415020233C766563746F723E00545249
:10E2FC004150560054535400554E4C4B20416E0027
:10E30C00556E6B6E6F776E0000000000010001000F
:10E31C00030005003F01000002010002030102039B
:10E32C00032E42002E57002E4C002E5800446E0037
:10E33C00416E0028416E290028416E292B002D28A2
:10E34C00416E290064313628416E29006438284119
:10E35C006E2C586E290028787878292E570028784A
:10E36C007878292E4C00233C646174613E00643142
:10E37C0036285043290064382850432C586E290005
:10E38C00556E6B6E6F776E00434352005352003CD8
:10E39C006C6162656C3E00446E2C446E002D28410D
:10E3AC006E292C2D28416E2900446E2D446E2F4170
:10E3BC006E2D416E00233C646174613E2C446E00F2
:10E3CC005346430044464300434143520055535087
:10E3DC00005642520043414152004D5350004953A4
:10E3EC005000556E6B6E6F776E0000524861000ADC
:10E3FC003061000A482601280213FC00000001FFCE
:10E40C001810104A00672EB03C002C6600EAA85287
:10E41C004861000A0C61000A244A426700EA98230A
:10E42C00C10001FF28204133D00001FF1E13FC0066
:10E43C00010001FF18610007B84A44670623C300B6
:10E44C0001FE3230390001FE7E0800000C66060227
:10E45C007CEFFF6004007C100020390001FE76C0C8
:10E46C00BCFFFFFFFE4E7B080420390001FE7AC082
:10E47C00BCFFFFFFFE4E7B08034A390001FE2B67F1
:10E48C000000EE3F3C00000C7980000001FF0267A9
:10E49C000000DE20390001FE80C0BCFFFFFFFE4EF5
:10E4AC007B080110390001FE84020000074E7B003E
:10E4BC000010390001FE85020000074E7B00010CA4
:10E4CC007990000001FF02670000A620390001FED0
:10E4DC008A4E7B080220390001FE86028000003F34
:10E4EC001F4E7B00020C79A0000001FF02670000A8
:10E4FC008002B9FFFF00030001FE8E02B9FFFFFF8F
:10E50C00F00001FE92F0394C000001FE8E02B9FFC2
:10E51C00FF00030001FE9602B9FFFFFFF00001FEB1
:10E52C009AF03948000001FE9602B983FFFFFF0004
:10E53C0001FE9EF03940000001FE9E02B9FFFF87EC
:10E54C00770001FEA2F03908000001FEA202B9FF1B
:10E55C00FF87770001FEA6F0390C000001FEA60231
:10E56C0079EE470001FEAAF03960000001FEAA2FE7
:10E57C00390001FE320279F71F0001FE7E3F39009F
:10E58C0001FE7E20790001FE724E604CF97FFF0087
:10E59C0001FE364E735248610008866100089E6188
:10E5AC0000087E4A106600E90E22414A42660622A5
:10E5BC00790001FE2420096100078641F90001D988
:10E5CC00886100076E101161000786103C00206105
:10E5DC0000190C610007E041F90001FE0061000820
:10E5EC00401010660A524923C90001FE2460C6B0CF
:10E5FC003C002D660A534923C90001FE2460B6B0C5
:10E60C003C002E660A23C90001FE246000E8386134
:10E61C0000082A4A426700E89E12C123C90001FE85
:10E62C00246100064A608E5248610007F4610008BC
:10E63C000C610007EC4A106600E87C6100065E4A3B
:10E64C00426602428161001876610007DEB03C0030
:10E65C005367000084B03C003A6712B03C000D6771
:10E66C00E4B03C000A67DE6100185460EE610007FC
:10E67C0000424214001600610006F642841800D6CF
:10E68C0000610006ECE14C1800D600D881224461F0
:10E69C000006DE13C00001FE2AD6004A426716535C
:10E6AC0042610006CCD6004A390001FE2A660212ED
:10E6BC00C051CAFFEE610006B8D600660C4A39009C
:10E6CC0001FE2A67A26000E77E41F90001D963616F
:10E6DC000006606000E770610017E413C00001FEE3
:10E6EC002A6100068C424214001600610006824228
:10E6FC00841800D60061000678E18C1800D600D88A
:10E70C0081224457426718534261000664D6000CBC
:10E71C003900310001FE2A660212C051CAFFEC61B9
:10E72C0000064ED600B63C00FF660E0C39003900D0
:10E73C0001FE2A670E6000FF3041F90001D97061BB
:10E74C000005F06000E70052481010610006DCB0D4
:10E75C003C00496706B03C00536608524813C000A1
:10E76C0001FE29610006BA610006D24A426700E741
:10E77C00462241610006AA0C18002C6600E738619D
:10E78C0000069E610006B64A426700E72A61000651
:10E79C00904A106600E72092895241612A4A8166AC
:10E7AC00FA0C3900490001FE29660E41F90001D925
:10E7BC008C6100057E6000E68E41F90001D99A61FA
:10E7CC000005706000E6807410B28264022401922D
:10E7DC00820C3900490001FE296642103C003A6166
:10E7EC000016FC10021602610005662009E048D6EE
:10E7FC00006100055C2009D60061000554420061EF
:10E80C0000054E53421019D6006100054451CAFF51
:10E81C00F610034400610005386000058A103C00C6
:10E82C0053610016BA103C0031610016B21002564A
:10E83C000016006100051A2009E088D60061000569
:10E84C00102009D6006100050853421019D600614A
:10E85C000004FE51CAFFF610034600610004F2608A
:10E86C0000054452481010B03C0030660A33FC805E
:10E87C00000001FF02603EB03C0031660A33FC90A0
:10E88C00000001FF02602EB03C0032660A33FCA08F
:10E89C00000001FF02601EB03C0033660A33FCB07E
:10E8AC00000001FF02600E6100057610106100058A
:10E8BC007A4A006608610000C46000E58A43F900EA
:10E8CC0001DCE4B01167104A290001670000AAD3EB
:10E8DC00FC0000000A60EC0C29000F0001660E22FF
:10E8EC00690002524810106100054060D6162900DC
:10E8FC000167000084B6390001FF02647A4A3900CE
:10E90C0001FE2B67722069000661000426103C0092
:10E91C003D610015CA24690002C63C0007B63C00E4
:10E92C000166081012610004286014B63C000266EF
:10E93C0008301261000412600620126100040210FB
:10E94C003C0020610015986100046C41F90001FE47
:10E95C0000610004CC610004E44A426716B63C0036
:10E96C000166041481600CB63C00026604348160BC
:10E97C000224816000E4D06000E53C43F90001DB37
:10E98C0014321967000420B2790001FF02640004FC
:10E99C00164A390001FE2B6700040C205961000354
:10E9AC00922059C27C0003B27C00016608101061F1
:10E9BC0000039E60CCB27C0002660830106100033C
:10E9CC008860BEB27C000366082010610003726090
:10E9DC00B04E906100035C60A852481010610004B6
:10E9EC004A4A0067000080B03C0054662A524861D5
:10E9FC0000044A4A426700E4BEB2BC000000036453
:10EA0C0000E4B4E149ED4902793FFF0001FE7E8349
:10EA1C00790001FE7E604EB03C0053660A0A7920F4
:10EA2C00000001FE7E603EB03C004D660A0A791083
:10EA3C00000001FE7E602EB03C00496600E4785276
:10EA4C0048610003F84A426700E46CB2BC00000065
:10EA5C00086400E462E1490279F8FF0001FE7E835C
:10EA6C00790001FE7E41F90001CDFE610002C46116
:10EA7C000C610002BE6100032E6000E3CA2F002F60
:10EA8C00012F092F0A30390001FE7E123C00104183
:10EA9C00F90001FF0443F90001CE0245F90001CE53
:10EAAC0012E348650A10DAD3FC000000016008107C
:10EABC00D9D5FC00000001923C00014A0166E241FC
:10EACC00F90001FF04245F225F221F201F4E7553A3
:10EADC00523D005454534D2E4949492E2E2E584E1A
:10EAEC005A56432E2E2E2E2E2E2E2E2E2E2E2E2ED1
:10EAFC002E2E2E52481010610003304A0067000081
:10EB0C00ACB03C0054670001B4B03C00316710B0AD
:10EB1C003C0032671EB03C004367566000E39843EC
:10EB2C00F90001FF2045F90001FF1A47F90001FF28
:10EB3C0016601243F90001FF2445F90001FF1C4740
:10EB4C00F90001FF175248610002D61010B03C00CA
:10EB5C002C6600E3625248610002C6610002DE4A84
:10EB6C00426700E35222812041349016BC000160C0
:10EB7C003A524810104A00672043F90001FF16B0C2
:10EB8C003C0031670E43F90001FF17B03C003266C0
:10EB9C0000E32412BC00006012103C000013C00003
:10EBAC0001FF1613C00001FF174E714A390001FF17
:10EBBC0016671841F90001CFDC610001762039009D
:10EBCC0001FF206100017A610001DC4A390001FF7C
:10EBDC0017671841F90001CFE36100015620390095
:10EBEC0001FF246100015A610001BC6000E2582F52
:10EBFC00084A390001FF16670A20790001FF20300E
:10EC0C00BC4AFC4A390001FF17670A20790001FF52
:10EC1C002430BC4AFC4A390001FF18670A207900ED
:10EC2C0001FF2830BC4AFC205F4E752F084A390082
:10EC3C0001FF16670C20790001FF2030B90001FF9D
:10EC4C001A4A390001FF17670C20790001FF2430A4
:10EC5C00B90001FF1C4A390001FF18670C2079002C
:10EC6C0001FF2830B90001FF1E205F4E752F084AA6
:10EC7C00390001FF16670C20790001FF2033D0000A
:10EC8C0001FF1A4A390001FF17670C20790001FFB8
:10EC9C002433D00001FF1C205F4E7513FC000000D4
:10ECAC0001FF1613FC00000001FF174E754250289F
:10ECBC0031293A0042502832293A002E780000209F
:10ECCC007800044ED05248610001566100016E4A32
:10ECDC00426700E1E22241610001461010B03C00A5
:10ECEC002C6600E1D25248610001366100014E4AA7
:10ECFC00426700E1C22441610001261010B03C00C3
:10ED0C002C6600E1B25248610001166100012E4AE6
:10ED1C00426700E1A22601B5C9650612C3B5C964F4
:10ED2C00FA6000E12241F90001D78A61046000E138
:10ED3C001610184A006706610011A460F44E752F76
:10ED4C000048406102201F2F00E0586102201F2F55
:10ED5C0000E8186102201FC03C000FD03C0030B00E
:10ED6C003C003A65001178D07C00076000117042BD
:10ED7C00006102E9083F0061001144610000ACB081
:10ED8C003C0030651CB03C003A6510B03C0041655D
:10ED9C0010B03C0047640A903C0007903C00308067
:10EDAC0057544F4E75103C000D61001132103C0051
:10EDBC000A6000112A41F90001FE004201610010B5
:10EDCC00FEB03C000D6750B03C000A674AB03C00F6
:10EDDC00086722B03C007F671CB03C002065DEB0A9
:10EDEC003C008064D8B23C001764D2520110C06160
:10EDFC000010EC60C84A0167C453885301103C00F2
:10EE0C0008610010DA103C0020610010D2103C00A8
:10EE1C0008610010CA60A6618C10BC00004E750C15
:10EE2C0018002067FA53884E75B03C0061650AB033
:10EE3C003C007B6404D03C00E04E754242428110A1
:10EE4C001061E6B03C00306524B03C003A6510B06F
:10EE5C003C00416518B03C00476412903C000790A0
:10EE6C003C0030E98982005248524260D24E7542D1
:10EE7C00424281101061B2B03C0030651EB03C00C3
:10EE8C003A6418903C0030488048C04C3C1001005B
:10EE9C0000000AD2805248524260D84E754E7323FD
:10EEAC00FC0001D9E00001FE2C42790001FE30602B
:10EEBC000002A423FC0001D9EA0001FE2C427900D7
:10EECC0001FE30600002900CAF0001B142000266FE
:10EEDC000C5C4F42390001FE2B6000DF660CAF006A
:10EEEC0001B14600026606504F6000DF440CAF00D3
:10EEFC0001B15E00026614504F41F90001D9B11303
:10EF0C00FC00010001FE2B6000DF3848F97FFF0098
:10EF1C0001FE3623FC0001D9F80001FE2C33FC0065
:10EF2C00010001FE30206F00023010B07C4AFC67FB
:10EF3C000CC07CFFF8B07C48486600022223FC0021
:10EF4C0001DB0D0001FE2C33FC01010001FE3060E1
:10EF5C0000020C23FC0001DA0C0001FE2C33FC0037
:10EF6C00020001FE30600001EE23FC0001DA180003
:10EF7C0001FE2C33FC00020001FE30600001D8239E
:10EF8C00FC0001DA280001FE2C33FC00020001FE1B
:10EF9C0030600001C223FC0001DA3A0001FE2C3380
:10EFAC00FC00010001FE30600001AC23FC0001DA22
:10EFBC004E0001FE2C33FC00010001FE306000010C
:10EFCC009623FC0001DA540001FE2C33FC000100F6
:10EFDC0001FE306000018023FC0001DA670001FEB5
:10EFEC002C33FC00010001FE306000016A23FC00A0
:10EFFC0001DA7A0001FE2C33FC00010001FE3060C6
:10F00C0000015423FC0001DA870001FE2C33FC00C4
:10F01C00020001FE306000013E23FC0001DA8F008B
:10F02C0001FE2C33FC00020001FE3060000128239D
:10F03C00FC0001DA970001FE2C33FC00020001FEFB
:10F04C00306000011223FC0001DA9F0001FE2C331A
:10F05C00FC00020001FE30600000FC23FC0001DA21
:10F06C00A70001FE2C33FC00020001FE3060000002
:10F07C00E623FC0001DAAF0001FE2C33FC00020099
:10F08C0001FE30600000D023FC0001DAB70001FE65
:10F09C002C33FC00020001FE30600000BA23FC009F
:10F0AC0001DABF0001FE2C33FC00020001FE3060CF
:10F0BC000000A423FC0001DAC70001FE2C33FC0085
:10F0CC00020001FE306000008E23FC0001DACF004C
:10F0DC0001FE2C33FC00020001FE30607823FC00A2
:10F0EC0001DAD70001FE2C33FC00020001FE306077
:10F0FC006423FC0001DAE00001FE2C33FC0002006A
:10F10C0001FE30605023FC0001DAE90001FE2C33D3
:10F11C00FC00020001FE30603C23FC0001DAF2002E
:10F12C0001FE2C33FC00020001FE30602823FC00A1
:10F13C0001DAFB0001FE2C33FC00020001FE306002
:10F14C001423FC0001DB040001FE2C33FC00020044
:10F15C0001FE304E7148F97FFF0001FE364A7900FE
:10F16C0001FE3066144A390001FE2B660C41F90091
:10F17C0001FEAC30DF20DF30DF33DF0001FE7E2309
:10F18C00DF0001FE324E6823C80001FE724A3900CE
:10F19C0001FE2B670000904E7A080123C00001FE8F
:10F1AC00804E7A000013C00001FE844E7A000113D9
:10F1BC00C00001FE854E7A000223C00001FE864E7F
:10F1CC007A080223C00001FE8AF0394E000001FECD
:10F1DC008EF0394A000001FE96F03942000001FE23
:10F1EC009EF0390A000001FEA2F0390E000001FE6B
:10F1FC00A6F03962000001FEAA341F33C20001FFE1
:10F20C0000E95AC47C000F41F90001FEAC43F9003F
:10F21C0001E1DA424316312000594363085343306D
:10F22C00DF51CBFFFC4E7A080423C00001FE764E62
:10F23C007A080323C00001FE7A6100F9F0207900FE
:10F24C0001FE2C6100FAEC6100FB5C4A790001FEC6
:10F25C00306602610C6100F7246100DE526000DB55
:10F26C00E64A390001FE2B666230390001FEACC063
:10F27C007C0007E54841F90001E0D02070300061C6
:10F28C0000FAB030390001FEACC07C0010660841B9
:10F29C00F90001E17C600641F90001E1836100FAAB
:10F2AC009220390001FEAE6100FA9641F90001E1AD
:10F2BC00896100FA7E30390001FEB26100FA8A10D1
:10F2CC003C002961000C186000FADC36390001FFA3
:10F2DC0000E95BC67C000FB67C0008660000DE30DF
:10F2EC00390001FEACC07C0007E54841F90001E0A3
:10F2FC00F0207000006100FA3A41F90001E1A961C7
:10F30C0000FA3030390001FEAC08000008660841F4
:10F31C00F90001E17C600641F90001E1836100FA2A
:10F32C001230390001FEAC08000009670841F900F1
:10F33C0001E192600641F90001E1986100F9F441A4
:10F34C00F90001E1A330390001FEAC0800000866A9
:10F35C002C08000009671632390001FEB4080000C1
:10F36C000A6702E04910016100F9E6600A303900D1
:10F37C0001FEB46100F9D241F90001E19E6100F98E
:10F38C00B220390001FEAE6100F9B630390001FE41
:10F39C00AC0800000D670A41F90001E1B06100F909
:10F3AC009230390001FEAC0800000B670A41F900ED
:10F3BC0001E1C56100F97C6000F9ECB67C000A67DC
:10F3CC0006B67C000B4E7130390001FE7E6100F9EF
:10F3DC0078103C002061000B0630390001FE3261D0
:10F3EC0000F966103C002061000AF430390001FE7F
:10F3FC00346100F954103C002061000AE2303900FD
:10F40C0001FF006100F942103C002061000AD0426B
:10F41C004241F90001E1DA36390001FF00E95BC62F
:10F42C007C000F14303000760441F90001FEAC3042
:10F43C00186100F9145243B4436318303C000FC0F8
:10F44C004366066100F96060E6103C002061000A2A
:10F45C008E60DC6000F950F00006CF3F203A436F1D
:10F46C006D6D616E642048656C700D0A425B2831CD
:10F47C007C32292C3C6164723E5D203A53657420C9
:10F48C006F72204C69737420427265616B20506FEF
:10F49C00696E740D0A42435B317C325D203A436CD9
:10F4AC0065617220427265616B20506F696E740DDC
:10F4BC000A4254203A526573657420426F6F740D82
:10F4CC000A445B3C6164723E5D203A44756D702069
:10F4DC004D656D6F72790D0A44495B3C6164723EF7
:10F4EC005D5B2C733C73746570733E7C3C61647221
:10F4FC003E5D203A4D696E69204469736173736592
:10F50C006D626C650D0A463C6164723E2C3C656E06
:10F51C0064206164723E2C3C76616C75653E203AC9
:10F52C0046696C6C204D656D6F72792842797465F3
:10F53C00290D0A475B3C6164723E5D5B2C3C737425
:10F54C006F70206164723E5D203A476F20616E647B
:10F55C002053746F700D0A4C5B3C6F666673657458
:10F56C003E5D203A4C6F61642048657846696C6555
:10F57C000D0A4D5B5428302D32297C537C4D7C492F
:10F58C0028302D37295D203A4D6F64652853522061
:10F59C0053797374656D2042797465290D0A50286E
:10F5AC00497C53293C6164722C6164723E203A534D
:10F5BC006176652048657846696C6528493A496EDC
:10F5CC0074656C2C533A4D6F746F726F6C61290DAE
:10F5DC000A525B3C7265673E7C28302D33295D20D6
:10F5EC003A536574206F722044756D7020526567B4
:10F5FC006973746572284C6576656C290D0A535BCA
:10F60C003C6164723E5D203A536574204D656D6FAC
:10F61C0072790D0A000D0A556E6976657273616C0C
:10F62C00204D6F6E69746F722036383030300D0A91
:10F63C00005D20004572726F7220696865780D0A52
:10F64C00004572726F7220737265630D0A00457209
:10F65C00726F720D0A00203A00203A20003A3030C6
:10F66C0030303030303146460D0A005339303330AB
:10F67C0030303046430D0A004D4336383030300DB3
:10F68C000A004D4336383031300D0A004D433638C0
:10F69C003032300D0A004D4336383033300D0A000D
:10F6AC00FF000000000001D78600000000000000F1
:10F6BC0000427573204572726F720041646472650A
:10F6CC007373204572726F7200496C6C6567616C64
:10F6DC0020496E737472756374696F6E005A65722B
:10F6EC006F204469766964650043484B20496E730A
:10F6FC007472756374696F6E005452415056204990
:10F70C006E737472756374696F6E0050726976698A
:10F71C006C6567652056696F6C6174696F6E005417
:10F72C0072616365004C696E652031303130204563
:10F73C006D756C61746F72004C696E65203131317E
:10F74C003120456D756C61746F7200466F726D611E
:10F75C0074204572726F7200545241502023300055
:10F76C005452415020233100545241502023320036
:10F77C005452415020233300545241502023340022
:10F78C00545241502023350054524150202336000E
:10F79C0054524150202337005452415020233800FA
:10F7AC0054524150202339005452415020233130BF
:10F7BC0000545241502023313100545241502023E7
:10F7CC0031320054524150202331330054524150B5
:10F7DC002023313400545241502023313500425201
:10F7EC0045414B00FF00030001DC600001FE3600C8
:10F7FC00030001DCDE0001FE3A00030001DCDE0048
:10F80C0001FE3E00030001DCDE0001FE42000300AD
:10F81C0001DCE00001FE4600030001DCDE0001FE1D
:10F82C004A00030001DCDE0001FE4E00030001DC97
:10F83C00DE0001FE5200030001DC670001FE5600F1
:10F84C00030001DCDE0001FE5A00030001DCDE00D7
:10F85C0001FE5E00030001DCDE0001FE620003001D
:10F86C0001DCE00001FE6600030001DCDE0001FEAD
:10F87C006A00030001DCDE0001FE6E00030001DC07
:10F88C00DE0001FE7200030001DC700001FE32009C
:10F89C00030001DC760001FE7600030001DC7C0035
:10F8AC0001FE7A00040001DC820001CDAC80030073
:10F8BC0001DC870001FE8080010001DC8E0001FE6E
:10F8CC008480010001DC940001FE8590030001DCC2
:10F8DC009A0001FE8690030001DCA10001FE8AA0C3
:10F8EC00030001DCA80001FE8EA0030001DCB400C3
:10F8FC0001FE92A0030001DCB60001FE9EA00300F5
:10F90C0001DCBB0001FEA2A0030001DCC10001FE72
:10F91C0096A0030001DCCD0001FE9AA0020001DCE0
:10F92C00CF0001FEAAA0030001DCD70001FEA60057
:10F93C000044302D44373D000D0A41302D41373DF8
:10F94C00000D0A50433D00204953503D00204D53BB
:10F95C00503D002053523D000D0A5642523D0020AE
:10F96C005346433D00204446433D0020434143520F
:10F97C003D0020434141523D000D0A43525028485E
:10F98C002F4C293D002F002054433D00205454306F
:10F99C003D000D0A53525028482F4C293D002F0092
:10F9AC00204D4D5553523D0020205454313D002CD8
:10F9BC00002C2000FF410F0001DD48000000004337
:10F9CC000F0001DDA200000000440F0001DDCA00A1
:10F9DC00000000490F0001DE2E000000004D0F005A
:10F9EC0001DE4200000000500F0001DE600000004C
:10F9FC0000530F0001DE7400000000540F0001DE04
:10FA0C009200000000560F0001DEB0000000000064
:10FA1C0000000000000000000030030001FE560052
:10FA2C0001E04A31030001FE5A0001E04D320300AF
:10FA3C0001FE5E0001E05033030001FE620001E0B4
:10FA4C005334030001FE660001E05635030001FE4D
:10FA5C006A0001E05936030001FE6E0001E05C37DC
:10FA6C00030001FE720001E05F00000000000000D6
:10FA7C00000000410F0001DEC400000000430F0035
:10FA8C0001DEE200000000520F0001DEF600000073
:10FA9C00000000000000000000000030030001FE28
:10FAAC00360001E07E31030001FE3A0001E08132B4
:10FABC00030001FE3E0001E08433030001FE42001E
:10FACC0001E08734030001FE460001E08A350300A3
:10FADC0001FE4A0001E08D36030001FE4E0001E0FC
:10FAEC009037030001FE520001E093460F0001DF46
:10FAFC000A0000000000000000000000000000539D
:10FB0C000F0001DF1E0000000000000000000000DC
:10FB1C00000000530F0001DF46000000004D0F00F5
:10FB2C0001DF3200000000000000000000000000B7
:10FB3C000043030001FE320001E0A80000000000B9
:10FB4C000000000000460F0001DF5A0000000052C8
:10FB5C000F0001DF6E00000000000000000000003C
:10FB6C0000000043A30001FE9E0001E0C0540F0002
:10FB7C0001DF8C000000000000000000000000000D
:10FB8C0000420F0001DFAA0000000000000000008E
:10FB9C000000000000410F0001DFBE000000004328
:10FBAC000F0001DFD2000000000000000000000088
:10FBBC0000000052010001FE7F0001E06C0000001B
:10FBCC0000000000000000500F0001DFE600000004
:10FBDC00000000000000000000000043810001FE56
:10FBEC00850001E0960000000000000000000050BD
:10FBFC00030001FE760001E09A0000000000000006
:10FC0C00000000550F0001E004000000000000009F
:10FC1C000000000000000050030001FE7A0001E02B
:10FC2C00A40000000000000000000043810001FE61
:10FC3C00840001E0AB0000000000000000000000A8
:10FC4C00020001FE7E0001E0AF500F0001E0180041
:10FC5C000000000000000000000000000030A300C5
:10FC6C0001FEA20001E0C331A30001FEA60001E0E9
:10FC7C00C70000000000000000000052830001FEDD
:10FC8C00800001E0CB0000000000000000000052EA
:10FC9C00930001FE8A0001E06200000000000000F9
:10FCAC0000000052930001FE860001E06700000096
:10FCBC000000000000000048A30001FE8E0001E0DF
:10FCCC00704CA30001FE920001E0770000000000E0
:10FCDC000000000000530F0001E03600000000009F
:10FCEC0000000000000000000048A30001FE960088
:10FCFC0001E0B24CA30001FE9A0001E0B900000043
:10FD0C000000000000000052A20001FEAA0001E069
:10FD1C009E00000000000000000000413000413156
:10FD2C00004132004133004134004135004136007E
:10FD3C004137004341415200434143520043435237
:10FD4C000043525028482900435250284C29004463
:10FD5C003000443100443200443300443400443514
:10FD6C000044360044370044464300495350004D8C
:10FD7C004D555352004D53500050430053464300D1
:10FD8C0053520053525028482900535250284C29A2
:10FD9C000054430054543000545431005642520025
:10FDAC00000001E1100001E1160001E1210001E178
:10FDBC002F0001E1350001E13B0001E14C0001E1C4
:10FDCC00600001E1100001E1160001E1210001E1F8
:10FDDC002F0001E1350001E13B0001E14C0001E1A4
:10FDEC007746433D30200055736572204461746141
:10FDFC002000557365722050726F6772616D200020
:10FE0C0046433D33200046433D3420005375706516
:10FE1C00727669736F72204461746120005375703F
:10FE2C0065727669736F722050726F6772616D20A4
:10FE3C0000496E746572727570742041636B6E6FDD
:10FE4C00776C6564676520004350552000577269D4
:10FE5C0074652000526561642000202028496E736F
:10FE6C00743D00427974652000576F726420002045
:10FE7C00746F200066726F6D200053706163652093
:10FE8C00002028496E737472756374696F6E204616
:10FE9C00657463682900202852656164204D6F6485
:10FEAC00696679205772697465290004040606088E
:10FEBC0000001E1D0A102E0C0000114E751039404A
:10FECC00000001C03C000167F41039400000004EF6
:10FEDC0075103940000001C03C00014E75484010BF
:10FEEC003940000001C03C000267F4484013C04098
:10FEFC000000004E75FFFFFFFFFFFFFFFFFFFFFF3E
:10FF0C00FFFFFFFFFFFFFFFFFFFFFFFFFFFFFFFFF5
:10FF1C00FFFFFFFFFFFFFFFFFFFFFFFFFFFFFFFFE5
:10FF2C00FFFFFFFFFFFFFFFFFFFFFFFFFFFFFFFFD5
:10FF3C00FFFFFFFFFFFFFFFFFFFFFFFFFFFFFFFFC5
:10FF4C00FFFFFFFFFFFFFFFFFFFFFFFFFFFFFFFFB5
:10FF5C00FFFFFFFFFFFFFFFFFFFFFFFFFFFFFFFFA5
:10FF6C00FFFFFFFFFFFFFFFFFFFFFFFFFFFFFFFF95
:10FF7C00FFFFFFFFFFFFFFFFFFFFFFFFFFFFFFFF85
:10FF8C00FFFFFFFFFFFFFFFFFFFFFFFFFFFFFFFF75
:10FF9C00FFFFFFFFFFFFFFFFFFFFFFFFFFFFFFFF65
:10FFAC00FFFFFFFFFFFFFFFFFFFFFFFFFFFFFFFF55
:10FFBC00FFFFFFFFFFFFFFFFFFFFFFFFFFFFFFFF45
:10FFCC00FFFFFFFFFFFFFFFFFFFFFFFFFFFFFFFF35
:10FFDC00FF0D0A4D455A363830333052414D2025ED
:10FFEC00322E33664D487A0D0A00696E66006E61DA
:03FFFC006E000094
:020000040001F9
:10000000000E926F6CC593F56DC594F56EC595F5B0
:100010006FC596F596AF14D0010E926F93C506F595
:1000200094C507F595C508F596C509F5C0EC90F09F
:1000300006C593F507C594F508C595F509C596F568
:10004000000E986F000E976FC8C582F5C9C583F57D
:100050009251D8B40DD09251D8A404D0000E786F2C
:100060002B0E03D0000E786F2D0E776F77C592F5AB
:1000700093C506F594C507F595C508F596C509F528
:1000800095EC8DF006040710D8A42CD005019251F0
:10009000D8B409D092C580F68207D8A08307000E95
:1000A000986F010E976F800E9725066E060E9821A9
:1000B000076EF60E086EFF0E096EA7EC90F0FD0EAF
:1000C0008227FF0E83236AC517F56BC518F5800ECE
:1000D000196E060E1A6E82C51BF583C51CF549EC18
:1000E0008FF0120093C506F594C507F595C508F580
:1000F00096C509F595EC8DF006500710D8A41AD0D6
:1001000005019251D8B409D092C580F68207D8A0D3
:100110008307000E986F010E976F800E9725066E6D
:10012000060E9821076EFA0E086EFF0E096EA7ECF8
:1001300090F0C5D7000E0501996F000E9A6F800EE2
:100140009B6F3F0E9C6F000E816F000E806F93C5FA
:1001500006F594C507F595C508F596C509F5000E91
:100160000A6E000E0B6E000E0C6E000E0D6E04EC8F
:100170008FF0D8A00CD0BED084C599F585C59AF56E
:1001800086C59BF587C59CF50501804B812B99C5DC
:1001900014F59AC515F59BC516F59CC517F5000E07
:1001A000186E000E196E200E1A6E410E1B6E49EC71
:1001B00086F014C584F515C585F516C586F517C5F1
:1001C00087F505018451935D066E85519459076E3C
:1001D00086519559086E87519659096E00EC90F03A
:1001E00009BECAD709500810071004E1020E065CC8
:1001F000D8A0C2D784C52DF585C52EF586C52FF5A7
:1002000087C530F593C531F594C532F595C533F5FD
:1002100096C534F52DEC8DF0D8A0AED705019951D7
:10022000935D066E9A519459076E9B519559086ECD
:100230009C519659096E00EC90F009BE08D0095007
:100240000810071043E1020E065CD8B03FD099C5F4
:1002500093F59AC594F59BC595F59CC596F54AD03E
:1002600099C52DF59AC52EF59BC52FF59CC530F582
:10027000000E316E000E326E200E336E410E346E63
:1002800065EC89F02DC599F52EC59AF52FC59BF51E
:1002900030C59CF505018007D8A081079951935D71
:1002A000066E9A519459076E9B519559086E9C5150
:1002B0009659096E00EC90F009BEC9D70950081094
:1002C000071004E1020E065CD8A0C1D793C52DF536
:1002D00094C52EF595C52FF596C530F599C531F520
:1002E0009AC532F59BC533F59CC534F52DEC8DF0E0
:1002F000D8A0B6D770C57AF57AC57BF50501CBBF16
:1003000005D0CAC573F5CBC574F504D0000E746F63
:10031000060E736F73C57EF574C57FF57E4B7F2B1C
:10032000660E7B19D8A416D081AF0CD0000E996F41
:10033000000E9A6F800E9B6F3F0E9C6F000E816FB8
:10034000000E806F670E7A19D8B404D080517E27D2
:1003500081517F23000E896F000E886F93C58AF547
:1003600094C58BF595C58CF596C58DF599C584F525
:100370009AC585F59BC586F59CC587F57BD08AC552
:100380002DF58BC52EF58CC52FF58DC530F599C58E
:1003900031F59AC532F59BC533F59CC534F565EC4E
:1003A00089F02DC546F52EC547F52FC548F530C552
:1003B00049F5B7EC8BF046C58EF547C58FF548C5B6
:1003C00090F549C591F58EC506F58FC507F590C521
:1003D00008F591C509F5FBEC8DF006C57CF507C560
:1003E0007DF58AC52DF58BC52EF58CC52FF58DC5F0
:1003F00030F58EC518F58FC519F590C51AF591C55C
:100400001BF599C514F59AC515F59BC516F59CC540
:1004100017F549EC86F014C531F515C532F516C54A
:1004200033F517C534F525EC90F02DC58AF52EC5AA
:100430008BF52FC58CF530C58DF599C52DF59AC571
:100440002EF59BC52FF59CC530F5000E316E000EC4
:10045000326E200E336E410E346E65EC89F02DC580
:1004600099F52EC59AF52FC59BF530C59CF505016C
:10047000884B892B7E51885D8951800A506E7F514F
:10048000800A5058D8A07BD799C514F59AC515F5A0
:100490009BC516F59CC517F5000E186E000E196E5B
:1004A000A00E1A6E400E1B6E49EC86F014C58EF538
:1004B00015C58FF516C590F517C591F58AC52DF5AB
:1004C0008BC52EF58CC52FF58DC530F58EC531F554
:1004D0008FC532F590C533F591C534F52DEC8DF00F
:1004E000D8B003D0000E050118D08AC506F58BC51B
:1004F00007F58CC508F58DC509F58EC50AF58FC5BC
:100500000BF590C50CF591C50DF504EC8FF0D8A056
:100510000BD005017CB108D0000E8E6F000E8F6FDE
:10052000000E906F000E916F93C506F594C507F508
:1005300095C508F596C509F58EC50AF58FC50BF565
:1005400090C50CF591C50DF5DFEC87F006C58AF571
:1005500007C58BF508C58CF509C58DF58AC52DF540
:100560008BC52EF58CC52FF58DC530F5000E186E98
:10057000000E196E200E1A6E410E1B6E84C514F506
:1005800085C515F586C516F587C517F549EC86F0BE
:1005900014C531F515C532F516C533F517C534F553
:1005A0002DEC8DF0D8A024D00501804B812B84C583
:1005B00014F585C515F586C516F587C517F5000E22
:1005C000186E000E196E200E1A6E410E1B6E49EC4D
:1005D00086F014C584F515C585F516C586F517C5CD
:1005E00087F5660E05017B19D8A402D07E4B7F2BC0
:1005F00084C599F585C59AF586C59BF587C59CF593
:1006000080C571F581C572F5000E0501796F000E88
:10061000766F000E756F000E896F000E886FCDD05B
:100620008AC52DF58BC52EF58CC52FF58DC530F5FA
:1006300099C531F59AC532F59BC533F59CC534F59E
:1006400065EC89F02DC546F52EC547F52FC548F553
:1006500030C549F5B7EC8BF046C58EF547C58FF52B
:1006600048C590F549C591F58EC506F58FC507F5C6
:1006700090C508F591C509F5FBEC8DF007BE06D0D5
:10068000075013E10A0E065CD8B00FD08EC506F5F0
:100690008FC507F590C508F591C509F5FBEC8DF000
:1006A00006C57CF507C57DF505D0000E05017D6FFB
:1006B000090E7C6F05017951D8B472AF20D0800E3D
:1006C0009725D96E060E9821DA6E2E0EDF6E974BA7
:1006D000982B8207D8A08307010E796F10D0800E67
:1006E0009725D96E060E9821DA6E300EDF6E974B85
:1006F000982B8207D8A083077507D8A07607755175
:100700007611D8A4ECD7800E9725D96E060E9821C5
:10071000DA6E7C51300FDF6E974B982B8207D8A092
:1007200083078AC52DF58BC52EF58CC52FF58DC594
:1007300030F58EC518F58FC519F590C51AF591C518
:100740001BF599C514F59AC515F59BC516F59CC5FD
:1007500017F549EC86F014C531F515C532F516C507
:1007600033F517C534F525EC90F02DC58AF52EC567
:100770008BF52FC58CF530C58DF599C52DF59AC52E
:100780002EF59BC52FF59CC530F5000E316E000E81
:10079000326E200E336E410E346E65EC89F02DC53D
:1007A00099F52EC59AF52FC59BF530C59CF5050129
:1007B0007107D8A07207884B892B7E51885D8951BB
:1007C000800A506E7F51800A5058D8B008D098BF28
:1007D00027D7985104E14B0E975DD8A021D7000E82
:1007E000896F4F0E886F800E8825D96E060E89217D
:1007F000DA6EDF6A800E506E060E516E9751505EB3
:100800009851515A88515024066E89515120076ED3
:10081000800E086E060E096E97C50AF598C50BF591
:1008200048EC90F09751885D976F98518959986F6F
:100830009251D8B402D0010E01D0000E886F896B9E
:100840009251D8B40BD09707D8A09807800E97255F
:10085000D96E060E9821DA6E92C5DFF48851825F58
:100860008951835B6AC517F56BC518F5800E97250E
:10087000196E060E98211A6E82C51BF583C51CF5EC
:1008800049EC8FF01200080E0001B16F04012095B1
:10089000C294CA942093C292CA92000E186F000E9E
:1008A000C16E000EC96E000E086F000EBF6E000E06
:1008B000C76E000E106F000EC06E000EC86E3F0EA9
:1008C0000201036F04010095C694000E436F000EF1
:1008D000446F050E456F000E476F4691468B468F5D
:1008E00000910181C680009B018BC68A0099BE9849
:1008F000C6982091C280CA900093000E0201026F38
:10090000BE82C69204010097000E0201046FBE86EB
:10091000C696000ED56F220ED46F810ED36F000ED7
:10092000596E110E5A6E000E576E000E566E56C559
:10093000D4F557C5D5F5D4C5D6F5D5C5D7F5000E30
:100940000501CF6F000ECE6FCEC5D0F5CFC5D1F566
:10095000D0C5D2F5D1C5D3F50201D189D18B04011F
:10096000009FC68E070E0201766F0401009DBE8CAB
:10097000C69C260E0201076FD28F000E0501BF6FC5
:10098000000EBE6FBEC5CCF5BFC5CDF5CDC5C1F45B
:10099000CCC5BFF4BE92DD0EBE25F66ECB0EBF21D8
:1009A000F76EF86A000EF8220800F5C4C0F4BE82A3
:1009B000BE4BBF2B800EBF5DD8A0E4D7000E040154
:1009C000186F1969C968000E086F0969C768000EB9
:1009D000106F1169C868000E186E240E196EF40E9F
:1009E0001A6E410E1B6E4351066E4451076E4551FF
:1009F000086E096A000E8DEC8CF006C514F507C56B
:100A000015F508C516F509C517F549EC86F014C5A6
:100A10002DF515C52EF516C52FF517C530F5000EA9
:100A2000316E240E326E740E336E490E346E65ECE8
:100A300089F02DC5BAF52EC5BBF52FC5BCF530C55F
:100A4000BDF5DD0E0501B06FFF0EB16FBAC5B2F591
:100A5000BBC5B3F5BCC5B4F5BDC5B5F5D7EC90F0D5
:100A6000000E0201616F050E626F1F0E636F000EB4
:100A70000001D56F000ED66F000ED86F010ED96F32
:100A8000020EDA6F7F0EDB6F010EDC6F080EDD6F7A
:100A9000100EDE6F400EDF6F800ED76F820ED66FA6
:100AA000010ED56F000ED66F000ED86F010ED96FF4
:100AB000020EDA6F7F0EDB6F010EDC6F040EDD6F4E
:100AC000100EDE6F400EDF6F800ED76F820ED66F76
:100AD000020ED56F000ED66F000ED86F020ED96FC2
:100AE0007F0EDA6F7F0EDB6F010EDC6F080EDD6F9D
:100AF000100EDE6F400EDF6F800ED76F820ED66F46
:100B0000040ED56F000ED66F350ED86F7F0ED96FDD
:100B10007F0EDA6F7F0EDB6F010EDC6F000EDD6F74
:100B2000000EDE6F000EDF6F020ED76F840ED66FE1
:100B3000010E0201046F020E026F050E056F550EC5
:100B40000401596FAA0E596F5991080E5D6F000E7E
:100B50005E6F000E5F6F550E596FAA0E596F598167
:100B6000B7A2FED7110E0201C96FA780D68EC2822E
:100B7000C2840001D4A9FDD7D1C4CDF5CFC4CCF532
:100B8000CEBA28D0800E0501CD19CC11D8A41DD025
:100B9000D69ECF5119E1800ECE5DD8B015D0000E93
:100BA000D225D96E060ED321DA6ED0C4DFF4010E41
:100BB000D225B86F000ED321B96F7F0EB815D26F52
:100BC000D36BCE4BCF2BA782D68ED69E0001D78576
:100BD000D7955DD0000EC86E0501CC051EE1800ED4
:100BE000CD19D8A41AD0D69E56505710D8B403D0D9
:100BF000B86BB82B02D00501B86B800ECE19CF119F
:100C0000D8B403D0B96BB92B02D00501B96BD89019
:100C1000B935B811C06ED68E31D0800ECD19CC1139
:100C2000D8A42BD0D69E56505710D8A402D0000E70
:100C3000F1D7000ED425D96E070ED521DA6EDF501C
:100C4000C06E010ED425B86F000ED521B96F7F0E8E
:100C5000B815D46FD56B5606D8A05706130E5A1880
:100C6000D8A4D9D70A0E56185710D8A4D4D7110E25
:100C70005A6E5AC559F5A782CED7C068D69ECEB453
:100C8000FED70001D785D795CEB0FED7C868D68EDF
:100C900070D71750800B206E17501724226E16BE87
:100CA00022802250D8B40DD02228D8A408D0000E1B
:100CB000146E000E156E000E166E000E176E168E58
:100CC00008D0000E146E000E156E000E166E000E8B
:100CD000176E1B50800B201A1B501B24216E1ABE4E
:100CE00021802150D8B40DD02128D8A408D0000EDE
:100CF000186E000E196E000E1A6E000E1B6E1A8E04
:100D000008D0000E186E000E196E000E1A6E000E3E
:100D10001B6E2150D8B403D02250D8A409D0000EA5
:100D2000146E000E156E000E166E000E176E120079
:100D30001A501402F3C42BF5F4C42CF52B50236E77
:100D4000246A256A266A2C50276E286A296A2A6A2C
:100D500019501502F3C42BF5F4C42CF52B5023269F
:100D6000000E2422252226222C502726000E28227F
:100D700029222A2218501602F3C42BF5F4C42CF5AC
:100D80002B502326000E2422252226222C502726F3
:100D9000000E282229222A2225C526F524C525F55C
:100DA00023C524F5236A18501502F3C42BF5F4C4A7
:100DB0002CF52B5023262C502422000E2522000E29
:100DC000262219501402F3C42BF5F4C42CF52B5031
:100DD00023262C502422000E2522000E262225C573
:100DE00026F524C525F523C524F5236A18501402D9
:100DF000F3C42BF5F4C42CF52B5023262C502422BD
:100E0000000E2522000E26221A501502F3C42BF5DF
:100E1000F4C42CF52B5027262C502822000E292212
:100E2000000E2A2219501602F3C42BF5F4C42CF537
:100E30002B5027262C502822000E2922000E2A2271
:100E40001A501602F3C42BF5F4C42CF52B501C6E6B
:100E50002C501D6E1E6A1F6A1EC51FF51DC51EF58E
:100E60001CC51DF51C6A1C5027261D5028221E502B
:100E700029221F502A2226502726000E2822292206
:100E80002A2225C526F524C525F523C524F5236A80
:100E9000215022C51CF51D6A1C26000E1D22820E43
:100EA0001C242B6EFF0E1D202C6E0FD0D8902736E1
:100EB000283629362A3626BE2780D890233624366F
:100EC000253626362B06D8A02C0629AEEFD7000EE5
:100ED000216E26AE17D0FF0E23141C6EFF0E2414B5
:100EE0001D6EFF0E25141E6E7F0E26141F6E1C50E5
:100EF0001D101E101F10D8B403D0010E216E02D099
:100F000027B0FBD72150D8B41FD0010E2726000EE2
:100F1000282229222A222AA017D027C51CF528C555
:100F20001DF529C51EF52AC51FF51F341F321E32B7
:100F30001D321C321CC527F51DC528F51EC529F517
:100F40001FC52AF52B4A2C2A2CBE0DD02C5003E1AC
:100F50002B28D8A008D0000E276E000E286E800E19
:100F6000296E7F0E20D02CBE05D02C500EE12B0414
:100F7000D8B00BD0000E276E000E286E000E296E22
:100F8000000E2A6E000E206E0FD02BC522F5FF0E2C
:100F90002716FF0E28167F0E2916000E2A1622B0DD
:100FA000298ED89022302A6E20502A1227C514F597
:100FB00028C515F529C516F52AC517F512000950DB
:100FC000800B126E09500924146E08BE1480145050
:100FD000D8B40DD01428D8A408D0000E066E000E88
:100FE000076E000E086E000E096E088E06D0000E09
:100FF000066E000E076E000E086E000E096E0D5094
:10100000800B136E12501318D8A4128C0D500D249F
:10101000136E0CBE13801350D8B40DD01328D8A46F
:1010200008D0000E0A6E000E0B6E000E0C6E000E45
:101030000D6E0C8E06D0000E0A6E000E0B6E000EAA
:101040000C6E000E0D6E1450135CD8B022D012AC92
:1010500002D0800E121A14C515F513C514F515C566
:1010600013F506C515F50AC506F515C50AF507C534
:1010700015F50BC507F515C50BF508C515F50CC518
:1010800008F515C50CF509C515F50DC509F515C506
:101090000DF5000E156E145013C50EF50F6A0E5E99
:1010A000000E0F5A0FBE2CD00F5004E11A0E0E5C2A
:1010B000D8A026D00650071008100910D8B402D0C6
:1010C000010E01D0000E156E000E066E000E076EAA
:1010D000000E086E000E096E13C514F515D015A08C
:1010E00005D0D89015300109156E02D0D890153270
:1010F00006B0158E09340932083207320632142A36
:101100001350145CD8A0EBD712BC28D01450D8A42C
:1011100009D0000E066E000E076E000E086E000E5F
:10112000096E12000A5006260B5007220C500822A6
:101130000D50092209A071D015A005D0D890153006
:101140000109156E02D0D890153206B0158E0934FB
:101150000932083207320632142A5FD00A50065C80
:101160000B5007580C5008580950800A0E6E0D504D
:10117000800A0E58D8B025D006500A5C0E6E075073
:101180000B580F6E08500C58106E09500D58116E08
:10119000FF0E0E24066EFF0E0F20076EFF0E1020AE
:1011A000086EFF0E1120096E800E121A156C155074
:1011B000D8A40FD0010E0626000E0722082209220D
:1011C00008D00A50065E0B50075A0C50085A0D50B2
:1011D000095A0650071008100910D8A41CD0155041
:1011E000D8A419D0000E066E000E076E000E086E11
:1011F000000E096E1200D8900636073608360936FA
:1012000015BE068015A002D0D88001D0D890153622
:101210001450D8A4140608AEEED7000E136E15AE07
:101220000BD015C50EF57F0E0E16D8B403D0010EE7
:10123000136E02D006B0FBD71350D8B420D0010EE5
:101240000626000E07220822092209A018D006C58A
:101250000EF507C50FF508C510F509C511F51134D0
:10126000113210320F320E320EC506F50FC507F5DA
:1012700010C508F511C509F51428D8A4142A142896
:10128000D8B403D01450D8A40DD0000E066E000EB2
:10129000076E000E086E000E096E1450D8A402D01E
:1012A000000E126E14A002D0088E01D0089ED890B5
:1012B0001430096E12BE098E06C506F507C507F57E
:1012C00008C508F509C509F512003050800B3D6EC0
:1012D00030503024446E2FBE44804450D8B40DD0DA
:1012E0004428D8A408D0000E2D6E000E2E6E000EDD
:1012F0002F6E000E306E2F8E06D0000E2D6E000E5B
:101300002E6E000E2F6E000E306E3450800B3D1A84
:1013100034503424456E33BE45804550D8B40DD08A
:101320004528D8A408D0000E316E000E326E000E93
:10133000336E000E346E338E06D0000E316E000E0A
:10134000326E000E336E000E346E31503210331098
:101350003410D8A417D0000E2D6E000E2E6E000E85
:101360002F6E000E306E800E2F127F0E30123D5009
:1013700030122DC52DF52EC52EF52FC52FF530C5F4
:1013800030F512004450D8A409D0000E2D6E000E86
:101390002E6E000E2F6E000E306E1200455044C5AA
:1013A00035F5366A355E000E365A7F0E35243E6EB0
:1013B000000E36203F6E2DC539F52EC53AF52FC5E6
:1013C0003BF530C53CF5000E2D6E000E2E6E000E66
:1013D0002F6E000E306E000E406E000E416E000E3D
:1013E000426E000E436E000E456E28D04550D8B4B4
:1013F00011D0D89039363A363B363C36D8902D3617
:101400002E362F36303643BE2D80D89040364136AA
:10141000423643363150395C32503A5833503B589B
:1014200034503C58D8A009D0438C3150395E3250EA
:101430003A5A33503B5A34503C5A452A190E4564A7
:10144000D5D739503A103B103C10D8B411D0408059
:101450000FD0D8902D362E362F36303643BE2D8005
:10146000D89040364136423643363E06D8A03F0635
:101470002FAEEFD7000E456E43AE17D0FF0E4014CF
:10148000356EFF0E4114366EFF0E4214376E7F0E1E
:101490004314386E3550361037103810D8B403D096
:1014A000010E456E02D02DB0FBD74550D8B41FD0E9
:1014B000010E2D26000E2E222F22302230A017D012
:1014C0002DC535F52EC536F52FC537F530C538F5A0
:1014D0003834383237323632353235C52DF536C5E7
:1014E0002EF537C52FF538C530F53E4A3F2A3FBEA9
:1014F00010D03F5003E13E28D8A00BD0000E3F6E25
:101500003E68000E2D6E000E2E6E000E2F6E000E29
:10151000306E3FBE05D03F5011E13E04D8B00ED032
:10152000000E3F6E000E3E6E000E2D6E000E2E6EF3
:10153000000E2F6E000E306E000E3D6E3EC544F55F
:1015400044A002D02F8E01D02F9ED8904430306E10
:101550000ED79FC5D9F4A0C5DAF4DEC4F6F4DDC415
:10156000F7F4000EF86E0800F550250AD8A4EAD06A
:101570009FC5D9F4A0C5DAF4DE2A000EDD22000EE4
:10158000C96F000EC86FC8C558F5CA69CB699FC539
:101590000CF5A0C50DF5A1C50EF5A2C50FF558ECCB
:1015A0008EF00CC5C8F50DC5C9F50501C9AF05D04C
:1015B0005880C86DC91FD8B0C92B9FC5D9F4A0C524
:1015C000DAF4DEC4F6F4DDC4F7F4000EF86E0800B9
:1015D000F5502E0AD8A415D09FC5D9F4A0C5DAF4C9
:1015E000DE2A000EDD229FC50CF5A0C50DF5A1C5B4
:1015F0000EF5A2C50FF558EC8EF00CC5CAF50DC559
:10160000CBF59FC5D9F4A0C5DAF4DEC4A8F5DDC4D6
:10161000A9F5A8C5F6F4A9C5F7F4000EF86E080000
:10162000F5C4A7F508D0A84BA92B18D06C0E01D093
:10163000000EA76F13D00501A751526E536A535085
:10164000000AD8A4F5D752504C0AD8B4ECD72A0ACD
:10165000D8B4ECD70A0AD8B4E6D7EAD7A8C5F6F4C6
:10166000A9C5F7F4000EF86E0800F550660AD8B464
:101670001AD060D0A1C5D9F4A2C5DAF4DFC452F5FE
:10168000040EDE26DFC453F5000EDD2252C5D9F468
:1016900053C5DAF4DEC4A3F5DEC4A4F5DEC4A5F5B3
:1016A000DEC4A6F50ED0A751526E536A5350000AFD
:1016B000D8A407D052504C0AD8B4DCD7200AD8B4EA
:1016C000D9D7010EA825526E000EA921536E9FC5D1
:1016D000D9F4A0C5DAF452C5DEF453C5DDF418D050
:1016E0009DC56AF59EC56BF5A3C56CF5A4C56DF5E2
:1016F000A5C56EF5A6C56FF5A8C5F6F4A9C5F7F49E
:10170000000EF86E0800F5C470F500EC80F01200D1
:10171000A8C5F6F4A9C5F7F4000EF86E0800F55058
:10172000526E536A5350000AD8A404D05250660A2D
:10173000D8B4D6D79FC5D9F4A0C5DAF4DE2A000EF6
:10174000DD2212009FC5D9F4A0C5DAF4DEC4F6F498
:10175000DDC4F7F4000EF86E0800F550076E086A55
:101760009DC509F59EC50AF5B4EC8EF0E3D7C0C55A
:1017700066F5C1C567F5C2C568F5C3C569F546C557
:1017800066F547C567F548C568F549C569F5810E31
:101790004A6EFF0E4B6E66C54CF567C54DF568C5C4
:1017A0004EF569C54FF5180E05D0D8904F324E3220
:1017B0004D324C32E82EF9D74C504A240501646F63
:1017C000000E4B20656F65BF0FD0655104E1170E09
:1017D000645DD8A009D046C546F547C547F548C55C
:1017E00048F549C549F5120065BF5CD064C54AF5A6
:1017F000FF0E4B6EFF0E4C6E7F0E4D6E000E4E6E4A
:101800004A6601D007D04E344E324D324C324B3204
:101810004A2EF6D74BC560F54CC561F54DC562F54E
:101820004EC563F50501605166154A6E6151671535
:101830004B6E625168154C6E635169154D6E4A507E
:101840004B104C104D10D8B4C6D766C54AF567C5C5
:101850004BF568C54CF569C54DF5200E05D0D890FF
:101860004D324C324B324A32E82EF9D74A50D8B476
:1018700008D0605166276151672362516823635124
:101880006923601D4A6E611D4B6E621D4C6E631DA7
:101890004D6E4A5066174B5067174C5068174D50A5
:1018A000691732D066C54AF567C54BF568C54CF572
:1018B00069C54DF5200E05D0D8904D324C324B32D3
:1018C0004A32E82EF9D74A6608D0000E666F000E3D
:1018D000676F000E686F000E16D0D89066354A6E9E
:1018E00067354B6E68354C6E69354D6E4A504B10FE
:1018F0004C104D10D8B408D0000E666F000E676F04
:10190000800E686FBF0E696F66C546F567C547F5FF
:1019100068C548F569C549F512000E6E0E50D8A489
:1019200009AE1AD006C50AF507C50BF508C50CF5B2
:1019300009C50DF50A1E0B1E0C1E0D1E0A2A000EEF
:101940000B220C220D220AC510F50BC511F50CC592
:1019500012F50DC513F508D006C510F507C511F52C
:1019600008C512F509C513F506500710081009102F
:10197000D8A409D0000E066E000E076E000E086E89
:10198000000E096E1200960E0F6E06D00F2AD89028
:101990001332123211321032000E10140A6E000E81
:1019A00011140B6E000E12140C6EFE0E13140D6E3D
:1019B0000A500B100C100D10D8B40DD0E7D70F2A19
:1019C000010E1026000E112212221322D89013327B
:1019D000123211321032000E10140A6E000E111461
:1019E0000B6E000E12140C6EFF0E13140D6E0A50C7
:1019F0000B100C100D10D8B407D0E1D70F06D890FB
:101A0000103611361236133612BE03D0020E0F6096
:101A1000F5D70FA0129ED8900F320FC50AF50B6AAA
:101A20000C6A0D6A0AC50DF50C6A0B6A0A6A0A503F
:101A300010120B5011120C5012120D5013120E50A6
:101A4000D8A409AE01D0138E10C506F511C507F54F
:101A500012C508F513C509F51200000E2D14356ED8
:101A6000000E2E14366E800E2F14376E7F0E30143B
:101A7000386E3550361037103810D8A408D0000E04
:101A80002D6E000E2E6E000E2F6E000E306E000EAC
:101A90003114356E000E3214366E800E3314376EEC
:101AA0007F0E3414386E3550361037103810D8A4E5
:101AB00008D0000E316E000E326E000E336E000E36
:101AC000346E30AE09D02D6C2E1ED8B02E2A2F1EAB
:101AD000D8B02F2A800E305634AE09D0316C321E69
:101AE000D8B0322A331ED8B0332A800E3456000EB6
:101AF0002D1A000E2E1A000E2F1A800E301A000E0C
:101B0000311A000E321A000E331A800E341A315078
:101B10002D5C32502E5833502F5834503058D8B096
:101B200002D0D8901200D8801200C4C510F5C5C5E7
:101B300011F5C6C512F5C7C513F506C510F507C5DD
:101B400011F508C512F509C513F510C50AF511C53B
:101B50000BF512C50CF513C50DF5180E05D0D89070
:101B60000D320C320B320A32E82EF9D70A500E6EC3
:101B70000F6A0E500F10D8A419D0D89010340A6EE6
:101B800011340B6E12340C6E13340D6E0A500B10A0
:101B90000C100D10D8A405D0000E076E020E066EB4
:101BA0001200000E076E030E066E12000E280F10B4
:101BB000D8A41CD010C50AF511C50BF512C50CF53B
:101BC00013C50DF5090ED8900A360B360C360D36B6
:101BD000E82EF9D70A500B100C100D10D8A402D023
:101BE000010E01D0000E066E076A1200000E076E8D
:101BF000040E066E1200083409340F6E0F50D8A47C
:101C000009D0000E066E000E076E000E086E000E64
:101C1000096E120006C50AF507C50BF508C50CF5D7
:101C200009C50DF5200E05D0D8900D320C320B32BF
:101C30000A32E82EF9D70A500E6E088EFF0E0616ED
:101C4000FF0E0716FF0E0816000E0916960E0F5E01
:101C50000FAE0DD00F50800A970FD8A0D2D7D890D2
:101C600009320832073206320F3EF9D70DD01F0E67
:101C70000F6407D0C6D7D89006360736083609361F
:101C80000F060F50D8A4F7D70E50D8B408D0091EAD
:101C9000081E071E066C000E07220822092206C530
:101CA00006F507C507F508C508F509C509F51200C9
:101CB000000E146E000E136E0CC5D9F40DC5DAF4C7
:101CC000DEC4F6F4DDC4F7F4000EF86E0800F5503B
:101CD0002A0AD8A433D00CC5D9F40DC5DAF4DE2A0B
:101CE000000EDD220EC5D9F40FC5DAF4DFC410F5FD
:101CF000020EDE26DFC411F5000EDD2210C5D9F478
:101D000011C5DAF4DEC413F5DDC414F528D013C50B
:101D100006F514C507F5000E096E0A0E086EEAEC0A
:101D200090F012500624136E000E0720146E0CC59E
:101D3000D9F40DC5DAF4DE2A000EDD220CC5D9F483
:101D40000DC5DAF4DEC4F6F4DDC4F7F4000EF86E67
:101D50000800F550D00F126E090E1264D8D713C5C3
:101D60000CF514C50DF5120009500A10D8B404D0B2
:101D700009500A10D8A404D00750FDEC90F01200CE
:101D800020EE0AF00950D9260A50DA22DE50DE1081
:101D9000D8B416D020EE0AF00950D9260A50DA221B
:101DA00010EE03F00950E1260A50E222DE50E65C14
:101DB000E650800A0F6EDE50800A0F58D8B012002D
:101DC00020EE03F00950D9260A50DA22DEC40BF5C2
:101DD000DDC40CF509C5D9F40AC5DAF4DEC40DF585
:101DE000DDC40EF50B500D24D96E0C500E20DA6EAA
:101DF00007C5DFF420EE03F00950D9260A50DA2295
:101E0000DE2A000EDD221200000E06140E6E000EF9
:101E100007140F6E800E0814106E7F0E0914116ED9
:101E20000E500F1010101110D8A408D0000E066E1E
:101E3000000E076E000E086E000E096E000E0A14EA
:101E40000E6E000E0B140F6E800E0C14106E7F0EB3
:101E50000D14116E0E500F1010101110D8A408D0D0
:101E6000000E0A6E000E0B6E000E0C6E000E0D6E54
:101E70000A5006180AE10B50071807E10C50081821
:101E800004E10D500918D8B402D0D8901200D880BF
:101E9000120058A00AD019C510F51AC511F517C5BA
:101EA00012F518C513F58BEC90F01CAE04D0000EA3
:101EB0001C6E000E1B6E000E1F6E000E1E6E0CD0F0
:101EC000000E086E200E076E17C509F518C50AF535
:101ED000B4EC8EF01E4A1F2A1B501E5C1F50800A55
:101EE0001D6E1C50800A1D58D8A0EAD758B01200A9
:101EF00019C510F51AC511F517C512F518C513F552
:061F00008BEC90F01200D2
:101F0800C7C205F5575027E1800E565CD8B01100BE
:101F1800000E0501D625D96E070ED721DA6E05C544
:101F2800DFF4010ED625036E000ED721046E7F0E56
:101F38000314D66FD76B564A572A110E5A18D8A4CD
:101F48001100400E56185710D8A41100130E5A6EDF
:101F58005AC559F5A78211005950D8B40BD059C5A4
:101F6800C9F2000E596E0501CE51CF11D8A4110047
:101F7800A79211000501CE51CF11D8B4F9D7000EA0
:101F8800D025D96E060ED121DA6EDF500201C96F55
:101F9800010E0501D025016E000ED121026E7F0EC3
:101FA8000114D06FD16BCE07D8A0CF071100ACC5F4
:101FB80054F5ADC555F50FD0AAC59DF5ABC59EF531
:101FC800540E05019F6F050EA06FAEC5A1F5AFC5F4
:101FD800A2F5A9EC8AF054C5F6F455C5F7F4000E3D
:101FE800F86E0800F5500009D8A4E6D7000E0501E0
:101FF800AB6F000EAA6F120009BE09D006C506F520
:1020080007C507F508C508F509C509F5120006C58D
:102018000AF507C50BF508C50CF509C50DF50A1E27
:102028000B1E0C1E0D1E0A2A000E0B220C220D225E
:102038000AC506F50BC507F50CC508F50DC509F564
:102048001200000E311A000E321A000E331A800EDA
:10205800341A2DC506F52EC507F52FC508F530C568
:1020680009F531C50AF532C50BF533C50CF534C58C
:102078000DF5DFEC87F006C52DF507C52EF508C56B
:102088002FF509C530F5120008C50FF509C510F57B
:1020980006C50DF507C50EF510D00FC5D9F410C546
:1020A800DAF4DF500C6E0F4A102A0DC5D9F40EC5AC
:1020B800DAF40CC5DFF40D4A0E2A0A06D8A00B067E
:1020C8000A28EBE10B28D8B41200E7D701EE00F399
:1020D800800EEE6AE806FDE101EE00F2D00EEE6A2F
:1020E800E806FDE101EEC0F1180EEE6AE806FDE132
:1020F8005A6A596A586A576A566A0401080E5D6F27
:10210800000E5E6F000E5F6F000143EF84F0000E5B
:10211800166E000E156E0BD014C507F5086A12C5A9
:1021280009F513C50AF5B4EC8EF0154A162A1550B0
:102138001024D96E16501120DA6EDF50146E145028
:10214800D8B41200E9D706C50AF507C50BF508C5C6
:10215800F6F409C5F7F4084A092A000EF86E0AC50C
:10216800D9F40BC5DAF40A4A0B2A0800F5C4DFF4DF
:10217800DF50D8B41200EBD706500710081009102A
:10218800D8B408D0000E061A000E071A000E081A56
:10219800800E091A06C506F507C507F508C508F52E
:1021A80009C509F51200B20EB66F050EB76F000E1D
:1021B800AA6F000EAB6FB0C5ACF5B1C5ADF5B60EE4
:1021C800AE6F050EAF6FDBEC8FF012000650080201
:1021D800F3C40AF5F4C40BF506500902F3500B26B4
:1021E80007500802F3500B260AC506F50BC507F57C
:0E21F8001200066EB7A2FED706C5C9F212008D
:022208001100C3
:020000040030CA
:080000008CFFFFF79FFFFFFFDB
:01000900FFF7
:00000001FF
