:0400000081EF00F09C
:10000800D609D609D609D6094000D6094000D6092E
:10001800AD09D609D609D609D609D609D609D60909
:10002800D609400040004000D609D609D609D609AD
:10003800D609D609D609D609D609D609D609D609C0
:10004800D609D609D609D60940004000D609D609EE
:10005800D609D609D6094000D609D609D609D6093F
:10006800B309D609D609D609D609D609D609D609B3
:10007800D609D609D609D6094000D609D609D6091F
:10008800D609D609D609D609D609D609D609D60970
:10009800D609D609D609D6094000D609400040003D
:1000A800B909D609D609D609D609D609D609D6096D
:1000B800D609D609D609D609D609D609D609D60940
:1000C800D609D609D609D609D609D609D609D60930
:1000D800D609D609D609D609D609D609D609D60920
:1000E8004000D609D609D60940004000400040002B
:0E00F800D609D609D609D609FF007EEF13F00F
:102500000000010EBE6E000EBF6E000EC06E000E0B
:10251000C16E000EC26EFE0EC66EC768C868C9687E
:102520000F0ECA6EFE0E0401006FFE0E086F1069DA
:102530001869070E206F000E016F010E096F000E63
:10254000116F000E196F000E216F000E026F000E4A
:102550000A6F000E126F000E1A6F000E226F0369D1
:102560000B6913691B69070E236F04690C691469F1
:102570001C690F0E246F000E0201896F000E886F18
:10258000000E876F000E866F000E0401056F000EAF
:10259000066F000E076F000E0D6F000E0E6F000E1F
:1025A0000F6F000E156F000E166F000E176F000EE6
:1025B000256F000E266F000E276F1200D68A000EC0
:1025C000D6BE010E0A6ED69E550E596FAA0E596FD1
:1025D0005991000E5F6F000E5E6F080E5D6F550E15
:1025E000596FAA0E596F59810AB002D0D69E01D0F8
:1025F000D68EAF90D6805A0E076E270E086E000E4C
:10260000096EA5EC13F0B490D6825C0E076E270E0F
:10261000086E000E096E9EEC13F0B890D6845E0E24
:10262000076E270E086E000E096E97EC13F012006D
:10263000115012101310D8B4120001D81200050066
:10264000FA6E1150FD6E1250FE6E1350FF6EFA506E
:1026500012000E500F101010D8B4120001D8120042
:102660000500FA6E0E50FD6E0F50FE6E1050FF6E9C
:10267000FA5012000B500C100D10D8B4120001D8F3
:1026800012000500FA6E0B50FD6E0C50FE6E0D50E0
:10269000FF6EFA501200600E0001AD6F000EAF6FBA
:1026A000000EB36F080EB16F000EB06F400EAC6F2E
:0226B000120016
:1026B400FAC401F5FBC402F5AF9018EC13F002C59F
:1026C400FBF401C5FAF41100FAC403F5FBC404F5E4
:1026D400B49029EC13F004C5FBF403C5FAF411001B
:1026E400FAC405F5FBC406F5B8903AEC13F006C538
:1026F400FBF405C5FAF411000401080E5D6F000E29
:102704005E6F000E5F6F000188EF13F090EC13F022
:10271400CFA002D0BE80FCD7BE90FAD74BEC13F00A
:1027240081EC12F0DEEC12F0120007C50BF508C5BF
:102734000CF509C50DF5120007C50EF508C50FF512
:1027440009C510F5120007C511F508C512F509C52C
:0C27540013F51200110012001200120018
:020000040030CA
:080000008CFFFFF79FFFFFFFDB
:01000900FFF7
:00000001FF
