:0400000081EF00F09C
:100008003E0A3E0A3E0A3E0A40003E0A40003E0AB8
:100018003A0A3E0A3E0A3E0A3E0A3E0A3E0A3E0A9C
:100028003E0A4000400040003E0A3E0A3E0A3E0AA0
:100038003E0A3E0A3E0A3C0A3E0A3E0A3E0A3E0A7A
:100048003E0A3E0A3E0A3E0A400040003E0A3E0A78
:100058003E0A3E0A3E0A40003E0A3E0A3E0A3E0A60
:100068003E0A3E0A3E0A3E0A3E0A3E0A3E0A3E0A48
:100078003E0A3E0A3E0A3E0A40003E0A3E0A3E0A40
:100088003E0A3E0A3E0A3E0A3E0A3E0A3E0A3E0A28
:10009800070AFD093E0A3E0A40003E0A40004000A9
:1000A8003E0A3E0A3E0A3E0A3E0A3E0A3E0A3E0A08
:1000B8003E0A3E0A3E0A3E0A3E0A3E0A3E0A3E0AF8
:1000C8003E0A3E0A3E0A3E0A3E0A3E0A3E0A3E0AE8
:1000D8003E0A3E0A3E0A3E0A3E0A3E0A3E0A3E0AD8
:1000E80040003E0A3E0A3E0A4000400040004000F0
:0E00F8003E0A3E0A3E0A3E0AFF0020EF14F0C8
:10250000003031323334353637383941424344456F
:05251000460D0A000069
:102516001D0E206E050E216E000E236EC80E226E55
:1025260027EC13F0276E2750D8B418D0132A64EC82
:1025360014F012504FEC13F011504FEC13F0110E33
:10254600216EBAEC13F011C56DF412C56EF46984F0
:102556001D0E206E050E216E6DEC14F01B0E206E06
:10256600050E216E000E236E280E226E27EC13F048
:10257600276E2750D8B407D029801B0E206E050E73
:10258600216E6DEC14F099EC13F04EEC14F0120081
:10259600080E0001B16F040108910981C780D69029
:1025A600AF909F80F00E006F000EBE6EF00EC66EEE
:1025B60076EC13F031EC14F041EC14F0FBEC12F075
:1025C600000E1A6E000E136E000E126E000E116EC5
:1025D60029902880D68E1D0E206E050E216E6DEC7C
:1025E60014F01B0E206E050E216E6DEC14F0120019
:1025F600C890C892180E0201116F190E126F000EC4
:10260600606E020E616E000E626E3F0E636E060E07
:10261600646E030E656E000E666E000E676E000E2B
:10262600686E000E6A6E200E6B6E030E6C6E400EA8
:102636006D6E000E6E6EB29CB29E67906792A29E01
:10264600A29C800E696E1200000E266E20C5D9F47B
:1026560021C5DAF4DE2803E1DE28D8B41BD020C574
:10266600D9F421C5DAF4DE2A000EDD2220C5D9F41C
:1026760021C5DAF42250DE5C2350DE58D8A00AD0F9
:1026860020C5D9F421C5DAF4FF0EDE6EFF0EDD6E2D
:10269600010E266E26501200236E23C521F5213A1F
:1026A6000F0E21160F0E21162150010F226E22C584
:1026B600F6F4250EF76E000EF86E0800F550E7ECFE
:1026C60013F023C521F50F0E21162150010F226E9E
:1026D60022C5F6F4250EF76E000EF86E0800F550CA
:1026E600E7EC13F01200010E0201D56FA00ED46FB5
:1026F600D189D18B0401009FC68E070E0201766F29
:102706000401009DBE8CC69C260E0201076FD28F67
:10271600A780000E196E000E186E000E176E000EC2
:10272600166E000E156E000E146E1200D2EC13F02B
:10273600236E0BD0FF001200000E136E120028B09D
:1027460002D028801200289012002350216E226A9F
:102756002250000AD8A412002150720AD8B4EAD72F
:10276600070AD8B4ECD70F0AD8A41200E5D70BD0C5
:1027760021C5F6F4250EF76E000EF86E0800F5502A
:10278600E7EC13F0212A21C5F6F4250EF76E000EAC
:10279600F86E0800F5500009D8B41200E9D7000E0B
:1027A600206E1750D8B40ED0090E1824D96EDA6AE6
:1027B600050EDA22DF50206E1828070B186EA79038
:1027C6001706A78020501200206E080E14600DD048
:1027D600010E1624D96EDA6A050EDA2220C5DFF458
:1027E6001628070B166EA792142AA78212001450F9
:1027F600D8B40ED0010E1524D96EDA6A050EDA2287
:10280600DF500201C96F1528070B156E140611005B
:04281600A792110074
:10281C00C7C21FF5080E17601100090E1924D96ED6
:10282C00DA6A050EDA221FC5DFF41928070B196EB8
:10283C00172A1100296A01EE01F11E0EEE6AE80654
:10284C00FDE10401080E5D6F000E5E6F000E5F6F00
:10285C0000015AEF14F0010E0301266F000E256FD4
:10286C00000E276F7C0E236F000E226FB196A1868F
:10287C00F00E246F1200F351F30B0409F36FF3897C
:10288C000C0EEC6FC788040108890301F38F12004A
:10289C0013500F0BBE6E29A0120028A003D02B0ED4
:1028AC00E7EC13F029901200CBEC12F0040E1A6432
:1028BC00FDD7000E1A6E8BEC12F0F8D70301F381E2
:1028CC00F3B1FED7EBC312F5EAC311F5120020C524
:1028DC00D9F421C5DAF4DE6ADD6A1200AF90132A4E
:0228EC001100D9
:0628F000B1961A2A110046
:0228F8001100CD
:020000040030CA
:080000008CFFFFF79FFFFFFFDB
:01000900FFF7
:00000001FF
