:0400000081EF00F09C
:10000800FE09FE09FE09FE094000FE094000FE093E
:10001800F809FE09FE09FE09FE09FE09FE09FE09A6
:10002800FE09400040004000FE09FE09FE09FE09E5
:10003800FE09FE09FE09FA09FE09FE09FE09FE0984
:10004800FE09FE09FE09FE0940004000FE09FE09FE
:10005800FE09FE09FE094000FE09FE09FE09FE0927
:10006800FE09FE09FE09FE09FE09FE09FE09FE0950
:10007800FE09FE09FE09FE094000FE09FE09FE0907
:10008800FE09FE09FE09FE09FE09FE09FE09FE0930
:10009800FC09FE09FE09FE094000FE094000400077
:1000A800FE09FE09FE09FE09FE09FE09FE09FE0910
:1000B800FE09FE09FE09FE09FE09FE09FE09FE0900
:1000C800FE09FE09FE09FE09FE09FE09FE09FE09F0
:1000D800FE09FE09FE09FE09FE09FE09FE09FE09E0
:1000E8004000FE09FE09FE094000400040004000B3
:0E00F800FE09FE09FE09FE09FF0096EF13F057
:10250000003031323334353637383941424344456F
:05251000460D0A000069
:10251600080E0A6E050E0B6E000E0D6EC80E0C6EC2
:10252600F6EC12F0116E1150D8B413D0042ADAEC7E
:1025360013F002501EEC13F001501EEC13F0110EB6
:102546000B6E67EC13F0080E0A6E050E0B6EE3ECCD
:1025560013F0060E0A6E050E0B6E000E0D6E280E9B
:102566000C6EF6EC12F0116E1150D8B407D0138031
:10257600060E0A6E050E0B6EE3EC13F045EC13F037
:10258600C4EC13F01200080E0001B16F04010891AB
:102596000981C780D690AF909F80F00E006F000E25
:1025A600BE6EF00EC66E7FEC13F0A7EC13F0B7EC20
:1025B60013F0000E056E000E046E000E036E000E84
:1025C600026E000E016E13901280D68E080E0A6EF1
:1025D600050E0B6EE3EC13F0060E0A6E050E0B6E7F
:1025E600E3EC13F01200000E106E0AC5D9F40BC509
:1025F600DAF4DE2803E1DE28D8B41BD00AC5D9F404
:102606000BC5DAF4DE2A000EDD220AC5D9F40BC5A5
:10261600DAF40C50DE5C0D50DE58D8A00AD00AC59C
:10262600D9F40BC5DAF4FF0EDE6EFF0EDD6E010E79
:10263600106E105012000D6E0DC50BF50B3A0F0EF5
:102646000B160F0E0B160B50010F0C6E0CC5F6F485
:10265600250EF76E000EF86E0800F550EAEC13F042
:102666000DC50BF50F0E0B160B50010F0C6E0CC59E
:10267600F6F4250EF76E000EF86E0800F550EAEC3B
:1026860013F012000FD0FF001200000E046E000EB1
:10269600036E120012B002D0128001D01290000E0A
:1026A600036E120003500A6E0B6A0B50000AD8A480
:1026B60012000A50720AD8B4E6D7070AD8B4EAD785
:1026C6000F0AD8A41200E1D70BD00BC5F6F4250EDD
:1026D600F76E000EF86E0800F550EAEC13F00B2AC0
:1026E6000BC5F6F4250EF76E000EF86E0800F550D1
:1026F6000009D8B41200E9D7010E0201D56FA00E69
:10270600D46FD189D18B0401009FC68E070E0201BA
:10271600766F0401009DBE8CC69C260E0201076FD3
:10272600D28FA7801200136A01EE01F1090EEE6A3C
:10273600E806FDE10401080E5D6F000E5E6F000EF7
:102746005F6F0001D0EF13F0010E0301266F000E3C
:10275600256F000E276F7C0E236F000E226FB19639
:10276600A186F00E246F1200F351F30B0409F36FE8
:10277600F3890C0EEC6FC788040108890301F38FF7
:10278600120004500F0BBE6E13A0120012A003D04D
:102796002B0EEAEC13F013901200C6EC12F0040EA6
:1027A6000564FDD7000E056E8BEC12F0F8D7030119
:1027B600F381F3B1FED7EBC302F5EAC301F51200CC
:1027C6000AC5D9F40BC5DAF4DE6ADD6A12000A6EB0
:1027D600B7A2FED70AC5C9F21200AF90042A1100AB
:0627E800B196052A110064
:0627F000C7C203F5110051
:0227F8001100CE
:020000040030CA
:080000008CFFFFF79FFFFFFFDB
:01000900FFF7
:00000001FF
